:100000000C9482020C94C9020C94C9020C94C9028B
:100010000C94C9020C94C9020C94C9020C94C90234
:100020000C94C9020C94C9020C947A290C944E2A9F
:100030000C947A210C94C9020C94C9020C94C90244
:100040000C94C9020C94C9020C94C9020C94C90204
:100050000C94C9020C94D1210C94C9020C94C902CD
:100060000C94C9020C94C9020C94C9020C94C902E4
:100070000C94C9020C94C9020C94C9020C94C902D4
:100080000C94C9020C94C9020C94C9020C94C902C4
:100090000C94C9020C94C9020C94C9020C94C902B4
:1000A0000C94C9020C94C9020C94C9021E001F00D2
:1000B000200021002200230000002400250026004B
:1000C00027001E001E001F00200021002200230028
:1000D000000024002500260027001E001E001F002F
:1000E000200021002200230000002400250026001B
:1000F00027001E0000000000000000002A2B28003E
:1001000000000000000000000000000000000029C6
:10011000000000002C1E3420212224342627252E06
:10012000362D3738271E1F2021222324252633333E
:10013000362E37381F0405060708090A0B0C0D0E6A
:100140000F101112131415161718191A1B1C1D2F36
:100150003130232D350405060708090A0B0C0D0E56
:100160000F101112131415161718191A1B1C1D2F16
:100170003130354C0000000000000000000000009D
:1001800000000000000000007E0F00D4FFFFFFC74A
:100190000000007832190A00047F3F1F64321464A3
:1001A0003214783C1E1E140A052223252628292AEB
:1001B0002C2D2F3032333536383A3B3D3E404243CA
:1001C0004547494A4C4E5051535557595A5C5E6009
:1001D00062646668696B6D6F71737577797B7D7F1B
:1001E00081838587898A8C8E90929496989A9C9E1A
:1001F0009FA1A3A5A7A8AAACAEAFB1B3B4B6B8B936
:10020000BBBCBEBFC1C2C3C5C6C7C9CACBCCCDCE9D
:10021000D0D1D2D2D3D4D5D6D7D7D8D9D9DADADB80
:10022000DBDBDCDCDCDCDCDDDDDDDDDCDCDCDCDC0C
:10023000DBDBDBDADAD9D9D8D7D7D6D5D4D3D2D24B
:10024000D1D0CECDCCCBCAC9C7C6C5C3C2C1BFBE33
:10025000BCBBB9B8B6B4B3B1AFAEACAAA8A7A5A39E
:10026000A19F9E9C9A98969492908E8C8A8987855D
:1002700083817F7D7B79777573716F6D6B6968663C
:100280006462605E5C5A5957555351504E4C4A490E
:1002900047454342403E3D3B3A3836353332302FB6
:1002A0002D2C2A292826252322FFAA7F554000012C
:1002B0000101010101010101020202020202020226
:1002C00002030303030303030304040404040404F8
:1002D00005050505050606060606070707070708BC
:1002E000080808090909090A0A0A0B0B0B0C0C0C6F
:1002F0000D0D0D0E0E0E0F0F0F1010111111121209
:1003000013131414151516161717181819191A1A85
:100310001B1B1C1D1D1E1E1F2020212222232424E6
:10032000252626272829292A2B2C2D2D2E2F303122
:100330003232333435363738393A3B3C3D3E3F4034
:100340004142434445464748494A4C4D4E4F50511F
:100350005354555658595A5B5D5E5F6162646566D9
:1003600068696B6C6D6F7072737577787A7B7D7E60
:100370008082838587888A8C8E8F91939596989AB0
:100380009C9EA0A2A3A5A7A9ABADAFB1B3B5B7BAC8
:10039000BCBEC0C2C4C6C9CBCDCFD1D4D6D8DBDD9C
:1003A000DFE2E4E7E9EBEEF0F3F5F8FAFDFF1C031A
:1003B0005300680069006E006E00790075002D0022
:1003C00053006800610069006E00000014037300B0
:1003D0006800750072006900790061006D006100BD
:1003E00000000403090409025B00030100A0FA09EC
:1003F0000400000103010100092111010001224054
:10040000000705810308000A090401000203000037
:1004100000092111010001222200070582032000AA
:100420000107050303200001090402000103000085
:1004300000092111010001224F000705840320005B
:100440000A12011001000000081827010000010134
:100450000200010660FF0961A1010962150026FF83
:10046000009520750881020963150026FF0095207C
:1004700075089102C005010902A10185020901A1C7
:10048000000509190129051500250195057501814A
:100490000295017503810105010930093115812596
:1004A0007F95027508810609381581257F950175AC
:1004B000088106050C0A38021581257F950175080B
:1004C0008106C0C005010906A101050719E029E759
:1004D00015002501950875018102950175088101B6
:1004E0000507190029FF150026FF009506750881EC
:1004F00000050819012905950575019102950175F9
:10050000039101C011241FBECFEFDAE0DEBFCDBFE3
:1005100004B603FE27C08091610290916202A0910F
:100520006302B09164028730904BA740B04BD1F486
:1005300010926102109262021092630210926402A1
:1005400014BE84B7877F84BF0FB6F894A8958091B6
:100550006000886180936000109260000FBEE0E050
:10056000F8E3099511E0A0E0B1E0EAE6FBE502C09E
:1005700005900D92AE36B107D9F722E0AEE6B1E0B4
:1005800001C01D92A136B207E1F70E9440260C94EB
:10059000642D0C94000081E0089581E008950C948E
:1005A000CD0208950C94D1021F93CF93DF9300D016
:1005B00000D00F92CDB7DEB749835A836B83309159
:1005C000B80189819A8131111DC06623B9F02223B7
:1005D000A9F00E94DE1E182F682F89819A810E943F
:1005E000891E69817A81812F0F900F900F900F9053
:1005F0000F90DF91CF911F910C9472120E94B61E42
:10060000182FEFCF0E94DE1E69817A81EDCFFC01A9
:10061000262F408151816281738184810C94D402A0
:10062000CF93DF93EC0160E00E940703BE01DF91EE
:10063000CF910C94D202FF920F931F93CF93DF932D
:10064000E82FF0E0EC50FF4FF490C82FC695C69508
:10065000C695D0E0FE01EC57FE4F0491877010E084
:10066000082E02C0159507950A94E2F7017011272C
:10067000CC58DE4FFE01C491D0E002C0D595C7959D
:100680008A95E2F7C170DD270115110519F081EE99
:100690000E94B716209719F086EE0E94B7168F2D8C
:1006A0000E948517CD2B19F086EE0E942F17012B83
:1006B00041F081EEDF91CF911F910F91FF900C944B
:1006C0002F17DF91CF911F910F91FF900895EF9217
:1006D000FF920F931F93CF93DF93EC01162F0AE045
:1006E0008881882309F454C0813009F04EC0898183
:1006F000813099F47E0122E0E20EF11C8A810E9491
:100700008517E7012196812F815050F3EFE9FFE033
:100710003197F1F700C00000F7CF823041F47E013D
:1007200082E0E80EF11C8A810E94B716EACF83307E
:1007300041F47E01E2E0EE0EF11C8A810E942F1747
:10074000E0CF843011F02196DDCF2A81229690E00F
:1007500080E0AE014F5F5F4F2053330B2A303105ED
:1007600048F0019778F2EFE9FFE03197F1F700C028
:100770000000F7CF089FB001099F700D1124C90137
:10078000860F971F2981EA01E4CF0E941B03BACF8D
:10079000DF91CF911F910F91FF90EF90089560E04E
:1007A0000C9467038F929F92AF92BF92CF92DF9289
:1007B000EF92FF920F931F936B017C0181E090E019
:1007C000A0E0B0E04C015D0104C0880C991CAA1C9B
:1007D000BB1C4A95D2F7B501A4014C015D0104C0D0
:1007E000880C991CAA1CBB1C2A95D2F748295929A8
:1007F0006A297B2904C0880F991FAA1FBB1F0A956D
:10080000D2F78A019B010C211D212E213F210417C3
:1008100015072607370789F48C299D29AE29BF299A
:10082000BC01CD011F910F91FF90EF90DF90CF9011
:10083000BF90AF909F908F90089580959095A095D0
:10084000B0958C219D21AE21BF21EACF0F93382F87
:10085000262F6091FB017091FC018091FD01909128
:10086000FE01042F432F0E94D2030F910C94C71D49
:100870000E9408220E942820811102C00E94CC20E0
:100880000C9489060C948C0608950E94F0190E941D
:1008900044042FEF84E39CE0215080409040E1F736
:1008A00000C000000C94F5210F931F93CF93DF93AA
:1008B000EC0161E00E9407038C01BE010E94491017
:1008C000882389F1BE01C8010E94CF02882359F113
:1008D000BE01C8010E94C813882329F1BE01C801C6
:1008E0000E941A148823F9F0BE01C8010E943D1528
:1008F0008823C9F0BE01C8010E94560F882399F0D1
:100900008A81882339F001158CE5180751F00F3DD5
:100910001C4579F0CE01DF91CF911F910F910C947E
:10092000CB020E94450480E0DF91CF911F910F918F
:1009300008950E94CC20F7CF08950C949C0481E088
:1009400008950C949F04CF93C82F0E949D048C2F70
:10095000CF910C94A10490E080E008950895FC01EB
:10096000EE0FFF1FEC56FE4F859194910895CF93A3
:10097000DF930E9472120E94AE05EC01811521E501
:100980009207E8F5811530E5930708F09BC08F3F8B
:10099000910509F0F0F4803F910508F085C0803E94
:1009A000910580F4803C910508F080C0813091056C
:1009B00061F0009751F00497813A910530F0D0E052
:1009C000C0E003C0883E9105D0F7CE01DF91CF9102
:1009D00008958115904338F4C11580E2D807A8F333
:1009E000CE019F7065C0C11590E4D90708F067C0BB
:1009F000CE019927D3FF60C0EC01D86CE6CF8115FA
:100A000025E5920700F5811534E5930708F08EC0BF
:100A1000811543E5940708F076C0C11582E5D80733
:100A200008F46CC0CE018370992721E030E002C049
:100A3000220F331F8A95E2F7C695C69580E2C89FBC
:100A4000E001112457C0C11599E5D907A8F4C115D3
:100A500028E5D20708F06FC0C11536E5D30708F0C6
:100A6000AECF8C2F0E944506C82FD0E0DC2FCC27BC
:100A7000CC27DF71D062A9CFC1154AE5D40708F4AD
:100A80005FC0CE0190568115904208F098CF8D2F0F
:100A90008F710E94450690E0982F882788279F71C4
:100AA0009C012C2BE901E6CFD0658FCF805C9109AA
:100AB0000E94AF04EC0189CFEC01D06C86CFDF70CF
:100AC000D06A83CFE4E096958795EA95E1F7837045
:100AD0002C2F26952695237040E2249F9001112407
:100AE000382B8C2F8370C1E0D0E002C0CC0FDD1F0B
:100AF0008A95E2F7C22BD32BDC6867CFDC2FCC279B
:100B0000C16FD06A62CF8370992721E030E002C0C4
:100B1000220F331F8A95E2F7C695C69590E2C99FCA
:100B2000E0011124C22BD32BDA684FCFD82FCC276A
:100B3000C46FD06A4ACFDC2FCC27C06FD06A45CFB4
:100B40008C2F8F700E94450634E0D695C7953A9554
:100B5000E1F7CF709C2FEC01D06937CF8238910537
:100B6000B1F1B0F48133910509F475C048F48932CC
:100B7000910509F469C08A32910509F473C008959A
:100B80008533910509F459C08933910501F1089520
:100B9000833E9105A9F138F4803E9105F9F0823E3B
:100BA000910549F10895863E9105A9F1873E910589
:100BB000C9F1843E910519F52091530221FF1FC010
:100BC0008091520284FD14C087EE90E00895209138
:100BD00052022370A1F080EE90E00895209152021D
:100BE00020FD47C03091530230FF09C024FF44C0AC
:100BF00090E080E004C02091520222FDF7CF0895DA
:100C00002091520222FD3BC03091530230FDE3CFD0
:100C100024FFF5CFEDCF2091520223FFF0CF24FD2A
:100C2000E7CFD2CF2091520223FD2CC03091530246
:100C300031FFEECF84EE90E008952091520225FF1F
:100C4000DECF89E290E008952091520225FFD7CFB0
:100C500085E390E008952091520226FFD0CF8AE2EA
:100C600090E008952091520226FFC9CF81E390E0E1
:100C7000089589E390E0089583EE90E0089582EE70
:100C800090E0089586EE90E008959091520292FFD0
:100C900006C0282F28712830F9F4877F846093FFDD
:100CA00006C0282F28712831F1F4877E84612091B5
:100CB000530220FF06C0382F38713830D9F4877FAF
:100CC000816021FF06C0282F28712831D1F4877E4A
:100CD000816194FD877E0895282F24712430F9F6D0
:100CE0008B7F8860DCCF282F2471243101F78B7E25
:100CF0008861DDCF382F3171313019F78E7F8860F0
:100D0000E0CF282F2171213121F78E7E8861E1CF3C
:100D100008950C94880608950C948B06E82FF0E053
:100D2000E35DFD4F80810895089580EA8A95F1F78B
:100D30000895F894E82FE295EF70F0E031A1282FA4
:100D40002F7081E090E001C0880F2A95EAF7982F74
:100D50009095932391A392A1892B82A378940895CF
:100D600086E30E94990682E30E94990683E30E942B
:100D7000990687EF0E94990685E30E94990684E30D
:100D80000E94990686EC0E949906A9E2B2E01C92A4
:100D9000EDE2F2E0108211961C92119711821296E8
:100DA0001C921297128213961C92138284E00E9466
:100DB00050070C943804CF92DF92EF92FF920F937A
:100DC0001F93CF93DF93CFE2D1E009E212E0D12C61
:100DD000EE24E394F12C8991F894E82FE295EF70DA
:100DE000F0E021A18F70A70102C0440F551F8A9522
:100DF000E2F7CA01922F982B91A392A180958923A3
:100E000082A378940E949506ECE2F1E030E020E0C5
:100E1000C12C4191A42FA295AF70B0E090968C9117
:100E200090E04F7002C0959587954A95E2F780FD56
:100E300033C08E2D022E01C0880F0A94EAF7C82A0B
:100E40002F5F3F4F2330310521F7FE01319780811D
:100E50000E949906F8018081C81601F1C08281E0E4
:100E6000D82A0F5F1F4FF1E0C333DF0709F0B3CF7C
:100E70002D2D44E06DE272E089E292E00E9451077C
:100E80000E9442048D2DDF91CF911F910F91FF9011
:100E9000EF90DF90CF90089580E0D1CF80E0E0CF59
:100EA0000895FF920F931F93CF93DF93F82E092F8E
:100EB000162FD72FC42F222349F081E08093700191
:100EC0000E94AA2190936F0180936E01809170011E
:100ED0008823A1F080916E0190916F010E94C22140
:100EE000069760F0EF2DF02FA12FBD2FCE0FDF2F33
:100EF000D11DEC17FD0741F410927001DF91CF91E5
:100F00001F910F91FF90089581918D93F2CFEF92F1
:100F1000FF920F931F93CF93DF93EB01E82FD11133
:100F200010C0442321F0F0E0E255FD4FE4916E2F14
:100F30007E2F8E2FDF91CF911F910F91FF90EF9019
:100F400008950D2F10E0282F30E0442329F022557A
:100F50003D4FF901249130E0F6E0CF9FC00111240C
:100F6000EFEFF0E0BF010E940C2CAB018C2F90E062
:100F7000880F991FA5E5A49FB001A59F700D1124AE
:100F8000861B970B982F990F980FBF01601B710B51
:100F9000629FD001639FB00D729FB00D11248B2F03
:100FA0009D9FB0011124672F7727EF01C61BD70B38
:100FB000BE01629FE001639FD00D729FD00D11248E
:100FC0007F01E91AF108E09EB001E19E700DF09EEC
:100FD000700D1124672F7727E61BF70BE29F800126
:100FE000E39F100DF29F100D1124E12F722F42305C
:100FF000510599F048F44115510569F0413051050A
:1010000081F0EB2F8D2F07C04430510569F080F03F
:1010100046305105B1F76E2F8DCFE22F7B2F812FF8
:10102000FACFE22F7D2FF7CFEB2F822F712FF3CF47
:101030007B2F822FED2FEFCF41E00C94870708958F
:101040000C941C08CF93DF93762FE901682F842F2F
:101050000E942008798368838A83DF91CF91089565
:1010600080913102982F9E7F29F481708260809355
:10107000310208958635E8F381708465F8CF88E001
:1010800090E00C94052DCF92DF92EF92FF926B01CE
:101090007C010E943008B701A60188E090E0FF9033
:1010A000EF90DF90CF900C94232D609131027091DE
:1010B000320280913302909134020C944308E1E3B0
:1010C000F2E083E0808311828FEF82838383148236
:1010D000A6EAB1E012968C911297836012968C93D7
:1010E00060817181828193810C94430880913102E7
:1010F00080FF02C08695089580E0089590913502A2
:10110000933018F49F5F90933502882351F06091DB
:1011100031027091320280913302909134020C942A
:101120004308089581E00C947E089091350299233C
:1011300019F0915090933502882351F0609131025B
:101140007091320280913302909134020C944308E2
:10115000089581E00C94950880913502089580935C
:101160003502662351F06091310270913202809114
:101170003302909134020C944308089560E00C947B
:10118000AF088091320208958091330208958091D2
:101190003402089570E00C94C60F609108018091AC
:1011A000310280FF0AC08091070123E0829FC001C5
:1011B00011248A5C9D4F0C94CA088091090190917A
:1011C0000A0123E0829FF0011124EA5CFD4F891798
:1011D00050F71182108212828F5F3396F8CF909170
:1011E000310290FF14C09091090120910A0133E06F
:1011F000939FF0011124EA5CFD4F921710F00C94BC
:10120000CD088183608342839F5F3396F6CF089534
:10121000CF93DF9300D00F92CDB7DEB7909131021C
:1012200090FF0AC09E012F5F3F4F0E9422084B8112
:1012300069818A810E94EF080F900F900F90DF91D3
:10124000CF910895CF93DF93EC01EC81F0E0E75567
:10125000FE4F4491E1E3F2E0628181810E9408093E
:101260008C818F5F8C83DF91CF910895CF93DF9333
:10127000EC01E1E3F2E0438162818C810E94080984
:101280008C818F5F8C83DF91CF9108950F931F9393
:10129000CF93DF9300D00F92CDB7DEB78C01809152
:1012A000710181110AC09E012F5F3F4F4FEF6FEF19
:1012B0000E9422088A8180937101F8016481613063
:1012C00069F08091710140E0662361F040E0623096
:1012D00011F44091710180E060E004C060917101FF
:1012E00040E080E00E94EF08F801848190E00196E0
:1012F00063E070E00E94202C84830F900F900F9089
:10130000DF91CF911F910F910895AF92BF92CF922D
:10131000DF92EF92FF920F931F93CF93DF9300D052
:101320000F92CDB7DEB7182FF62E042FE22E909134
:10133000310290FF3AC0E92FE695AE2FB0E0AD5CE8
:10134000BE4F8C918093A6019E7F9230E1F59E0165
:101350002F5F3F4F812F0E9422084B8169818A8134
:101360000E94EF0880913202811308C080913302FD
:101370008F1104C080913402801729F08091A80158
:1013800082608093A80110933202F092330200939E
:101390003402EE2051F0609131027091320280915E
:1013A0003302909134020E9443080F900F900F90E7
:1013B000DF91CF911F910F91FF90EF90DF90CF9031
:1013C000BF90AF900895823019F400913402CACFD3
:1013D000863019F410913202C5CF8930D9F38931A2
:1013E00009F6E9518E2F8170D82EE695F0E0E75589
:1013F000FD4FA590B490C12CBB2460910B01C61683
:1014000018F00E94CD08AECF2C2D30E0A29EC00176
:10141000A39E900DB29E900D112470E00E940C2CA2
:10142000812FD11013C0860F40910901420F532F15
:10143000511D9A01220F331F240F351F2A5C3D4F87
:10144000402F6F2D0E942208C394D7CF861BECCF6C
:10145000E1E3F2E09181282F438162818AE0890FE4
:101460000C94850981E00C94280AE1E3F2E0918173
:10147000282F4381628186EF890F0C94850981E0D2
:101480000C94350AE1E3F2E0628121E1620F08F495
:101490006FEF282F438181810C94850981E00C94A2
:1014A000420AE1E3F2E0628121E1621B08F460E0BC
:1014B000282F438181810C94850981E00C94510A85
:1014C000E1E3F2E0438121E1420F08F44FEF282FDE
:1014D000628181810C94850981E00C94600AE1E3CA
:1014E000F2E0438121E1421B08F440E0282F6281B1
:1014F00081810C94850981E00C946F0A20E00C94A2
:101500008509EF92FF921F93CF93DF93EC0110E0D8
:10151000EE24EA94F12C60910B01161770F00E94F2
:10152000CD089A818C8190FF27C08F5F8C83DF91DB
:10153000CF911F91FF90EF90089520910901422FC4
:10154000410F5527551FCA019A01220F331F280F3B
:10155000391F2A5C3D4F70E0C7010E94202C962F56
:101560008C814091340260913302199F800D1124C7
:101570000E9422081F5FCFCF8150D8CF9F92AF9299
:10158000BF92CF92DF92EF92FF920F931F93CF9370
:10159000DF93EC018A81BB24BA9480FD02C0BB2496
:1015A000B3948C8181110AC081E0B81227C0809168
:1015B0000B0181508093730181E08C83A12C809179
:1015C0000B01A816F0F00E94CD088091730191E004
:1015D000B9125DC0811156C080910B01815080937A
:1015E00073011C82DF91CF911F910F91FF90EF90BB
:1015F000DF90CF90BF90AF909F90089510927301AD
:10160000DBCF00910901CA2CD12C0C0D1D2D111D11
:10161000C801880F991F080F191F0A5C1D4FF80198
:1016200011821082128234E0E32EF12C912C8091F1
:101630007301890D893004F18770082E000C990B15
:10164000C816D90691F4809134028E9DA0018F9D19
:10165000500D1124559547955595479598016091E2
:101660003302809132020E9422089B0CF1E0EF1AB3
:10167000F108E9F6A394A3CF87FFDFCF90910B0188
:10168000890FDBCF815080937301BC82ABCF90E098
:10169000019660910B0170E00E94202C80937301F1
:1016A0008C83A0CFEF92FF920F931F93CF93DF9382
:1016B000EC018C81811109C081E08C831092720150
:1016C00092E0909306018093050180910901909129
:1016D0000A0123E0829FF0011124EA5CFD4F891783
:1016E00068F110E003E060910B01161768F10E94A9
:1016F000CD088091050120917201280F209372017D
:1017000090910601980F90930601191654F4022E39
:10171000000C330B40910B014150550B241735073A
:1017200034F0819580930501813009F41C82DF91AA
:10173000CF911F910F91FF90EF9008951182108229
:1017400012828F5F3396CBCFE12EF12C70E0C70170
:101750000E94202C20910901820F482F50E02091F7
:101760007201022E000C330BE216F306BCF020913E
:101770000601022E000C330B2E153F057CF0809FD6
:10178000900111242A5C3D4F409134026091330254
:10179000809132020E9422081F5FA5CFFA01EE0F4E
:1017A000FF1FE40FF51FEA5CFD4F118210821282C9
:1017B000F3CF8F929F92AF92BF92CF92DF92EF9230
:1017C000FF920F931F93CF93DF93EC014C81042F73
:1017D00010E09801D8010E946B2C9B01AC010E9483
:1017E000812C4B015C01E0E2F0E0E01BF10BA5E590
:1017F000B0E0AC019B010E94812C6B017C019F0138
:10180000DF010E94632C9B01AC010E948C2C9B0188
:10181000AC01280D391D4A1D5B1DC701B6010E9490
:10182000342CF22E822F90E039E23F1560F143E034
:10183000249F9001112435952795122F109500E0D3
:1018400085E5E82EEF1880910B01081758F10E94EA
:10185000CD089C8181E0992319F0903219F48FEF23
:101860008093040180910401890F8C83DF91CF91D3
:101870001F910F91FF90EF90DF90CF90BF90AF90AE
:101880009F908F90089525E530E0B901681B790B92
:101890009B01220F331F260F371F37FFCCCF2F5F3F
:1018A0003F4FC9CF8E2D01FD8F2D20910901622F51
:1018B000600F7727771F9B01220F331F260F371FDB
:1018C0002A5C3D4F412F609133020E9422080F5F36
:1018D000BACF0F931F93CF93DF93EC0110E000E09A
:1018E00090910B019017110609F06CF40E94CD083D
:1018F0008C8190E00196817099278C83DF91CF9144
:101900001F910F91089520910901A801420F511DC7
:101910009A01220F331F240F351F2A5C3D4F4C8143
:10192000609133028091320296959017110651F022
:101930004CF0442349F0409134020E9422080F5F8A
:101940001F4FCECF4423B9F340E0F7CF8F929F9241
:10195000AF92BF92CF92DF92EF92FF920F931F93BD
:10196000CF93DF93FC01B280948081E0848300E018
:1019700015E05BE4A52E88248394EE24EA94F12CF0
:101980007BE4C72ED12C80910B01081770F0DF91FA
:10199000CF911F910F91FF90EF90DF90CF90BF906C
:1019A000AF909F908F900C94CD08C02FD0E01C9FDB
:1019B000F0011D9FF00D1124E958FE4F91101CC03D
:1019C0001382128220910901CE01820F911D9C0188
:1019D000220F331F280F391F2A5C3D4F1C9FF00137
:1019E0001D9FF00D1124E958FE4F428161818081D5
:1019F0000E9422080F5FC7CF2381222379F1215053
:101A0000238334818A2D821B311101C0822F1C9FB8
:101A1000F0011D9FF00D1124E958FE4F9091340202
:101A2000899FC0011124B6010E940C2C62832111F0
:101A300004C0332311F01482A38222E02B1510F28C
:101A40001C9FF0011D9FF00D1124E958FE4F80915D
:101A500032028083809133028183B4CF0E94E02CD4
:101A6000823091400CF0AECF82E08B1530F50E94B1
:101A7000E02CB7010E94202C1C9FF0011D9FF00D4F
:101A80001124E958FE4F808322E02B15C8F40E94F0
:101A9000E02C209133022695622F70E00E94202CCA
:101AA000280F1C9FF0011D9FF00D1124E958FE4FD7
:101AB00021831282A382848285CF80913202DCCF7F
:101AC00020913302EECFE6EAF1E011828281846058
:101AD00082830895E1E3F2E080818E7F80830E941B
:101AE000630DE6EAF1E08281816082832FEF80E777
:101AF00092E0215080409040E1F700C000000C943B
:101B0000CD08E1E3F2E080818E7F80836081718186
:101B1000828193810E9443080E94630DE6EAF1E00E
:101B20008281816082832FEF80E792E021508040A4
:101B30009040E1F700C000000C94CD0860913102A4
:101B4000669570E04BE050E08CE091E00E94F02C54
:101B5000892B19F481E08093A7010E94AA21909318
:101B6000A00180939F018091A80184608093A801C7
:101B700008959091310290FF3AC0917081112DC06B
:101B80009260909331028091A80181608093A801B6
:101B9000662351F0609131027091320280913302DC
:101BA000909134020E94430860913102669570E082
:101BB0004BE050E08CE091E00E94F02C892BA1F0EA
:101BC0000E94630D81E08093A201409134026091F4
:101BD0003302809132020C947E0A8B3210F09465AD
:101BE000D0CF880F982BCDCF0E949E0DEBCF0895BC
:101BF000682F90913102969581E0890F8B3208F021
:101C000081E00C94B90D81E00C94F80D682F90914F
:101C1000310296958FEF890F09F48AE20C94B90D81
:101C200081E00C94060E61E00C94B90DE1E3F2E062
:101C300080818160808386950C94130E809131029F
:101C400080FD0C94810D0C94160E60E00C94B90D7F
:101C50008091A501811133C00E942820811104C008
:101C60000E94CC200E945F080E943F0860933102CE
:101C70007093320280933302909334028091A801D2
:101C800083608093A8016E7F61F40E945F080E94C8
:101C90003F08609331027093320280933302909335
:101CA00034020E9430080E94630D8091310280FF4F
:101CB00003C086950E94250E81E08093A5010895BA
:101CC000E1E3F2E080818160808386950C94250EAB
:101CD000EF92FF920F931F93CF93DF938091A70111
:101CE000882309F468C08091A601E0913102E6954D
:101CF000E81BE093A101823009F064C0F0E0EB55ED
:101D0000FE4FE491CE2FD0E002E219E08091A201D3
:101D1000882389F01092A2010E94AA219E01209599
:101D20003095820F931F9093A00180939F01109292
:101D3000A4011092A30180919F019091A0010E94A3
:101D4000C2218C179D07B8F1809176018823B1F0EC
:101D50001092760180917401909175010E94C221C8
:101D60008033954758F00E94AA2190937501809383
:101D700074018091A80188608093A801E090A3017C
:101D8000F090A401E0919F01F091A001CE0FDF1F20
:101D9000D093A001C0939F018FE991E0F8010995CC
:101DA0008091A3019091A401892B29F4EF2819F0C7
:101DB00081E080937601DF91CF911F910F91FF9089
:101DC000EF900895863049F4F0E0EE55FE4FE4912F
:101DD000CE2FD0E006E319E099CF893051F4E69593
:101DE000F0E0E156FE4FE491CE2FD0E001E81AE09A
:101DF0008DCF8F3051F4E695F0E0E456FE4FE4913C
:101E0000CE2FD0E00EEB1AE081CF853149F4F0E01F
:101E1000E756FE4FE491CE2FD0E002E51BE076CFEF
:101E2000C8E2D0E009ED1BE0883109F46FCF8332BE
:101E300039F4E7E9F1E0C591D49106E419E066CF01
:101E4000C4EFD1E009E61CE0843209F45FCFC0EDB5
:101E5000D7E00FE118E0853209F058CF8E2F63E00C
:101E60000E94002CE92FF0E0EC56FE4FE491CE2FBB
:101E7000D0E006EA1CE04ACFFA01811101C0FB0163
:101E80000994CF93DF93C82FD62F0E9476088C1722
:101E900040F00E9476088D1720F4DF91CF910C94CA
:101EA000030E8C2FDF91CF910C94130E0F931F9381
:101EB000CF938C01FB01C281CC2309F465C00E9441
:101EC000731F8272F801E35CFC45E431F10538F4DC
:101ED000EA59F24D0C94562C0E941E0EC0E08C2F35
:101EE000CF911F910F91089540E15EE063E07EE0A5
:101EF0000E943C0FF3CF43E05EE060E17EE0F8CF6C
:101F00004FE35AE062E37AE0F3CF42E35AE06FE353
:101F10007AE0EECF4DE55AE06EE47AE0E9CF4EE4A8
:101F20005AE06DE57AE0E4CF4BE75AE06CE67AE000
:101F3000DFCF4CE65AE06BE77AE0DACF49EA58E0C7
:101F400062E978E0D5CF42E958E069EA78E0D0CF9D
:101F500081E00E94130EC2CF65E082E00E94410F33
:101F6000BDCF68E086E0FACF6EE089E0F7CF64E1AC
:101F70008FE0F4CF67E185E1F1CF88E1EACF62E25B
:101F800089E1ECCF83E2E5CFC1E0A9CF539A4BB111
:101F9000477F5BB15860EFB7F8949B01220F331F66
:101FA000260F371F280F391F2817390741F4EFBFB5
:101FB0008FE594E00197F1F700C000000895DC017F
:101FC0006D91CD0178E05BB9000000C067FF4BB9AF
:101FD000660F000000C000C000C04BB900C07A9579
:101FE00091F7E2CF82E290E00E94FD2C813289F4E9
:101FF00083E290E00E94FD2C853059F484E290E069
:102000000E94FD2C91E0823009F090E0892F8170D0
:10201000089580E0FCCFCF93C82F6FEF811161E26C
:1020200082E290E00E94112D6FEFC11165E083E222
:1020300090E00E94112D6FEFC11162E084E290E008
:10204000CF910C94112D80E00E940B100C94222053
:10205000089585E290E00E94FD2C682F70E090E0EA
:1020600080E0089585E290E00C94112D0E942810E4
:102070000E94F20F81110CC060E070E0CB010E9461
:1020800032100E94EC110E94D61281E00C940B10C9
:102090000895CF93FB01C281CC2309F19C01225109
:1020A0003F452031310520F582510E94E612C0E003
:1020B0008C2FCF91089581E00E94ED1D43E062E0F6
:1020C00081E00E942604F3CF81E00E940E1E43E0CF
:1020D00062E081E00E942604EBCF82E0F6CF8031FF
:1020E000FFE59F0789F381319F45B9F3C1E0E0CF58
:1020F0008031EFE59E07F9F281319F45C9F682E014
:10210000DBCF2FEFFC0120830895CF93DF93EC0109
:1021100088818138A9F028F4803871F0DF91CF915F
:102120000895823881F08338C9F70E94C1088983F5
:102130000E94C4088A83F2CF0E94C7088983EECF29
:102140000E947608FBCF0E94AC08F8CFCF93DF93B4
:10215000EC0188818138E1F028F4803869F0DF9162
:10216000CF910895823811F18338C9F70E94C708CA
:10217000482F6A81898108C0D9810E94C408C82F6C
:102180000E94C1084D2F6C2FDF91CF910C947E0AD5
:1021900089810E94250E8981811104C0DF91CF9130
:1021A0000C946A0DDF91CF910C94600E8981DF91C0
:1021B000CF910C94BE08EF92FF920F931F93CF9391
:1021C000DF93EC01062FDC01ED91CD01E150E3310D
:1021D00008F0BFC0F0E0E658F24D0C94562C19827E
:1021E00089E08A83602FCE01DF91CF911F910F91FB
:1021F000FF90EF900C9434258981823069F0833010
:1022000071F08130D9F40E94B6210E945C2C6A835F
:102210007B838C839D83E6CF0E942910F6CF7E01BD
:10222000B2E0EB0EF11C10E0812F0E948E06F70148
:1022300081937F011F5F1430B9F7D4CF602FCE0197
:102240000E948110CFCF89818230C1F76A817B8162
:102250008C819D810E945C2C0E943210C3CF4B81E7
:102260006A8189810E94BE119827892798279D83BA
:102270008C83B8CF2C813D813227232732274B8195
:102280006A8189810E94D711ADCF0E94EC11AACF3B
:102290000E94A610A7CF0E948510A4CF0E945508C7
:1022A000A1CF0E947F1289839DCF0E94811298271F
:1022B000892798279A83898395CF6B8170E08981DC
:1022C0009A81AE014C5F5F4F9827892798270E941B
:1022D000841288CF6B8170E089819A81AE014C5F56
:1022E0005F4F9827892798270E94AB127BCF0E94C7
:1022F000D61278CF0E94AC11D6CF6B8170E0898165
:102300009A81AE014C5F5F4F9827892798270E94DA
:10231000241268CF6B8170E089819A81AE014C5F95
:102320005F4F9827892798270E9449125BCF0E9408
:10233000231058CFCE010E943425FFEF21EE84E018
:10234000F15020408040E1F700C000000E94F521DC
:1023500049CF8FEF888346CF83E0089550E0440F44
:10236000551F96E0699F400D511D112498E1899FEA
:10237000400D511D1124CA01869608950F931F9395
:10238000CF93DF930E94AE118C010E94FD2CC82FC9
:10239000D0E0DC2FCC27C80101960E94FD2C9E01C5
:1023A000282BC901DF91CF911F910F9108950F93B1
:1023B0001F93CF93DF93122F032F0E94AE11EC01D6
:1023C000602F0E94112D612FCE010196DF91CF91D8
:1023D0001F910F910C94112DAF92BF92CF92DF926B
:1023E000EF92FF921F93CF93DF938CEAC82E80E089
:1023F000D82ED0E07601C0E014C0F50125913491CB
:10240000412F6C2F8D2F0E94D71182E0A80EB11C96
:102410001F5F133091F786E0E80EF11CCF5FC430E8
:1024200019F0570110E0E9CFDF5F88E1C80ED11C39
:10243000D33001F7DF91CF911F91FF90EF90DF90A4
:10244000CF90BF90AF900895EF92FF920F931F939C
:10245000CF93DF93EC018A017C01E60EF71ECE01DB
:102460008696CE15DF0539F4DF91CF911F910F913C
:10247000FF90EF900895C834D10540F40E94FD2CE0
:10248000F80180830F5F1F4F2196E9CFF80110827A
:10249000F9CFCF92DF92EF92FF920F931F93CF93DA
:1024A000DF937C016A018C01060F171FEC01CE013E
:1024B0008696C017D10749F4DF91CF911F910F91F4
:1024C000FF90EF90DF90CF900895C834D10540F48D
:1024D000FE01EE19FF09EC0DFD1D60810E94112D1A
:1024E0002196E5CF462F833038F4743028F46330DA
:1024F00018F4672F0C94BE1190E080E0089580E1FD
:10250000089582E993E00895EF92FF920F931F934D
:10251000CF93DF93EC018A017C01E60EF71ECE011A
:1025200082599F4FCE15DF0539F4DF91CF911F916E
:102530000F91FF90EF900895C23923E0D20740F445
:102540000E94FD2CF80180830F5F1F4F2196E7CF7B
:10255000F8011082F9CFCF92DF92EF92FF920F93A2
:102560001F93CF93DF937C016A018C01060F171F25
:10257000EC01CE0182599F4FC017D10749F4DF917A
:10258000CF911F910F91FF90EF90DF90CF90089522
:10259000C23923E0D20740F4FE01EE19FF09EC0D29
:1025A000FD1D60810E94112D2196E3CFCF93DF9313
:1025B000CEE6D0E060E0CE010E94112D2196C1153B
:1025C00084E0D807B9F7DF91CF910895DF92EF92B9
:1025D000FF920F931F93CF93DF9300D000D0CDB71E
:1025E000DEB7F82E8FE08F1540F08FEF93E00E945A
:1025F000FD2C0EE610E08823C1F00F900F900F9095
:102600000F90DF91CF911F910F91FF90EF90DF908E
:102610000895011584E0180781F3C8010E94FD2C7C
:10262000811101C0FA940F5F1F4FF110F2CF198290
:102630001A821B821C82DD24D39478018FEFE81A62
:10264000F80AC8010E94FD2C89831A828823A9F206
:102650009FEF980F933078F48A83D9820E5F1F4FD3
:10266000C7010E94FD2C8B83882339F2CE0101968D
:102670000E94CF03E2CF8701F9CFAF92BF92CF92F2
:10268000DF92EF92FF920F931F93CF93DF937C0122
:102690005B01C42FD22FFC0182818823F9F0409383
:1026A000AB010E94AA219093AA018093A90180E224
:1026B0008C0F883008F061C0C77081E001C0880FBE
:1026C000CA95EAF7DF91CF911F910F91FF90EF909C
:1026D000DF90CF90BF90AF900C9498171091AB0102
:1026E000141340C08091A9019091AA010E94C221B7
:1026F0006C01B701C5010E94661CC816D90690F589
:10270000C0E2CD0F1D17B9F080E2810F883040F490
:10271000177081E001C0880F1A95EAF70E949F1791
:10272000C83048F481E09D2F977001C0880F9A95BA
:10273000EAF70E949817802F0E948517C830E8F4A6
:10274000D77081E001C0880FDA95EAF7DF91CF9169
:102750001F910F91FF90EF90DF90CF90BF90AF90BF
:102760000C949F1780E28C0F883038F4C77081E09A
:1027700001C0880FCA95EAF7E9CFDF91CF911F9189
:102780000F91FF90EF90DF90CF90BF90AF900895A2
:102790000F939C01CB01243F4CE5340759F1A8F479
:1027A000293DFCE53F0701F12A3D4CE53407D1F115
:1027B000283D3C4591F406E221EE41EE68ED7CE5D2
:1027C0000E943D1380E00F910895263FFCE53F07EE
:1027D000E9F0B0F0273F3C45F9F0FC018281882305
:1027E00039F11092AB01EFCF07E225EE45EE69ED2E
:1027F0007CE5E6CF06E221EE40EE64EF7CE5E0CF3B
:1028000007E225EE44EE65EF7CE5DACF06E221EE45
:1028100042EE66EF7CE5D4CF07E225EE46EE67EFA9
:102820007CE5CECF08E221E045EE6AED7CE5C8CF3D
:1028300081E0C9CFCF93DF93EC01FB018281882334
:1028400009F419C1C230FCE5DF07C0F1C6319CE5CF
:10285000D90730F09E012B5F3C452930310570F5DA
:102860000E943B209093530280935202C031ECE5CA
:10287000DE0709F4CFC008F05BC0C8308CE5D8078C
:1028800009F4B6C088F5C430ECE5DE0709F4A8C049
:10289000C0F4C2308CE5D80709F49CC08091520284
:1028A0008260C330DC4509F498C080915202909157
:1028B00053020E9449200E94F01980E0DF91CF91DD
:1028C0000895809152028061C630ECE5DE0709F47C
:1028D00084C0809152028860C730DC4508F47DC016
:1028E00080915202806279C0CC308CE5D80709F41F
:1028F00089C070F4809152028C60CA30ECE5DE072A
:1029000009F46BC008F478C0809152028E7F65C0D4
:10291000CE308CE5D80709F479C0809152028B7FC4
:10292000CF30DC4508F459C0809152028F7E55C0EB
:10293000CC3FECE5DE0709F457C030F5C3318CE538
:10294000D80709F46FC078F4C131ECE5DE0709F46B
:1029500065C0C231DC4509F0A8CF0E94F019809112
:1029600052028F773AC0C5318CE5D80709F462C0AE
:1029700008F476C0809153028160CB3FDC4509F0BA
:1029800094CF8093530291CFC115FDE5DF0709F481
:102990004DC088F4809153028D7FCE3F9CE5D907CE
:1029A00081F3809153028E7FCF3FDC4550F38091BD
:1029B00053028360E6CFC230FDE5DF0709F459C05A
:1029C00008F444C080E0C330DD4509F06ECF0E94BA
:1029D000CE206BCF8091520281608093520265CFEE
:1029E000809152028460F9CF809153028260C9CFF6
:1029F000809152028064F1CF0E94F01980915202BE
:102A00008068EBCF809152028D7FE7CF8091520298
:102A1000877FE3CF809152028F7DDFCF809152027A
:102A20008F7BDBCF80915202837FD7CF809153027F
:102A30008C7FA7CF8091520282FB992790F921E0E9
:102A4000922790FB82F990FB83F9C7CF80915302C4
:102A5000982F909591708E7F892B90FB81F991CF63
:102A60000E94F01990915202892F97FB87F98058A4
:102A7000B4CF81E0ACCF81E021CFCF93DF93EB01E6
:102A800086319C4511F50E94731F9A81992399F014
:102A90008A7A91E009F490E09093AC01811109C029
:102AA00089E20E944E1F0E94BF1F80E0DF91CF91FC
:102AB000089585E3F6CF8091AC01811104C089E2CD
:102AC0000E94551FF0CF85E3FBCF81E0EFCF9093BD
:102AD000B2018093B1010895E091B101F091B2018A
:102AE000309721F00190F081E02D099480E0089565
:102AF000E091B101F091B201309721F00280F381B1
:102B0000E02D09940895E091B101F091B201309760
:102B100039F022E0DC012C930480F581E02D09944A
:102B200008952091AF013091B0012817390771F055
:102B30009093B0018093AF01E091B101F091B201A7
:102B4000309721F00680F781E02D099408952091B7
:102B5000AD013091AE012817390771F09093AE01A5
:102B60008093AD01E091B101F091B201309721F075
:102B70000084F185E02D0994089585B7806885BFAC
:102B800085B7806885BF0895089508950C94C4158D
:102B900008950C94C8150E94BD150E94C5150C948B
:102BA000C61581E008950C94D115089508950E94EA
:102BB000A1210E94B0060E9436100E941C220E9491
:102BC000280E0C94C915BF92CF92DF92EF92FF921C
:102BD0000F931F93CF93DF93CDB7DEB72A970FB62E
:102BE000F894DEBF0FBECDBF0E94D5150E94D6154A
:102BF0000E94DB060E94D315882309F468C034EBD9
:102C0000C32E31E0D32E10E000E0B02E802F0E94C2
:102C10008E06E82EF601F1906F01F81609F451C006
:102C20008091100281FD0E9494068F2D8E25F82F31
:102C3000F170FF2E80FD3FC081FD3FC082FF41C08B
:102C400082E024E0F22E8E83BF82EF2081E009F43F
:102C500080E088870E94AA218160782F9A878987DF
:102C60004E815F8168858A850E948816F801EC5440
:102C7000FE4F8081F826F0820E94680E0E94C723D2
:102C80000E946C159091B301891791F10E946C1507
:102C90008093B3012A960FB6F894DEBF0FBECDBF66
:102CA000DF91CF911F910F91FF90EF90DF90CF9028
:102CB000BF900C94A30480E0C6CF81E092E0F92E8F
:102CC000C2CF0F5F1F4F0430110509F09ECF8FEF69
:102CD00089838A831B820E94AA218160782F9D8329
:102CE0008C8349815A816B818D810E948816C4CF63
:102CF0002A960FB6F894DEBF0FBECDBFDF91CF91FD
:102D00001F910F91FF90EF90DF90CF90BF900895AB
:102D1000CF93DF93CDB7DEB72B970FB6F894DEBF16
:102D20000FBECDBF4F83588769877A878B871E82F6
:102D30001D8285E0FE013796DE01119601900D920D
:102D40008A95E1F749815A816B817C818D819E81D1
:102D50002B960FB6F894DEBF0FBECDBFDF91CF919B
:102D60000C94691CFC01808191810C94201FCF93ED
:102D7000C82F882309F471C08238C1F40E946C15F1
:102D800081FD6BC089E30E944E1F0E94BF1F2FEF81
:102D900081EE94E0215080409040E1F700C00000B7
:102DA00089E30E94551FCF910C94BF1F8338A1F473
:102DB0000E946C1580FD51C083E50E944E1F0E9449
:102DC000BF1F2FEF81EE94E0215080409040E1F74B
:102DD00000C0000083E5E5CF8438A1F40E946C15A3
:102DE00082FD3BC087E40E944E1F0E94BF1F2FEF51
:102DF00081EE94E0215080409040E1F700C0000057
:102E000087E4CFCF8CEF8C0F813A90F46C2F8091B8
:102E10001701909118010E94E520882329F08C2F3A
:102E20000E94551F0E94BF1F8C2F0E944E1FBBCFB8
:102E300080E28C0F883048F4C77081E001C0880FB1
:102E4000CA95EAF70E94761FAECFC03F30F08C2FB4
:102E50000E94C122CF910C94AC23CF910895882376
:102E600009F452C0823871F40E946C1581FF4CC085
:102E700089E30E944E1F0E94BF1F89E30E94551FD5
:102E80000C94BF1F833859F40E946C1580FF3CC01E
:102E900083E50E944E1F0E94BF1F83E5EFCF843859
:102EA00059F40E946C1582FF2FC087E40E944E1FC8
:102EB0000E94BF1F87E4E2CF9CEF980F913AF0F297
:102EC00090E2980F983050F4877091E001C0990F0C
:102ED0008A95EAF7892F0E947C1FD2CF9BE5980F35
:102EE000933020F490E080E00C94911598E5980FD1
:102EF000973120F490E080E00C94A715803F20F0FB
:102F00000E9429230C94AC230895CF93C82F0E94CC
:102F1000B716C93349F42FEF87EE93E02150804074
:102F20009040E1F700C000008C2FCF910C942F1738
:102F3000882321F00E94761F0C94BF1F08958823D8
:102F400021F00E947C1F0C94BF1F0895BF92CF9266
:102F5000DF92EF92FF920F931F93CF93DF936C0159
:102F6000D62FC72FFC01058102950F701281111118
:102F70000E94931F0E946C1FE82E882391F011235A
:102F8000D1F08C2F807F803421F080E28D0F88304B
:102F900090F082E00E940A200E946C1F91E0E82ECF
:102FA000E926BC2EB2949FE0B922EB2DF0E0E35766
:102FB000F24D0C94562CE12CF4CF0C2F0F70C07FE7
:102FC00011F00295007F1123A9F0002359F080E24F
:102FD0008D0F883010F0D11109C0802F0E94761F0C
:102FE0000E94BF1F8D2F0E94B71614C0802F0E9411
:102FF000861FF6CF8D2F0E942F17002359F080E2F5
:103000008D0F883010F0D1112CC0802F0E947C1FB2
:103010000E94BF1F2B2D2850330B2430310520F484
:103020000E946C150E94A304EE2009F482C10E9444
:10303000681F80FD7EC1F60112820E94621F0E94FD
:10304000ED1DC6010E94BA190E94621FDF91CF9147
:103050001F910F91FF90EF90DF90CF90BF900C9455
:103060000E1E802F0E948C1FD3CFFC2FFF70FF2ECF
:10307000C07FC03219F0F29480EFF822DD2369F0AE
:10308000D13049F1112391F1002351F1F6018581ED
:1030900080FFA8CF8F70858323C0112381F0011199
:1030A00006C00E94A61F8F290E949817B3CF013037
:1030B000C1F70E94A61F8F290E94AC1FABCF011140
:1030C00006C00E94B51F8F2D0E949F17A3CF01300D
:1030D00009F4A0CFF6CF112329F0063008F09ACFDB
:1030E0008F2DE2CF053008F095CFEDCF002359F3B7
:1030F000D93349F4FFEF27EE33E0F1502040304060
:10310000E1F700C000008D2F0E942F1783CF8D2F75
:10311000112329F00E94C1220E94AC237BCF0E9480
:103120002923FACF8C2F837009F041C0111172CF7F
:103130004D2F429546954770440F440F0D2F0F7049
:1031400010E030E020E0042E04C0000F111F221F09
:10315000331F0A94D2F760E070E0CB01D4FF0FC0B8
:103160006FE070E080E090E004C0660F771F881F7A
:10317000991F4A95D2F76095709580959095C69560
:10318000C695C370602B712B822B932BC23049F0F4
:1031900058F4C13019F00E949F1D3CCF0E948D1D34
:1031A00039CF0E94B11D36CF0E948B1D33CF86953B
:1031B000112311F08C2F8170882309F42BCF4D2F10
:1031C000429546954770440F440F0D2F0F7010E045
:1031D00030E020E0042E04C0000F111F221F331F17
:1031E0000A94D2F760E070E0CB01D4FF0FC06FE02B
:1031F00070E080E090E004C0660F771F881F991F81
:103200004A95D2F76095709580959095C695C6952C
:10321000C370602B712B822B932BC23049F058F472
:10322000C13019F00E94641EF5CE0E94521EF2CEEB
:103230000E94761EEFCE0E94C71DECCECF701123E8
:1032400029F08C2F0E94ED1D8D2F2ECF8D2F0E94E7
:103250009F178C2F0E940E1EDDCED23F89F160F4A5
:10326000D03FC9F0D13F29F1112309F442C0011127
:10327000B9CE8C2F8F7121C0D33F39F1D43FA1F744
:10328000112369F1CF718C2F0E94ED1D63E08C2F0B
:103290000E94F51FBFCE112341F0053008F0BACED1
:1032A0008C2F8F710E94311EB5CE063008F0B2CE41
:1032B000F7CF8C2F8F71112369F20E94ED1DAACEDA
:1032C0008C2F8F711123C9F3C5CF112329F08C2FB7
:1032D0008F710E94D81D9ECE0E94D31D9BCE81E08F
:1032E0000E940A20023008F495CE82E00E940A2053
:1032F00091CE002359F0D93309F005CF8FEF97EE27
:10330000E3E081509040E040E1F7FBCE8C2F8F71DD
:10331000A1CF4C2F4F706D2FC6010E94AB040E94AD
:10332000031D78CE4C2F4F706D2FC6010E94AE0446
:1033300071CEDF91CF911F910F91FF90EF90DF90B1
:10334000CF90BF9008950F931F93CF93DF93EC011D
:10335000688179818A810E942A1F8C010E94881EBF
:103360000E948A1DB801CE01DF91CF911F910F916C
:103370000C94A617CF93DF93EC018B819C81892B52
:1033800029F08881998189238F3F59F4DF91CF916A
:103390000895CE010E94A319CE01DF91CF910C9424
:1033A0001003CE010E9454048111F3CF0E946C1FC0
:1033B000882361F38A81882349F382E0DF91CF91EA
:1033C0000C940A200E94931F0E94A31F0E94BF1FFB
:1033D0000E94D3240C94AC230E945C1F0C94E2192D
:1033E0000E94831F0C94EC19E92FE295EF70E250D4
:1033F000EE3070F4F0E0E356F24D0C94562C803F22
:1034000019F020F4883E20F481E00895843FE1F330
:1034100080E00895883EC0F3813FD1F7F5CF93FB5C
:10342000882780F908950E94201F0C94F419CF93E7
:10343000DF9300D000D00F92CDB7DEB70F900F9082
:103440000F900F900F90DF91CF910895CF93DF935E
:1034500000D000D000D0CDB7DEB726960FB6F894D6
:10346000DEBF0FBECDBFDF91CF9108951F93CF93E5
:10347000DF93C091B90116E08091BA018C1304C0AA
:10348000DF91CF911F910895D0E01C9FF0011D9F07
:10349000F00D1124E554FE4F40815181628173810A
:1034A000848195810E94261A2196C770E5CF4091AC
:1034B000EB015091EC016091ED017091EE01809172
:1034C000EF019091F0010C94261A1F93CF93DF9394
:1034D0008091F001807FA9F48091ED01882389F02B
:1034E0008091B901C091BA016091EB017091EC013A
:1034F000A091EE01B091EF01D62FD72316E0C813AB
:1035000004C0DF91CF911F91089590E0109711F0C2
:10351000DF3F19F401968770F2CF189F9001199F31
:10352000300D1124F901E554FE4F41814713F2CFCC
:1035300040814613EFCF42814111ECCF438154814A
:103540004A1B5B0B483C510528F78091F0018F70B6
:1035500080618093F001F901E054FE4F80818F700B
:10356000806180838BEE91E00E94BA19DF91CF9148
:103570001F910C94361AAF92BF92CF92DF92EF92C6
:10358000FF920F931F93CF93DF93CDB7DEB7619771
:103590000FB6F894DEBF0FBECDBF8C0185E0F801F9
:1035A000DE011D9601900D928A95E1F7F8014081A8
:1035B0005181E2808BEEC82E81E0D82E6091EE0121
:1035C0007091EF016115710509F461C19091EB01F2
:1035D0002091EC01892F82238F3F09F458C1A380E9
:1035E000B480F090ED01F501E61BF70BFF2009F424
:1035F000FCC08091F001382F307FE83CF10508F0E5
:10360000B2C0311179C0FE2C251323C0941321C000
:10361000E1101FC08F7080618093F0010E94571AE3
:10362000C6010E94BA198091F001F80185838F2D9F
:1036300061960FB6F894DEBF0FBECDBFDF91CF917C
:103640001F910F91FF90EF90DF90CF90BF90AF90C0
:103650000895AB2829F0842F85238F3F09F033C1CB
:1036600080E0F82FF170DF2E80FF3CC08091B9011F
:103670002091BA0136E0821315C04D875E878D8593
:103680009E850E94201F292F22952F702230F0F056
:10369000243018F59F70F1F0F8019581907FD1F4F6
:1036A000D12C1EC090E0389FF001399FF00D1124FD
:1036B000E554FE4F6181651306C06081641303C049
:1036C00062816E110FC001968770D5CF9F7011F087
:1036D000882331F3805E883018F3C8010E94BA193C
:1036E000FD2CA5CFEE2009F4A2CF8091F0018160DE
:1036F0008093F001F12C9BCF251306C0941304C0D6
:10370000F801EE2009F48DC04D875E878D859E857A
:103710000E94131A882319F1EE2009F18091F0011B
:10372000803270F02091EB013091EC0138872F83CB
:103730001986BB86AA868C87CE0107960E94BA1985
:1037400086E0F801ABEEB1E001900D928A95E1F7C9
:103750000E94651A0E94571AFF24F39468CFC8018B
:103760000E94BA19F9CF311113C07A2DB98AA88AEB
:103770006E2D89890E94171A8BEE91E00E94BA196A
:1037800086E0F60111928A95E9F70E94571AB2CFA6
:1037900025130FC094130DC0E1100BC0F8018583F1
:1037A000C8010E94BA1986E0F60111928A95E9F7DC
:1037B0003ECF4D875E878D859E850E94131A882394
:1037C00071F2EE2061F28091F001803208F4B8CFFE
:1037D0002091EB013091EC013A8329831B82BD8259
:1037E000AC828E83CE010196A9CFE83CF10508F0AA
:1037F00041C0FE2CEE2009F4B2CF25132AC0941349
:1038000028C08091F00180FD1BC0982F907FC1F0EF
:10381000F8018583903F31F0982F907F905F8F70F3
:10382000892B8583C8010E94BA1986E0F801ABEEA6
:10383000B1E001900D928A95E1F70E94571AF7CEF8
:1038400086E0F801ABEEB1E001900D928A95E1F7C8
:10385000EECE4D875E878D859E850E94131A81115D
:103860006FCF8091F00181608093F001C8010E94C8
:10387000BA19DDCE7A2DB98AA88A6E2D89890E945F
:10388000171A86E0F60111928A95E9F7D6CFEE2055
:1038900009F465CF4D875E878D859E850E94131A3A
:1038A000F82E882309F45BCF86E0F801ABEEB1E097
:1038B00001900D928A95E1F78BEE91E00E94B2168D
:1038C0000E94651ABACF81E08E25CBCE88EC90E0BD
:1038D00008951F93CF93DF93CDB7DEB72C970FB624
:1038E000F894DEBF0FBECDBF4F83588769877A87B4
:1038F0008B879C87CE0107960E94BB1A882369F0AC
:103900008A859B85892B39F04F815885842F8523A3
:103910008F3F09F071C016E05FC086E0FE01379668
:10392000DE01119601900D928A95E1F78A859B85BB
:10393000892B89F38F81988589238F3F61F32091AB
:10394000BA0130E0C9010196877099274091B90109
:103950004817190671F40E94F0191092BA011092DA
:10396000B90186E0EBEEF1E0DF011D928A95E9F7FF
:10397000D2CF96E0929FD001939FB00D1124A55411
:10398000BE4FFE01319601900D929A95E1F780931A
:10399000BA010E94361ABFCF819FC00111248554FD
:1039A0009E4F0E94BB1A8823E9F0E091B9011E9F47
:1039B000F0011124E554FE4F4081518162817381F1
:1039C000848195810E94261A8091B90190E0019628
:1039D000877099278093B9018091B9019091BA01BC
:1039E0008913DACF2C960FB6F894DEBF0FBECDBF89
:1039F000DF91CF911F91089569857A858B859C858C
:103A00000E94261A88CFEF92FF920F931F93CF93B5
:103A1000DF938C01892B81F0F12CEE24E394E801F3
:103A20002196F8018491843770F4843008F05FC0E7
:103A30008130B1F08230A1F1DF91CF911F910F91D0
:103A4000FF90EF900895853709F44CC008F43DC00D
:103A50009CE7980F903780F78F770E942F1749C007
:103A60000E5F1F4FFE01849190E2980F983060F432
:103A70008770FE2D01C0FF0F8A95EAF78F2F0E94F5
:103A8000961F0E94BF1F02C00E94B7168F2D815043
:103A900030F2EFE9FFE03197F1F700C00000F7CF17
:103AA0000E5F1F4FFE01849190E2980F983050F402
:103AB0008770FE2D01C0FF0F8A95EAF78F2F0E94B5
:103AC0009C1FDFCF0E942F17E1CF0E5F1F4FFE011B
:103AD000C491C150D8F28FE99FE00197F1F700C07F
:103AE0000000F7CF0E5F1F4FFE01F490CFCF0E9472
:103AF000B7168E01CBCF08950C947B1D0E947C1DC0
:103B00006093FF0170930002809301029093020280
:103B10000C94E21908950C947E1D0F931F9300914D
:103B2000FF01109100022091010230910202602BEE
:103B3000712B822B932B1F910F910C947E1D0F9351
:103B40001F930091FF01109100022091010230911A
:103B5000020260237123822393231F910F910C94FF
:103B60007E1D0F931F930091FF0110910002209181
:103B700001023091020260277127822793271F914B
:103B80000F910C947E1D0C947B1D0C94C31D0E9400
:103B9000C51D6093FB017093FC018093FD01909320
:103BA000FE010C94E21960E070E0CB010C94C71D9B
:103BB0000F931F9341E050E060E070E08A019B01A9
:103BC00004C0000F111F221F331F8A95D2F7C901AD
:103BD000B8011F910F910C94C71D0F931F9341E0E3
:103BE00050E060E070E004C0440F551F661F771F6F
:103BF0008A95D2F78091FB019091FC01A091FD0183
:103C0000B091FE018A019B01082B192B2A2B3B2B1B
:103C1000C901B8011F910F910C94C71D0F931F93F9
:103C200041E050E060E070E004C0440F551F661FA3
:103C3000771F8A95D2F7CB01BA0160957095809570
:103C400090950091FB011091FC012091FD013091B4
:103C5000FE0160237123822393231F910F910C9403
:103C6000C71D0F931F9341E050E060E070E004C077
:103C7000440F551F661F771F8A95D2F78091FB016D
:103C80009091FC01A091FD01B091FE018A019B0180
:103C9000082719272A273B27C901B8011F910F912F
:103CA0000C94C71D0F931F930091FB011091FC0111
:103CB0002091FD013091FE01602B712B822B932B03
:103CC0001F910F910C94C71D0F931F930091FB013F
:103CD0001091FC012091FD013091FE0160237123C0
:103CE000822393231F910F910C94C71D0F931F9351
:103CF0000091FB011091FC012091FD013091FE012A
:103D000060277127822793271F910F910C94C71D5D
:103D10000895E92FEE0F9E0F890F982F977041E0BD
:103D200001C0440F9A95EAF786958695869595E0A9
:103D3000899FF0011124EF50FE4F30E020E070E049
:103D40005191DF011197CB01022E02C09695879504
:103D50000A94E2F7817081958527842385278C93C7
:103D60002F5F3F4F2530310559F70895E92FEE0FAA
:103D70009E0F890F982F977086958695869525E0DA
:103D8000829FF0011124EF50FE4F50E040E080E0B0
:103D9000219130E0092E02C0369527950A94E2F76A
:103DA00021703327042E01C0220F0A94EAF7822BD8
:103DB0004F5F5F4F4530510559F70895BF92CF923D
:103DC000DF92EF92FF920F931F93CF93DF938C01BB
:103DD000C090FB01D090FC01E090FD01F090FE014D
:103DE0008091FF0190910002A0910102B091020226
:103DF000C82AD92AEA2AFB2ACFE1D0E0BC2ED70173
:103E0000C6010C2E04C0B695A795979587950A9480
:103E1000D2F780FD0EC0219788F7B12C8B2DDF9152
:103E2000CF911F910F91FF90EF90DF90CF90BF90B7
:103E30000895B8018C2F0E94B704019761F3EECF6B
:103E4000CF93DF93EC010E94DE1EBE01DF91CF9184
:103E50000C94B7041F93CF93DF93EB019091B801BB
:103E6000992331F0CB01DF91CF911F910C94201F4A
:103E7000882379F0CB010E94DE1E182F682FCE0117
:103E80000E94891EBE01812FDF91CF911F910C945A
:103E9000B704CB010E94B61E182FF4CF682F809173
:103EA0001701909118010C941B21682F8091170124
:103EB000909118010C941D21809117019091180187
:103EC0000C941F2180910302859585958595089511
:103ED000809103028770089590910302977081E0AA
:103EE00009F480E0089580910F02089590910F02E7
:103EF000892B80930F020895809590910F0298234B
:103F000090930F02089510920F02089590910E025F
:103F1000892B80930E020895809590910E0298232C
:103F200090930E02089510920E02089590910D0242
:103F3000892B80930D020895809590910D0298230E
:103F400090930D02089510920D020895809104023D
:103F5000089508950C94A91F90910402981721F0D8
:103F6000809304020C94AA1F089580910402882370
:103F700029F01092040280E00C94AA1F0895E091A9
:103F80001701F091180180910F028083E0911701D1
:103F9000F0911801808190910E02892B8083E0912D
:103FA0001701F0911801808190910D02892B808377
:103FB00090910402992381F0E0911701F09118018A
:103FC0008081892B808380911701909118010E9434
:103FD000D32081110E94B51F809117019091180183
:103FE0000C94781508950C94F21F98E0899F900125
:103FF0001124622B609303020E94ED1D8091030245
:104000008595859585950C94F31F1092030280E0A9
:104010000C94F31F909103028095892380930302EF
:10402000282F277071F4282F082E000C330B9217BD
:10403000130639F08595859585950E940E1E0C9482
:10404000052008956FEF7FEF90E080E00C942F2D16
:1040500090E080E00E940B2D21E08C3E9E4F09F005
:1040600020E0822F089582E090E00C94FD2C83E004
:1040700090E00C94FD2CCF9384E090E00E94FD2C06
:10408000C82F81E290E00E94FD2C982F8C2FCF91B9
:104090000895CF93C92F682F84E090E00E94112DDE
:1040A0006C2F81E290E0CF910C94112DAB01BC01FB
:1040B0008FE090E00C94232DAB01BC0183E190E0F4
:1040C0000C94232D60E070E0CB010C945C2060E048
:1040D00070E0CB010E9456200C9462206CEE7EEFC3
:1040E00090E080E00E942F2D60E082E090E00E944E
:1040F000112D60E083E090E00E94112D1092FF01ED
:1041000010920002109201021092020260E084E01C
:1041100090E00E94112D60E081E290E00E94112D5C
:1041200060E085E090E00E94112D60E086E090E084
:104130000E94112D6FEF87E090E00E94112D40E06A
:1041400050E0BA0188E090E00E94232D60E08DE00D
:1041500090E00E94112D40E050E0BA0188E190E02B
:104160000E94232D60E087E190E00E94112D40E045
:1041700050E0BA018CE190E00E94232D60E080E2E3
:1041800090E00E94112D40E050E0BA0188E190E0FB
:104190000E94232D0C9467200C946E20682F8EE0D3
:1041A00090E00C94112D9C012E5F3F4FAC01485FB5
:1041B0005F4F80E02417350709F40895F9019191C4
:1041C0009F019923B9F38F5FF5CF662349F0FC0176
:1041D000329608962191261729F0E817F907D1F7AA
:1041E00080E0089581E008959C01FC0132969FEFE4
:1041F00080E04191461751F09F3F19F4411101C0F1
:10420000982F8F5F8630A9F79F3F09F40895290FF3
:10421000311D97FD3A95F90162830895FC013296AC
:1042200008962191261303C0DF0111971C92E8170D
:10423000F907B9F708950C94F4200C940E21029616
:1042400026E0FC0111922A95E9F708950895089552
:104250000C9427210E94282180915802843049F132
:104260001092110288E190E020E40FB6F894A8952E
:10427000809360000FBE2093600080E00E94A30442
:104280000E94282183B7817F846083BF83B78160C8
:1042900083BF7894889583B78E7F83BF0FB6F894D9
:1042A000A895809160008861809360001092600002
:1042B0000FBE08950895CF930E9426210E94DB0629
:1042C0000E945A21C0E08C2F0E948E06811105C0E9
:1042D000CF5FC430C1F7CF91089581E0FCCF08953E
:1042E0000C946F210E94F0190E946C150E94A30487
:1042F0000C9470211F921FB61F9211248F939F93CD
:10430000AF93BF9380911102811113C080914E022F
:1043100090914F02A0915002B09151024196A11D7F
:10432000B11D80934E0290934F02A0935002B09320
:104330005102BF91AF919F918F911F901FBE1F900F
:10434000189582E084BD93E095BD9AEF97BD809368
:104350006E0008952FB7F89480914E0290914F020D
:10436000A0915002B09151022FBF08952FB7F89439
:1043700060914E0270914F028091500290915102D3
:104380002FBF08959C014FB7F89480914E029091F1
:104390004F02A0915002B09151024FBF821B930B6C
:1043A000089578941F921FB61F9211248F939F93A4
:1043B000AF93BF9380914E0290914F02A091500213
:1043C000B09151020196A11DB11D80934E029093B0
:1043D0004F02A0935002B0935102BF91AF919F91B1
:1043E0008F911F901FBE1F90189587E797E79093B6
:1043F00001088093000888E19AE00FB6F894A89528
:10440000809360000FBE90936000FFCF0C94231048
:104410000E94DB068FE39CE90197F1F700C00000E2
:104420000E94DB0680E00E948E0680FF04C00E948E
:1044300006220C94F52108950E942820811102C0C3
:104440000E94CC200E943320809310020E943B20C7
:1044500090935302809352020E943720682F70E09D
:1044600090E080E00E948B1D6091FB017091FC0147
:104470008091FD019091FE010C94C51D8091180260
:1044800080FF12C060911E0185E0689FB001112479
:10449000759567957595679560387105A8F56115EF
:1044A0007105A1F1862F089581FF09C060911E0159
:1044B00085E0689FB001112475956795EDCF6091F7
:1044C0001E0182FD0AC0809117028823D1F09091CD
:1044D0001D0160911E01891728F085E0689FB001D9
:1044E0001124DACF869FB001112485E0869F9001C8
:1044F000879F300D1124692F70E0C9010E94202C84
:10450000CBCF65E070E0CECF8FE7089581E00895CE
:104510008091180280FF0CC060911A0170E07595BF
:104520006795759567956115710549F1862F089511
:1045300081FF06C060911A0170E075956795F3CF11
:1045400060911A0182FD0BC0909116029923A1F08F
:104550006091190180911A01961738F0682F70E068
:104560006038710500F38FE70895899FC001112419
:1045700070E00E94202CF4CF61E070E0D7CF81E0A2
:104580000895803F31F40E943E22819580931C0261
:104590000895813F19F40E943E22F8CF823F31F402
:1045A0000E943E22819580931B020895833F19F457
:1045B0000E943E22F8CF893F29F40E9488228093EE
:1045C0001D0208958A3F21F40E9488228195F7CF29
:1045D0008B3F31F40E948822819580931E020895BA
:1045E0008C3F19F40E948822F8CF843F31F48091E7
:1045F0001A02816080931A020895853F21F4809108
:104600001A028260F7CF863F21F480911A028460FB
:10461000F1CF873F21F480911A028860EBCF883F69
:1046200021F480911A028061E5CF8D3F31F48091B1
:10463000180281608093180208958E3F21F48091C2
:1046400018028260F7CF8F3FB9F78091180284601B
:10465000F1CF90911B02803F59F480911C0287FF9B
:104660000DC010921C0291110BC01092170208C0CD
:10467000813F81F480911C0218169CF3992381F0EC
:1046800080911D0290911E02892B09F064C0109246
:1046900016020895823F49F497FFF0CF10921B0253
:1046A00080911C028111ECCFE0CF833F19F41916E1
:1046B000ACF3E4CF20911D02893F29F41216F4F6E1
:1046C00010921D02DBCF8A3F19F427FFD7CFF8CF16
:1046D00020911E028B3F29F427FFD0CF10921E029B
:1046E000CDCF8C3F19F41216CCF3C8CF843F31F4F0
:1046F00080911A028E7F80931A02C0CF853F21F4E9
:1047000080911A028D7FF7CF863F21F480911A02A3
:104710008B7FF1CF873F21F480911A02877FEBCF07
:10472000883F21F480911A028F7EE5CF8D3F31F4CE
:10473000809118028E7F80931802A0CF8E3F21F4C3
:10474000809118028D7FF7CF8F3F09F097CF80912E
:1047500018028B7FF0CF08950E94AA219C019091AE
:104760001B0280911C02982B21F03093150220939C
:10477000140290911D0280911E02982B21F030931B
:1047800013022093120289E192E00C948315EF92B8
:10479000FF920F931F93CF93DF9300D000D000D0F0
:1047A000CDB7DEB786E0E9E1F2E0DE0111960190D7
:1047B0000D928A95E1F7E0901B02F0901C020091A7
:1047C0001D0210911E0210921B0210921C021092E8
:1047D0001D0210921E028E2D8F2991F080911402DD
:1047E000909115020E94C221AC0190911702992369
:1047F00009F43FC080911F018417150608F447C0D3
:10480000802F812B91F080911202909113020E94CF
:10481000C221AC0190911602992309F477C08091CE
:104820001B018417150608F47FC080911B0290912C
:104830001C02892B90911D02892B90911E02892BBD
:1048400011F00E94AC2386E0FE013196A9E1B2E0AE
:1048500001900D928A95E1F726960FB6F894DEBF87
:104860000FBECDBFDF91CF911F910F91FF90EF90C1
:104870000895209120018AE0289F90011124241797
:10488000350708F0BDCF9F5F9093170202C09F3F8E
:10489000D1F7EE2059F00E943E229FEF1E140CF437
:1048A00091E0899F802D112480931B02FF2059F0F5
:1048B0000E943E229FEF1F140CF491E0899F802DEF
:1048C000112480931C0230911B02332309F498CFEA
:1048D00020911C02222309F493CF45EB3403C0013D
:1048E0001124992359F090931B0245EB2403900166
:1048F0001124332339F030931C0282CF81E080935E
:104900001B02F3CF81E080931C027ACF20911C011F
:104910008AE0289F900111242417350708F085CFDD
:104920009F5F9093160202C09F3FD1F7002359F07A
:104930000E9488229FEF10160CF491E0899F802D31
:10494000112480931D02112359F00E9488229FEFA9
:1049500011160CF491E0899F802D112480931E0282
:1049600030911D02332309F460CF20911E022223CF
:1049700009F45BCF45EB3403C0011124992359F0AE
:1049800090931D0245EB240390011124332339F049
:1049900030931E024ACF81E080931D02F3CF81E065
:1049A00080931E0242CF86E0E9E1F2E0DF011D9232
:1049B0008A95E9F7109217021092160210921802C7
:1049C000089580912702089508959C0184E08093C2
:1049D000E9009FEF8091E800915085FD06C085EDCC
:1049E0008A95F1F700009111F5CF8091E80085FFDD
:1049F0000CC050E040E066E070E0C9010E94202752
:104A00008091E8008E778093E8000895CF93DF933C
:104A1000EC0181E08093E9008FEF9091E8008150F4
:104A200095FD06C095ED9A95F1F700008111F5CF3F
:104A30008091E80085FF14C050E040E068E070E03D
:104A4000CE010E9420278091E8008E778093E800B5
:104A500088E0FE01AFE1B2E001900D928A95E1F7A6
:104A6000DF91CF9108950895CF93FC01603221F535
:104A700080915802843001F5C091E900CF702091F7
:104A8000EC00922F917020FD90E8C92B82E080937A
:104A9000E9008091E80080FF0CC050E040E060E257
:104AA00070E0CF010E9420278091E8008E778093EC
:104AB000E800CF70C093E900CF910895809157022C
:104AC000811109C00E94FF280E945C298091E200A8
:104AD00084608093E200089510925702089508952B
:104AE00008950C94722142E061EC81E00E947B28E1
:104AF00042E261EC84E00E947B2842E261EC82E0C9
:104B00000E947B2842E260EC83E00C947B28809139
:104B10005A02833009F461C030F48130D1F182301F
:104B200009F49DC008958A3009F489C08B3009F4D6
:104B30006FC0893009F050C080915902813209F06C
:104B40004BC080915D0290915E02009719F0029730
:104B500009F042C08091E800877F8093E80080914F
:104B6000E80082FF35C09091F3008091F200029737
:104B700029F48091F1008B7F813021F48091F10044
:104B8000809327028091E8008B778093E8000C9453
:104B9000AF2880915902813AF9F48091E800877F2B
:104BA0008093E80080915D0290915E02892B61F410
:104BB00068E08FE192E070E00E94BE278091E800FB
:104BC0008B778093E800089560E090E080E0F3CF79
:104BD000809158028111C3CF089580915902813A82
:104BE000D9F780915D0290915E02892BA9F780919F
:104BF000E800877F8093E8008091E80080FFFCCF89
:104C000080912B018093F1008091E8008E77BDCFD9
:104C100080915902813201F780915D0290915E028C
:104C2000892BD1F68091E800877F8093E8000E946D
:104C3000AF2880915B0280932B010C94F019809136
:104C40005902813249F68091E800877F8093E8001D
:104C50000E94AF2880915C02809328020895809181
:104C60005902813A09F0B8CF8091E800877F80939C
:104C7000E8008091E80080FFFCCF80912802C2CF3D
:104C8000CDB7DEB7A0970FB6F894DEBF0FBECDBF8D
:104C900084B7877F84BF0FB6F894A8958091600091
:104CA000886180936000109260000FBE80E890E001
:104CB0000FB6F89480936100909361000FBE0E943C
:104CC000CB150E94FF280E945C298091E20084603D
:104CD0008093E20078940E94E52B0E94D71581E230
:104CE00091E00E94671513E080915802853059F0D9
:104CF0000E94E31580915802843091F00E94D515EE
:104D00000E94D615F1CF0E942A2180915602882355
:104D100059F30E945B21882339F30E940A27E4CFCC
:104D20001093E9008091E80082FFE8CF8091E800CD
:104D300090E085FF09C050E040E060E270E0CE0105
:104D400001960E946F2791E08091E8008B77809315
:104D5000E800992399F260E2CE0101960E94DB10EF
:104D6000CDCF0C94B326292F33272330310521F1E1
:104D700068F42130310509F443C02230310509F4CB
:104D800044C090E080E030E020E026C021323105D0
:104D900051F122323105A9F76330710590F7FB011B
:104DA000EE0FFF1FEF59FE4F20813181625A7E4F77
:104DB000FB01808190E010C099278130910581F03E
:104DC000009729F00297E9F6EEEAF3E002C0E2EE7E
:104DD000F3E0849190E09F01FA01318320830895EC
:104DE000ECECF3E0F6CF6330710558F6660F771FF1
:104DF000FB01E959FE4F2081318189E090E0ECCF41
:104E000082E190E021E434E0E7CF8BE590E026EE0C
:104E100033E0E2CF80E189BD82E189BD09B400FEC3
:104E2000FDCF8091D8008F7D8093D8008091E000E5
:104E300082608093E0008091E00081FDFCCF0895C6
:104E4000AF92BF92CF92DF92FF920F931F93CF93B7
:104E5000DF936C01EB018A010E94CE28F82E8111AC
:104E600023C00115110539F0F80180819181C81B1B
:104E7000D90BC80ED91EB12CA12C2097A9F0809176
:104E8000E80085FD22C08091E8008E778093E800DD
:104E900001151105A1F0F80180819181A80EB91EBC
:104EA000B182A08285E0F82E8F2DDF91CF911F91E6
:104EB0000F91FF90DF90CF90BF90AF9008950E9428
:104EC000CE288823D1F2F82EEFCFF60181916F0121
:104ED0008093F1002197FFEFAF1ABF0ACECFAF92B8
:104EE000BF92CF92DF92FF920F931F93CF93DF93E6
:104EF0006C01EB018A010E94CE28F82E811123C09B
:104F00000115110539F0F80180819181C81BD90B79
:104F1000C80ED91EB12CA12C2097A9F08091E800D1
:104F200085FD22C08091E8008B778093E800011511
:104F30001105A1F0F80180819181A80EB91EB182FE
:104F4000A08285E0F82E8F2DDF91CF911F910F91D8
:104F5000FF90DF90CF90BF90AF9008950E94CE2831
:104F60008823D1F2F82EEFCF8091F100F6018193E2
:104F70006F012197FFEFAF1ABF0ACECFFC018091DE
:104F80005F029091600286179707A0F06115710586
:104F900029F49091E8009E779093E80090E06115E5
:104FA000710551F4911108C08091E80082FF34C06E
:104FB00080E00895BC01F2CF809158028823C1F1AE
:104FC0008530C1F18091E80083FD30C08091E80018
:104FD00082FDEACF8091E80080FFE1CF8091F3006D
:104FE0002091F200382F6115710519F02830310534
:104FF00058F091E02830310509F090E02091E80068
:105000002E772093E800CBCF81918093F1006150FF
:1050100071092F5F3F4FE7CF80915802882341F0FD
:10502000853041F08091E80083FFBECF81E0089594
:1050300082E0089583E00895FC0180915F029091E1
:10504000600286179707A0F06115710529F4809119
:10505000E8008E778093E80090E06115710551F4C7
:10506000911108C08091E80082FF35C080E008956A
:10507000BC01F2CF809158028823C9F18530C9F173
:105080008091E80083FD31C08091E80082FDEACF85
:105090008091E80080FFE1CF8091F3002091F20041
:1050A000382F6115710519F02830310558F091E05D
:1050B0002830310509F090E08091E8008E778093E8
:1050C000E800CBCF84918093F10031966150710953
:1050D0002F5F3F4FE6CF80915802882341F0853003
:1050E00041F08091E80083FFBDCF81E0089582E028
:1050F000089583E00895982F973028F08F7080935B
:10510000E90081E008959093E900242F762F50E084
:10511000981731F07091EC002091ED005091F00063
:1051200021FD02C09F5FE8CF3091EB003E7F3093BE
:10513000EB003091ED003D7F3093ED003091EB00BE
:1051400031603093EB007093EC002093ED005093AE
:10515000F0002091EE0027FDE5CF80E008958091DA
:10516000590287FF13C08091E80082FF06C080913A
:10517000E8008B778093E80004C080915802811189
:10518000F2CF0895809158028823D9F38091E800E6
:1051900080FFF8CF8091E8008E77ECCF2091E4007B
:1051A0003091E50095E6A9012091EC00822F8170F5
:1051B00020FF06C08091E80080FF06C080E00895CF
:1051C0002091E80022FD1AC080915802882389F0BE
:1051D000853089F08091EB0085FD0FC02091E400BF
:1051E0003091E50042175307F9F29150E1F684E05F
:1051F000089582E0089583E0089581E008950E9473
:105200006D290E947529E0EEF0E080818160808345
:10521000E8EDF0E080818F77808319BCA7EDB0E0E6
:105220008C918E7F8C9380818F7E80831092570229
:1052300008950F931F93CF93DF930E946D290E94CF
:105240007529C8EDD0E088818F7788838881806850
:10525000888388818F7D888319BC109258021092B0
:105260005402109256021092550200EE10E0F8011E
:1052700080818B7F808388818160888342E060E0C9
:1052800080E00E947B28E1EEF0E080818E7F8083C9
:10529000E2EEF0E08081816080838081886080839D
:1052A000F80180818E7F8083888180618883DF918F
:1052B000CF911F910F910895E8EDF0E080818F7EEE
:1052C0008083E7EDF0E080818160808384E082BFAD
:1052D00081E0809357020C941929E8EDF0E0808179
:1052E0008E7F80831092E20008951092DA0010926F
:1052F000E10008951F920F920FB60F9211242F9381
:105300003F934F935F936F937F938F939F93AF934D
:10531000BF93EF93FF938091E10082FF0BC08091D8
:10532000E20082FF07C08091E1008B7F8093E10063
:105330000E94E42B8091DA0080FF19C08091D80090
:1053400080FF15C08091DA008E7F8093DA00809113
:10535000D90080FF96C080E189BD82E189BD09B492
:1053600000FEFDCF81E0809358020E945E2580916F
:10537000E10080FF19C08091E20080FF15C080919C
:10538000E2008E7F8093E2008091E2008061809352
:10539000E2008091D80080628093D80019BC85E03B
:1053A000809358020E9470258091E10084FF2BC0F9
:1053B0008091E20084FF27C080E189BD82E189BD40
:1053C00089B5982F917080FFFBCF8091D8008F7D99
:1053D0008093D8008091E1008F7E8093E1008091DE
:1053E000E2008F7E8093E2008091E20081608093F2
:1053F000E20080915402882309F449C084E080933C
:1054000058020E9471258091E10083FF29C080919C
:10541000E20083FF25C08091E100877F8093E10057
:1054200082E080935802109254028091E1008E7FB6
:105430008093E1008091E2008E7F8093E200809172
:10544000E20080618093E20042E060E080E00E9440
:105450007B288091F00088608093F0000E946F2587
:10546000FF91EF91BF91AF919F918F917F916F913C
:105470005F914F913F912F910F900FBE0F901F9012
:10548000189519BC109258020E946C2570CF80911B
:10549000E30087FD93E090935802B3CF1F920F92E1
:1054A0000FB60F9211242F933F934F935F936F93F7
:1054B0007F938F939F93AF93BF93CF93DF93EF939C
:1054C000FF93D091E900DF708091EC00C82FC1708C
:1054D00080FDC0E81092E9008091F000877F809302
:1054E000F00078940E94922A1092E9008091F000D6
:1054F00088608093F000CD2BCF70C093E900FF91BE
:10550000EF91DF91CF91BF91AF919F918F917F915B
:105510006F915F914F913F912F910F900FBE0F9020
:105520001F9018951F93CF93DF93CDB7DEB7AA973F
:105530000FB6F894DEBF0FBECDBF89E592E0209193
:10554000F100FC012193CF01F2E081369F07B9F70A
:105550000E9487258091E80083FF1EC18091590237
:1055600090915A029A3008F017C1E92FF0E0E55502
:10557000F24D0C94562C803899F0823809F00CC109
:1055800080915D028F70873008F006C18093E9003A
:105590008091EB0085FB882780F91092E90006C016
:1055A0008091550290915602911182609091E8008D
:1055B000977F9093E8008093F1001092F100809122
:1055C000E8008E77E5C0882309F4D3C0823009F063
:1055D000E3C080915B028111D6C080915D028F7023
:1055E0002FEF280F263008F0D7C08093E9002091D4
:1055F000EB0020FFC8C0933031F48091EB00806253
:105600008093EB00C0C09091EB0090619093EB0011
:1056100021E030E001C0220F8A95EAF72093EA00EA
:105620001092EA008091EB008860EACF8111B4C04B
:1056300010915B021F778091E3008078812B80932B
:10564000E3008091E800877F8093E8000E94AF2804
:105650008091E80080FFFCCF8091E3008068809318
:10566000E30082E0111183E08093580295C08058D6
:10567000823008F091C080915B0290915C028C3D79
:1056800023E09207A1F583E08A838AE289834FB7FA
:10569000F894DE01139620E03EE051E2E32FF0E0C3
:1056A00050935700E49120FF03C0E295EF703F5FF5
:1056B000EF708E2F90E0EA30C0F0C7968D939D93E7
:1056C0002F5F243159F74FBF8091E800877F809387
:1056D000E8006AE270E0CE0101960E94BE27809148
:1056E000E8008B778093E80057C0C096E7CF6091C1
:1056F0005D0270915E02AE014F5F5F4F0E94B12666
:10570000BC01892B09F448C09091E800977F9093E1
:10571000E80089819A810E941C28E1CF8038E1F558
:105720008091E800877F8093E80080915402809305
:10573000F10045CF811130C090915B02923060F54D
:105740008091E800877F8093E800909354020E9444
:10575000AF2880915402882311F084E005C0809125
:10576000E30087FDFACF81E0809358020E94732501
:1057700013C080915B02813079F481E0933009F0AD
:1057800080E0809356021092E9008091E800877FC4
:105790008093E8000E94AF288091E80083FF0AC050
:1057A0008091E800877F8093E8008091EB00806221
:1057B0008093EB00AA960FB6F894DEBF0FBECDBF64
:1057C000DF91CF911F9108950895CF938091580252
:1057D0008823A1F0C091E900CF709091EC00892F4F
:1057E000817090FD80E8C82B1092E9008091E8005C
:1057F00083FD0E94922ACF70C093E900CF91089553
:10580000991B79E004C0991F961708F0961B881F12
:105810007A95C9F780950895AA1BBB1B51E107C073
:10582000AA1FBB1FA617B70710F0A61BB70B881F30
:10583000991F5A95A9F780959095BC01CD010895BF
:1058400097FB072E16F4009407D077FD09D00E942D
:105850000C2C07FC05D03EF4909581959F4F089540
:10586000709561957F4F0895A1E21A2EAA1BBB1B6C
:10587000FD010DC0AA1FBB1FEE1FFF1FA217B3071C
:10588000E407F50720F0A21BB30BE40BF50B661F32
:10589000771F881F991F1A9469F7609570958095F6
:1058A00090959B01AC01BD01CF010895EE0FFF1F44
:1058B0000590F491E02D09946927962769277827A8
:1058C0008727782708950E946B2C332312F48A1BB4
:1058D0009B0B0C947C2CA29FB001B39FC001A39F93
:1058E000700D811D1124911DB29F700D811D112419
:1058F000911D08950E946B2CB7FF0895821B930B96
:1059000008950E946B2CA59F900DB49F900DA49FAD
:10591000800D911D11240895B7FF0C94812C0E94D5
:10592000812C821B930B08958F929F92AF92BF920E
:10593000CF92DF92EF92FF92CF93DF93EC016881D9
:1059400079818A819B81611571058105910521F419
:1059500064E279ED8BE597E02DE133EF41E050E033
:105960000E94452D49015A019B01AC01A7EAB1E40F
:105970000E94812C6B017C01ACEEB4EFA501940177
:105980000E948F2CDC01CB018C0D9D1DAE1DBF1D17
:10599000B7FF03C00197A109B04888839983AA8300
:1059A000BB839F77DF91CF91FF90EF90DF90CF90F7
:1059B000BF90AF909F908F9008950E94942C08956F
:1059C00080E091E00E94942C0895B0E0A0E08093E4
:1059D000000190930101A0930201B0930301089587
:1059E000FC014150504030F001900616D1F731973C
:1059F000CF010895882799270895F999FECF92BD80
:105A000081BDF89A992780B50895A6E1B0E044E0F9
:105A100050E00C94372DA8E1B0E042E050E00C9447
:105A2000372D262FF999FECF92BD81BDF89A0197A7
:105A300000B4021639F01FBA20BD0FB6F894FA9AD6
:105A4000F99A0FBE08950396272F0E94122D0E94E7
:105A5000112D252F0E94122D242F0C94122D01960A
:105A6000272F0E94122D0C94112DDC01CB01FC017B
:105A7000F999FECF06C0F2BDE1BDF89A319600B4A7
:105A80000D9241505040B8F70895052E97FB1EF433
:105A900000940E945C2D57FD07D00E94342C07FC17
:105AA00003D04EF40C945C2D509540953095219583
:105AB0003F4F4F4F5F4F089590958095709561953A
:105AC0007F4F8F4F9F4F0895F894FFCF6C0F740F47
:105AD0007B0F800F850F8A0F8F0F940F990F9E0FEA
