:100000000C94A3020C94EA020C94EA020C94EA0207
:100010000C94EA020C94EA020C94EA020C94EA02B0
:100020000C94EA020C94EA020C9492290C94662A2D
:100030000C9417240C94EA020C94EA020C94EA0241
:100040000C94EA020C94EA020C94EA020C94EA0280
:100050000C94EA020C946E240C94EA020C94EA02CA
:100060000C94EA020C94EA020C94EA020C94EA0260
:100070000C94EA020C94EA020C94EA020C94EA0250
:100080000C94EA020C94EA020C94EA020C94EA0240
:100090000C94EA020C94EA020C94EA020C94EA0230
:1000A0000C94EA020C94EA020C94EA0246004A001C
:1000B00011504C004D003D004B0052004E005000CE
:1000C00051004F00240025002600210022002300BB
:1000D0001E001F0020002A00270010501E001F00D5
:1000E0002000210022002300040005000600070074
:1000F000080009001E001F0020002100220023002C
:1001000004000500060007000800090000000000C8
:10011000000000002A2B2800000000000000000062
:100120000000000000000029000000002C1E342008
:10013000212224342627252E362D3738271E1F202E
:100140002122232425263333362E37381F04050673
:100150000708090A0B0C0D0E0F10111213141516B7
:100160001718191A1B1C1D2F3130232D35040506B5
:100170000708090A0B0C0D0E0F1011121314151697
:100180001718191A1B1C1D2F3130354C00000000A8
:10019000000000000000000000000000000000005F
:1001A000000000000000000000000000000000004F
:1001B0007E0F00D4FFFFFFC70000007800047F3FE0
:1001C0001F643214643214783C1E1E140A05222364
:1001D000252628292A2C2D2F3032333536383A3B24
:1001E0003D3E4042434547494A4C4E505153555776
:1001F000595A5C5E6062646668696B6D6F71737595
:1002000077797B7D7F81838587898A8C8E90929494
:1002100096989A9C9E9FA1A3A5A7A8AAACAEAFB1A1
:10022000B3B4B6B8B9BBBCBEBFC1C2C3C5C6C7C9EB
:10023000CACBCCCDCED0D1D2D2D3D4D5D6D7D7D8A5
:10024000D9D9DADADBDBDBDCDCDCDCDCDDDDDDDDF7
:10025000DCDCDCDCDCDBDBDBDADAD9D9D8D7D7D6FF
:10026000D5D4D3D2D2D1D0CECDCCCBCAC9C7C6C5B6
:10027000C3C2C1BFBEBCBBB9B8B6B4B3B1AFAEACFC
:10028000AAA8A7A5A3A19F9E9C9A98969492908EA7
:100290008C8A89878583817F7D7B79777573716F80
:1002A0006D6B6968666462605E5C5A59575553515C
:1002B000504E4C4A4947454342403E3D3B3A383612
:1002C000353332302F2D2C2A292826252322FFAA28
:1002D0007F554000010101010101010101020202FB
:1002E00002020202020203030303030303030404E2
:1002F00004040404040505050505060606060607AC
:100300000707070708080808090909090A0A0A0B64
:100310000B0B0C0C0C0D0D0D0E0E0E0F0F0F101005
:10032000111111121213131414151516161717188C
:100330001819191A1A1B1B1C1D1D1E1E1F202021F7
:100340002222232424252626272829292A2B2C2D3E
:100350002D2E2F30313232333435363738393A3B5F
:100360003C3D3E3F404142434445464748494A4C54
:100370004D4E4F50515354555658595A5B5D5E5F20
:10038000616264656668696B6C6D6F7072737577B6
:10039000787A7B7D7E8082838587888A8C8E8F9118
:1003A000939596989A9C9EA0A2A3A5A7A9ABADAF42
:1003B000B1B3B5B7BABCBEC0C2C4C6C9CBCDCFD12C
:1003C000D4D6D8DBDDDFE2E4E7E9EBEEF0F3F5F8D5
:1003D000FAFDFF0C035300480055004A0049000095
:1003E00000140373006800750072006900790061F1
:1003F000006D00610000000403090409025B0003B2
:100400000100A0FA09040000010301010009211103
:100410000100012240000705810308000A090401C8
:10042000000203000000092111010001222200073F
:1004300005820320000107050303200001090402CF
:10044000000103000000092111010001227B0007C7
:1004500005840320000A120100020000000818278A
:1004600004000001010200010660FF0961A1010909
:1004700062150026FF0095207508810209631500AA
:1004800026FF00952075089102C005010902A1010F
:1004900085020901A1000509190129081500250196
:1004A0009508750181020501093009311581257F03
:1004B00095027508810609381581257F9501750813
:1004C0008106050C0A38021581257F950175088182
:1004D00006C0C005010980A101850319012AB700E2
:1004E000150126B700950175108100C0050C0901A2
:1004F000A101850419012AA002150126A002950177
:1005000075108100C005010906A101050719E02940
:10051000E71500250195087501810295017508818F
:10052000010507190029FF150026FF00950675082B
:1005300081000508190129059505750191029501AC
:1005400075039101C00011241FBECFEFDAE0DEBFBA
:10055000CDBF04B603FE27C08091990290919A0204
:10056000A0919B02B0919C028730904BA740B04B6A
:10057000D1F41092990210929A0210929B0210925A
:100580009C0214BE84B7877F84BF0FB6F894A895E9
:1005900080916000886180936000109260000FBEBF
:1005A000E0E0F8E3099511E0A0E0B1E0EEE7FAE55C
:1005B00002C005900D92AA3CB107D9F722E0AAEC3F
:1005C000B1E001C01D92A939B207E1F70E943313CF
:1005D0000C94022D0C94000081E0089581E00895B0
:1005E0000C94EE0208950C94F2021F93CF93DF93C4
:1005F00000D000D00F92CDB7DEB749835A836B830A
:100600003091CC0189819A8131111DC06623B9F0E6
:100610002223A9F00E948609182F682F89819A81C8
:100620000E94310969817A81812F0F900F900F907C
:100630000F900F90DF91CF911F910C9456210E9443
:100640005E09182FEFCF0E94860969817A81EDCF6C
:10065000FC01262F408151816281738184810C9439
:10066000F50281E00895CF93DF93EC0160E00E94F2
:100670002803BE01DF91CF910C94F302E1E0F0E09A
:10068000DF0102C0AA0FBB1F6A95E2F7BD01DF01BF
:1006900002C0AA0FBB1F4A95E2F76A2B01C0EE0FFA
:1006A0002A95EAF7962F9823961302C08E2B089569
:1006B000E0958E230895242F462F682F8091D30133
:1006C0000E943E030C94EE080E94D9110E94BF04C0
:1006D0000C94F4110C94F71180E00C94C00408956C
:1006E00008950E9486080E9470032FEF84E39CE027
:1006F000215080409040E1F700C000000C9492240B
:100700000F931F93CF93DF938C0161E00E94280326
:10071000EC01B8010E94151E882309F441C0B801FC
:10072000CE010E94F0028823D9F1B801CE010E94C7
:10073000B7228823A9F1B801CE010E94661F882341
:1007400079F1B801CE010E942122882349F1B80134
:10075000CE010E94C71C882319F1F80182818823E9
:1007600061F0CA35FDE5DF0721F170F4C115ECE554
:10077000DE07A1F0CE3DDC45C9F0C801DF91CF9185
:100780001F910F910C94EC02CB358DE5D807A1F0A9
:10079000CC35DD4591F70E941E0EEFCF0E9471030C
:1007A00080E0DF91CF911F910F9108950E94D70EA5
:1007B000F7CF0E94270EE1CF0E942A0EDECF0C94C5
:1007C0006F030E9413230E94C0040C94DF03DF9286
:1007D000EF92FF920F931F93CF93DF93E82FF0E0F8
:1007E000E45FFE4FD490282F26952695269530E07D
:1007F000F901E455FE4F0491877010E0082E02C005
:10080000159507950A94E2F701701127F901E4564E
:10081000FE4FE490F12C082E02C0F594E7940A9460
:10082000E2F791E0E922FF24F901E457FE4FC49179
:10083000D0E002C0D595C7958A95E2F7C170DD2753
:100840000115110519F081EE0E940B05E114F10468
:1008500019F086EE0E940B058D2D0E940A06EF28E6
:1008600019F086EE0E949D05012B19F081EE0E9481
:100870009D05CD2B51F08CE2DF91CF911F910F910F
:10088000FF90EF90DF900C940A06DF91CF911F91BB
:100890000F91FF90EF90DF900895EF92FF920F93EA
:1008A0001F93CF93DF93EC01162F0AE088818823F2
:1008B00009F454C0813009F04EC08981813099F427
:1008C0007E0122E0E20EF11C8A810E940A06E70105
:1008D0002196812F815050F3EFE9FFE03197F1F736
:1008E00000C00000F7CF823041F47E0182E0E80EC4
:1008F000F11C8A810E940B05EACF833041F47E010E
:10090000E2E0EE0EF11C8A810E949D05E0CF84306A
:1009100011F02196DDCF2A81229690E080E0AE0191
:100920004F5F5F4F2053330B2A30310548F001975A
:1009300078F2EFE9FFE03197F1F700C00000F7CF60
:10094000089FB001099F700D1124C901860F971FE0
:100950002981EA01E4CF0E94E703BACFDF91CF916A
:100960001F910F91FF90EF90089560E00C944D045B
:1009700008950C94B80481E008950C94BB04089584
:10098000CF93C82F0E94B9048C2FCF910C94BD0433
:10099000CF93DF93CDB7DEB72B970FB6F894DEBFBA
:1009A0000FBECDBF4F83588769877A878B876111C8
:1009B0000E946C0D1E821D8285E0FE013796DE01CD
:1009C000119601900D928A95E1F78C819D81892B7A
:1009D00089F449815A816B817C818D819E810E943D
:1009E0008D0C2B960FB6F894DEBF0FBECDBFDF91F6
:1009F000CF91089589819A8189238F3F51F3CE0148
:100A000001960E9431038111E4CFEBCFFC0180817C
:100A100091810C94B309CF93C82F882309F48BC01C
:100A20008238C1F40E94132381FD85C089E30E94AE
:100A3000270D0E949C0D2FEF81EE94E02150804005
:100A40009040E1F700C0000089E30E942E0DCF9195
:100A50000C949C0D8338A1F40E94132380FD6BC07D
:100A600083E50E94270D0E949C0D2FEF81EE94E0FC
:100A7000215080409040E1F700C0000083E5E5CFC1
:100A80008438A1F40E94132382FD55C087E40E949C
:100A9000270D0E949C0D2FEF81EE94E021508040A5
:100AA0009040E1F700C0000087E4CFCF8CEF8C0FBF
:100AB000813A90F46C2F80910201909103010E9481
:100AC0007623882329F08C2F0E942E0D0E949C0DE6
:100AD0008C2F0E94270DBBCF80E28C0F883048F40A
:100AE000C77081E001C0880FCA95EAF70E944F0DD8
:100AF000AECFEBE5EC0FE33040F4F0E0E65AFE4F0A
:100B0000808190E0CF910C943823E8E5EC0FE73139
:100B100050F4F0E0EE0FFF1FE45DFE4F8081918105
:100B2000CF910C944E23C03F30F08C2F0E94C31302
:100B3000CF910C949614CF910895882309F452C054
:100B4000823871F40E94132381FF4CC089E30E9414
:100B5000270D0E949C0D89E30E942E0D0C949C0D84
:100B6000833859F40E94132380FF3CC083E50E9420
:100B7000270D0E949C0D83E5EFCF843859F40E9425
:100B8000132382FF2FC087E40E94270D0E949C0D33
:100B900087E4E2CF9CEF980F913AF0F290E2980F41
:100BA000983050F4877091E001C0990F8A95EAF768
:100BB000892F0E94550DD2CF9BE5980F933020F4DA
:100BC00090E080E00C94382398E5980F973120F45A
:100BD00090E080E00C944E23803F20F00E941D1492
:100BE0000C94961408951F93CF93DF93182FEB0165
:100BF0000E940B05209731F4812FDF91CF911F9137
:100C00000C949D058FE99FE00197F1F700C000006B
:100C10002197F0CF70E060E0893311F460E570E077
:100C20000C94F305882321F00E944F0D0C949C0D29
:100C30000895882321F00E94550D0C949C0D089571
:100C4000BF92CF92DF92EF92FF920F931F93CF93B9
:100C5000DF936C01D62FC72FFC011281F580F2942F
:100C60009FE0F9220E94450DE82E8823B9F0E12E7D
:100C70001123A1F08C2F807F803421F080E28D0F32
:100C80008830B0F08091620282FD12C082E00E9442
:100C9000ED0D0E94450D91E0E82EE926BC2EB294A0
:100CA0008FE0B822EB2DF0E0EC5FF24D0C94622C5B
:100CB000E12CF4CF0C2F0F70C07F11F00295007F54
:100CC000112399F0002359F080E28D0F883010F045
:100CD000D11107C0802F0E944F0D0E949C0D8D2FB7
:100CE00041C0802F0E945F0DF8CF8D2F0E949D057F
:100CF000002309F43FC080E28D0F883010F0D1113D
:100D000004C0802F0E94550D03C0802F0E94650DE6
:100D10000E949C0D2FC00C2F0F70C07FC03211F0AD
:100D20000295007FDD2381F0D13009F469C01123E1
:100D300009F473C0FF2009F469C0F601858180FFC2
:100D4000CECF8F70858362C08091620282FF38C0EF
:100D5000112359F0002329F0802F0E944F0D0E948B
:100D60009C0D80E00E940B0505C080E00E949D055F
:100D70000111C7CFEB2DE850FF0B349720F40E94F0
:100D800013230E94C004EE2009F45DC10E94410DAE
:100D900080FD59C1F60112820E943B0D0E94FF089E
:100DA000C6010E9444080E943B0DDF91CF911F9124
:100DB0000F91FF90EF90DF90CF90BF900C940A09B5
:100DC000112389F0F11006C00E947F0D802B0E9434
:100DD0001206D0CFF1E0FF12F7CF0E947F0D802BDB
:100DE0000E94850DC7CFF11006C00E94920D802F82
:100DF0000E941906BFCF21E0F21609F4BBCFF5CF50
:100E0000112331F035E03F1508F4B4CF802FDFCF48
:100E100084E08F1508F4AECFEACFFF2041F3D93339
:100E200049F4FFEF27EE33E0F15020403040E1F786
:100E300000C000008D2F0E949D059CCF8C2F8695B1
:100E40008695837069F0813009F094CF8D2F9C2FA7
:100E50009370111102C090E080E00E944E238ACF6F
:100E60008D2F9C2F9370111102C090E080E00E94A2
:100E7000382380CF8D2F112329F00E94C3130E94A5
:100E8000961478CF0E941D14FACF8C2F837079F5B9
:100E9000111170CF4D2F429546954770440F440F66
:100EA0008D2F8F70042E01C0880F0A94EAF72D2F22
:100EB0002071D4FF07C02FE030E001C0220F4A9517
:100EC000EAF72095C695C695C370822BC23049F0CB
:100ED00058F4C13019F00E94E0084CCF0E94DB08A2
:100EE00049CF0E94E50846CF0E94D90843CF869596
:100EF000112311F08C2F8170882309F43BCF4D2FE3
:100F0000429546954770440F440F8D2F8F70042EE5
:100F100001C0880F0A94EAF72D2F2071D4FF07C073
:100F20002FE030E001C0220F4A95EAF72095C695E0
:100F3000C695C370822BC23049F058F4C13019F005
:100F40000E94260917CF0E94210914CF0E942B0965
:100F500011CF0E94EE080ECFCF70112329F08C2FF5
:100F60000E94FF088D2F33CF8D2F0E9419068C2FE2
:100F70000E940A09FFCED23F51F160F4D03FB9F090
:100F8000D13F81F0112309F449C0F110A8CE8C2F74
:100F90008F7121C0D33F11F1D43FA1F7809162023C
:100FA00082FF26C08C2F8F71112311F314C01123DF
:100FB00049F084E08F1508F4DDCE8C2F8F710E94EC
:100FC0001609D8CE95E09F1508F4D4CEF6CF8C2F15
:100FD0008F711111CDCF0E94FF08CCCE112329F0C3
:100FE0008C2F8F710E94F708C5CE0E94F408C2CEE4
:100FF000112349F0CF718C2F0E94FF0863E08C2FE2
:101000000E94D20DB7CE81E00E94ED0DE1E0EF1518
:1010100008F0B0CE82E00E94ED0DACCEF110FFCE14
:101020008C2F8F71A5CF4C2F4F706D2FC6010E9452
:10103000C20F0E94E1099ECE4C2F4F706D2FC6014A
:101040000E94C50F97CEDF91CF911F910F91FF9016
:10105000EF90DF90CF90BF9008950F931F93CF93A1
:10106000DF93EC01688179818A810E94BD098C013E
:101070000E9430090E94D808B801CE01DF91CF91BB
:101080001F910F910C942006CF93DF93EC018B817D
:101090009C81892B29F08881998189238F3F59F47C
:1010A000DF91CF910895CE010E942D08CE01DF91EE
:1010B000CF910C943303CE010E9480038111F3CFB2
:1010C0000E94450D882361F38A81882349F380912A
:1010D000620282FDE5CF82E0DF91CF910C94ED0DAD
:1010E00090E080E00E94382390E080E00E944E2350
:1010F0000E946C0D0E947C0D0E949C0D0E94BD15EB
:101100000C9496140E94350D0C9470080E945C0D8E
:101110000C948208E92FE295EF70E250EE3070F403
:10112000F0E0EC5EF24D0C94622C803F19F020F45C
:10113000883E20F481E00895843FE1F380E0089543
:10114000883EC0F3813FD1F7F5CF93FB882780F924
:101150000895FC01808191810E94B3090C948A0852
:10116000CF93DF9300D000D00F92CDB7DEB70F90B2
:101170000F900F900F900F90DF91CF910895CF9324
:10118000DF9300D000D000D0CDB7DEB726960FB6E3
:10119000F894DEBF0FBECDBFDF91CF9108950895C3
:1011A0000C94CF080E94D0088093D4010C9470084E
:1011B00008950C94D2089091D401892B0C94D208F4
:1011C0009091D40189230C94D2089091D40189275D
:1011D0000C94D2080C94CF080C94EA080E94EC08F6
:1011E0008093D3010C94700880E00C94EE0891E099
:1011F00001C0990F8A95EAF7892F0C94EE0821E037
:1012000030E001C0220F8A95EAF78091D301822B4A
:101210000C94EE0821E030E001C0220F8A95EAF735
:1012200020958091D30182230C94EE0821E030E0D8
:1012300001C0220F8A95EAF78091D30182270C948E
:10124000EE089091D301892B0C94EE089091D30174
:1012500089230C94EE089091D30189270C94EE0811
:101260000895E92FEE0F9E0F890F982F977041E098
:1012700001C0440F9A95EAF786958695869593E086
:10128000899FF0011124E353FE4F30E020E070E02D
:101290005191DF011197CB01022E02C096958795DF
:1012A0000A94E2F7817081958527842385278C93A2
:1012B0002F5F3F4F2330310559F70895E92FEE0F87
:1012C0009E0F890F982F977086958695869523E0B7
:1012D000829FF0011124E353FE4F50E040E080E094
:1012E000219130E0092E02C0369527950A94E2F745
:1012F00021703327042E01C0220F0A94EAF7822BB3
:101300004F5F5F4F4330510559F70895CF92DF92F9
:10131000FF920F931F93CF93DF936C010091D30142
:101320008091D401082BC7E0D0E010E0FC2EC8016A
:101330000C2E02C0959587950A94E2F780FD0CC0AB
:101340002197A0F7F12C8F2DDF91CF911F910F9155
:10135000FF90DF90CF900895B6018C2F0E94E1108E
:10136000019771F3F0CFCF93DF93EC010E948609D0
:10137000BE01DF91CF910C94E1101F93CF93DF93C7
:10138000EB019091CC01992331F0CB01DF91CF910A
:101390001F910C94B309882379F0CB010E94860930
:1013A000182F682FCE010E943109BE01812FDF91D5
:1013B000CF911F910C94E110CB010E945E09182F70
:1013C000F4CFEF92FF920F931F93CF93DF938C0193
:1013D000892B81F0F12CEE24E394E8012196F801A9
:1013E0008491843770F4843008F05FC08130B1F0AC
:1013F0008230A1F1DF91CF911F910F91FF90EF907B
:101400000895853709F44CC008F43DC09CE7980F57
:10141000903780F78F770E949D0549C00E5F1F4F60
:10142000FE01849190E2980F983060F48770FE2D51
:1014300001C0FF0F8A95EAF78F2F0E946F0D0E945F
:101440009C0D02C00E940B058F2D815030F2EFE9F8
:10145000FFE03197F1F700C00000F7CF0E5F1F4F9C
:10146000FE01849190E2980F983050F48770FE2D21
:1014700001C0FF0F8A95EAF78F2F0E94750DDFCF0D
:101480000E949D05E1CF0E5F1F4FFE01C491C15028
:10149000D8F28FE99FE00197F1F700C00000F7CF85
:1014A0000E5F1F4FFE01F490CFCF0E940B058E01FF
:1014B000CBCF1F93CF93DF93C091D50116E08091DE
:1014C000D6018C1304C0DF91CF911F910895D0E015
:1014D0001C9FF0011D9FF00D1124E952FE4F408129
:1014E000518162817381848195810E94BF08219618
:1014F000C770E5CF40910702509108026091090240
:1015000070910A0280910B0290910C020C94BF081A
:10151000FF920F931F93CF93DF9380910C02807FF4
:10152000D1F4809109028823B1F08091D501109106
:10153000D6016091070270910802A0910A02B09151
:101540000B02062F0723C0910001D091010196E004
:10155000F92E181306C0DF91CF911F910F91FF90C4
:10156000089590E0109711F00F3F19F401968770DD
:10157000F0CFF89E9001F99E300D1124F901E95247
:10158000FE4F41814713F2CF40814613EFCF428196
:101590004111ECCF438154814A1B5B0B4C175D0713
:1015A00028F780910C028F70806180930C02F90102
:1015B000E452FE4F80818F708061808387E092E0EB
:1015C0000E944408DF91CF911F910F91FF900C94DE
:1015D000590AAF92BF92CF92DF92EF92FF920F9390
:1015E0001F93CF93DF93CDB7DEB761970FB6F89413
:1015F000DEBF0FBECDBF8C0185E0F801DE011D9678
:1016000001900D928A95E1F7F801E28087E0C82EFB
:1016100082E0D82E60910A0270910B02611571056B
:1016200009F45FC19091070220910802892F82235B
:101630008F3F09F456C140815181A380B480F0905E
:101640000902F501E61BF70BBF01E0910001F091E3
:101650000101FF2009F4F6C080910C02382F307F81
:101660006E177F0708F0AFC0311179C0FE2C25132B
:1016700023C0941321C0E1101FC08F70806180933C
:101680000C020E947A0AC6010E94440880910C0252
:10169000F80185838F2D61960FB6F894DEBF0FBEDB
:1016A000CDBFDF91CF911F910F91FF90EF90DF9011
:1016B000CF90BF90AF900895AB2829F0842F852359
:1016C0008F3F09F027C180E0F82FF170DF2E80FFF7
:1016D0003CC08091D5012091D60136E0821315C01F
:1016E0004D875E878D859E850E94B309292F22959F
:1016F0002F702230F0F0243018F59F70F1F0F801CF
:101700009581907FD1F4D12C1EC090E0389FF001DC
:10171000399FF00D1124E952FE4F6181651306C017
:101720006081641303C062816E110FC001968770DF
:10173000D5CF9F7011F0882331F3805E883018F385
:10174000C8010E944408FD2CA5CFEE2009F4A2CFC9
:1017500080910C02816080930C02F12C9BCF2513A9
:1017600006C0941304C0F801EE2009F487C0C80134
:101770000E94A908882319F1EE2009F180910C023A
:10178000803270F0209107023091080238872F8351
:101790001986BB86AA868C87CE0107960E944408CC
:1017A00086E0F801A7E0B2E001900D928A95E1F79A
:1017B0000E94880A0E947A0AFF24F3946BCFC80122
:1017C0000E944408F9CF311113C07A2DB98AA88A32
:1017D0006E2D89890E94B00887E092E00E9444083B
:1017E00086E0F60111928A95E9F70E947A0AB5CF50
:1017F00025130FC094130DC0E1100BC0F8018583B1
:10180000C8010E94440886E0F60111928A95E9F722
:1018100041CFC8010E94A908882389F2EE2079F2FD
:1018200080910C02803208F4BBCF209107023091E6
:1018300008023A8329831B82BD82AC828E83CE014B
:101840000196ACCF6E177F0708F03EC0FE2CEE204D
:1018500009F4B5CF25132AC0941328C080910C0237
:1018600080FD1BC0982F907FC1F0F8018583903FC9
:1018700031F0982F907F905F8F70892B8583C801FE
:101880000E94440886E0F801A7E0B2E001900D92C2
:101890008A95E1F70E947A0AFDCE86E0F801A7E07A
:1018A000B2E001900D928A95E1F7F4CEC8010E9452
:1018B000A908811175CF80910C02816080930C0280
:1018C000C8010E944408E6CE7A2DB98AA88A6E2DF6
:1018D00089890E94B00886E0F60111928A95E9F79D
:1018E000D9CFEE2009F46BCFC8010E94A908F82EC9
:1018F000882309F464CF86E0F801A7E0B2E0019004
:101900000D928A95E1F787E092E00E9406050E9419
:10191000880AC0CF81E08E25D7CE1F93CF93DF9367
:10192000CDB7DEB72C970FB6F894DEBF0FBECDBF94
:101930004F83588769877A878B879C87CE01079664
:101940000E94E90A882369F08A859B85892B39F0F2
:101950004F815885842F85238F3F09F071C016E091
:101960005FC086E0FE013796DE01119601900D9270
:101970008A95E1F78A859B85892B89F38F819885E4
:1019800089238F3F61F32091D60130E0C901019690
:10199000877099274091D5014817190671F40E9464
:1019A00086081092D6011092D50186E0E7E0F2E0B9
:1019B000DF011D928A95E9F7D2CF96E0929FD00180
:1019C000939FB00D1124A952BE4FFE013196019094
:1019D0000D929A95E1F78093D6010E94590ABFCFE4
:1019E000819FC001112489529E4F0E94E90A8823D9
:1019F000E9F0E091D5011E9FF0011124E952FE4F5C
:101A00004081518162817381848195810E94BF08E8
:101A10008091D50190E00196877099278093D50138
:101A20008091D5019091D6018913DACF2C960FB60B
:101A3000F894DEBF0FBECDBFDF91CF911F91089507
:101A400069857A858B859C850E94BF0888CF682F21
:101A500080910201909103010C94AC23682F809136
:101A60000201909103010C94AE23809102019091A8
:101A700003010C94B02380910D0285958595859581
:101A8000089580910D028770089590910D029770CE
:101A900081E009F480E00895809119020895909101
:101AA0001902892B8093190208958095909119024B
:101AB0009823909319020895109219020895909115
:101AC0001802892B8093180208958095909118022E
:101AD00098239093180208951092180208959091F7
:101AE0001702892B80931702089580959091170211
:101AF00098239093170208951092170208958091E9
:101B00000E02089508950C94820D9091620292FD48
:101B100008C090910E02981721F080930E020C9449
:101B2000830D089580910E02882329F010920E02F1
:101B300080E00C94830D0895E0910201F09103017F
:101B4000809119028083E0910201F091030180816C
:101B500090911802892B8083E0910201F09103019A
:101B6000808190911702892B808390910E02992396
:101B700081F0E0910201F09103018081892B808343
:101B800080910201909103010E94642381110E94BF
:101B9000920D80910201909103010C941F230895EE
:101BA0000C94CF0D9091620292FD10C098E0899F35
:101BB00090011124622B60930D020E94FF08809116
:101BC0000D028595859585950C94D00D0C94FF0894
:101BD00010920D0280E00C94D00D90910D02809532
:101BE000892380930D02282F277091F4282F082E27
:101BF000000C330B9217130659F09091620292FD7C
:101C000007C08595859585950E940A090C94E80D75
:101C100008959091620292FB222720F9281769F01B
:101C200080FB92F99093620280916102909162022E
:101C30000E94540E82E00C94ED0D08958091620292
:101C400082FB882780F991E089270C94090E81E0B6
:101C50000C94090E80E00C94090E6FEF7FEF90E07A
:101C600080E00C94EC2C90E080E00E94C82C893E2F
:101C70009E4F11F40C94BE1D80E0089582E090E028
:101C80000C94BA2C83E090E00C94BA2CCF9384E0AF
:101C900090E00E94BA2CC82F82E290E00E94BA2CF9
:101CA000982F8C2FCF910895CF93C92F682F84E060
:101CB00090E00E94CE2C6C2F82E290E0CF910C94A9
:101CC000CE2CAB01BC018FE090E00C94E02CAB017A
:101CD000BC0183E190E00C94E02C60E070E0CB016B
:101CE0000C94670E60E070E0CB010E94610E0C94D2
:101CF0006D0E69EE7EEF90E080E00E94EC2C60E0DB
:101D000082E090E00E94CE2C60E083E090E00E94B0
:101D1000CE2C1092D40160E084E090E00E94CE2CA2
:101D200060E082E290E00E94CE2C60E085E090E0EE
:101D30000E94CE2C60E086E090E00E94CE2C6FEFF7
:101D400087E090E00E94CE2C40E050E0BA0188E0AD
:101D500090E00E94E02C60E08DE090E00E94CE2CAC
:101D600040E050E0BA0188E190E00E94E02C60E0A1
:101D700087E190E00E94CE2C40E050E0BA018CE177
:101D800090E00E94E02C70E060E080E290E00E9431
:101D9000EC2C40E050E0BA0188E190E00E94E02C99
:101DA00080E00E94D71D0E94FD1D0C94720E0C94C1
:101DB000790E682F8EE090E00C94CE2C0E94532474
:101DC000609323027093240280932502909326024D
:101DD00060931F027093200280932102909322024D
:101DE000089585B7806885BF85B7806885BF0895E9
:101DF000089508950C94F80E08950C94FC0E0E941A
:101E0000F10E8FEB91E10E9409230E94F90E0C94D0
:101E1000FA0E81E008950C94090F089508950E9428
:101E20000D0F0C940E0F0E943E240E940C1E0E9467
:101E300099120E94AF1B0C94FD0EBF92CF92DF92BD
:101E4000EF92FF920F931F93CF93DF93CDB7DEB73F
:101E50002A970FB6F894DEBF0FBECDBF0E94AE1218
:101E600081110E94DE0E3BE1C32E32E0D32E10E042
:101E700000E0B02E802F0E94F911E82EF601F190BB
:101E80006F01F81609F457C08091270281FD0E9466
:101E9000FF118F2D8E25F82FF170FF2E80FD44C08D
:101EA00081FD44C082FF47C092E0D92E24E0F22E8B
:101EB0000E940B0F882399F0DE82BF82EF2081E021
:101EC00009F480E088870E9447248160782F9A87F0
:101ED00089874E815F8168858A850E94C804F801E0
:101EE000E55EFD4F8081F826F0820E94EF1B0E9484
:101EF000B1140E94132390911A02891799F10E943C
:101F0000132380931A022A960FB6F894DEBF0FBEF1
:101F1000CDBFDF91CF911F910F91FF90EF90DF9098
:101F2000CF90BF900C94C004D12CC2CFDD24D394A9
:101F300082E0F82EBDCF0F5F1F4F0430110509F06E
:101F400098CF8FEF89838A831B820E944724816008
:101F5000782F9D838C8349815A816B818D810E946A
:101F6000C804C3CF2A960FB6F894DEBF0FBECDBF0C
:101F7000DF91CF911F910F91FF90EF90DF90CF9065
:101F8000BF90089590E080E008950895FC01EE0F61
:101F9000FF1FE454FE4F859194910895CF93DF93F2
:101FA0000E94E510EC01811520E5920708F042C07F
:101FB000811530E4930708F0BDC0883E910528F5EF
:101FC000803E910508F09DC0883A910588F4853AD5
:101FD000910508F08FC08130910509F492C00097F7
:101FE00009F48FC0049708F08CC0D0E0C0E089C02D
:101FF0008F3B910508F489C0805C9109C03CD105F4
:10200000A0F30E94C60FEC017CC08115904250F4F1
:10201000C11581E0D80708F074C0C03FD10528F38E
:10202000D0656FC0C11590E3D90708F079C0CE0123
:102030009F70E7CF811525E5920758F5811534E5A6
:10204000930708F0A6C0811542E5940750F4C11526
:1020500081E5D80708F471C0DC2FCC27C16FD06AA6
:1020600050C0982F969596959E0123703327C115E1
:10207000D34508F07FC0C1E0D0E002C0CC0FDD1F27
:102080002A95E2F720E2929FC0011124C82BD92B98
:102090006FC0C11589E5D807A8F4C11598E5D9071F
:1020A00008F07CC0C11526E5D20708F09ECF8C2F22
:1020B0000E947C11C82FD0E0DC2FCC27CC27DF7109
:1020C000D0621FC0C1153AE5D30708F46CC0CE0139
:1020D00090568115904208F088CF8D2F8F710E9405
:1020E0007C1190E0982F882788279F719C012C2BCA
:1020F000E901E6CFC55AD0E0C557DE4FC881D0E030
:10210000D064CE01DF91CF910895C85AD0E0CC0FB2
:10211000DD1FC35ADE4F0990D881C02DD464F1CFA2
:10212000CE019927D3FF03C0EC01D86CEACFEC01B4
:10213000D06CE7CFDF70D06AE4CFCE01E4E09695B3
:102140008795EA95E1F783702C2F269526952370C5
:1021500090E2299F90011124382B8C2F8370C1E0CD
:10216000D0E002C0CC0FDD1F8A95E2F7C22BD32B43
:10217000DC68C7CFC1E0D0E002C0CC0FDD1F2A95DC
:10218000E2F730E2939FC0011124C82BD92BDA6803
:10219000B8CFD82FCC27C46FD06AB3CFDC2FCC27D1
:1021A000C06FD06AAECF8C2F8F700E947C1134E04C
:1021B000D695C7953A95E1F7CF709C2FEC01D06981
:1021C000A0CF0E9456210C94CE0F82389105B1F118
:1021D000B0F48133910509F475C048F48932910552
:1021E00009F469C08A32910509F473C008958533F2
:1021F000910509F459C08933910501F10895833E91
:102200009105A9F138F4803E9105F9F0823E9105DF
:1022100049F10895863E9105A9F1873E9105C9F1DE
:10222000843E910519F52091620221FF1FC0809123
:10223000610284FD14C087EE90E008952091610250
:102240002370A1F080EE90E008952091610220FDBE
:1022500047C03091620230FF09C024FF44C090E0C3
:1022600080E004C02091610222FDF7CF0895209103
:10227000610222FD3BC03091620230FDE3CF24FFBA
:10228000F5CFEDCF2091610223FFF0CF24FDE7CF02
:10229000D2CF2091610223FD2CC03091620231FF28
:1022A000EECF84EE90E008952091610225FFDECF0D
:1022B00089E290E008952091610225FFD7CF85E360
:1022C00090E008952091610226FFD0CF8AE290E04D
:1022D00008952091610226FFC9CF81E390E008951F
:1022E00089E390E0089583EE90E0089582EE90E017
:1022F000089586EE90E008959091610292FF06C0E5
:10230000282F28712830F9F4877F846093FF06C056
:10231000282F28712831F1F4877E84612091620290
:1023200020FF06C0382F38713830D9F4877F81609C
:1023300021FF06C0282F28712831D1F4877E8161C2
:1023400094FD877E0895282F24712430F9F68B7F21
:102350008860DCCF282F2471243101F78B7E8861BF
:10236000DDCF382F3171313019F78E7F8860E0CFA3
:10237000282F2171213121F78E7E8861E1CF80E005
:1023800008950C942D0E0E94AE128FE39CE90197E4
:10239000F1F700C000000E94AE1280E00E94F91127
:1023A00080FF04C00E94C1110C94922408950C94E3
:1023B000C3110E94330E811102C00E94D70E0E94E9
:1023C0003E0E809327020E94460E909362028093F5
:1023D00061020E94D7110E94420E0E94D90880918A
:1023E000D3010C94EC0808950C94F31108950C9407
:1023F000F611E82FF0E0E959FD4F80810895089526
:1024000080EA8A95F1F7089500C008950C940012AF
:10241000F894E82FE295EF70F0E031A1282F2F70AB
:1024200081E090E001C0880F2A95EAF7982F9095F7
:10243000932391A392A1892B82A37894089585E395
:102440000E94081284E30E94081286EC0E9408127F
:1024500087E90E94081287EF0E94081286EF0E9407
:10246000081285EF0C940812CF92DF92EF92FF9240
:102470000F931F93CF93DF93EC01D62E062F10E01E
:10248000C8018F569E4F7C01FC0180818F3F09F46B
:1024900045C0F894E82FE295EF70F0E091A18F70BD
:1024A00021E030E001C0220F8A95EAF7892F822BC4
:1024B00081A382A12095282322A378940E9404124C
:1024C000EEE8F1E041E951E031E0C12C21912F3FEC
:1024D00071F1A22FA295AF70B0E090968C9190E030
:1024E0002F7002C0959587952A95E2F780FD1FC051
:1024F000832FC82A330F4E175F0741F7F7018081FA
:102500008F3F11F00E94081261E0C11001C060E02D
:102510008D2D0E940612C00FD11FC882DF91CF916E
:102520001F910F91FF90EF90DF90CF90089580E082
:10253000E0CF0E941F1284E0E7E6F2E0DF01982F6F
:102540001D929A95E9F7E3E6F2E0DF011D928A9584
:10255000E9F784E00E94F0120C9464031F93CF9378
:10256000DF9300D000D0CDB7DEB719821A821B826C
:102570001C8210E0612FCE0101960E9434121F5F71
:102580001430C1F744E050E0BE016F5F7F4F83E637
:1025900092E00E94AD2C11E0009709F410E0892B25
:1025A00061F089819A81AB81BC81809363029093B1
:1025B0006402A0936502B0936602212F44E067E6AF
:1025C00072E083E692E00E94F1120E946A03812F7A
:1025D0000F900F900F900F90DF91CF911F91089562
:1025E0000895FF920F931F93CF93DF93F82E092F37
:1025F000162FD72FC42F222349F081E080932A027F
:102600000E944724909329028093280280912A02F5
:102610008823A1F080912802909129020E945F24D2
:10262000059760F0EF2DF02FA12FBD2FCE0FDF2FDC
:10263000D11DEC17FD0741F410922A02DF91CF91D2
:102640001F910F91FF90089581918D93F2CF0E9479
:1026500067260E94130F0C9473260E9477260E940F
:102660001D0F0C9491260E94D1230E944E260E9499
:10267000FF0E0E9427130E942D130E940F0FFBCF05
:102680008091310280FF12C06091090185E0689F4E
:10269000B00111247595679575956795603871053A
:1026A000A8F561157105A1F1862F089581FF09C074
:1026B0006091090185E0689FB001112475956795C7
:1026C000EDCF6091090182FD0AC08091300288231C
:1026D000D1F09091080160910901891728F085E0F7
:1026E000689FB0011124DACF869FB001112485E0E4
:1026F000869F9001879F300D1124692F70E0C901DA
:102700000E942C2CCBCF65E070E0CECF8FE70895F0
:1027100081E008958091310280FF0CC06091050135
:1027200070E075956795759567956115710549F127
:10273000862F089581FF06C06091050170E07595B0
:102740006795F3CF6091050182FD0BC090912F0238
:102750009923A1F06091040180910501961738F04A
:10276000682F70E06038710500F38FE70895899F46
:10277000C001112470E00E942C2CF4CF61E070E0C5
:10278000D7CF81E00895803F31F40E9440138195B6
:10279000809335020895813F19F40E944013F8CFC9
:1027A000823F31F40E944013819580933402089552
:1027B000833F19F40E944013F8CF893F29F40E9407
:1027C0008A138093360208958A3F21F40E948A1367
:1027D0008195F7CF8B3F31F40E948A1381958093C6
:1027E000370208958C3F19F40E948A13F8CF9CE0B9
:1027F000980F953070F4845F990B21E030E001C0B0
:10280000220F8A95EAF780913302822B809333025C
:1028100008958D3F31F480913102816080933102BF
:1028200008958E3F21F4809131028260F7CF8F3F6F
:10283000B9F7809131028460F1CF40913402803F3A
:1028400059F48091350287FF0DC010923502411175
:102850000BC01092300208C0813F81F48091350294
:1028600018169CF3442381F0809136029091370230
:10287000892B09F05AC010922F020895823F49F423
:1028800047FFF0CF10923402809135028111ECCFD6
:10289000E0CF833F19F41416ACF3E4CF90913602E5
:1028A000893F29F41916F4F610923602DBCF8A3FDD
:1028B00019F497FFD7CFF8CF909137028B3F29F4C7
:1028C00097FFD0CF10923702CDCF8C3F19F4191655
:1028D000CCF3C8CF9CE0980F953090F4845F990BAF
:1028E00021E030E0B90102C0660F771F8A95E2F758
:1028F000CB01809590913302892380933302B2CF2C
:102900008D3F31F4809131028E7F80933102AACFC6
:102910008E3F21F4809131028D7FF7CF8F3F09F0F8
:10292000A1CF809131028B7FF0CF08950E94472480
:102930009C019091340280913502982B21F03093C4
:102940002E0220932D029091360280913702982B0F
:1029500021F030932C0220932B0282E392E00C941E
:102960002A23EF92FF920F931F93CF93DF9300D010
:1029700000D000D0CDB7DEB786E0E2E3F2E0DE01C2
:10298000119601900D928A95E1F7E0903402F09053
:1029900035020091360210913702109234021092E3
:1029A000350210923602109237028E2D8F2991F047
:1029B00080912D0290912E020E945F24AC01909193
:1029C0003002992309F43FC080910A01841715064B
:1029D00008F447C0802F812B91F080912B029091B9
:1029E0002C020E945F24AC0190912F02992309F4DC
:1029F00077C0809106018417150608F47FC0809186
:102A0000340290913502892B90913602892B909156
:102A10003702892B11F00E94961486E0FE01319650
:102A2000A2E3B2E001900D928A95E1F726960FB6E7
:102A3000F894DEBF0FBECDBFDF91CF911F910F91F4
:102A4000FF90EF90089520910B018AE0289F90015C
:102A500011242417350708F0BDCF9F5F90933002F3
:102A600002C09F3FD1F7EE2059F00E9440139FEF24
:102A70001E140CF491E0899F802D11248093340260
:102A8000FF2059F00E9440139FEF1F140CF491E0B7
:102A9000899F802D11248093350230913402332395
:102AA00009F498CF20913502222309F493CF45EB06
:102AB0003403C0011124992359F09093340245EB5B
:102AC000240390011124332339F03093350282CF4F
:102AD00081E080933402F3CF81E0809335027ACF96
:102AE000209107018AE0289F9001112424173507BF
:102AF00008F085CF9F5F90932F0202C09F3FD1F7D0
:102B0000002359F00E948A139FEF10160CF491E0F5
:102B1000899F802D112480933602112359F00E9441
:102B20008A139FEF11160CF491E0899F802D1124D8
:102B30008093370230913602332309F460CF20911D
:102B40003702222309F45BCF45EB3403C001112483
:102B5000992359F09093360245EB240390011124F8
:102B6000332339F0309337024ACF81E08093360225
:102B7000F3CF81E08093370242CF86E0E2E3F2E0D8
:102B8000DF011D928A95E9F71092300210922F0210
:102B9000109231020895EF92FF920F931F93CF93FB
:102BA000DF93EB01E82FD11110C0442321F0F0E0B6
:102BB000ED52FD4FE4916E2F7E2F8E2FDF91CF913E
:102BC0001F910F91FF90EF9008950D2F10E0282F87
:102BD00030E0442329F02D523D4FF901249130E09B
:102BE000F6E0CF9FC0011124EFEFF0E0BF010E949B
:102BF000182CAB018C2F90E0880F991FA5E5A49F9E
:102C0000B001A59F700D1124861B970B982F990F6B
:102C1000980FBF01601B710B629FD001639FB00DC5
:102C2000729FB00D11248B2F9D9FB0011124672F2F
:102C30007727EF01C61BD70BBE01629FE001639FA0
:102C4000D00D729FD00D11247F01E91AF108E09E8A
:102C5000B001E19E700DF09E700D1124672F772753
:102C6000E61BF70BE29F8001E39F100DF29F100D12
:102C70001124E12F722F4230510599F048F441158B
:102C8000510569F04130510581F0EB2F8D2F07C0C0
:102C90004430510569F080F046305105B1F76E2F90
:102CA0008DCFE22F7B2F812FFACFE22F7D2FF7CF11
:102CB000EB2F822F712FF3CF7B2F822FED2FEFCFB2
:102CC00041E00C94CB1508950C946016CF93DF93DC
:102CD000762FE901682F842F0E9464167983688318
:102CE0008A83DF91CF91089580916B02982F9E7F08
:102CF00029F48170826080936B0208958A34E8F32E
:102D000081708864F8CF88E090E00C94C22CCF9258
:102D1000DF92EF92FF926B017C010E947416B70163
:102D2000A60188E090E0FF90EF90DF90CF900C94A8
:102D3000E02C60916B0270916C0280916D02909119
:102D40006E020C948716EBE6F2E083E0808311823A
:102D50008FEF828383831482A5E4B2E012968C9174
:102D60001297836012968C93608171818281938126
:102D70000C94871680916B0280FF02C0869508959F
:102D800080E0089590916F02933018F49F5F9093C4
:102D90006F02882351F060916B0270916C028091F8
:102DA0006D0290916E020C948716089581E00C9448
:102DB000C21690916F02992319F0915090936F026F
:102DC000882351F060916B0270916C0280916D02CA
:102DD00090916E020C948716089581E00C94D91698
:102DE00080916F02089580936F02662351F0609185
:102DF0006B0270916C0280916D0290916E020C9446
:102E00008716089560E00C94F31680916C02089583
:102E100080916D02089580916E02089570E00C9487
:102E2000921D6091100180916B0280FF0AC0809119
:102E30000F0123E0829FC001112480599D4F0C9403
:102E40000E17809111019091120123E0829FF001F1
:102E50001124E059FD4F891750F711821082128218
:102E60008F5F3396F8CF90916B0290FF14C09091D2
:102E700011012091120133E0939FF0011124E059D8
:102E8000FD4F921710F00C941117818360834283D9
:102E90009F5F3396F6CF0895CF93DF9300D00F92C4
:102EA000CDB7DEB790916B0290FF0AC09E012F5FF5
:102EB0003F4F0E9466164B8169818A810E943317B9
:102EC0000F900F900F90DF91CF910895CF93DF93E4
:102ED000EC01EC81F0E0E253FE4F4491EBE6F2E0CE
:102EE000628181810E944C178C818F5F8C83DF917E
:102EF000CF910895CF93DF93EC01EBE6F2E04381AD
:102F000062818C810E944C178C818F5F8C83DF9152
:102F1000CF9108950F931F93CF93DF9300D00F921B
:102F2000CDB7DEB78C018091380281110AC09E01B5
:102F30002F5F3F4F4FEF6FEF0E9466168A8180939D
:102F40003802F8016481613069F08091380240E014
:102F5000662361F040E0623011F44091380280E075
:102F600060E004C06091380240E080E00E943317C6
:102F7000F801848190E0019663E070E00E942C2CBF
:102F800084830F900F900F90DF91CF911F910F913D
:102F90000895AF92BF92CF92DF92EF92FF920F937C
:102FA0001F93CF93DF9300D00F92CDB7DEB7182FCA
:102FB000F62E042FE22E90916B0290FF3AC0E92F7B
:102FC000E695AE2FB0E0AB56BE4F8C918093450294
:102FD0009E7F9230E1F59E012F5F3F4F812F0E942F
:102FE00066164B8169818A810E94331780916C0239
:102FF000811308C080916D028F1104C080916E0210
:10300000801729F0809147028260809347021093D5
:103010006C02F0926D0200936E02EE2051F060910E
:103020006B0270916C0280916D0290916E020E9411
:1030300087160F900F900F90DF91CF911F910F91F6
:10304000FF90EF90DF90CF90BF90AF9008958230C7
:1030500019F400916E02CACF863019F410916C02F7
:10306000C5CF8930D9F3893109F6E9518E2F8170A6
:10307000D82EE695F0E0E253FD4FA590B490C12C18
:10308000BB2460911301C61618F00E941117AECF31
:103090002C2D30E0A29EC001A39E900DB29E900DFB
:1030A000112470E00E94182C812FD11013C0860FBC
:1030B00040911101420F532F511D9A01220F331FCE
:1030C000240F351F20593D4F402F6F2D0E9466164B
:1030D000C394D7CF861BECCFEBE6F2E09181282F8B
:1030E000438162818AE0890F0C94C91781E00C94B6
:1030F0006C18EBE6F2E09181282F4381628186EF24
:10310000890F0C94C91781E00C947918EBE6F2E072
:10311000628121E1620F08F46FEF282F43818181E2
:103120000C94C91781E00C948618EBE6F2E06281FA
:1031300021E1621B08F460E0282F438181810C9417
:10314000C91781E00C949518EBE6F2E0438121E188
:10315000420F08F44FEF282F628181810C94C91728
:1031600081E00C94A418EBE6F2E0438121E1421BDC
:1031700008F440E0282F628181810C94C91781E016
:103180000C94B31820E00C94C917EF92FF921F9390
:10319000CF93DF93EC0110E0EE24EA94F12C6091E0
:1031A0001301161770F00E9411179A818C8190FFFD
:1031B00027C08F5F8C83DF91CF911F91FF90EF909D
:1031C000089520911101422F410F5527551FCA0123
:1031D0009A01220F331F280F391F20593D4F70E0ED
:1031E000C7010E942C2C962F8C8140916E02609119
:1031F0006D02199F800D11240E9466161F5FCFCFAC
:103200008150D8CF9F92AF92BF92CF92DF92EF9230
:10321000FF920F931F93CF93DF93EC018A81BB241E
:10322000BA9480FD02C0BB24B3948C8181110AC082
:1032300081E0B81227C080911301815080933A0237
:1032400081E08C83A12C80911301A816F0F00E94DC
:10325000111780913A0291E0B9125DC0811156C0F8
:1032600080911301815080933A021C82DF91CF91AB
:103270001F910F91FF90EF90DF90CF90BF90AF9094
:103280009F90089510923A02DBCF00911101CA2C51
:10329000D12C0C0D1D2D111DC801880F991F080F71
:1032A000191F00591D4FF80111821082128234E05B
:1032B000E32EF12C912C80913A02890D893004F192
:1032C0008770082E000C990BC816D90691F48091CE
:1032D0006E028E9DA0018F9D500D1124559547952E
:1032E00055954795980160916D0280916C020E94FE
:1032F00066169B0CF1E0EF1AF108E9F6A394A3CF50
:1033000087FFDFCF90911301890FDBCF815080932E
:103310003A02BC82ABCF90E001966091130170E05D
:103320000E942C2C80933A028C83A0CFEF92FF92C4
:103330000F931F93CF93DF93EC018C81811109C010
:1033400081E08C831092390292E090930E01809379
:103350000D01809111019091120123E0829FF001F3
:103360001124E059FD4F891768F110E003E06091E6
:103370001301161768F10E94111780910D01209119
:103380003902280F2093390290910E01980F9093E3
:103390000E01191654F4022E000C330B4091130148
:1033A0004150550B2417350734F0819580930D015A
:1033B000813009F41C82DF91CF911F910F91FF9012
:1033C000EF9008951182108212828F5F3396CBCFD7
:1033D000E12EF12C70E0C7010E942C2C20911101EC
:1033E000820F482F50E020913902022E000C330B3F
:1033F000E216F306BCF020910E01022E000C330BF6
:103400002E153F057CF0809F9001112420593D4FDF
:1034100040916E0260916D0280916C020E9466166E
:103420001F5FA5CFFA01EE0FFF1FE40FF51FE05954
:10343000FD4F118210821282F3CF8F929F92AF9232
:10344000BF92CF92DF92EF92FF920F931F93CF9391
:10345000DF93EC014C81042F10E09801D8010E9409
:10346000772C9B01AC010E948D2C4B015C01E0E2AA
:10347000F0E0E01BF10BA5E5B0E0AC019B010E9480
:103480008D2C6B017C019F01DF010E946F2C9B0141
:10349000AC010E94982C9B01AC01280D391D4A1DDE
:1034A0005B1DC701B6010E94402CF22E822F90E0D6
:1034B00039E23F1560F143E0249F900111243595D6
:1034C0002795122F109500E085E5E82EEF188091E2
:1034D0001301081758F10E9411179C8181E099236C
:1034E00019F0903219F48FEF80930C0180910C0148
:1034F000890F8C83DF91CF911F910F91FF90EF90F7
:10350000DF90CF90BF90AF909F908F90089525E56A
:1035100030E0B901681B790B9B01220F331F260F86
:10352000371F37FFCCCF2F5F3F4FC9CF8E2D01FD07
:103530008F2D20911101622F600F7727771F9B013C
:10354000220F331F260F371F20593D4F412F609107
:103550006D020E9466160F5FBACF0F931F93CF9331
:10356000DF93EC0110E000E0909113019017110639
:1035700009F06CF40E9411178C8190E00196817023
:1035800099278C83DF91CF911F910F9108952091FE
:103590001101A801420F511D9A01220F331F240F60
:1035A000351F20593D4F4C8160916D0280916C0216
:1035B00096959017110651F04CF0442349F0409134
:1035C0006E020E9466160F5F1F4FCECF4423B9F3E1
:1035D00040E0F7CFE5E4F2E01182828184608283EB
:1035E0000895EBE6F2E080818E7F80830E94EA1AE4
:1035F000E5E4F2E08281816082832FEF80E792E050
:10360000215080409040E1F700C000000C94111759
:10361000EBE6F2E080818E7F808360817181828120
:1036200093810E9487160E94EA1AE5E4F2E0828103
:10363000816082832FEF80E792E0215080409040AC
:10364000E1F700C000000C94111760916B026695C1
:1036500070E04BE050E084E191E00E94A02C892BC7
:1036600019F481E0809346020E94472490933F0220
:1036700080933E02809147028460809347020895C0
:1036800090916B0290FF3AC0917081112DC09260B1
:1036900090936B028091470281608093470266237A
:1036A00051F060916B0270916C0280916D0290916B
:1036B0006E020E94871660916B02669570E04BE087
:1036C00050E084E191E00E94A02C892BA1F00E949F
:1036D000EA1A81E08093410240916E0260916D028E
:1036E00080916C020C94C218853210F09864D0CF8F
:1036F000880F982BCDCF0E94251BEBCF0895682F04
:1037000090916B02969581E0890F853208F081E0F7
:103710000C94401B81E00C947F1B682F90916B02EE
:1037200096958FEF890F09F484E20C94401B81E099
:103730000C948D1B61E00C94401BEBE6F2E0808161
:103740008160808386950C949A1B80916B0280FD2A
:103750000C94081B0C949D1B60E00C94401B809102
:103760004402811133C00E94330E811104C00E94B3
:10377000D70E0E94A3160E94831660936B0270936B
:103780006C0280936D0290936E0280914702836079
:10379000809347026E7F61F40E94A3160E948316F5
:1037A00060936B0270936C0280936D0290936E0233
:1037B0000E9474160E94EA1A80916B0280FF03C077
:1037C00086950E94AC1B81E0809344020895EBE64D
:1037D000F2E080818160808386950C94AC1BEF922F
:1037E000FF920F931F93CF93DF938091460288231C
:1037F00009F462C080914502E0916B02E695E81BF6
:10380000E0934002823009F05EC0F0E0E653FE4FE4
:10381000E491CE2FD0E006E617E1809141028823A3
:1038200061F0109241020E94472490933F028093DE
:103830003E0210924302109242020E944724E091FD
:103840003E02F0913F029C012E1B3F0B2F3F3F4752
:1038500098F520913D022223B1F010923D02209173
:103860003B0230913C02821B930B8F3F9F4758F4E1
:10387000205D3A4830933C0220933B0280914702FE
:10388000886080934702E0904202F0904302EC0F80
:10389000FD1FF0933F02E0933E028EE392E0F801B9
:1038A00009958091420290914302892B29F4EF28D7
:1038B00019F081E080933D02DF91CF911F910F912C
:1038C000FF90EF900895863049F4F0E0E953FE4F01
:1038D000E491CE2FD0E00AE717E19FCF893051F471
:1038E000E695F0E0EC53FE4FE491CE2FD0E005ECEE
:1038F00018E193CF8F3051F4E695F0E0EF53FE4F8F
:10390000E491CE2FD0E002E019E187CF853149F470
:10391000F0E0E254FE4FE491CE2FD0E006E919E149
:103920007CCFC8E2D0E00DE11AE1883109F475CF0F
:10393000833239F4ECEBF1E0C591D4910AE817E158
:103940006CCFC4EFD1E00DEA1AE1843209F465CFFF
:10395000C0EDD7E003E616E160CFFA01811101C0A6
:10396000FB010994CF93DF93C82FD62F0E94BA167C
:103970008C1740F00E94BA168D1720F4DF91CF917A
:103980000C948A1B8C2FDF91CF910C949A1B1F9360
:10399000CF93DF93EC01FB011281112309F4C0C026
:1039A0000E944C0D8272CC3CFCE5DF0709F49CC000
:1039B00008F044C0C63CECE5DE0709F481C0F0F431
:1039C000C33C9CE5D90709F471C048F4C23CDC450E
:1039D00009F469C0812FDF91CF911F910895C43CF4
:1039E0009CE5D90709F467C043E858E166E778E148
:1039F000C53CDC4579F70E94AD1C53C0C93CFCE5D1
:103A0000DF0709F467C068F4C73CECE5DE0709F49A
:103A10005CC042E958E161EA78E1C83CDC4559F311
:103A2000D9CFCA3C9CE5D90709F459C04DEE56E1FF
:103A300066ED76E1CB3CDC45F1F2CCCFC13DFCE557
:103A4000DF0709F462C098F4CE3C9CE5D90709F47D
:103A500054C008F44EC0CF3CFCE5DF0709F452C067
:103A6000C03DDC4509F0B6CF6EE089E048C0C43DFA
:103A70009CE5D90709F44FC058F4C23DFCE5DF07C7
:103A800009F446C0C33DDC4509F0A4CF88E132C04B
:103A9000C53D9CE5D90709F441C0CD35DD4509F0A8
:103AA00099CF10E097CF0E94A51BFBCF47E95BE1C0
:103AB0006AE87BE1A0CF4AE85BE167E97BE19BCF65
:103AC00046E758E163E878E196CF41EA58E162E9D8
:103AD00078E191CF4FEB58E160EB78E18CCF40EB90
:103AE00058E16FEB78E187CF46ED56E16DEE76E178
:103AF00082CF81E00E949A1BD4CF65E082E00E94D1
:103B0000B21CCFCF68E086E0FACF64E18FE0F7CF58
:103B100067E185E1F4CF62E289E1F1CF83E2EACFA8
:103B200011E058CF539A4BB1477F5BB15860EFB764
:103B3000F8949B01220F331F260F371F280F391FC0
:103B40002817390741F4EFBF8FE594E00197F1F7AB
:103B500000C000000895DC016D91CD0178E05BB9F3
:103B6000000000C067FF4BB9660F000000C000C036
:103B700000C04BB900C07A9591F7E2CF83E290E0A4
:103B80000E94BA2C823289F484E290E00E94BA2C1E
:103B9000813059F485E290E00E94BA2C91E08430A3
:103BA00009F090E0892F8170089580E0FCCFCF93D9
:103BB000C82F6FEF811162E283E290E00E94CE2C69
:103BC0006FEFC11161E084E290E00E94CE2C6FEFB4
:103BD000C11164E085E290E0CF910C94CE2C089561
:103BE00086E290E00E94BA2C682F70E090E080E0BE
:103BF000089586E290E00C94CE2C80E00E94D71DC0
:103C000060E070E0CB010E94F91D0E94D0200E946C
:103C1000BA2181E00C94D71D0E94EF1D0E94BE1DA9
:103C2000811102C00C94FD1D0895CF93FB01C28148
:103C3000CC2309F19C0122513F452031310520F56B
:103C400082510E94CA21C0E08C2FCF91089581E05B
:103C50000E94FF0843E062E081E00E945B03F3CF33
:103C600081E00E940A0943E062E081E00E945B0378
:103C7000EBCF82E0F6CF8031FFE59F0789F38131FA
:103C80009F45B9F3C1E0E0CF8031EFE59E07F9F23F
:103C900081319F45C9F682E0DBCF2FEFFC01208305
:103CA0000895CF93DF93EC0188818138A9F028F43F
:103CB000803871F0DF91CF910895823881F0833898
:103CC000C9F70E94051789830E9408178A83F2CFDB
:103CD0000E940B178983EECF0E94BA16FBCF0E9479
:103CE000F016F8CFCF93DF93EC0188818138E1F0B3
:103CF00028F4803869F0DF91CF910895823811F16E
:103D00008338C9F70E940B17482F6A81898108C040
:103D1000D9810E940817C82F0E9405174D2F6C2FBC
:103D2000DF91CF910C94C21889810E94AC1B8981CC
:103D3000811104C0DF91CF910C94F11ADF91CF91E2
:103D40000C94E71B8981DF91CF910C940217EF92BD
:103D5000FF920F931F93CF93DF93EC01062FDC01AB
:103D6000ED91CD01E150E33108F0ADC0F0E0EE5D42
:103D7000F24D0C94622C198289E08A83602FCE0167
:103D8000DF91CF911F910F91FF90EF900C94272519
:103D90008981823069F0833071F08130D9F40E94DA
:103DA00053240E94682C6A837B838C839D83E6CF97
:103DB0000E94F01DF6CF7E01B2E0EB0EF11C10E088
:103DC000812F0E94F911F70181937F011F5F143049
:103DD000B9F7D4CF602FCE010E944D1ECFCF89817D
:103DE0008230C1F76A817B818C819D810E94682C21
:103DF0000E94F91DC3CF4B816A8189810E94A22054
:103E00009827892798279D838C83B8CF2C813D8163
:103E10003227232732274B816A8189810E94BB2068
:103E2000ADCF0E94D020AACF0E94721EA7CF0E94C1
:103E3000511EA4CF0E949916A1CF0E9463218983AD
:103E40009DCF0E9465219827892798279A83898387
:103E500095CF6B8170E089819A81AE014C5F5F4F95
:103E60009827892798270E94682188CF6B8170E066
:103E700089819A81AE014C5F5F4F982789279827E7
:103E80000E948F217BCF0E94BA2178CF0E94902080
:103E9000D6CF6B8170E089819A81AE014C5F5F4F14
:103EA0009827892798270E94082168CF6B8170E0A6
:103EB00089819A81AE014C5F5F4F982789279827A7
:103EC0000E942D215BCF8FEF888358CFCF93DF9354
:103ED000EC01FB018281882309F420C1C330FDE598
:103EE000DF07C8F5CA3F9CE5D90730F49E01225090
:103EF0003C452431310598F50E94460E90936202AC
:103F000080936102C031FCE5DF0709F4E0C008F0EE
:103F100061C0C8309CE5D90709F4CBC088F5C4302E
:103F2000FCE5DF0709F4B3C0E8F4C2309CE5D9072B
:103F300009F4A7C0809161028260C330DC4509F4B6
:103F4000A3C080916102909162020E94540E0E946F
:103F5000860880E004C0C136EDE5DE0769F2DF9136
:103F6000CF910895809161028061C630FCE5DF0742
:103F700009F48AC008F48FC080916102806284C015
:103F8000809161028D7FCC309CE5D90709F47CC01B
:103F900070F4809161028C60CA30FCE5DF0709F49F
:103FA00073C008F48AC0809161028E7F6DC08091D9
:103FB0006102877FCE309CE5D90709F465C0809106
:103FC00061028B7FCF30DC4508F45EC080916102D6
:103FD0008F7E5AC0CC3FFCE5DF0709F474C040F582
:103FE000C4319CE5D90709F48AC058F4C231FCE514
:103FF000DF0709F474C008F46EC080916102837F0A
:1040000043C0CA3F9CE5D90709F449C008F04DC038
:10401000C531DC4509F095CF8091610282FB99277B
:1040200090F921E0922790FB82F990FB83F92CC054
:10403000C1158DE5D80709F458C088F48091620253
:104040008360CE3FECE5DE0769F1809162028D7FEF
:10405000CF3FDC4538F1809162028C7F23C0C230B3
:104060008DE5D80709F458C008F452C0C136DD45C3
:1040700009F067CF90916102892F8F7E94FF806154
:1040800003C0809161028160809361025ACF809168
:1040900061028460F9CF809161028860F5CF8091E0
:1040A00062028160809362024CCF809162028260E2
:1040B000F9CF809161028064E7CF0E9486088091E9
:1040C00061028068E1CF809162028E7FEBCF8091A8
:1040D00061028F7DD9CF809161028F7BD5CF0E9405
:1040E0008608809161028F77CFCF80916202982FEE
:1040F000909591708E7F892B90FB81F9D3CF0E9490
:10410000860890916102892F97FB87F98058BCCF70
:1041100081E00E94D90E15CF80E0FBCF81E01FCF58
:1041200083E0089550E0440F551F96E0699F400DCD
:10413000511D112498E1899F400D511D1124CA0180
:10414000879608950F931F93CF93DF930E94922039
:104150008C010E94BA2CC82FD0E0DC2FCC27C801DC
:1041600001960E94BA2C9E01282BC901DF91CF91A4
:104170001F910F9108950F931F93CF93DF93122FE9
:10418000032F0E949220EC01602F0E94CE2C612F01
:10419000CE010196DF91CF911F910F910C94CE2CFF
:1041A000AF92BF92CF92DF92EF92FF921F93CF9385
:1041B000DF938CEAC82E80E0D82ED0E07601C0E0F4
:1041C00014C0F50125913491412F6C2F8D2F0E9441
:1041D000BB2082E0A80EB11C1F5F133091F786E070
:1041E000E80EF11CCF5FC43019F0570110E0E9CFA1
:1041F000DF5F88E1C80ED11CD33001F7DF91CF918A
:104200001F91FF90EF90DF90CF90BF90AF900895F7
:10421000EF92FF920F931F93CF93DF93EC018A01EC
:104220007C01E60EF71ECE018796CE15DF0539F428
:10423000DF91CF911F910F91FF90EF900895C834B7
:10424000D10540F40E94BA2CF80180830F5F1F4F04
:104250002196E9CFF8011082F9CFCF92DF92EF9249
:10426000FF920F931F93CF93DF937C016A018C0120
:10427000060F171FEC01CE018796C017D10749F42E
:10428000DF91CF911F910F91FF90EF90DF90CF9032
:104290000895C834D10540F4FE01EE19FF09EC0D74
:1042A000FD1D60810E94CE2C2196E5CF462F8330E4
:1042B00038F4743028F4633018F4672F0C94A2207B
:1042C00090E080E0089580E1089581E993E0089509
:1042D000EF92FF920F931F93CF93DF93EC018A012C
:1042E0007C01E60EF71ECE0181599F4FCE15DF05EA
:1042F00039F4DF91CF911F910F91FF90EF900895C6
:10430000C13923E0D20740F40E94BA2CF80180831F
:104310000F5F1F4F2196E7CFF8011082F9CFCF92A0
:10432000DF92EF92FF920F931F93CF93DF937C0165
:104330006A018C01060F171FEC01CE0181599F4FB6
:10434000C017D10749F4DF91CF911F910F91FF90D2
:10435000EF90DF90CF900895C13923E0D20740F469
:10436000FE01EE19FF09EC0DFD1D60810E94CE2CAF
:104370002196E3CFCF93DF93CFE6D0E060E0CE018C
:104380000E94CE2C2196C11584E0D807B9F7DF91A1
:10439000CF910895DF92EF92FF920F931F93CF93E7
:1043A000DF9300D000D0CDB7DEB7F82E8FE08F15A9
:1043B00040F08FEF93E00E94BA2C0FE610E08823C4
:1043C000C1F00F900F900F900F90DF91CF911F9140
:1043D0000F91FF90EF90DF900895011584E018078A
:1043E00081F3C8010E94BA2C811101C0FA940F5FB9
:1043F0001F4FF110F2CF19821A821B821C82DD241A
:10440000D39478018FEFE81AF80AC8010E94BA2CF9
:1044100089831A828823A9F29FEF980F933078F44A
:104420008A83D9820E5F1F4FC7010E94BA2C8B83EB
:10443000882339F2CE0101960E94B504E2CF8701AC
:10444000F9CFCF93DF93EB0186319C4511F50E94A4
:104450004C0D9A81992399F08A7A91E009F490E0C1
:1044600090934802811109C089E20E94270D0E94A1
:104470009C0D80E0DF91CF91089585E3F6CF809188
:104480004802811104C089E20E942E0DF0CF85E31D
:10449000FBCF81E0EFCF0F931F93CF93DF93C42F18
:1044A000D22FFC0182818823C9F040934B020E94E5
:1044B000472490934A028093490280E28C0F88300F
:1044C00008F050C0C77081E001C0880FCA95EAF7B4
:1044D000DF91CF911F910F910C94120610914B0216
:1044E000141335C08091490290914A020E945F24C2
:1044F000883C910560F5C0E2CD0F1D17B9F080E250
:10450000810F883040F4177081E001C0880F1A9540
:10451000EAF70E941906C83048F481E09D2F977091
:1045200001C0880F9A95EAF70E941206802F0E9418
:104530000A06C830B8F4D77081E001C0880FDA9558
:10454000EAF7DF91CF911F910F910C94190680E249
:104550008C0F883038F4C77081E001C0880FCA958D
:10456000EAF7EFCFDF91CF911F910F9108950F934D
:104570009C01CB01233F4CE5340759F1A8F4283DB9
:10458000FCE53F0701F1293D4CE53407D1F1273D1A
:104590003C4591F406E221EE41EE67ED7CE50E9498
:1045A0004B2280E00F910895253FFCE53F07E9F09D
:1045B000B0F0263F3C45F9F0FC018281882339F1B7
:1045C00010924B02EFCF07E225EE45EE68ED7CE559
:1045D000E6CF06E221EE40EE63EF7CE5E0CF07E2B6
:1045E00025EE44EE64EF7CE5DACF06E221EE42EE02
:1045F00065EF7CE5D4CF07E225EE46EE66EF7CE57D
:10460000CECF08E221E045EE69ED7CE5C8CF81E040
:10461000C9CF9093CB018093CA0108959093510222
:10462000809350020895E0915002F091510230972A
:1046300021F00190F081E02D099480E00895E0914F
:104640005002F0915102309721F00280F381E02D69
:1046500009940895E0915002F0915102309739F099
:1046600022E0DC012C930480F581E02D099408956B
:1046700020914E0230914F022817390771F0909324
:104680004F0280934E02E0915002F0915102309718
:1046900021F00680F781E02D0994089520914C02C5
:1046A00030914D022817390771F090934D02809395
:1046B0004C02E0915002F0915102309721F00084B9
:1046C000F185E02D099408959C012E5F3F4FAC01C8
:1046D000485F5F4F80E02417350709F40895F9011A
:1046E00091919F019923B9F38F5FF5CF662349F02C
:1046F000FC01329608962191261729F0E817F90750
:10470000D1F780E0089581E008959C01FC01329684
:104710009FEF80E04191461751F09F3F19F44111FE
:1047200001C0982F8F5F8630A9F79F3F09F4089545
:10473000290F311D97FD3A95F90162830895FC0117
:10474000329608962191261303C0DF0111971C921F
:10475000E817F907B9F708950C9485230C949F2363
:10476000029626E0FC0111922A95E9F70895089532
:104770000C94B723811105C081E0809352020C9400
:10478000B82382E0FACF83E0809352020C94B823DE
:104790000C94BA2381E0809352020C94B8230C94B9
:1047A000CA23089580919002843031F10E946C03F5
:1047B0001092530288E190E020E40FB6F894A89597
:1047C000809360000FBE2093600083B7817F846078
:1047D00083BF83B7816083BF7894889583B78E7FCA
:1047E00083BF0FB6F894A89580916000886180938C
:1047F0006000109260000FBE089508950895CF9351
:104800000E94FD230E94AE120E94FE23C0E08C2F66
:104810000E94F911811105C0CF5FC430C1F7CF915B
:10482000089581E0FCCF0E9486080C94E1031F925A
:104830001FB61F9211248F939F93AF93BF938091C4
:104840005302811113C08091880290918902A09136
:104850008A02B0918B024196A11DB11D80938802FE
:1048600090938902A0938A02B0938B02BF91AF917B
:104870009F918F911F901FBE1F90189582E084BD5D
:1048800093E095BD9AEF97BD80936E0008952FB782
:10489000F8948091880290918902A0918A02B09147
:1048A0008B022FBF08952FB7F89460918802709102
:1048B000890280918A0290918B022FBF08959C01FA
:1048C0004FB7F8948091880290918902A0918A0252
:1048D000B0918B024FBF821B930B089578941F9267
:1048E0001FB61F9211248F939F93AF93BF93809114
:1048F000880290918902A0918A02B0918B02019660
:10490000A11DB11D8093880290938902A0938A0211
:10491000B0938B02BF91AF919F918F911F901FBE5B
:104920001F90189587E797E79093010880930008F8
:1049300088E19AE00FB6F894A895809360000FBEC6
:1049400090936000FFCF80915F02089508959C01CD
:1049500084E08093E9009FEF8091E800915085FD0D
:1049600006C085ED8A95F1F700009111F5CF809191
:10497000E80085FF0CC050E040E066E070E0C9014F
:104980000E9438278091E8008E778093E800089590
:10499000CF93DF93EC0181E08093E9008FEF90915A
:1049A000E800815095FD06C095ED9A95F1F700005D
:1049B0008111F5CF8091E80085FF14C050E040E000
:1049C00068E070E0CE010E9438278091E8008E7781
:1049D0008093E80088E0FE01A7E5B2E001900D9227
:1049E0008A95E1F7DF91CF910895809354027093F7
:1049F000560260935502809190028430F9F48093BE
:104A0000E9008FEF9091E800815095FD06C095ED8B
:104A10009A95F1F700008111F5CF8091E80085FFAC
:104A20000DC050E040E063E070E084E592E00E9459
:104A300038278091E8008E778093E8000895BC01C4
:104A400084E00C94F524BC0183E00C94F524CF930E
:104A5000FC01603221F580919002843001F5C09113
:104A6000E900CF702091EC00922F917020FD90E82A
:104A7000C92B82E08093E9008091E80080FF0CC0A0
:104A800050E040E060E270E0CF010E943827809162
:104A9000E8008E778093E800CF70C093E900CF9153
:104AA000089580918F02811109C00E9417290E94E8
:104AB00074298091E20084608093E200089510924E
:104AC0008F0208950C94CA2360918C0281E06111D9
:104AD00001C080E00C94C3239091900281E0943057
:104AE00009F080E060918C020C94C82342E061ECF4
:104AF00081E00E94932842E261EC84E00E949328C6
:104B000042E261EC82E00E94932842E260EC83E0A2
:104B10000E9493289091900281E0943009F080E007
:104B200060918C020C94BA2380919202833009F434
:104B300062C030F48130D9F1823009F49EC008950A
:104B40008A3009F48AC08B3009F470C0893009F0CA
:104B500051C080919102813209F04CC08091950240
:104B600090919602009719F0029709F043C0809146
:104B7000E800877F8093E8008091E80082FF36C0DC
:104B80009091F3008091F200029731F48091F1004E
:104B9000813011F0863021F48091F10080935F0222
:104BA0008091E8008B778093E8000C94C72880916F
:104BB0009102813AF9F48091E800877F8093E800C0
:104BC0008091950290919602892B61F468E087E5C7
:104BD00092E070E00E94D6278091E8008B77809366
:104BE000E800089560E090E080E0F3CF80919002CB
:104BF0008111C2CF089580919102813AD9F78091B5
:104C0000950290919602892BA9F78091E800877F01
:104C10008093E8008091E80080FFFCCF80912B0119
:104C20008093F1008091E8008E77BDCF8091910252
:104C3000813201F78091950290919602892BD1F6ED
:104C40008091E800877F8093E8000E94C7288091C8
:104C5000930280932B010C948608809191028132FB
:104C600049F68091E800877F8093E8000E94C7287A
:104C70008091940280936002089580919102813A1C
:104C800009F0B8CF8091E800877F8093E800809199
:104C9000E80080FFFCCF80916002C2CF84B7877F9D
:104CA00084BF0FB6F894A8958091600088618093C6
:104CB0006000109260000FBE80E890E00FB6F8949C
:104CC00080936100909361000FBE0C94CF230E94EB
:104CD00017290E947429E2EEF0E0808184608083CD
:104CE00078940C94FD2B8FE191E00C940E2380912D
:104CF00090028530A9F480919002853011F00C94D7
:104D000013240E94D22380918E028823A1F30E9453
:104D1000FF23882381F30E9422270E948608EBCF7D
:104D20000895CF93DF93CDB7DEB7A0970FB6F89471
:104D3000DEBF0FBECDBF80919002843009F583E0C5
:104D40008093E9008091E80082FF1AC08091E8001A
:104D500090E085FF09C050E040E060E270E0CE01E5
:104D600001960E94872791E08091E8008B778093DD
:104D7000E800992329F060E2CE0101960E94A71E67
:104D8000A0960FB6F894DEBF0FBECDBFDF91CF91D6
:104D900008950C94CB26292F33272330310521F198
:104DA00068F42130310509F443C02230310509F49B
:104DB00044C090E080E030E020E026C021323105A0
:104DC00051F122323105A9F76330710590F7FB01EB
:104DD000EE0FFF1FE354FE4F2081318166547E4F5A
:104DE000FB01808190E010C099278130910581F00E
:104DF000009729F00297E9F6E3EDF3E002C0E7EF50
:104E0000F3E0849190E09F01FA01318320830895BB
:104E1000E1EEF3E0F6CF6330710558F6660F771FC9
:104E2000FB01ED53FE4F2081318189E090E0ECCF12
:104E300082E190E026E534E0E7CF8BE590E02BEFD0
:104E400033E0E2CF80E189BD82E189BD09B400FE93
:104E5000FDCF8091D8008F7D8093D8008091E000B5
:104E600082608093E0008091E00081FDFCCF089596
:104E7000AF92BF92CF92DF92FF920F931F93CF9387
:104E8000DF936C01EB018A010E94E628F82E811164
:104E900023C00115110539F0F80180819181C81BEB
:104EA000D90BC80ED91EB12CA12C2097A9F0809146
:104EB000E80085FD22C08091E8008E778093E800AD
:104EC00001151105A1F0F80180819181A80EB91E8C
:104ED000B182A08285E0F82E8F2DDF91CF911F91B6
:104EE0000F91FF90DF90CF90BF90AF9008950E94F8
:104EF000E6288823D1F2F82EEFCFF60181916F01D9
:104F00008093F1002197FFEFAF1ABF0ACECFAF9287
:104F1000BF92CF92DF92FF920F931F93CF93DF93B5
:104F20006C01EB018A010E94E628F82E811123C052
:104F30000115110539F0F80180819181C81BD90B49
:104F4000C80ED91EB12CA12C2097A9F08091E800A1
:104F500085FD22C08091E8008B778093E8000115E1
:104F60001105A1F0F80180819181A80EB91EB182CE
:104F7000A08285E0F82E8F2DDF91CF911F910F91A8
:104F8000FF90DF90CF90BF90AF9008950E94E628E9
:104F90008823D1F2F82EEFCF8091F100F6018193B2
:104FA0006F012197FFEFAF1ABF0ACECFFC018091AE
:104FB00097029091980286179707A0F061157105E6
:104FC00029F49091E8009E779093E80090E06115B5
:104FD000710551F4911108C08091E80082FF34C03E
:104FE00080E00895BC01F2CF809190028823C1F146
:104FF0008530C1F18091E80083FD30C08091E800E8
:1050000082FDEACF8091E80080FFE1CF8091F3003C
:105010002091F200382F6115710519F02830310503
:1050200058F091E02830310509F090E02091E80037
:105030002E772093E800CBCF81918093F1006150CF
:1050400071092F5F3F4FE7CF80919002882341F095
:10505000853041F08091E80083FFBECF81E0089564
:1050600082E0089583E00895FC0180919702909179
:10507000980286179707A0F06115710529F48091B1
:10508000E8008E778093E80090E06115710551F497
:10509000911108C08091E80082FF35C080E008953A
:1050A000BC01F2CF809190028823C9F18530C9F10B
:1050B0008091E80083FD31C08091E80082FDEACF55
:1050C0008091E80080FFE1CF8091F3002091F20011
:1050D000382F6115710519F02830310558F091E02D
:1050E0002830310509F090E08091E8008E778093B8
:1050F000E800CBCF84918093F10031966150710923
:105100002F5F3F4FE6CF80919002882341F085309A
:1051100041F08091E80083FFBDCF81E0089582E0F7
:10512000089583E00895982F973028F08F7080932A
:10513000E90081E008959093E900242F762F50E054
:10514000981731F07091EC002091ED005091F00033
:1051500021FD02C09F5FE8CF3091EB003E7F30938E
:10516000EB003091ED003D7F3093ED003091EB008E
:1051700031603093EB007093EC002093ED0050937E
:10518000F0002091EE0027FDE5CF80E008958091AA
:10519000910287FF13C08091E80082FF06C08091D2
:1051A000E8008B778093E80004C080919002811121
:1051B000F2CF0895809190028823D9F38091E8007E
:1051C00080FFF8CF8091E8008E77ECCF2091E4004B
:1051D0003091E50095E6A9012091EC00822F8170C5
:1051E00020FF06C08091E80080FF06C080E008959F
:1051F0002091E80022FD1AC080919002882389F056
:10520000853089F08091EB0085FD0FC02091E4008E
:105210003091E50042175307F9F29150E1F684E02E
:10522000089582E0089583E0089581E008950E9442
:1052300085290E948D29E0EEF0E0808181608083E5
:10524000E8EDF0E080818F77808319BCA7EDB0E0B6
:105250008C918E7F8C9380818F7E808310928F02C1
:1052600008950F931F93CF93DF930E9485290E9487
:105270008D29C8EDD0E088818F7788838881806808
:10528000888388818F7D888319BC10929002109248
:105290008C0210928E0210928D0200EE10E0F80146
:1052A00080818B7F808388818160888342E060E099
:1052B00080E00E949328E1EEF0E080818E7F808381
:1052C000E2EEF0E08081816080838081886080836D
:1052D000F80180818E7F8083888180618883DF915F
:1052E000CF911F910F910895E8EDF0E080818F7EBE
:1052F0008083E7EDF0E080818160808384E082BF7D
:1053000081E080938F020C943129E8EDF0E08081F8
:105310008E7F80831092E20008951092DA0010923E
:10532000E10008951F920F920FB60F9211242F9350
:105330003F934F935F936F937F938F939F93AF931D
:10534000BF93EF93FF938091E10082FF0BC08091A8
:10535000E20082FF07C08091E1008B7F8093E10033
:105360000E94FC2B8091DA0080FF19C08091D80048
:1053700080FF15C08091DA008E7F8093DA008091E3
:10538000D90080FF96C080E189BD82E189BD09B462
:1053900000FEFDCF81E0809390020E945125809114
:1053A000E10080FF19C08091E20080FF15C080916C
:1053B000E2008E7F8093E2008091E2008061809322
:1053C000E2008091D80080628093D80019BC85E00B
:1053D000809390020E9464258091E10084FF2BC09D
:1053E0008091E20084FF27C080E189BD82E189BD10
:1053F00089B5982F917080FFFBCF8091D8008F7D69
:105400008093D8008091E1008F7E8093E1008091AD
:10541000E2008F7E8093E2008091E20081608093C1
:10542000E20080918C02882309F449C084E08093D3
:1054300090020E946C258091E10083FF29C0809139
:10544000E20083FF25C08091E100877F8093E10027
:1054500082E08093900210928C028091E1008E7F16
:105460008093E1008091E2008E7F8093E200809142
:10547000E20080618093E20042E060E080E00E9410
:1054800093288091F00088608093F0000E9462254C
:10549000FF91EF91BF91AF919F918F917F916F910C
:1054A0005F914F913F912F910F900FBE0F901F90E2
:1054B000189519BC109290020E945F2570CF8091C0
:1054C000E30087FD93E090939002B3CF1F920F9279
:1054D0000FB60F9211242F933F934F935F936F93C7
:1054E0007F938F939F93AF93BF93CF93DF93EF936C
:1054F000FF93D091E900DF708091EC00C82FC1705C
:1055000080FDC0E81092E9008091F000877F8093D1
:10551000F00078940E94AA2A1092E9008091F0008D
:1055200088608093F000CD2BCF70C093E900FF918D
:10553000EF91DF91CF91BF91AF919F918F917F912B
:105540006F915F914F913F912F910F900FBE0F90F0
:105550001F9018951F93CF93DF93CDB7DEB7AA970F
:105560000FB6F894DEBF0FBECDBF81E992E0209167
:10557000F100FC012193CF01F2E089399F07B9F7CF
:105580000E9494258091E80083FF1EC180919102C2
:10559000909192029A3008F017C1E92FF0E0EB5C8D
:1055A000F24D0C94622C803899F0823809F00CC1CD
:1055B000809195028F70873008F006C18093E900D2
:1055C0008091EB0085FB882780F91092E90006C0E6
:1055D00080918D0290918E02911182609091E800ED
:1055E000977F9093E8008093F1001092F1008091F2
:1055F000E8008E77E5C0882309F4D3C0823009F033
:10560000E3C0809193028111D6C0809195028F7082
:105610002FEF280F263008F0D7C08093E9002091A3
:10562000EB0020FFC8C0933031F48091EB00806222
:105630008093EB00C0C09091EB0090619093EB00E1
:1056400021E030E001C0220F8A95EAF72093EA00BA
:105650001092EA008091EB008860EACF8111B4C01B
:10566000109193021F778091E3008078812B8093C3
:10567000E3008091E800877F8093E8000E94C728BC
:105680008091E80080FFFCCF8091E30080688093E8
:10569000E30082E0111183E08093900295C080586E
:1056A000823008F091C080919302909194028C3DD9
:1056B00023E09207A1F583E08A838AE289834FB7CA
:1056C000F894DE01139620E03EE051E2E32FF0E093
:1056D00050935700E49120FF03C0E295EF703F5FC5
:1056E000EF708E2F90E0EA30C0F0C7968D939D93B7
:1056F0002F5F243159F74FBF8091E800877F809357
:10570000E8006AE270E0CE0101960E94D6278091FF
:10571000E8008B778093E80057C0C096E7CF609190
:10572000950270919602AE014F5F5F4F0E94C926AD
:10573000BC01892B09F448C09091E800977F9093B1
:10574000E80089819A810E943428E1CF8038E1F510
:105750008091E800877F8093E80080918C0280939D
:10576000F10045CF811130C090919302923060F5E5
:105770008091E800877F8093E80090938C020E94DC
:10578000C72880918C02882311F084E005C08091A5
:10579000E30087FDFACF81E0809390020E94762596
:1057A00013C080919302813079F481E0933009F045
:1057B00080E080938E021092E9008091E800877F5C
:1057C0008093E8000E94C7288091E80083FF0AC008
:1057D0008091E800877F8093E8008091EB008062F1
:1057E0008093EB00AA960FB6F894DEBF0FBECDBF34
:1057F000DF91CF911F9108950895CF9380919002EA
:105800008823A1F0C091E900CF709091EC00892F1E
:10581000817090FD80E8C82B1092E9008091E8002B
:1058200083FD0E94AA2ACF70C093E900CF9108950A
:10583000AA1BBB1B51E107C0AA1FBB1FA617B707B6
:1058400010F0A61BB70B881F991F5A95A9F78095D2
:105850009095BC01CD01089597FB072E16F4009496
:1058600007D077FD09D00E94182C07FC05D03EF424
:10587000909581959F4F0895709561957F4F0895FC
:10588000A1E21A2EAA1BBB1BFD010DC0AA1FBB1F44
:10589000EE1FFF1FA217B307E407F50720F0A21BB6
:1058A000B30BE40BF50B661F771F881F991F1A9423
:1058B00069F760957095809590959B01AC01BD014D
:1058C000CF010895EE0FFF1F0590F491E02D09948C
:1058D00069279627692778278727782708950E94C0
:1058E000772C332312F48A1B9B0B0C94882CA29FD9
:1058F000B001B39FC001A39F700D811D1124911DA4
:10590000B29F700D811D1124911D08950E94772C66
:10591000B7FF0895821B930B08950E94772CA59FD3
:10592000900DB49F900DA49F800D911D112408959A
:10593000B7FF0C948D2C0E948D2C821B930B089525
:10594000FC014150504030F001900616D1F73197DC
:10595000CF010895882799270895FB01DC0104C031
:105960008D910190801921F441505040C8F7881B57
:10597000990B0895F999FECF92BD81BDF89A9927A8
:1059800080B50895A6E1B0E044E050E00C94F42C1A
:10599000A8E1B0E042E050E00C94F42C262FF999F5
:1059A000FECF92BD81BDF89A019700B4021639F07E
:1059B0001FBA20BD0FB6F894FA9AF99A0FBE08954F
:1059C0000396272F0E94CF2C0E94CE2C252F0E94B9
:1059D000CF2C242F0C94CF2C0196272F0E94CF2C54
:1059E0000C94CE2CDC01CB01FC01F999FECF06C052
:1059F000F2BDE1BDF89A319600B40D92415050408D
:105A0000B8F70895F894FFCF5A065A068B068B060E
:105A10001E073A07BA06BA064507AC07BB07BB071D
:105A20001308BA06BA061C08950895089E089E0831
:105A3000A0089E089E089E0895089508A5089E083F
:105A40009E08A508BB1EC81EEF1EFB1E061F111FC9
:105A5000141F171F1A1F631F631F1D1F211F291FDC
:105A6000361F431F461F491F561FD32AFB2AE42B0C
:0E5A7000FB2AE42B2E2B4F2BE42BA62BB22B64
:105A7E00C8000F022808641E140A321E010102001B
:105A8E000800080801191A1B1C1D1E1F202122A325
:105A9E0024C824A72423251F25A62401E200E900FB
:105AAE00EA00B500B600B700CD008301CC008A0134
:105ABE0092019401210223022402250226022702CA
:105ACE002A02B300B4006F007000818283E200E905
