:100000000C94B0020C94F7020C94F7020C94F702D3
:100010000C94F7020C94F7020C94F7020C94F7027C
:100020000C94F7020C94F7020C94632A0C94372B6F
:100030000C9434250C94F7020C94F7020C94F702FC
:100040000C94F7020C94F7020C94F7020C94F7024C
:100050000C94F7020C948B250C94F7020C94F70285
:100060000C94F7020C94F7020C94F7020C94F7022C
:100070000C94F7020C94F7020C94F7020C94F7021C
:100080000C94F7020C94F7020C94F7020C94F7020C
:100090000C94F7020C94F7020C94F7020C94F702FC
:1000A0000C94F7020C94F7020C94F7022A00540007
:1000B000550056002400250026005700210022008C
:1000C000230057001E001F002000580000002700DA
:1000D000370058003D004B004C004E0052005000CD
:1000E00051004F002A0054005500560024002500FE
:1000F0002600570021002200230057001E001F0089
:100100002000580000002700370058003D004B0039
:100110004C004E005200500051004F002A00540085
:10012000550056002400250026005700210022001B
:10013000230057001E001F00200058000000270069
:10014000370058003D004B004C004E00520050005C
:1001500051004F0000000000000000002A2B280082
:100160000000000000000000000000000000002966
:10017000000000002C1E3420212224342627252EA6
:10018000362D3738271E1F202122232425263333DE
:10019000362E37381F0405060708090A0B0C0D0E0A
:1001A0000F101112131415161718191A1B1C1D2FD6
:1001B0003130232D350405060708090A0B0C0D0EF6
:1001C0000F101112131415161718191A1B1C1D2FB6
:1001D0003130354C0000000000000000000000003D
:1001E000000000000000000000000000000000000F
:1001F00000000000000000007E0F00D4FFFFFFC7DA
:10020000000000781E0F0500047F3F1F6432146455
:100210003214783C1E1E140A052223252628292A7A
:100220002C2D2F3032333536383A3B3D3E40424359
:100230004547494A4C4E5051535557595A5C5E6098
:1002400062646668696B6D6F71737577797B7D7FAA
:1002500081838587898A8C8E90929496989A9C9EA9
:100260009FA1A3A5A7A8AAACAEAFB1B3B4B6B8B9C5
:10027000BBBCBEBFC1C2C3C5C6C7C9CACBCCCDCE2D
:10028000D0D1D2D2D3D4D5D6D7D7D8D9D9DADADB10
:10029000DBDBDCDCDCDCDCDDDDDDDDDCDCDCDCDC9C
:1002A000DBDBDBDADAD9D9D8D7D7D6D5D4D3D2D2DB
:1002B000D1D0CECDCCCBCAC9C7C6C5C3C2C1BFBEC3
:1002C000BCBBB9B8B6B4B3B1AFAEACAAA8A7A5A32E
:1002D000A19F9E9C9A98969492908E8C8A898785ED
:1002E00083817F7D7B79777573716F6D6B696866CC
:1002F0006462605E5C5A5957555351504E4C4A499E
:1003000047454342403E3D3B3A3836353332302F45
:100310002D2C2A292826252322FFAA7F55400001BB
:1003200001010101010101010202020202020202B5
:100330000203030303030303030404040404040487
:10034000050505050506060606060707070707084B
:10035000080808090909090A0A0A0B0B0B0C0C0CFE
:100360000D0D0D0E0E0E0F0F0F1010111111121298
:1003700013131414151516161717181819191A1A15
:100380001B1B1C1D1D1E1E1F202021222223242476
:10039000252626272829292A2B2C2D2D2E2F3031B2
:1003A0003232333435363738393A3B3C3D3E3F40C4
:1003B0004142434445464748494A4C4D4E4F5051AF
:1003C0005354555658595A5B5D5E5F616264656669
:1003D00068696B6C6D6F7072737577787A7B7D7EF0
:1003E0008082838587888A8C8E8F91939596989A40
:1003F0009C9EA0A2A3A5A7A9ABADAFB1B3B5B7BA58
:10040000BCBEC0C2C4C6C9CBCDCFD1D4D6D8DBDD2B
:10041000DFE2E4E7E9EBEEF0F3F5F8FAFDFF0E03B7
:100420005300480055004E0049004E0000001403E0
:1004300073006800750072006900790061006D004A
:10044000610000000403090409025B00030100A02D
:10045000FA09040000010301010009211101000152
:100460002240000705810308000A09040100020375
:10047000000000092111010001222200070582036A
:100480002000010705030320000109040200010305
:100490000000000921110100012249000705840321
:1004A00020000A12011001000000081827030000B4
:1004B00001010200010660FF0961A1010962150046
:1004C00026FF009520750881020963150026FF00AC
:1004D000952075089102C005010902A10185020954
:1004E00001A10005091901290815002501950875C4
:1004F0000181020501093009311581257F950275B9
:1005000008810609381581257F9501750881060542
:100510000C0A38021581257F950175088106C0C037
:1005200005010906A101050719E029E715002501C4
:10053000950875018102950175088101050719006B
:1005400029FF150026FF009506750881000508198A
:10055000012905950575019102950175039101C069
:1005600011241FBECFEFDAE0DEBFCDBF04B603FE1D
:1005700027C08091820290918302A0918402B09161
:1005800085028730904BA740B04BD1F41092820285
:1005900010928302109284021092850214BE84B7D6
:1005A000877F84BF0FB6F894A8958091600088611A
:1005B00080936000109260000FBEE0E0F8E30995C0
:1005C00011E0A0E0B1E0E4E1FDE502C005900D928C
:1005D000A237B107D9F722E0A2E7B1E001C01D922E
:1005E000A238B207E1F70E9423270C944D2E0C94F9
:1005F000000081E0089581E008950C94FB020895C5
:100600000C94FF021F93CF93DF9300D000D00F9282
:10061000CDB7DEB749835A836B833091D601898188
:100620009A8131111DC06623B9F02223A9F00E94DE
:100630006822182F682F89819A810E94152269816A
:100640007A81812F0F900F900F900F900F90DF9174
:10065000CF911F910C94FC150E944122182FEFCFCF
:100660000E94682269817A81EDCFFC01262F4081AA
:1006700051816281738184810C940203CF93DF9353
:10068000EC0160E00E943503BE01DF91CF910C9434
:1006900000038F929F92AF92BF92CF92DF92EF9220
:1006A000FF920F931F936B017C0181E090E0A0E02B
:1006B000B0E04C015D0104C0880C991CAA1CBB1C55
:1006C0004A95D2F7B501A4014C015D0104C0880C24
:1006D000991CAA1CBB1C2A95D2F7482959296A29BA
:1006E0007B2904C0880F991FAA1FBB1F0A95D2F748
:1006F0008A019B010C211D212E213F210417150782
:100700002607370789F48C299D29AE29BF29BC010A
:10071000CD011F910F91FF90EF90DF90CF90BF9090
:10072000AF909F908F90089580959095A095B095EB
:100730008C219D21AE21BF21EACF0F93382F262F88
:1007400060912302709124028091250290912602EB
:10075000042F432F0E9449030F910C9453210E94B0
:10076000F9060C941E070C94210708950E947F1D22
:100770000E94B5032FEF84E39CE02150804090401D
:10078000E1F700C000000C94AF250F931F93CF93A7
:10079000DF938C0161E00E943503EC01B8010E94F7
:1007A000E413882309F441C0B801CE010E94FD0280
:1007B0008823D9F1B801CE010E9433178823A9F10B
:1007C000B801CE010E948517882379F1B801CE01C6
:1007D0000E94A818882349F1B801CE010E94941202
:1007E000882319F1F8018281882361F0CA35FDE57B
:1007F000DF0721F170F4C115ECE5DE07A1F0CE3D75
:10080000DC45C9F0C801DF91CF911F910F910C9485
:10081000F902CB358DE5D807A1F0CC35DD4591F750
:100820000E940F23EFCF0E94B60380E0DF91CF91AB
:100830001F910F9108950E948824F7CF0E941823DA
:10084000E1CF0E941B23DECFDF92EF92FF920F9346
:100850001F93CF93DF93E82FF0E0EC5AFE4FD49034
:10086000282F26952695269530E0F901EC50FE4F6D
:100870000491877010E0082E02C0159507950A9420
:10088000E2F701701127F901EC51FE4FE490F12CD1
:10089000082E02C0F594E7940A94E2F791E0E92269
:1008A000FF24F901EC52FE4FC491D0E002C0D5956F
:1008B000C7958A95E2F7C170DD270115110519F07A
:1008C00081EE0E943D1AE114F10419F086EE0E94B7
:1008D0003D1A8D2D0E94221BEF2819F086EE0E94F2
:1008E000B51A012B19F081EE0E94B51ACD2B51F0EB
:1008F0008CE2DF91CF911F910F91FF90EF90DF90ED
:100900000C94221BDF91CF911F910F91FF90EF90DC
:10091000DF900895EF92FF920F931F93CF93DF9391
:10092000EC01162F0AE08881882309F454C0813035
:1009300009F04EC08981813099F47E0122E0E20EF7
:10094000F11C8A810E94221BE7012196812F815090
:1009500050F3EFE9FFE03197F1F700C00000F7CF67
:10096000823041F47E0182E0E80EF11C8A810E940F
:100970003D1AEACF833041F47E01E2E0EE0EF11C35
:100980008A810E94B51AE0CF843011F02196DDCF24
:100990002A81229690E080E0AE014F5F5F4F2053A6
:1009A000330B2A30310548F0019778F2EFE9FFE088
:1009B0003197F1F700C00000F7CF089FB001099F01
:1009C000700D1124C901860F971F2981EA01E4CF18
:1009D0000E942404BACFDF91CF911F910F91FF9015
:1009E000EF90089560E00C948A0408950C94F50447
:1009F00081E008950C94F804CF93C82F0E94F60468
:100A00008C2FCF910C94FA0490E080E00895089523
:100A1000FC01EE0FFF1FEC5FFD4F8591949108954F
:100A2000CF93DF930E94FC150E940706EC0181150D
:100A300021E59207E8F5811530E5930708F09BC0A2
:100A40008F3F910509F0F0F4803F910508F085C0D3
:100A5000803E910580F4803C910508F080C0813093
:100A6000910561F0009751F00497813A910530F0BB
:100A7000D0E0C0E003C0883E9105D0F7CE01DF9101
:100A8000CF9108958115904338F4C11580E2D807BD
:100A9000A8F3CE019F7065C0C11590E4D90708F096
:100AA00067C0CE019927D3FF60C0EC01D86CE6CFB8
:100AB000811525E5920700F5811534E5930708F0C7
:100AC0008EC0811543E5940708F076C0C11582E514
:100AD000D80708F46CC0CE018370992721E030E07C
:100AE00002C0220F331F8A95E2F7C695C69580E2B1
:100AF000C89FE001112457C0C11599E5D907A8F492
:100B0000C11528E5D20708F06FC0C11536E5D30737
:100B100008F0AECF8C2F0E949E06C82FD0E0DC2FAD
:100B2000CC27CC27DF71D062A9CFC1154AE5D40705
:100B300008F45FC0CE0190568115904208F098CF1E
:100B40008D2F8F710E949E0690E0982F882788270E
:100B50009F719C012C2BE901E6CFD0658FCF805C83
:100B600091090E940805EC0189CFEC01D06C86CF79
:100B7000DF70D06A83CFE4E096958795EA95E1F738
:100B800083702C2F26952695237040E2249F900198
:100B90001124382B8C2F8370C1E0D0E002C0CC0F21
:100BA000DD1F8A95E2F7C22BD32BDC6867CFDC2FE1
:100BB000CC27C16FD06A62CF8370992721E030E0E3
:100BC00002C0220F331F8A95E2F7C695C69590E2C0
:100BD000C99FE0011124C22BD32BDA684FCFD82F45
:100BE000CC27C46FD06A4ACFDC2FCC27C06FD06A25
:100BF00045CF8C2F8F700E949E0634E0D695C79506
:100C00003A95E1F7CF709C2FEC01D06937CF82384D
:100C10009105B1F1B0F48133910509F475C048F440
:100C20008932910509F469C08A32910509F473C0CB
:100C300008958533910509F459C08933910501F16F
:100C40000895833E9105A9F138F4803E9105F9F0AD
:100C5000823E910549F10895863E9105A9F1873EAE
:100C60009105C9F1843E910519F52091450221FFB6
:100C70001FC08091440284FD14C087EE90E0089567
:100C8000209144022370A1F080EE90E0089520911D
:100C9000440220FD47C03091450230FF09C024FFC7
:100CA00044C090E080E004C02091440222FDF7CFD0
:100CB00008952091440222FD3BC03091450230FD51
:100CC000E3CF24FFF5CFEDCF2091440223FFF0CFF7
:100CD00024FDE7CFD2CF2091440223FD2CC03091D8
:100CE000450231FFEECF84EE90E00895209144025A
:100CF00025FFDECF89E290E008952091440225FF90
:100D0000D7CF85E390E008952091440226FFD0CF0D
:100D10008AE290E008952091440226FFC9CF81E342
:100D200090E0089589E390E0089583EE90E00895BF
:100D300082EE90E0089586EE90E00895909144024E
:100D400092FF06C0282F28712830F9F4877F84602D
:100D500093FF06C0282F28712831F1F4877E846123
:100D60002091450220FF06C0382F38713830D9F461
:100D7000877F816021FF06C0282F28712831D1F498
:100D8000877E816194FD877E0895282F2471243009
:100D9000F9F68B7F8860DCCF282F2471243101F78E
:100DA0008B7E8861DDCF382F3171313019F78E7F1E
:100DB0008860E0CF282F2171213121F78E7E886154
:100DC000E1CF0C94BE130E9471078FE39CE9019759
:100DD000F1F700C000000E94710780E00E94230725
:100DE00080FF04C00E94E1060C94AF2508950C9486
:100DF000E3060E94E323811102C00E9488240E941E
:100E0000EE23809338020E94F6239093450280934C
:100E100044020E94F7060E94F223682F70E090E0DF
:100E200080E00E941721609123027091240280913A
:100E30002502909126020C94512108950C941D07CF
:100E400008950C942007E82FF0E0E35BFD4F8081CC
:100E50000895089580EA8A95F1F7089500C00895ED
:100E60000C942A07F894E82FE295EF70F0E031A196
:100E7000282F2F7081E090E001C0880F2A95EAF7B3
:100E8000982F9095932391A392A1892B82A3789474
:100E90000895CF93DF93C0E3D1E089910E94320798
:100EA00081E0C733D807C9F784EF0E94320785EF86
:100EB0000E94320786EF0E94320787EF0E943207B6
:100EC000E6E4F2E0ADE4B2E011921D9282E0ED348E
:100ED000F807D1F787E00E94E807DF91CF910C94E3
:100EE000AF03CF92DF92EF92FF920F931F93CF93B6
:100EF000DF93C0E3D1E006E412E0D12CEE24E394CA
:100F0000F12C8991F894E82FE295EF70F0E021A19F
:100F10008F70A70102C0440F551F8A95E2F7CA01DE
:100F2000922F982B91A392A18095892382A37894E4
:100F30000E942E07ECE2F1E030E020E0C12C41916C
:100F4000A42FA295AF70B0E090968C9190E04F7076
:100F500002C0959587954A95E2F780FD35C08E2DA4
:100F6000022E01C0880F0A94EAF7C82A2F5F3F4F6C
:100F70002430310521F7FE01319780810E9432072C
:100F80000E943007F8018081C81601F1C08281E01B
:100F9000D82A0F5F1F4FF1E0C733DF0709F0B1CF49
:100FA0002D2D47E06DE472E086E492E00E94E907AF
:100FB0000E94B3038D2DDF91CF911F910F91FF9070
:100FC000EF90DF90CF90089580E0CFCF80E0E0CF2A
:100FD0000895FF920F931F93CF93DF93F82E092F5D
:100FE000162FD72FC42F222349F081E0809376015A
:100FF0000E9464259093750180937401809176011D
:101000008823A1F080917401909175010E947C2544
:10101000069760F0EF2DF02FA12FBD2FCE0FDF2F01
:10102000D11DEC17FD0741F410927601DF91CF91AD
:101030001F910F91FF90089581918D93F2CF809130
:101040007D0180FF12C06091090185E0689FB001B9
:101050001124759567957595679560387105A8F5A4
:1010600061157105A1F1862F089581FF09C0609176
:10107000090185E0689FB001112475956795EDCF52
:101080006091090182FD0AC080917C018823D1F022
:101090009091080160910901891728F085E0689F07
:1010A000B0011124DACF869FB001112485E0869F1C
:1010B0009001879F300D1124692F70E0C9010E94B3
:1010C000092DCBCF65E070E0CECF8FE7089581E0AA
:1010D000089580917D0180FF0CC06091050170E052
:1010E00075956795759567956115710549F1862F19
:1010F000089581FF06C06091050170E075956795C0
:10110000F3CF6091050182FD0BC090917B01992383
:10111000A1F06091040180910501961738F0682FC5
:1011200070E06038710500F38FE70895899FC00172
:10113000112470E00E94092DF4CF61E070E0D7CF58
:1011400081E00895803F31F40E941F0881958093CB
:1011500081010895813F19F40E941F08F8CF823F52
:1011600031F40E941F088195809380010895833F88
:1011700019F40E941F08F8CF893F29F40E946908DA
:101180008093820108958A3F21F40E946908819525
:10119000F7CF8B3F31F40E946908819580938301DA
:1011A00008958C3F19F40E946908F8CF9CE0980FCD
:1011B000953070F4845F990B21E030E001C0220F7C
:1011C0008A95EAF780917F01822B80937F010895B1
:1011D0008D3F31F480917D01816080937D01089580
:1011E0008E3F21F480917D018260F7CF8F3FB9F768
:1011F00080917D018460F1CF40918001803F59F45E
:101200008091810187FF0DC01092810141110BC0B7
:1012100010927C0108C0813F81F4809181011816F1
:101220009CF3442381F08091820190918301892B6A
:1012300009F05AC010927B010895823F49F447FF9C
:10124000F0CF10928001809181018111ECCFE0CF2D
:10125000833F19F41416ACF3E4CF90918201893FD7
:1012600029F41916F4F610928201DBCF8A3F19F4A3
:1012700097FFD7CFF8CF909183018B3F29F497FF49
:10128000D0CF10928301CDCF8C3F19F41916CCF337
:10129000C8CF9CE0980F953090F4845F990B21E0C3
:1012A00030E0B90102C0660F771F8A95E2F7CB01E3
:1012B000809590917F01892380937F01B2CF8D3FEC
:1012C00031F480917D018E7F80937D01AACF8E3F86
:1012D00021F480917D018D7FF7CF8F3F09F0A1CF61
:1012E00080917D018B7FF0CF08950E9464259C0141
:1012F0009091800180918101982B21F030937A01A7
:10130000209379019091820180918301982B21F0A3
:1013100030937801209377018EE791E00C94EE18DA
:10132000EF92FF920F931F93CF93DF9300D000D0E3
:1013300000D0CDB7DEB786E0EEE7F1E0DE01119632
:1013400001900D928A95E1F7E0908001F090810183
:10135000009182011091830110928001109281010D
:1013600010928201109283018E2D8F2991F080912D
:10137000790190917A010E947C25AC0190917C01C9
:10138000992309F43FC080910A018417150608F4D7
:1013900047C0802F812B91F0809177019091780147
:1013A0000E947C25AC0190917B01992309F477C0C0
:1013B000809106018417150608F47FC08091800192
:1013C00090918101892B90918201892B90918301C9
:1013D000892B11F00E94750986E0FE013196AEE777
:1013E000B1E001900D928A95E1F726960FB6F89438
:1013F000DEBF0FBECDBFDF91CF911F910F91FF9048
:10140000EF90089520910B018AE0289F900111240C
:101410002417350708F0BDCF9F5F90937C0102C071
:101420009F3FD1F7EE2059F00E941F089FEF1E1436
:101430000CF491E0899F802D112480938001FF207E
:1014400059F00E941F089FEF1F140CF491E0899F30
:10145000802D11248093810130918001332309F480
:1014600098CF20918101222309F493CF45EB3403D7
:10147000C0011124992359F09093800145EB240376
:1014800090011124332339F03093810182CF81E020
:1014900080938001F3CF81E0809381017ACF209106
:1014A00007018AE0289F900111242417350708F0CE
:1014B00085CF9F5F90937B0102C09F3FD1F70023B0
:1014C00059F00E9469089FEF10160CF491E0899F73
:1014D000802D112480938201112359F00E94690804
:1014E0009FEF11160CF491E0899F802D11248093B9
:1014F000830130918201332309F460CF209183016D
:10150000222309F45BCF45EB3403C0011124992356
:1015100059F09093820145EB240390011124332369
:1015200039F0309383014ACF81E080938201F3CF79
:1015300081E08093830142CF86E0EEE7F1E0DF01B6
:101540001D928A95E9F710927C0110927B0110920E
:101550007D010895EF92FF920F931F93CF93DF9336
:10156000EB01E82FD11110C0442321F0F0E0E25E3E
:10157000FC4FE4916E2F7E2F8E2FDF91CF911F9124
:101580000F91FF90EF9008950D2F10E0282F30E07D
:10159000442329F0225E3C4FF901249130E0F6E02B
:1015A000CF9FC0011124EFEFF0E0BF010E94F52CA6
:1015B000AB018C2F90E0880F991FA5E5A49FB00187
:1015C000A59F700D1124861B970B982F990F980FCC
:1015D000BF01601B710B629FD001639FB00D729FB2
:1015E000B00D11248B2F9D9FB0011124672F7727F9
:1015F000EF01C61BD70BBE01629FE001639FD00DB8
:10160000729FD00D11247F01E91AF108E09EB0010C
:10161000E19E700DF09E700D1124672F7727E61B59
:10162000F70BE29F8001E39F100DF29F100D112434
:10163000E12F722F4230510599F048F441155105C0
:1016400069F04130510581F0EB2F8D2F07C04430F8
:10165000510569F080F046305105B1F76E2F8DCFFE
:10166000E22F7B2F812FFACFE22F7D2FF7CFEB2FA9
:10167000822F712FF3CF7B2F822FED2FEFCF41E001
:101680000C94AA0A08950C943F0BCF93DF93762F06
:10169000E901682F842F0E94430B798368838A8332
:1016A000DF91CF91089580915402982F9E7F29F465
:1016B000817082608093540208958635E8F38170CA
:1016C0008465F8CF88E090E00C94EE2DCF92DF9205
:1016D000EF92FF926B017C010E94530BB701A601B0
:1016E00088E090E0FF90EF90DF90CF900C940C2E6C
:1016F0006091540270915502809156029091570268
:101700000C94660BE4E5F2E083E0808311828FEFB6
:10171000828383831482A9EBB1E012968C91129795
:10172000836012968C9360817181828193810C9485
:10173000660B8091540280FF02C08695089580E078
:10174000089590915802933018F49F5F9093580237
:10175000882351F060915402709155028091560295
:10176000909157020C94660B089581E00C94A10BA4
:1017700090915802992319F0915090935802882320
:1017800051F06091540270915502809156029091EF
:1017900057020C94660B089581E00C94B80B80916D
:1017A0005802089580935802662351F060915402C4
:1017B0007091550280915602909157020C94660BDD
:1017C000089560E00C94D20B8091550208958091A9
:1017D0005602089580915702089570E00C946113A9
:1017E000609110018091540280FF0AC080910F0126
:1017F00023E0829FC0011124875A9D4F0C94ED0B6A
:10180000809111019091120123E0829FF001112437
:10181000E75AFD4F891750F71182108212828F5FAD
:101820003396F8CF9091540290FF14C0909111011B
:101830002091120133E0939FF0011124E75AFD4FEC
:10184000921710F00C94F00B8183608342839F5FAA
:101850003396F6CF0895CF93DF9300D00F92CDB794
:10186000DEB79091540290FF0AC09E012F5F3F4F58
:101870000E94450B4B8169818A810E94120C0F9056
:101880000F900F90DF91CF910895CF93DF93EC01EC
:10189000EC81F0E0E75EFD4F4491E4E5F2E0628127
:1018A00081810E942B0C8C818F5F8C83DF91CF9183
:1018B0000895CF93DF93EC01E4E5F2E04381628188
:1018C0008C810E942B0C8C818F5F8C83DF91CF9158
:1018D00008950F931F93CF93DF9300D00F92CDB74E
:1018E000DEB78C018091840181110AC09E012F5FB7
:1018F0003F4F4FEF6FEF0E94450B8A818093840129
:10190000F8016481613069F08091840140E06623D0
:1019100061F040E0623011F44091840180E060E0C9
:1019200004C06091840140E080E00E94120CF80144
:10193000848190E0019663E070E00E94092D848329
:101940000F900F900F90DF91CF911F910F910895FD
:10195000AF92BF92CF92DF92EF92FF920F931F93BD
:10196000CF93DF9300D00F92CDB7DEB7182FF62EAE
:10197000042FE22E9091540290FF3AC0E92FE69591
:10198000AE2FB0E0A95CBE4F8C918093B9019E7FD1
:101990009230E1F59E012F5F3F4F812F0E94450B52
:1019A0004B8169818A810E94120C809155028113BA
:1019B00008C0809156028F1104C080915702801791
:1019C00029F08091BB0182608093BB011093550286
:1019D000F092560200935702EE2051F060915402AB
:1019E0007091550280915602909157020E94660BA9
:1019F0000F900F900F90DF91CF911F910F91FF905B
:101A0000EF90DF90CF90BF90AF900895823019F49F
:101A100000915702CACF863019F410915502C5CFF4
:101A20008930D9F3893109F6E9518E2F8170D82E8A
:101A3000E695F0E0E75EFC4FA590B490C12CBB2486
:101A400060911301C61618F00E94F00BAECF2C2D3A
:101A500030E0A29EC001A39E900DB29E900D112475
:101A600070E00E94F52C812FD11013C0860F409199
:101A70001101420F532F511D9A01220F331F240FC2
:101A8000351F275A3D4F402F6F2D0E94450BC394A1
:101A9000D7CF861BECCFE4E5F2E09181282F43817C
:101AA00062818AE0890F0C94A80C81E00C944B0DA4
:101AB000E4E5F2E09181282F4381628186EF890F6E
:101AC0000C94A80C81E00C94580DE4E5F2E06281DE
:101AD00021E1620F08F46FEF282F438181810C947C
:101AE000A80C81E00C94650DE4E5F2E0628121E14F
:101AF000621B08F460E0282F438181810C94A80CBC
:101B000081E00C94740DE4E5F2E0438121E1420FA1
:101B100008F44FEF282F628181810C94A80C81E09A
:101B20000C94830DE4E5F2E0438121E1421B08F4CB
:101B300040E0282F628181810C94A80C81E00C94F4
:101B4000920D20E00C94A80CEF92FF921F93CF937C
:101B5000DF93EC0110E0EE24EA94F12C6091130184
:101B6000161770F00E94F00B9A818C8190FF27C0AD
:101B70008F5F8C83DF91CF911F91FF90EF9008953D
:101B800020911101422F410F5527551FCA019A017B
:101B9000220F331F280F391F275A3D4F70E0C7010E
:101BA0000E94092D962F8C81409157026091560218
:101BB000199F800D11240E94450B1F5FCFCF8150CC
:101BC000D8CF9F92AF92BF92CF92DF92EF92FF92C7
:101BD0000F931F93CF93DF93EC018A81BB24BA94B8
:101BE00080FD02C0BB24B3948C8181110AC081E0C6
:101BF000B81227C08091130181508093860181E043
:101C00008C83A12C80911301A816F0F00E94F00B98
:101C10008091860191E0B9125DC0811156C080911A
:101C200013018150809386011C82DF91CF911F9117
:101C30000F91FF90EF90DF90CF90BF90AF909F906B
:101C4000089510928601DBCF00911101CA2CD12C8E
:101C50000C0D1D2D111DC801880F991F080F191F8C
:101C6000075A1D4FF80111821082128234E0E32ED0
:101C7000F12C912C80918601890D893004F18770B7
:101C8000082E000C990BC816D90691F480915702C2
:101C90008E9DA0018F9D500D11245595479555950A
:101CA0004795980160915602809155020E94450B1C
:101CB0009B0CF1E0EF1AF108E9F6A394A3CF87FF9C
:101CC000DFCF90911301890FDBCF81508093860184
:101CD000BC82ABCF90E001966091130170E00E944E
:101CE000092D809386018C83A0CFEF92FF920F93F2
:101CF0001F93CF93DF93EC018C81811109C081E0A8
:101D00008C831092850192E090930E0180930D01D7
:101D1000809111019091120123E0829FF001112422
:101D2000E75AFD4F891768F110E003E06091130155
:101D3000161768F10E94F00B80910D01209185012A
:101D4000280F2093850190910E01980F90930E011A
:101D5000191654F4022E000C330B4091130141501C
:101D6000550B2417350734F0819580930D01813090
:101D700009F41C82DF91CF911F910F91FF90EF909A
:101D800008951182108212828F5F3396CBCFE12E9D
:101D9000F12C70E0C7010E94092D20911101820FE2
:101DA000482F50E020918501022E000C330BE216E3
:101DB000F306BCF020910E01022E000C330B2E1501
:101DC0003F057CF0809F90011124275A3D4F4091A0
:101DD000570260915602809155020E94450B1F5F89
:101DE000A5CFFA01EE0FFF1FE40FF51FE75AFD4FD5
:101DF000118210821282F3CF8F929F92AF92BF9284
:101E0000CF92DF92EF92FF920F931F93CF93DF93C6
:101E1000EC014C81042F10E09801D8010E94542D50
:101E20009B01AC010E946A2D4B015C01E0E2F0E0F5
:101E3000E01BF10BA5E5B0E0AC019B010E946A2D0F
:101E40006B017C019F01DF010E944C2D9B01AC01C5
:101E50000E94752D9B01AC01280D391D4A1D5B1D8B
:101E6000C701B6010E941D2DF22E822F90E039E2AB
:101E70003F1560F143E0249F90011124359527958B
:101E8000122F109500E085E5E82EEF1880911301E0
:101E9000081758F10E94F00B9C8181E0992319F0FA
:101EA000903219F48FEF80930C0180910C01890F0F
:101EB0008C83DF91CF911F910F91FF90EF90DF9076
:101EC000CF90BF90AF909F908F90089525E530E020
:101ED000B901681B790B9B01220F331F260F371F97
:101EE00037FFCCCF2F5F3F4FC9CF8E2D01FD8F2DF8
:101EF00020911101622F600F7727771F9B01220F1E
:101F0000331F260F371F275A3D4F412F609156022E
:101F10000E94450B0F5FBACF0F931F93CF93DF93B0
:101F2000EC0110E000E0909113019017110609F008
:101F30006CF40E94F00B8C8190E0019681709927DF
:101F40008C83DF91CF911F910F9108952091110102
:101F5000A801420F511D9A01220F331F240F351F74
:101F6000275A3D4F4C8160915602809155029695BB
:101F70009017110651F04CF0442349F0409157025C
:101F80000E94450B0F5F1F4FCECF4423B9F340E0B3
:101F9000F7CF4F925F926F927F928F929F92AF9204
:101FA000BF92CF92DF92EF92FF920F931F93CF9346
:101FB000DF93FC016280448081E08483E9E1F2E008
:101FC0007490E8E9F2E0E491812C75E0972EF2E05C
:101FD000CF2EDD24D394AA24AA94B12C55245A944C
:101FE000E7190E2F10E080911301881690F0DF9111
:101FF000CF911F910F91FF90EF90DF90CF90BF9006
:10200000AF909F908F907F906F905F904F900C94C7
:10201000F00BE82CF12C82E0861568F09E9CF00114
:102020009F9CF00D1124E657FE4F8091550280834E
:10203000809156028183411023C09E9CF0019F9C99
:10204000F00D1124E657FE4F1382128220911101E8
:10205000C701820F911D9C01220F331F280F391FCA
:10206000275A3D4F9E9CF0019F9CF00D1124E6578E
:10207000FE4F4281618180810E94450B8394B3CFE2
:102080009E9CE0019F9CD00D1124C657DE4F8B8192
:102090008823E9F081508B83859DC00111246C81D8
:1020A00070E00E94F52CFB01FF27E75EFD4F849155
:1020B000E82FE719E59DC0011124B8010E94F52C15
:1020C00080915702689FB00111247A83BFCF0E948C
:1020D000C92D20915702269521582C9DA0012D9D98
:1020E000500D1124452F5527841795070CF0AECFBE
:1020F00082E0861588F40E94C92DB5010E94092D41
:1021000088830E94C92D209156022695622F70E087
:102110000E94092D280F29839E9CF0019F9CF00DA1
:102120001124E657FE4F128280915702893C58F0E5
:1021300088EC9E9CF0019F9CF00D1124E657FE4F09
:102140008483838383CF8431A0F784E1F2CFE9EBEA
:10215000F1E011828281846082830895E4E5F2E0F7
:1021600080818E7F80830E94A710E9EBF1E082815D
:10217000816082832FEF80E792E021508040904081
:10218000E1F700C000000C94F00BE4E5F2E0808180
:102190008E7F808360817181828193810E94660B32
:1021A0000E94A710E9EBF1E08281816082832FEF2A
:1021B00080E792E0215080409040E1F700C00000AD
:1021C0000C94F00B60915402669570E04BE050E087
:1021D00084E191E00E94D92D892B19F481E080934C
:1021E000BA010E9464259093B3018093B20180915B
:1021F000BB0184608093BB0108959091540290FFCD
:102200003AC0917081112DC09260909354028091D8
:10221000BB0181608093BB01662351F06091540241
:102220007091550280915602909157020E94660B60
:1022300060915402669570E04BE050E084E191E0DB
:102240000E94D92D892BA1F00E94A71081E08093D4
:10225000B5014091570260915602809155020C944D
:10226000A10D8B3210F09465D0CF880F982BCDCF75
:102270000E94E210EBCF0895682F9091540296953A
:1022800081E0890F8B3208F081E00C94FD1081E031
:102290000C943C11682F9091540296958FEF890F02
:1022A00009F48AE20C94FD1081E00C944A1161E07B
:1022B0000C94FD10E4E5F2E08081816080838695D6
:1022C0000C9457118091540280FD0C94C5100C940D
:1022D0005A1160E00C94FD108091B801811133C057
:1022E0000E94E323811104C00E9488240E94820B73
:1022F0000E94620B609354027093550280935602C1
:10230000909357028091BB0183608093BB016E7FE5
:1023100061F40E94820B0E94620B609354027093DE
:10232000550280935602909357020E94530B0E94CD
:10233000A7108091540280FF03C086950E94691106
:1023400081E08093B8010895E4E5F2E08081816046
:10235000808386950C946911EF92FF920F931F93DF
:10236000CF93DF938091BA01882309F462C08091F2
:10237000B901E0915402E695E81BE093B401823084
:1023800009F05EC0F0E0EB5EFD4FE491CE2FD0E0AF
:1023900005E41CE08091B501882361F01092B5013D
:1023A0000E9464259093B3018093B2011092B7010B
:1023B0001092B6010E946425E091B201F091B30140
:1023C0009C012E1B3F0B2F3F3F4798F52091890121
:1023D0002223B1F010928901209187013091880168
:1023E000821B930B8F3F9F4758F4205D3A483093F0
:1023F0008801209387018091BB0188608093BB0195
:10240000E090B601F090B701EC0FFD1FF093B3011F
:10241000E093B20182EB91E0F80109958091B60159
:102420009091B701892B29F4EF2819F081E080936E
:102430008901DF91CF911F910F91FF90EF90089547
:10244000863049F4F0E0EE5EFD4FE491CE2FD0E00F
:1024500009E51CE09FCF893051F4E695F0E0E15F9B
:10246000FD4FE491CE2FD0E004EA1DE093CF8F30F2
:1024700051F4E695F0E0E45FFD4FE491CE2FD0E01B
:1024800001EE1DE087CF853149F4F0E0E75FFD4FB5
:10249000E491CE2FD0E005E71EE07CCFC8E2D0E08B
:1024A0000CEF1EE0883109F475CF833239F4E7E090
:1024B000F2E0C591D49109E61CE06CCFC4EFD1E005
:1024C0000CE81FE0843209F465CFC0EDD7E002E4E8
:1024D0001BE0853209F05ECF8E2F63E00E94E92C6D
:1024E000E92FF0E0EC5FFD4FE491CE2FD0E009EC56
:1024F0001FE050CFFA01811101C0FB010994CF9375
:10250000DF93C82FD62F0E94990B8C1740F00E94A2
:10251000990B8D1720F4DF91CF910C9447118C2FDC
:10252000DF91CF910C9457111F93CF93DF93EC0160
:10253000FB011281112309F4C2C00E941E23827282
:10254000CC3CFCE5DF0709F4A0C008F044C0C63C61
:10255000ECE5DE0709F485C0F0F4C33C9CE5D9073F
:1025600009F475C048F4C23CDC4509F46CC0812F05
:10257000DF91CF911F910895C43C9CE5D90709F4E0
:102580006BC042E65DE065E57DE0C53CDC4579F782
:102590000E947A125AC0C93CFCE5DF0709F46BC0FF
:1025A00068F4C73CECE5DE0709F460C041E75DE094
:1025B00060E87DE0C83CDC4559F3D9CFCA3C9CE5D6
:1025C000D90709F45DC04CEC5BE065EB7BE0CB3CEC
:1025D000DC45F1F2CCCFC13DFCE5DF0709F464C076
:1025E00098F4CE3C9CE5D90709F458C008F452C0D1
:1025F000CF3CFCE5DF0709F454C0C03DDC4509F0E1
:10260000B6CF6EE089E01CC0C43D9CE5D90709F453
:1026100051C058F4C23DFCE5DF0709F448C0C33D92
:10262000DC4509F0A4CF88E136C0C53D9CE5D9075B
:1026300009F443C06AE285E2CD35DD4509F097CF64
:102640000E947F1202C00E94621110E090CF44E508
:1026500051E167E471E19CCF47E451E164E571E148
:1026600097CF45E55DE062E67DE092CF40E85DE032
:1026700061E77DE08DCF4EE95DE06FE87DE088CFDA
:102680004FE85DE06EE97DE083CF45EB5BE06CEC0D
:102690007BE07ECF81E00E945711D7CF65E082E0DA
:1026A000CFCF68E086E0CCCF64E18FE0C9CF67E1AF
:1026B00085E1C6CF62E289E1C3CF83E2ECCF11E0CE
:1026C00056CF539A4BB1477F5BB15860EFB7F89440
:1026D0009B01220F331F260F371F280F391F281782
:1026E000390741F4EFBF8FE594E00197F1F700C09F
:1026F00000000895DC016D91CD0178E05BB9000028
:1027000000C067FF4BB9660F000000C000C000C0EA
:102710004BB900C07A9591F7E2CF83E290E00E9436
:10272000E62D813289F484E290E00E94E62D893022
:1027300059F485E290E00E94E62D91E0823109F0A3
:1027400090E0892F8170089580E0FCCFCF93C82F4F
:102750006FEF811161E283E290E00E94FA2D6FEF4A
:10276000C11169E084E290E00E94FA2D6FEFC1117F
:1027700062E185E290E0CF910C94FA2D80E00E9416
:10278000A6130C94DD23089586E290E00E94E62DC6
:10279000682F70E090E080E0089586E290E00C946D
:1027A000FA2D0E94C3130E948D1381110CC060E0AA
:1027B00070E0CB010E94CD130E9476150E94601636
:1027C00081E00C94A6130895CF93FB01C281CC2322
:1027D00009F19C0122513F452031310520F58251FC
:1027E0000E947016C0E08C2FCF91089581E00E9466
:1027F000792143E062E081E00E949D03F3CF81E014
:102800000E949A2143E062E081E00E949D03EBCFA9
:1028100082E0F6CF8031FFE59F0789F381319F4544
:10282000B9F3C1E0E0CF8031EFE59E07F9F28131E5
:102830009F45C9F682E0DBCF2FEFFC01208308958E
:10284000CF93DF93EC0188818138A9F028F4803898
:1028500071F0DF91CF910895823881F08338C9F704
:102860000E94E40B89830E94E70B8A83F2CF0E94C7
:10287000EA0B8983EECF0E94990BFBCF0E94CF0B0E
:10288000F8CFCF93DF93EC0188818138E1F028F411
:10289000803869F0DF91CF910895823811F1833843
:1028A000C9F70E94EA0B482F6A81898108C0D98143
:1028B0000E94E70BC82F0E94E40B4D2F6C2FDF9175
:1028C000CF910C94A10D89810E9469118981811198
:1028D00004C0DF91CF910C94AE10DF91CF910C9496
:1028E000A4118981DF91CF910C94E10BEF92FF92BB
:1028F0000F931F93CF93DF93EC01062FDC01ED9133
:10290000CD01E150E33108F0ADC0F0E0E15BF14D05
:102910000C943F2D198289E08A83602FCE01DF91CC
:10292000CF911F910F91FF90EF900C941826898101
:10293000823069F0833071F08130D9F40E947025C3
:102940000E94452D6A837B838C839D83E6CF0E9402
:10295000C413F6CF7E01B2E0EB0EF11C10E0812F24
:102960000E942307F70181937F011F5F1730B9F79A
:10297000D4CF602FCE010E941C14CFCF898182302A
:10298000C1F76A817B818C819D810E94452D0E94C7
:10299000CD13C3CF4B816A8189810E944815982746
:1029A000892798279D838C83B8CF2C813D8132273E
:1029B000232732274B816A8189810E946115ADCF1F
:1029C0000E947615AACF0E944114A7CF0E9420141E
:1029D000A4CF0E94780BA1CF0E94091689839DCFB6
:1029E0000E940B169827892798279A83898395CF69
:1029F0006B8170E089819A81AE014C5F5F4F9827AF
:102A0000892798270E940E1688CF6B8170E08981F4
:102A10009A81AE014C5F5F4F9827892798270E94C3
:102A200035167BCF0E94601678CF0E943515D6CF21
:102A30006B8170E089819A81AE014C5F5F4F98276E
:102A4000892798270E94AE1568CF6B8170E0898135
:102A50009A81AE014C5F5F4F9827892798270E9483
:102A6000D3155BCF8FEF888358CF84E0089598E02B
:102A7000699FB001112450E0440F551F640F751F6A
:102A800098E3899F600D711D1124CB0187960895ED
:102A90000F931F93CF93DF930E9437158C010E94F1
:102AA000E62DC82FD0E0DC2FCC27C80101960E946C
:102AB000E62D9E01282BC901DF91CF911F910F9127
:102AC00008950F931F93CF93DF93122F032F0E942C
:102AD0003715EC01602F0E94FA2D612FCE0101966F
:102AE000DF91CF911F910F910C94FA2DAF92BF926D
:102AF000CF92DF92EF92FF921F93CF93DF938CEAF6
:102B0000C82E80E0D82ED0E07601C0E014C0F501D8
:102B100025913491412F6C2F8D2F0E94611582E0F9
:102B2000A80EB11C1F5F143091F788E0E80EF11C6D
:102B3000CF5FC73019F0570110E0E9CFDF5F88E3BE
:102B4000C80ED11CD43001F7DF91CF911F91FF90B7
:102B5000EF90DF90CF90BF90AF900895EF92FF92EB
:102B60000F931F93CF93DF93EC018A017C01E60E54
:102B7000F71ECE018796CE15DF0539F4DF91CF9190
:102B80001F910F91FF90EF900895C03ED10540F442
:102B90000E94E62DF80180830F5F1F4F2196E9CF39
:102BA000F8011082F9CFCF92DF92EF92FF920F934C
:102BB0001F93CF93DF937C016A018C01060F171FCF
:102BC000EC01CE018796C017D10749F4DF91CF9170
:102BD0001F910F91FF90EF90DF90CF900895C03E2E
:102BE000D10540F4FE01EE19FF09EC0DFD1D6081D9
:102BF0000E94FA2D2196E5CF462F843038F47730A5
:102C000028F4643018F4672F0C94481590E080E0A5
:102C1000089580E1089589EF92E00895EF92FF9280
:102C20000F931F93CF93DF93EC018A017C01E60E93
:102C3000F71ECE01895F9E4FCE15DF0539F4DF9177
:102C4000CF911F910F91FF90EF900895C93F22E01F
:102C5000D20740F40E94E62DF80180830F5F1F4FDA
:102C60002196E7CFF8011082F9CFCF92DF92EF9251
:102C7000FF920F931F93CF93DF937C016A018C0126
:102C8000060F171FEC01CE01895F9E4FC017D107B9
:102C900049F4DF91CF911F910F91FF90EF90DF905A
:102CA000CF900895C93F22E0D20740F4FE01EE190B
:102CB000FF09EC0DFD1D60810E94FA2D2196E3CFE6
:102CC000CF93DF93C7E0D1E060E0CE010E94FA2D00
:102CD0002196C11584E0D807B9F7DF91CF91089507
:102CE000DF92EF92FF920F931F93CF93DF9300D069
:102CF00000D0CDB7DEB7F82E8FE08F1540F08FEF04
:102D000093E00E94E62D07E011E08823C1F00F90C8
:102D10000F900F900F90DF91CF911F910F91FF9027
:102D2000EF90DF900895011584E0180781F3C80142
:102D30000E94E62D811101C0FA940F5F1F4FF11020
:102D4000F2CF19821A821B821C82DD24D39478016F
:102D50008FEFE81AF80AC8010E94E62D89831A82CB
:102D60008823A9F29FEF980F933078F48A83D98251
:102D70000E5F1F4FC7010E94E62D8B83882339F217
:102D8000CE0101960E94F204E2CF8701F9CF0F93A2
:102D90001F93CF93DF93C42FD22FFC01828188230E
:102DA000C9F04093BE010E9464259093BD018093B9
:102DB000BC0180E28C0F883008F050C0C77081E001
:102DC00001C0880FCA95EAF7DF91CF911F910F914B
:102DD0000C942A1B1091BE01141335C08091BC01C4
:102DE0009091BD010E947C25883C910560F5C0E270
:102DF000CD0F1D17B9F080E2810F883040F41770B5
:102E000081E001C0880F1A95EAF70E94311BC83093
:102E100048F481E09D2F977001C0880F9A95EAF7DA
:102E20000E942A1B802F0E94221BC830B8F4D77042
:102E300081E001C0880FDA95EAF7DF91CF911F9109
:102E40000F910C94311B80E28C0F883038F4C770DE
:102E500081E001C0880FCA95EAF7EFCFDF91CF91EB
:102E60001F910F9108950F939C01CB01233F4CE5D7
:102E7000340759F1A8F4283DFCE53F0701F1293D4D
:102E80004CE53407D1F1273D3C4591F406E221EEB3
:102E900041EE67ED7CE50E94C71680E00F91089532
:102EA000253FFCE53F07E9F0B0F0263F3C45F9F04F
:102EB000FC018281882339F11092BE01EFCF07E235
:102EC00025EE45EE68ED7CE5E6CF06E221EE40EE2C
:102ED00063EF7CE5E0CF07E225EE44EE64EF7CE5AE
:102EE000DACF06E221EE42EE65EF7CE5D4CF07E2D1
:102EF00025EE46EE66EF7CE5CECF08E221E045EE1A
:102F000069ED7CE5C8CF81E0C9CFCF93DF93EC01B9
:102F1000FB018281882309F419C1C230FCE5DF0777
:102F2000C0F1C6319CE5D90730F09E012A5F3C45CF
:102F30002930310570F50E94F62390934502809365
:102F40004402C031ECE5DE0709F4CFC008F05BC0F5
:102F5000C8308CE5D80709F4B6C088F5C430ECE574
:102F6000DE0709F4A8C0C0F4C2308CE5D80709F424
:102F70009CC0809144028260C330DC4509F498C053
:102F800080914402909145020E9404240E947F1D7A
:102F900080E0DF91CF910895809144028061C63036
:102FA000ECE5DE0709F484C0809144028860C730F4
:102FB000DC4508F47DC080914402806279C0CC3049
:102FC0008CE5D80709F489C070F4809144028C60C4
:102FD000CA30ECE5DE0709F46BC008F478C08091D4
:102FE00044028E7F65C0CE308CE5D80709F479C0E5
:102FF000809144028B7FCF30DC4508F459C080912A
:1030000044028F7E55C0CB3FECE5DE0709F457C084
:1030100030F5C3318CE5D80709F46FC078F4C131BD
:10302000ECE5DE0709F465C0C231DC4509F0A8CF44
:103030000E947F1D809144028F773AC0C5318CE594
:10304000D80709F462C008F476C080914502816017
:10305000CA3FDC4509F094CF8093450291CFCF3F22
:10306000FCE5DF0709F44DC088F4809145028D7FAF
:10307000CD3F9CE5D90781F3809145028E7FCE3FFD
:10308000DC4550F3809145028360E6CFC130FDE519
:10309000DF0709F459C008F444C080E0C230DD45C0
:1030A00009F06ECF0E948A246BCF80914402816028
:1030B0008093440265CF809144028460F9CF80916F
:1030C00045028260C9CF809144028064F1CF0E94A2
:1030D0007F1D809144028068EBCF809144028D7FF8
:1030E000E7CF80914402877FE3CF809144028F7DB8
:1030F000DFCF809144028F7BDBCF80914402837FBE
:10310000D7CF809145028C7FA7CF8091440282FB6C
:10311000992790F921E0922790FB82F990FB83F99F
:10312000C7CF80914502982F909591708E7F892B03
:1031300090FB81F991CF0E947F1D90914402892FCD
:1031400097FB87F98058B4CF81E0ACCF81E021CFE5
:10315000CF93DF93EB0186319C4511F50E941E232E
:103160009A81992399F08A7A91E009F490E09093FA
:10317000BF01811109C089E20E94D8220E946E23FA
:1031800080E0DF91CF91089585E3F6CF8091BF0174
:10319000811104C089E20E94DF22F0CF85E3FBCFDA
:1031A00081E0EFCF9093C5018093C4010895E09131
:1031B000C401F091C501309721F00190F081E02D1C
:1031C000099480E00895E091C401F091C501309721
:1031D00021F00280F381E02D09940895E091C4016B
:1031E000F091C501309739F022E0DC012C93048086
:1031F000F581E02D099408952091C2013091C30119
:103200002817390771F09093C3018093C201E091B0
:10321000C401F091C501309721F00680F781E02DBF
:10322000099408952091C0013091C10128173907F0
:1032300071F09093C1018093C001E091C401F091BD
:10324000C501309721F00084F185E02D099408959F
:103250000E9470256093D2017093D3018093D401B2
:103260009093D5016093CE017093CF018093D001EC
:103270009093D101089585B7806885BF85B7806830
:1032800085BF0895089508950C94421908950C94EB
:1032900046190E943B198BED93E20E94C0250E94C3
:1032A00043190C94441981E008950C94531908951E
:1032B00008950E9457190C9458190E945B250E948A
:1032C00049070E94D1130E946C110C944719AF92C8
:1032D000BF92CF92DF92EF92FF920F931F93CF9303
:1032E000DF93CDB7DEB72A970FB6F894DEBF0FBED7
:1032F000CDBF0E94710781110E94281987ECA82E6A
:1033000081E0B82E10E000E0C02E802F0E9423073D
:10331000E82EF501F1905F01F81609F44FC0809195
:10332000380281FD0E9429078F2D8E25D12CFF2484
:10333000F394982F9F21E9F10E945519882399F061
:10334000DE82CF82EF2081E009F480E088870E944E
:1033500064258160782F9A8789874E815F8168858F
:103360008A850E94061AF801E953FE4F8081F826EB
:10337000F0820E94AC110E9490090E94D71890918F
:10338000C601891791F10E94D7188093C6012A9629
:103390000FB6F894DEBF0FBECDBFDF91CF911F9166
:1033A0000F91FF90EF90DF90CF90BF90AF900C9473
:1033B000FC04D394FF0CF4E0DF12BBCF0F5F1F4F70
:1033C0000730110509F0A0CF8FEF89838A831B8214
:1033D0000E9464258160782F9D838C8349815A8166
:1033E0006B818D810E94061AC4CF2A960FB6F8947D
:1033F000DEBF0FBECDBFDF91CF911F910F91FF9028
:10340000EF90DF90CF90BF90AF900895DF92EF9252
:10341000FF920F931F93CF93DF93CDB7DEB72B9718
:103420000FB6F894DEBF0FBECDBF7A878B87F42E20
:10343000052F162FE72ED82E61110E943E231E82E3
:103440001D827E2DEC82DD824F2D502F612F8D2D20
:103450009E812B960FB6F894DEBF0FBECDBFDF91D5
:10346000CF911F910F91FF90EF90DF900C94F51F7B
:10347000FC01808191810C94AA22CF93C82F8823CC
:1034800009F471C08238C1F40E94D71881FD6BC065
:1034900089E30E94D8220E946E232FEF81EE94E0F0
:1034A000215080409040E1F700C0000089E30E9475
:1034B000DF22CF910C946E238338A1F40E94D71899
:1034C00080FD51C083E50E94D8220E946E232FEF19
:1034D00081EE94E0215080409040E1F700C0000070
:1034E00083E5E5CF8438A1F40E94D71882FD3BC064
:1034F00087E40E94D8220E946E232FEF81EE94E091
:10350000215080409040E1F700C0000087E4CFCF19
:103510008CEF8C0F813A90F46C2F80911F01909169
:1035200020010E94A124882329F08C2F0E94DF22F1
:103530000E946E238C2F0E94D822BBCF80E28C0F7A
:10354000883048F4C77081E001C0880FCA95EAF757
:103550000E942123AECFC03F30F08C2F0E94A208E2
:10356000CF910C947509CF910895882309F452C026
:10357000823871F40E94D71881FF4CC089E30E9401
:10358000D8220E946E2389E30E94DF220C946E23CE
:10359000833859F40E94D71880FF3CC083E50E940D
:1035A000D8220E946E2383E5EFCF843859F40E941D
:1035B000D71882FF2FC087E40E94D8220E946E2372
:1035C00087E4E2CF9CEF980F913AF0F290E2980FE7
:1035D000983050F4877091E001C0990F8A95EAF70E
:1035E000892F0E942723D2CF9BE5980F933020F498
:1035F00090E080E00C94FC1898E5980F973120F447
:1036000090E080E00C941219803F20F00E94FC08AA
:103610000C94750908951F93CF93DF93182FEB0136
:103620000E943D1A209731F4812FDF91CF911F9195
:103630000C94B51A8FE99FE00197F1F700C00000E4
:103640002197F0CF70E060E0893311F460E570E01D
:103650000C940B1B882321F00E9421230C946E23D1
:103660000895882321F00E9427230C946E23089547
:10367000BF92CF92DF92EF92FF920F931F93CF935F
:10368000DF936C01D62FC72FFC01128105810295B3
:103690000F700E94F622E82E8823A1F0E12E11235C
:1036A00089F08C2F807F803429F080E28D0FE12C0F
:1036B000883040F082E00E94BF230E94F62291E011
:1036C000E82EE926BC2EB2949FE0B922EB2DF0E063
:1036D000EE59F14D0C943F2D0C2F0F70C07F11F05F
:1036E0000295007F1123A9F0002359F080E28D0F8D
:1036F000883010F0D11109C0802F0E9421230E9430
:103700006E238D2F0E943D1A14C0802F0E943123FA
:10371000F6CF8D2F0E94B51A002359F080E28D0F4D
:10372000883010F0D1112CC0802F0E9427230E94D6
:103730006E232B2D2850330B2430310520F40E94AA
:10374000D7180E94FC04EE2009F482C10E94F222E4
:1037500080FD7EC1F60112820E94EC220E94792136
:10376000C6010E94491D0E94EC22DF91CF911F915A
:103770000F91FF90EF90DF90CF90BF900C949A2123
:10378000802F0E943723D3CFFC2FFF70FF2EC07FE6
:10379000C03219F0F29480EFF822DD2369F0D130C5
:1037A00049F1112391F1002351F1F601858180FF48
:1037B000A8CF8F70858323C0112381F0011106C02B
:1037C0000E9451238F290E942A1BB3CF0130C1F7D9
:1037D0000E9451238F290E945723ABCF011106C0AD
:1037E0000E9464238F2D0E94311BA3CF013009F466
:1037F000A0CFF6CF112329F0063008F09ACF8F2DF5
:10380000E2CF053008F095CFEDCF002359F3D9333F
:1038100049F4FFEF27EE33E0F15020403040E1F76C
:1038200000C000008D2F0E94B51A83CF8D2F112369
:1038300029F00E94A2080E9475097BCF0E94FC0813
:10384000FACF8C2F837009F041C0111172CF4D2F28
:10385000429546954770440F440F0D2F0F7010E0AE
:1038600030E020E0042E04C0000F111F221F331F80
:103870000A94D2F760E070E0CB01D4FF0FC06FE094
:1038800070E080E090E004C0660F771F881F991FEA
:103890004A95D2F76095709580959095C695C69596
:1038A000C370602B712B822B932BC23049F058F4DC
:1038B000C13019F00E942B213CCF0E94192139CF31
:1038C0000E943D2136CF0E94172133CF86951123C8
:1038D00011F08C2F8170882309F42BCF4D2F429546
:1038E00046954770440F440F0D2F0F7010E030E0E5
:1038F00020E0042E04C0000F111F221F331F0A9462
:10390000D2F760E070E0CB01D4FF0FC06FE070E051
:1039100080E090E004C0660F771F881F991F4A95CA
:10392000D2F76095709580959095C695C695C370B1
:10393000602B712B822B932BC23049F058F4C1308D
:1039400019F00E94F021F5CE0E94DE21F2CE0E94F5
:103950000222EFCE0E945321ECCECF70112329F02A
:103960008C2F0E9479218D2F2ECF8D2F0E94311BFD
:103970008C2F0E949A21DDCED23F89F160F4D03F96
:10398000C9F0D13F29F1112309F442C00111B9CE88
:103990008C2F8F7121C0D33F39F1D43FA1F7112370
:1039A00069F1CF718C2F0E94792163E08C2F0E94E6
:1039B000A423BFCE112341F0053008F0BACE8C2FDE
:1039C0008F710E94BD21B5CE063008F0B2CEF7CF80
:1039D0008C2F8F71112369F20E947921AACE8C2F2E
:1039E0008F711123C9F3C5CF112329F08C2F8F714B
:1039F0000E9464219ECE0E945F219BCE81E00E94A6
:103A0000BF23023008F495CE82E00E94BF2391CEFE
:103A1000002359F0D93309F005CF8FEF97EEE3E09B
:103A200081509040E040E1F7FBCE8C2F8F71A1CF09
:103A30004C2F4F706D2FC6010E9404050E948F20ED
:103A400078CE4C2F4F706D2FC6010E94070571CEA6
:103A5000DF91CF911F910F91FF90EF90DF90CF906A
:103A6000BF9008950F931F93CF93DF93EC0168816C
:103A700079818A810E94B4228C010E9414220E94C2
:103A80001621B801CE01DF91CF911F910F910C94B7
:103A9000381BCF93DF93EC018B819C81892B29F01C
:103AA0008881998189238F3F59F4DF91CF910895BF
:103AB000CE010E94321DCE01DF91CF910C943E03C6
:103AC000CE010E94C5038111F3CF0E94F622882304
:103AD00061F38A81882349F382E0DF91CF910C94CE
:103AE000BF230E943E230E944E230E946E230E9409
:103AF0009C0A0C9475090E94E6220C94711D0E9488
:103B00002E230C947B1DE92FE295EF70E250EE30EE
:103B100070F4F0E0EE58F14D0C943F2D803F19F019
:103B200020F4883E20F481E00895843FE1F380E0B2
:103B30000895883EC0F3813FD1F7F5CF93FB8827E6
:103B400080F908950E94AA220C94831DCF93DF93DD
:103B500000D000D00F92CDB7DEB70F900F900F902E
:103B60000F900F90DF91CF910895CF93DF9300D006
:103B700000D000D0CDB7DEB726960FB6F894DEBFE2
:103B80000FBECDBFDF91CF9108951F93CF93DF93E9
:103B9000C091D70116E08091D8018C1304C0DF9149
:103BA000CF911F910895D0E01C9FF0011D9FF00D53
:103BB0001124E752FE4F40815181628173818481DB
:103BC00095810E94B51D2196C770E5CF40910902ED
:103BD00050910A0260910B0270910C0280910D02CB
:103BE00090910E020C94B51D1F93CF93DF9380919B
:103BF0000E02807FA9F480910B02882389F08091C6
:103C0000D701C091D8016091090270910A02A09178
:103C10000C02B0910D02D62FD72316E0C81304C0B2
:103C2000DF91CF911F91089590E0109711F0DF3F41
:103C300019F401968770F2CF189F9001199F300DEB
:103C40001124F901E752FE4F41814713F2CF408121
:103C50004613EFCF42814111ECCF438154814A1B7F
:103C60005B0B483C510528F780910E028F708061F4
:103C700080930E02F901E252FE4F80818F708061C5
:103C8000808389E092E00E94491DDF91CF911F91CE
:103C90000C94C51DAF92BF92CF92DF92EF92FF922C
:103CA0000F931F93CF93DF93CDB7DEB761970FB616
:103CB000F894DEBF0FBECDBF8C0185E0F801DE01B8
:103CC0001D9601900D928A95E1F7F801408151818E
:103CD000E28089E0C82E82E0D82E60910C027091BB
:103CE0000D026115710509F461C1909109022091DD
:103CF0000A02892F82238F3F09F458C1A380B48020
:103D0000F0900B02F501E61BF70BFF2009F4FCC055
:103D100080910E02382F307FE83CF10508F0B2C0E8
:103D2000311179C0FE2C251323C0941321C0E1105A
:103D30001FC08F70806180930E020E94E61DC60135
:103D40000E94491D80910E02F80185838F2D619696
:103D50000FB6F894DEBF0FBECDBFDF91CF911F919C
:103D60000F91FF90EF90DF90CF90BF90AF900895AC
:103D7000AB2829F0842F85238F3F09F033C180E0E1
:103D8000F82FF170DF2E80FF3CC08091D701209189
:103D9000D80136E0821315C04D875E878D859E85DC
:103DA0000E94AA22292F22952F702230F0F0243071
:103DB00018F59F70F1F0F8019581907FD1F4D12C26
:103DC0001EC090E0389FF001399FF00D1124E7529A
:103DD000FE4F6181651306C06081641303C0628178
:103DE0006E110FC001968770D5CF9F7011F0882398
:103DF00031F3805E883018F3C8010E94491DFD2C04
:103E0000A5CFEE2009F4A2CF80910E0281608093AD
:103E10000E02F12C9BCF251306C0941304C0F801A9
:103E2000EE2009F48DC04D875E878D859E850E94AA
:103E3000A21D882319F1EE2009F180910E02803233
:103E400070F02091090230910A0238872F83198679
:103E5000BB86AA868C87CE0107960E94491D86E004
:103E6000F801A9E0B2E001900D928A95E1F70E9475
:103E7000F41D0E94E61DFF24F39468CFC8010E9440
:103E8000491DF9CF311113C07A2DB98AA88A6E2D38
:103E900089890E94A61D89E092E00E94491D86E062
:103EA000F60111928A95E9F70E94E61DB2CF25131B
:103EB0000FC094130DC0E1100BC0F8018583C80139
:103EC0000E94491D86E0F60111928A95E9F73ECFDE
:103ED0004D875E878D859E850E94A21D882371F285
:103EE000EE2061F280910E02803208F4B8CF20916A
:103EF000090230910A023A8329831B82BD82AC8277
:103F00008E83CE010196A9CFE83CF10508F041C0AF
:103F1000FE2CEE2009F4B2CF25132AC0941328C03A
:103F200080910E0280FD1BC0982F907FC1F0F80198
:103F30008583903F31F0982F907F905F8F70892B11
:103F40008583C8010E94491D86E0F801A9E0B2E01E
:103F500001900D928A95E1F70E94E61DF7CE86E06A
:103F6000F801A9E0B2E001900D928A95E1F7EECE5A
:103F70004D875E878D859E850E94A21D81116FCF22
:103F800080910E02816080930E02C8010E94491D3B
:103F9000DDCE7A2DB98AA88A6E2D89890E94A61D48
:103FA00086E0F60111928A95E9F7D6CFEE2009F462
:103FB00065CF4D875E878D859E850E94A21DF82E58
:103FC000882309F45BCF86E0F801A9E0B2E0019014
:103FD0000D928A95E1F789E092E00E94381A0E94DA
:103FE000F41DBACF81E08E25CBCE1F93CF93DF9304
:103FF000CDB7DEB72C970FB6F894DEBF0FBECDBF9E
:104000004F83588769877A878B879C87CE0107966D
:104010000E944A1E882369F08A859B85892B39F086
:104020004F815885842F85238F3F09F071C016E09A
:104030005FC086E0FE013796DE01119601900D9279
:104040008A95E1F78A859B85892B89F38F819885ED
:1040500089238F3F61F32091D80130E0C901019697
:10406000877099274091D7014817190671F40E946B
:104070007F1D1092D8011092D70186E0E9E0F2E0AE
:10408000DF011D928A95E9F7D2CF96E0929FD00189
:10409000939FB00D1124A752BE4FFE01319601909F
:1040A0000D929A95E1F78093D8010E94C51DBFCF6C
:1040B000819FC001112487529E4F0E944A1E88236F
:1040C000E9F0E091D7011E9FF0011124E752FE4F65
:1040D0004081518162817381848195810E94B51DE7
:1040E0008091D70190E00196877099278093D7013E
:1040F0008091D7019091D8018913DACF2C960FB611
:10410000F894DEBF0FBECDBFDF91CF911F91089510
:1041100069857A858B859C850E94B51D88CFEF9235
:10412000FF920F931F93CF93DF938C01892B81F024
:10413000F12CEE24E394E8012196F8018491843770
:1041400070F4843008F05FC08130B1F08230A1F1AA
:10415000DF91CF911F910F91FF90EF9008958537D8
:1041600009F44CC008F43DC09CE7980F903780F7E5
:104170008F770E94B51A49C00E5F1F4FFE018491D0
:1041800090E2980F983060F48770FE2D01C0FF0F09
:104190008A95EAF78F2F0E9441230E946E2302C066
:1041A0000E943D1A8F2D815030F2EFE9FFE03197E8
:1041B000F1F700C00000F7CF0E5F1F4FFE018491A2
:1041C00090E2980F983050F48770FE2D01C0FF0FD9
:1041D0008A95EAF78F2F0E944723DFCF0E94B51AF6
:1041E000E1CF0E5F1F4FFE01C491C150D8F28FE99D
:1041F0009FE00197F1F700C00000F7CF0E5F1F4F5F
:10420000FE01F490CFCF0E943D1A8E01CBCF0895CE
:104210000C9407210E9408216093270270932802C2
:104220008093290290932A020C94711D08950C9496
:104230000A210F931F9300912702109128022091C9
:10424000290230912A02602B712B822B932B1F9114
:104250000F910C940A210F931F9300912702109144
:1042600028022091290230912A026023712382239F
:1042700093231F910F910C940A210F931F93009188
:104280002702109128022091290230912A026027EA
:104290007127822793271F910F910C940A210C9468
:1042A00007210C944F210E945121609323027093A7
:1042B000240280932502909326020C94711D60E0E5
:1042C00070E0CB010C9453210F931F9341E050E019
:1042D00060E070E08A019B0104C0000F111F221FE3
:1042E000331F8A95D2F7C901B8011F910F910C9421
:1042F00053210F931F9341E050E060E070E004C051
:10430000440F551F661F771F8A95D2F780912302AD
:1043100090912402A0912502B09126028A019B016E
:10432000082B192B2A2B3B2BC901B8011F910F9188
:104330000C9453210F931F9341E050E060E070E034
:1043400004C0440F551F661F771F8A95D2F7CB0113
:10435000BA01609570958095909500912302109117
:1043600024022091250230912602602371238223AA
:1043700093231F910F910C9453210F931F9341E0AE
:1043800050E060E070E004C0440F551F661F771FC7
:104390008A95D2F78091230290912402A091250260
:1043A000B09126028A019B01082719272A273B275B
:1043B000C901B8011F910F910C9453210F931F93C2
:1043C00000912302109124022091250230912602AF
:1043D000602B712B822B932B1F910F910C945321E7
:1043E0000F931F9300912302109124022091250224
:1043F0003091260260237123822393231F910F9112
:104400000C9453210F931F930091230210912402C7
:104410002091250230912602602771278227932759
:104420001F910F910C9453210895990F990F890FA3
:10443000982F977041E001C0440F9A95EAF786954E
:104440008695869595E0899FF0011124E15FFD4FE7
:1044500030E020E070E05191DF011197CB01022E96
:1044600002C0969587950A94E2F781708195852719
:10447000842385278C932F5F3F4F2530310559F7D3
:104480000895990F990F890F982F977086958695A3
:10449000869525E0829FF0011124E15FFD4F50E0F9
:1044A00040E080E0219130E0092E02C0369527954A
:1044B0000A94E2F721703327042E01C0220F0A94D8
:1044C000EAF7822B4F5F5F4F4530510559F708954A
:1044D000BF92CF92DF92EF92FF920F931F93CF93F1
:1044E000DF938C01C0902302D0902402E09025023B
:1044F000F09026028091270290912802A091290233
:10450000B0912A02C82AD92AEA2AFB2ACFE1D0E0B0
:10451000BC2ED701C6010C2E04C0B695A795979561
:1045200087950A94D2F780FD0EC0219788F7B12CA9
:104530008B2DDF91CF911F910F91FF90EF90DF9026
:10454000CF90BF900895B8018C2F0E94100501975D
:1045500061F3EECFCF93DF93EC010E946822BE019E
:10456000DF91CF910C9410051F93CF93DF93EB0154
:104570009091D601992331F0CB01DF91CF911F911A
:104580000C94AA22882379F0CB010E946822182F6C
:10459000682FCE010E941522BE01812FDF91CF919D
:1045A0001F910C941005CB010E944122182FF4CFCB
:1045B000682F80911F01909120010C94D724682FBF
:1045C00080911F01909120010C94D92480911F01AA
:1045D000909120010C94DB2480912B028595859588
:1045E0008595089580912B028770089590912B02F4
:1045F000977081E009F480E008959091450292FB64
:10460000222720F9281751F080FB92F99093450258
:1046100080914402909145020C9404240895809165
:10462000450282FB882780F991E089270C94FD22BE
:1046300081E00C94FD2280E00C94FD2280913702F1
:10464000089590913702892B8093370208958095C1
:104650009091370298239093370208951092370271
:10466000089590913602892B8093360208958095A3
:104670009091360298239093360208951092360254
:10468000089590913502892B809335020895809585
:104690009091350298239093350208951092350237
:1046A000089580912C02089508950C9454239091BC
:1046B000450292FD08C090912C02981721F080933A
:1046C0002C020C945523089580912C02882329F004
:1046D00010922C0280E00C9455230895E0911F0164
:1046E000F0912001809137028083E0911F01F091C9
:1046F0002001808190913602892B8083E0911F01F7
:10470000F0912001808190913502892B80839091D6
:104710002C02992381F0E0911F01F091200180810A
:10472000892B808380911F01909120010E948F240A
:1047300081110E94642380911F01909120010C94AB
:10474000E31808950C94A1239091450292FD10C0A6
:1047500098E0899F90011124622B60932B020E94A4
:10476000792180912B028595859585950C94A223BE
:104770000C94792110922B0280E00C94A22390914A
:104780002B028095892380932B02282F277039F4E0
:10479000282F082E000C330B9217130621F490914A
:1047A000450292FF07C08595859585950E949A21BF
:1047B0000C94BA23089580E008956FEF7FEF90E0A6
:1047C00080E00C94182E90E080E00E94F42D21E00F
:1047D0008A3E9E4F09F020E0822F089582E090E00B
:1047E0000C94E62D83E090E00C94E62DCF9384E0CA
:1047F00090E00E94E62DC82F82E290E00E94E62D14
:10480000982F8C2FCF910895CF93C92F682F84E0D4
:1048100090E00E94FA2D6C2F82E290E0CF910C94F0
:10482000FA2DAB01BC018FE090E00C940C2EAB0193
:10483000BC0183E190E00C940C2E60E070E0CB01B1
:104840000C94172460E070E0CB010E9411240C94BA
:104850001D246AEE7EEF90E080E00E94182E60E05A
:1048600082E090E00E94FA2D60E083E090E00E94F8
:10487000FA2D10922702109228021092290210920B
:104880002A0260E084E090E00E94FA2D60E082E27B
:1048900090E00E94FA2D60E085E090E00E94FA2D01
:1048A00060E086E090E00E94FA2D6FEF87E090E0F4
:1048B0000E94FA2D40E050E0BA0188E090E00E94AA
:1048C0000C2E60E08DE090E00E94FA2D40E050E078
:1048D000BA0188E190E00E940C2E60E087E190E050
:1048E0000E94FA2D40E050E0BA018CE190E00E9475
:1048F0000C2E70E060E080E290E00E94182E40E014
:1049000050E0BA0188E190E00E940C2E0C94222421
:104910000C942924682F8EE090E00C94FA2D9C01D1
:104920002E5F3F4FAC01485F5F4F80E02417350793
:1049300009F40895F90191919F019923B9F38F5FCB
:10494000F5CF662349F0FC0132960896219126178F
:1049500029F0E817F907D1F780E0089581E008957C
:104960009C01FC0132969FEF80E04191461751F087
:104970009F3F19F4411101C0982F8F5F8630A9F72E
:104980009F3F09F40895290F311D97FD3A95F901CC
:1049900062830895FC01329608962191261303C084
:1049A000DF0111971C92E817F907B9F708950C94E5
:1049B000B0240C94CA24029626E0FC0111922A9598
:1049C000E9F70895089508950C94E32480917902FD
:1049D000843049F10E94E42480E00E94FC0410929B
:1049E000390288E190E020E40FB6F894A89580930E
:1049F00060000FBE2093600083B7817F846083BF17
:104A000083B7816083BF7894889583B78E7F83BF97
:104A10000FB6F894A895809160008861809360003B
:104A2000109260000FBE08950895CF930E94E22473
:104A30000E9471070E941425C0E08C2F0E9423075A
:104A4000811105C0CF5FC730C1F7CF91089581E0D4
:104A5000FCCF08950C9429250E947F1D0E94D71831
:104A60000E94FC040C942A251F921FB61F92112449
:104A70008F939F93AF93BF9380913902811113C09D
:104A80008091710290917202A0917302B0917402B0
:104A90004196A11DB11D8093710290937202A09363
:104AA0007302B0937402BF91AF919F918F911F9049
:104AB0001FBE1F90189582E084BD93E095BD9AEFCC
:104AC00097BD80936E0008952FB7F894809171027E
:104AD00090917202A0917302B09174022FBF089559
:104AE0002FB7F894609171027091720280917302F5
:104AF000909174022FBF08959C014FB7F894809154
:104B0000710290917202A0917302B09174024FBF32
:104B1000821B930B089578941F921FB61F92112445
:104B20008F939F93AF93BF93809171029091720284
:104B3000A0917302B09174020196A11DB11D8093E2
:104B4000710290937202A0937302B0937402BF91AA
:104B5000AF919F918F911F901FBE1F90189587E76F
:104B600097E7909301088093000888E19AE00FB6D8
:104B7000F894A895809360000FBE90936000FFCFDB
:104B80009093730180937201089580914202089579
:104B900008959C0184E08093E9009FEF8091E800F4
:104BA000915085FD06C085ED8A95F1F700009111C1
:104BB000F5CF8091E80085FF0CC050E040E066E052
:104BC00070E0C9010E9409288091E8008E778093E7
:104BD000E8000895CF93DF93EC0181E08093E90032
:104BE0008FEF9091E800815095FD06C095ED9A9564
:104BF000F1F700008111F5CF8091E80085FF14C026
:104C000050E040E068E070E0CE010E940928809109
:104C1000E8008E778093E80088E0FE01AAE3B2E026
:104C200001900D928A95E1F7DF91CF910895089553
:104C3000CF93FC01603221F580917902843001F537
:104C4000C091E900CF702091EC00922F917020FD6F
:104C500090E8C92B82E08093E9008091E80080FF12
:104C60000CC050E040E060E270E0CF010E940928F3
:104C70008091E8008E778093E800CF70C093E900C0
:104C8000CF91089580917802811109C00E94E8298E
:104C90000E94452A8091E20084608093E20008959A
:104CA00010927802089508950895089542E061EC05
:104CB00081E00E94642942E261EC84E00E94642960
:104CC00042E261EC82E00E94642942E260EC83E00F
:104CD0000C94642980917B02833009F461C030F424
:104CE0008130D1F1823009F49DC008958A3009F4F1
:104CF00089C08B3009F46FC0893009F050C08091B1
:104D00007A02813209F04BC080917E0290917F023D
:104D1000009719F0029709F042C08091E800877F60
:104D20008093E8008091E80082FF35C09091F30005
:104D30008091F200029729F48091F1008B7F8130FD
:104D400021F48091F100809342028091E8008B77FA
:104D50008093E8000C94982980917A02813AF9F4C2
:104D60008091E800877F8093E80080917E02909197
:104D70007F02892B61F468E08AE392E070E00E9490
:104D8000A7288091E8008B778093E800089560E081
:104D900090E080E0F3CF809179028111C3CF089534
:104DA00080917A02813AD9F780917E0290917F02B8
:104DB000892BA9F78091E800877F8093E800809194
:104DC000E80080FFFCCF80912B018093F10080915F
:104DD000E8008E77BDCF80917A02813201F7809111
:104DE0007E0290917F02892BD1F68091E800877F27
:104DF0008093E8000E94982980917C0280932B0187
:104E00000C947F1D80917A02813249F68091E800EE
:104E1000877F8093E8000E94982980917D0280938B
:104E20004302089580917A02813A09F0B8CF8091C7
:104E3000E800877F8093E8008091E80080FFFCCF46
:104E400080914302C2CFCDB7DEB7A0970FB6F894DA
:104E5000DEBF0FBECDBF84B7877F84BF0FB6F89487
:104E6000A895809160008861809360001092600036
:104E70000FBE80E890E00FB6F894809361009093A5
:104E800061000FBE0E9449190E94E8290E94452A2C
:104E90008091E20084608093E20078940E94CE2C9E
:104EA0000E945D1981E291E00E94D21813E0809186
:104EB00079028530B9F00E946719809179028430B7
:104EC000C1F00E945919F3CF0E94E6248091770225
:104ED000882341F00E941525882321F00E94F327A2
:104EE0000E947F1D80917902853071F30E942C25EC
:104EF000E2CF1093E9008091E80082FFE2CF809139
:104F0000E80090E085FF09C050E040E060E270E01A
:104F1000CE0101960E94582891E08091E8008B779D
:104F20008093E800992369F260E2CE0101960E9425
:104F30007614C7CF0C949C27292F332723303105B3
:104F400021F168F42130310509F443C022303105E4
:104F500009F444C090E080E030E020E026C0213237
:104F6000310551F122323105A9F76330710590F70F
:104F7000FB01EE0FFF1FEB59FE4F208131816E596F
:104F80007E4FFB01808190E010C099278130910510
:104F900081F0009729F00297E9F6EEE1F4E002C013
:104FA000E4E4F4E0849190E09F01FA0131832083EE
:104FB0000895EEE2F4E0F6CF6330710558F6660F1F
:104FC000771FFB01E559FE4F2081318189E090E098
:104FD000ECCF82E190E023EA34E0E7CF8BE590E08C
:104FE00028E434E0E2CF80E189BD82E189BD09B4E3
:104FF00000FEFDCF8091D8008F7D8093D8008091F6
:10500000E00082608093E0008091E00081FDFCCFB1
:105010000895AF92BF92CF92DF92FF920F931F93AA
:10502000CF93DF936C01EB018A010E94B729F82E20
:10503000811123C00115110539F0F801808191819A
:10504000C81BD90BC80ED91EB12CA12C2097A9F0D2
:105050008091E80085FD22C08091E8008E778093E2
:10506000E80001151105A1F0F80180819181A80ED9
:10507000B91EB182A08285E0F82E8F2DDF91CF91ED
:105080001F910F91FF90DF90CF90BF90AF90089548
:105090000E94B7298823D1F2F82EEFCFF601819133
:1050A0006F018093F1002197FFEFAF1ABF0ACECFB7
:1050B000AF92BF92CF92DF92FF920F931F93CF9345
:1050C000DF936C01EB018A010E94B729F82E811150
:1050D00023C00115110539F0F80180819181C81BA9
:1050E000D90BC80ED91EB12CA12C2097A9F0809104
:1050F000E80085FD22C08091E8008B778093E8006E
:1051000001151105A1F0F80180819181A80EB91E49
:10511000B182A08285E0F82E8F2DDF91CF911F9173
:105120000F91FF90DF90CF90BF90AF9008950E94B5
:10513000B7298823D1F2F82EEFCF8091F100F60144
:1051400081936F012197FFEFAF1ABF0ACECFFC0109
:10515000809180029091810286179707A0F06115D7
:10516000710529F49091E8009E779093E80090E013
:105170006115710551F4911108C08091E80082FF1A
:1051800034C080E00895BC01F2CF80917902882379
:10519000C1F18530C1F18091E80083FD30C080917C
:1051A000E80082FDEACF8091E80080FFE1CF8091A6
:1051B000F3002091F200382F6115710519F02830A5
:1051C000310558F091E02830310509F090E0209148
:1051D000E8002E772093E800CBCF81918093F100F7
:1051E000615071092F5F3F4FE7CF8091790288238B
:1051F00041F0853041F08091E80083FFBECF81E02F
:10520000089582E0089583E00895FC018091800272
:105210009091810286179707A0F06115710529F416
:105220008091E8008E778093E80090E06115710529
:1052300051F4911108C08091E80082FF35C080E0F0
:105240000895BC01F2CF809179028823C9F185309D
:10525000C9F18091E80083FD31C08091E80082FDB2
:10526000EACF8091E80080FFE1CF8091F3002091A8
:10527000F200382F6115710519F02830310558F00A
:1052800091E02830310509F090E08091E8008E77B8
:105290008093E800CBCF84918093F10031966150E8
:1052A00071092F5F3F4FE6CF80917902882341F04B
:1052B000853041F08091E80083FFBDCF81E0089503
:1052C00082E0089583E00895982F973028F08F703A
:1052D0008093E90081E008959093E900242F762FD0
:1052E00050E0981731F07091EC002091ED00509152
:1052F000F00021FD02C09F5FE8CF3091EB003E7FC0
:105300003093EB003091ED003D7F3093ED00309114
:10531000EB0031603093EB007093EC002093ED00D4
:105320005093F0002091EE0027FDE5CF80E0089536
:1053300080917A0287FF13C08091E80082FF06C047
:105340008091E8008B778093E80004C08091790217
:105350008111F2CF0895809179028823D9F3809149
:10536000E80080FFF8CF8091E8008E77ECCF2091A5
:10537000E4003091E50095E6A9012091EC00822F30
:10538000817020FF06C08091E80080FF06C080E0A9
:1053900008952091E80022FD1AC0809179028823A7
:1053A00089F0853089F08091EB0085FD0FC0209158
:1053B000E4003091E50042175307F9F29150E1F60D
:1053C00084E0089582E0089583E0089581E00895DF
:1053D0000E94562A0E945E2AE0EEF0E08081816001
:1053E0008083E8EDF0E080818F77808319BCA7EDA2
:1053F000B0E08C918E7F8C9380818F7E8083109221
:10540000780208950F931F93CF93DF930E94562A3B
:105410000E945E2AC8EDD0E088818F7788838881DA
:105420008068888388818F7D888319BC1092790277
:1054300010927502109277021092760200EE10E040
:10544000F80180818B7F808388818160888342E03E
:1054500060E080E00E946429E1EEF0E080818E7FD0
:105460008083E2EEF0E080818160808380818860CB
:105470008083F80180818E7F80838881806188832A
:10548000DF91CF911F910F910895E8EDF0E08081B9
:105490008F7E8083E7EDF0E080818160808384E00F
:1054A00082BF81E0809378020C94022AE8EDF0E05C
:1054B00080818E7F80831092E20008951092DA003E
:1054C0001092E10008951F920F920FB60F921124CF
:1054D0002F933F934F935F936F937F938F939F93FC
:1054E000AF93BF93EF93FF938091E10082FF0BC0D6
:1054F0008091E20082FF07C08091E1008B7F809362
:10550000E1000E94CD2C8091DA0080FF19C08091CB
:10551000D80080FF15C08091DA008E7F8093DA007A
:105520008091D90080FF96C080E189BD82E189BD6C
:1055300009B400FEFDCF81E0809379020E944226EB
:105540008091E10080FF19C08091E20080FF15C0CA
:105550008091E2008E7F8093E2008091E200806182
:105560008093E2008091D80080628093D80019BCBB
:1055700085E0809379020E9454268091E10084FFA7
:105580002BC08091E20084FF27C080E189BD82E1C9
:1055900089BD89B5982F917080FFFBCF8091D8008D
:1055A0008F7D8093D8008091E1008F7E8093E10011
:1055B0008091E2008F7E8093E2008091E200816022
:1055C0008093E20080917502882309F449C084E049
:1055D000809379020E9455268091E10083FF29C0C3
:1055E0008091E20083FF25C08091E100877F809356
:1055F000E10082E080937902109275028091E100CF
:105600008E7F8093E1008091E2008E7F8093E200A4
:105610008091E20080618093E20042E060E080E0FF
:105620000E9464298091F00088608093F0000E94BD
:105630005326FF91EF91BF91AF919F918F917F91F1
:105640006F915F914F913F912F910F900FBE0F90EF
:105650001F90189519BC109279020E94502670CFA5
:105660008091E30087FD93E090937902B3CF1F927E
:105670000F920FB60F9211242F933F934F935F9386
:105680006F937F938F939F93AF93BF93CF93DF934A
:10569000EF93FF93D091E900DF708091EC00C82F69
:1056A000C17080FDC0E81092E9008091F000877F12
:1056B0008093F00078940E947B2B1092E9008091F7
:1056C000F00088608093F000CD2BCF70C093E9008C
:1056D000FF91EF91DF91CF91BF91AF919F918F910A
:1056E0007F916F915F914F913F912F910F900FBEDE
:1056F0000F901F9018951F93CF93DF93CDB7DEB710
:10570000AA970FB6F894DEBF0FBECDBF8AE792E02E
:105710002091F100FC012193CF01F2E082389F0734
:10572000B9F70E946A268091E80083FF1EC180912C
:105730007A0290917B029A3008F017C1E92FF0E0CD
:10574000E058F14D0C943F2D803899F0823809F0E3
:105750000CC180917E028F70873008F006C1809363
:10576000E9008091EB0085FB882780F91092E90021
:1057700006C080917602909177029111826090919B
:10578000E800977F9093E8008093F1001092F10079
:105790008091E8008E77E5C0882309F4D3C0823079
:1057A00009F0E3C080917C028111D6C080917E0215
:1057B0008F702FEF280F263008F0D7C08093E900B4
:1057C0002091EB0020FFC8C0933031F48091EB00B2
:1057D00080628093EB00C0C09091EB009061909349
:1057E000EB0021E030E001C0220F8A95EAF7209318
:1057F000EA001092EA008091EB008860EACF811104
:10580000B4C010917C021F778091E3008078812BD7
:105810008093E3008091E800877F8093E8000E94F6
:1058200098298091E80080FFFCCF8091E300806898
:105830008093E30082E0111183E08093790295C0A8
:105840008058823008F091C080917C0290917D0256
:105850008C3D23E09207A1F583E08A838AE2898365
:105860004FB7F894DE01139620E03EE051E2E32FBB
:10587000F0E050935700E49120FF03C0E295EF70F1
:105880003F5FEF708E2F90E0EA30C0F0C7968D93A7
:105890009D932F5F243159F74FBF8091E800877F98
:1058A0008093E8006AE270E0CE0101960E94A7288A
:1058B0008091E8008B778093E80057C0C096E7CFCF
:1058C00060917E0270917F02AE014F5F5F4F0E9438
:1058D0009A27BC01892B09F448C09091E800977F72
:1058E0009093E80089819A810E940529E1CF803850
:1058F000E1F58091E800877F8093E8008091750250
:105900008093F10045CF811130C090917C0292309C
:1059100060F58091E800877F8093E800909375029E
:105920000E94982980917502882311F084E005C0B7
:105930008091E30087FDFACF81E0809379020E9495
:10594000562613C080917C02813079F481E0933037
:1059500009F080E0809377021092E9008091E800DE
:10596000877F8093E8000E9498298091E80083FF58
:105970000AC08091E800877F8093E8008091EB0067
:1059800080628093EB00AA960FB6F894DEBF0FBE3C
:10599000CDBFDF91CF911F9108950895CF9380914E
:1059A00079028823A1F0C091E900CF709091EC00BA
:1059B000892F817090FD80E8C82B1092E9008091BA
:1059C000E80083FD0E947B2BCF70C093E900CF914C
:1059D0000895991B79E004C0991F961708F0961B4B
:1059E000881F7A95C9F780950895AA1BBB1B51E1C2
:1059F00007C0AA1FBB1FA617B70710F0A61BB70B3F
:105A0000881F991F5A95A9F780959095BC01CD01E3
:105A1000089597FB072E16F4009407D077FD09D060
:105A20000E94F52C07FC05D03EF4909581959F4F80
:105A30000895709561957F4F0895A1E21A2EAA1BD3
:105A4000BB1BFD010DC0AA1FBB1FEE1FFF1FA2172E
:105A5000B307E407F50720F0A21BB30BE40BF50B2B
:105A6000661F771F881F991F1A9469F760957095B4
:105A7000809590959B01AC01BD01CF010895EE0F7B
:105A8000FF1F0590F491E02D099469279627692757
:105A900078278727782708950E94542D332312F4FE
:105AA0008A1B9B0B0C94652DA29FB001B39FC00174
:105AB000A39F700D811D1124911DB29F700D811D3A
:105AC0001124911D08950E94542DB7FF0895821B43
:105AD000930B08950E94542DA59F900DB49F900D97
