:100000000C947D020C94C4020C94C4020C94C4029F
:100010000C94C4020C94C4020C94C4020C94C40248
:100020000C94C4020C94C4020C9461290C94352ADB
:100030000C9461210C94C4020C94C4020C94C4026C
:100040000C94C4020C94C4020C94C4020C94C40218
:100050000C94C4020C94B8210C94C4020C94C402F5
:100060000C94C4020C94C4020C94C4020C94C402F8
:100070000C94C4020C94C4020C94C4020C94C402E8
:100080000C94C4020C94C4020C94C4020C94C402D8
:100090000C94C4020C94C4020C94C4020C94C402C8
:1000A0000C94C4020C94C4020C94C4021E001F00E1
:1000B0000000000020002100220023002400250071
:1000C000260027001E001F00000000002000210065
:1000D0002200230024002500260027001E001F0008
:1000E0000000000020002100220023002400250041
:1000F0002600270000000000000000002A2B280036
:1001000000000000000000000000000000000029C6
:10011000000000002C1E3420212224342627252E06
:10012000362D3738271E1F2021222324252633333E
:10013000362E37381F0405060708090A0B0C0D0E6A
:100140000F101112131415161718191A1B1C1D2F36
:100150003130232D350405060708090A0B0C0D0E56
:100160000F101112131415161718191A1B1C1D2F16
:100170003130354C0000000000000000000000009D
:1001800000000000000000007E0F00D4FFFFFFC74A
:100190000000007832190A00047F3F1F64321464A3
:1001A0003214783C1E1E140A052223252628292AEB
:1001B0002C2D2F3032333536383A3B3D3E404243CA
:1001C0004547494A4C4E5051535557595A5C5E6009
:1001D00062646668696B6D6F71737577797B7D7F1B
:1001E00081838587898A8C8E90929496989A9C9E1A
:1001F0009FA1A3A5A7A8AAACAEAFB1B3B4B6B8B936
:10020000BBBCBEBFC1C2C3C5C6C7C9CACBCCCDCE9D
:10021000D0D1D2D2D3D4D5D6D7D7D8D9D9DADADB80
:10022000DBDBDCDCDCDCDCDDDDDDDDDCDCDCDCDC0C
:10023000DBDBDBDADAD9D9D8D7D7D6D5D4D3D2D24B
:10024000D1D0CECDCCCBCAC9C7C6C5C3C2C1BFBE33
:10025000BCBBB9B8B6B4B3B1AFAEACAAA8A7A5A39E
:10026000A19F9E9C9A98969492908E8C8A8987855D
:1002700083817F7D7B79777573716F6D6B6968663C
:100280006462605E5C5A5957555351504E4C4A490E
:1002900047454342403E3D3B3A3836353332302FB6
:1002A0002D2C2A292826252322FFAA7F554000012C
:1002B0000101010101010101020202020202020226
:1002C00002030303030303030304040404040404F8
:1002D00005050505050606060606070707070708BC
:1002E000080808090909090A0A0A0B0B0B0C0C0C6F
:1002F0000D0D0D0E0E0E0F0F0F1010111111121209
:1003000013131414151516161717181819191A1A85
:100310001B1B1C1D1D1E1E1F2020212222232424E6
:10032000252626272829292A2B2C2D2D2E2F303122
:100330003232333435363738393A3B3C3D3E3F4034
:100340004142434445464748494A4C4D4E4F50511F
:100350005354555658595A5B5D5E5F6162646566D9
:1003600068696B6C6D6F7072737577787A7B7D7E60
:100370008082838587888A8C8E8F91939596989AB0
:100380009C9EA0A2A3A5A7A9ABADAFB1B3B5B7BAC8
:10039000BCBEC0C2C4C6C9CBCDCFD1D4D6D8DBDD9C
:1003A000DFE2E4E7E9EBEEF0F3F5F8FAFDFF120324
:1003B0005300680069006E006A0069006E00430027
:1003C0000000140373006800750072006900790072
:1003D00061006D00610000000403090409025B0074
:1003E000030100A0FA090400000103010100092132
:1003F000110100012240000705810308000A0904D9
:100400000100020300000009211101000122220065
:1004100007058203200001070503032000010904EA
:1004200002000103000000092111010001224F0018
:100430000705840320000A120110010000000818BB
:100440002701000001010200010660FF0961A1010E
:100450000962150026FF00952075088102096315C1
:100460000026FF00952075089102C005010902A130
:100470000185020901A100050919012905150025B9
:100480000195057501810295017503810105010939
:100490003009311581257F950275088106093815C7
:1004A00081257F950175088106050C0A38021581A2
:1004B000257F950175088106C0C005010906A101C7
:1004C000050719E029E71500250195087501810246
:1004D0009501750881010507190029FF150026FF00
:1004E000009506750881000508190129059505750F
:1004F000019102950175039101C011241FBECFEF38
:10050000DAE0DEBFCDBF04B603FE27C080915E02F5
:1005100090915F02A0916002B09161028730904B90
:10052000A740B04BD1F410925E0210925F0210927D
:1005300060021092610214BE84B7877F84BF0FB639
:10054000F894A89580916000886180936000109273
:1005500060000FBEE0E0F8E3099511E0A0E0B1E033
:10056000E8E3FBE502C005900D92AE36B107D9F77E
:1005700022E0AEE6B1E001C01D92AE35B207E1F770
:100580000E9427260C944B2D0C94000081E00895C6
:1005900081E008950C94C80208950C94CC021F9336
:1005A000CF93DF9300D000D00F92CDB7DEB7498351
:1005B0005A836B833091B70189819A8131111DC0B3
:1005C0006623B9F02223A9F00E94C51E182F682FB8
:1005D00089819A810E94721E69817A81812F0F9090
:1005E0000F900F900F900F90DF91CF911F910C946F
:1005F00062120E949E1E182FEFCF0E94C51E6981B5
:100600007A81EDCFFC01262F408151816281738177
:1006100084810C94CF02CF93DF93EC0160E00E94C1
:100620000203BE01DF91CF910C94CD02FF920F9394
:100630001F93CF93DF93E82FF0E0EC50FF4FF4903F
:10064000C82FC695C695C695D0E0FE01EC57FE4F63
:100650000491877010E0082E02C0159507950A9442
:10066000E2F701701127CC58DE4FFE01C491D0E0B3
:1006700002C0D595C7958A95E2F7C170DD270115AF
:10068000110519F081EE0E94A016209719F086EE50
:100690000E94A0168F2D0E946E17CD2B19F086EEAA
:1006A0000E941817012B41F081EEDF91CF911F912D
:1006B0000F91FF900C941817DF91CF911F910F911C
:1006C000FF900895EF92FF920F931F93CF93DF93C4
:1006D000EC01162F0AE08881882309F454C0813088
:1006E00009F04EC08981813099F47E0122E0E20E4A
:1006F000F11C8A810E946E17E7012196812F81509B
:1007000050F3EFE9FFE03197F1F700C00000F7CFB9
:10071000823041F47E0182E0E80EF11C8A810E9461
:10072000A016EACF833041F47E01E2E0EE0EF11C28
:100730008A810E941817E0CF843011F02196DDCF16
:100740002A81229690E080E0AE014F5F5F4F2053F8
:10075000330B2A30310548F0019778F2EFE9FFE0DA
:100760003197F1F700C00000F7CF089FB001099F53
:10077000700D1124C901860F971F2981EA01E4CF6A
:100780000E941603BACFDF91CF911F910F91FF9076
:10079000EF90089560E00C9462038F929F92AF9265
:1007A000BF92CF92DF92EF92FF920F931F936B0154
:1007B0007C0181E090E0A0E0B0E04C015D0104C06C
:1007C000880C991CAA1CBB1C4A95D2F7B501A40140
:1007D0004C015D0104C0880C991CAA1CBB1C2A9505
:1007E000D2F7482959296A297B2904C0880F991F03
:1007F000AA1FBB1F0A95D2F78A019B010C211D215C
:100800002E213F21041715072607370789F48C2965
:100810009D29AE29BF29BC01CD011F910F91FF90E9
:10082000EF90DF90CF90BF90AF909F908F90089502
:1008300080959095A095B0958C219D21AE21BF21EA
:10084000EACF0F93382F262F6091FA017091FB01A8
:100850008091FC019091FD01042F432F0E94CD0354
:100860000F910C94B01D0E94EF210E940F20811166
:1008700002C00E94B3200C9484060C94870608954D
:100880000E94D9190E943F042FEF84E39CE021507D
:1008900080409040E1F700C000000C94DC210F93F1
:1008A0001F93CF93DF93EC0161E00E9402038C0160
:1008B000BE010E944010882389F1BE01C8010E9438
:1008C000CA02882359F1BE01C8010E94B8138823C7
:1008D00029F1BE01C8010E940A148823F9F0BE0163
:1008E000C8010E942D158823C9F0BE01C8010E94CD
:1008F0004D0F882399F08A81882339F001158CE502
:10090000180751F00F3D1C4579F0CE01DF91CF91D2
:100910001F910F910C94C6020E94400480E0DF9169
:10092000CF911F910F9108950E94B320F7CF0895A2
:100930000C94970481E008950C949A04CF93C82FE7
:100940000E9498048C2FCF910C949C0490E080E03E
:1009500008950895FC01EE0FFF1FEC56FE4F8591A0
:1009600094910895CF93DF930E9462120E94A9058B
:10097000EC01811521E59207E8F5811530E5930733
:1009800008F09BC08F3F910509F0F0F4803F91057E
:1009900008F085C0803E910580F4803C910508F008
:1009A00080C08130910561F0009751F00497813A41
:1009B000910530F0D0E0C0E003C0883E9105D0F74B
:1009C000CE01DF91CF9108958115904338F4C11580
:1009D00080E2D807A8F3CE019F7065C0C11590E4EE
:1009E000D90708F067C0CE019927D3FF60C0EC019A
:1009F000D86CE6CF811525E5920700F5811534E521
:100A0000930708F08EC0811543E5940708F076C07F
:100A1000C11582E5D80708F46CC0CE018370992710
:100A200021E030E002C0220F331F8A95E2F7C6951D
:100A3000C69580E2C89FE001112457C0C11599E511
:100A4000D907A8F4C11528E5D20708F06FC0C11571
:100A500036E5D30708F0AECF8C2F0E944006C82F92
:100A6000D0E0DC2FCC27CC27DF71D062A9CFC11515
:100A70004AE5D40708F45FC0CE0190568115904234
:100A800008F098CF8D2F8F710E94400690E0982F2C
:100A9000882788279F719C012C2BE901E6CFD06520
:100AA0008FCF805C91090E94AA04EC0189CFEC01F0
:100AB000D06C86CFDF70D06A83CFE4E096958795BF
:100AC000EA95E1F783702C2F26952695237040E256
:100AD000249F90011124382B8C2F8370C1E0D0E02B
:100AE00002C0CC0FDD1F8A95E2F7C22BD32BDC6846
:100AF00067CFDC2FCC27C16FD06A62CF8370992774
:100B000021E030E002C0220F331F8A95E2F7C6953C
:100B1000C69590E2C99FE0011124C22BD32BDA685D
:100B20004FCFD82FCC27C46FD06A4ACFDC2FCC2729
:100B3000C06FD06A45CF8C2F8F700E94400634E082
:100B4000D695C7953A95E1F7CF709C2FEC01D06907
:100B500037CF82389105B1F1B0F48133910509F4B2
:100B600075C048F48932910509F469C08A3291054B
:100B700009F473C008958533910509F459C0893388
:100B8000910501F10895833E9105A9F138F4803E65
:100B90009105F9F0823E910549F10895863E91054F
:100BA000A9F1873E9105C9F1843E910519F520917F
:100BB000500221FF1FC080914F0284FD14C087EEB8
:100BC00090E0089520914F022370A1F080EE90E014
:100BD000089520914F0220FD47C03091500230FF10
:100BE00009C024FF44C090E080E004C020914F027F
:100BF00022FDF7CF089520914F0222FD3BC0309196
:100C0000500230FDE3CF24FFF5CFEDCF20914F020E
:100C100023FFF0CF24FDE7CFD2CF20914F0223FD59
:100C20002CC03091500231FFEECF84EE90E0089559
:100C300020914F0225FFDECF89E290E008952091B8
:100C40004F0225FFD7CF85E390E0089520914F0212
:100C500026FFD0CF8AE290E0089520914F0226FF30
:100C6000C9CF81E390E0089589E390E0089583EE91
:100C700090E0089582EE90E0089586EE90E0089569
:100C800090914F0292FF06C0282F28712830F9F466
:100C9000877F846093FF06C0282F28712831F1F4E4
:100CA000877E84612091500220FF06C0382F387162
:100CB0003830D9F4877F816021FF06C0282F287142
:100CC0002831D1F4877E816194FD877E0895282F95
:100CD00024712430F9F68B7F8860DCCF282F2471B3
:100CE000243101F78B7E8861DDCF382F31713130AF
:100CF00019F78E7F8860E0CF282F2171213121F7ED
:100D00008E7E8861E1CF08950C94830608950C943B
:100D10008606E82FF0E0E55DFD4F80810895089597
:100D200080EA8A95F1F70895F894E82FE295EF703C
:100D3000F0E031A1282F2F7081E090E001C0880FF2
:100D40002A95EAF7982F9095932391A392A1892B46
:100D500082A37894089586E30E94940682E30E9419
:100D6000940683E30E94940685E30E94940684E33C
:100D70000E94940686EC0E94940687E90E949406DD
:100D8000A8E2B2E01C92EBE2F2E0108211961C9213
:100D90001197118212961C92128283E00E944707DB
:100DA0000C943304CF92DF92EF92FF920F931F9334
:100DB000CF93DF93C0E3D1E008E212E0D12CEE2420
:100DC000E394F12C8991F894E82FE295EF70F0E02C
:100DD00021A18F70A70102C0440F551F8A95E2F729
:100DE000CA01922F982B91A392A18095892382A367
:100DF00078940E949006ECE2F1E030E020E0C12C13
:100E00004191A42FA295AF70B0E090968C9190E0A4
:100E10004F7002C0959587954A95E2F780FD33C0E3
:100E20008E2D022E01C0880F0A94EAF7C82A2F5F80
:100E30003F4F2430310521F7FE01319780810E9418
:100E40009406F8018081C81601F1C08281E0D82A99
:100E50000F5F1F4FF1E0C333DF0709F0B3CF2D2D34
:100E600043E06BE272E088E292E00E9448070E9451
:100E70003D048D2DDF91CF911F910F91FF90EF9049
:100E8000DF90CF90089580E0D1CF80E0E0CF08954B
:100E9000FF920F931F93CF93DF93F82E092F162FF6
:100EA000D72FC42F222349F081E0809370010E9444
:100EB000912190936F0180936E018091700188233E
:100EC000A1F080916E0190916F010E94A921069777
:100ED00060F0EF2DF02FA12FBD2FCE0FDF2FD11DF2
:100EE000EC17FD0741F410927001DF91CF911F9133
:100EF0000F91FF90089581918D93F2CFEF92FF9221
:100F00000F931F93CF93DF93EB01E82FD11110C004
:100F1000442321F0F0E0E255FD4FE4916E2F7E2F47
:100F20008E2FDF91CF911F910F91FF90EF90089539
:100F30000D2F10E0282F30E0442329F022553D4F9B
:100F4000F901249130E0F6E0CF9FC0011124EFEFCA
:100F5000F0E0BF010E94F32BAB018C2F90E0880FD3
:100F6000991FA5E5A49FB001A59F700D1124861BB4
:100F7000970B982F990F980FBF01601B710B629F01
:100F8000D001639FB00D729FB00D11248B2F9D9FD8
:100F9000B0011124672F7727EF01C61BD70BBE01C5
:100FA000629FE001639FD00D729FD00D11247F01DD
:100FB000E91AF108E09EB001E19E700DF09E700DFF
:100FC0001124672F7727E61BF70BE29F8001E39F31
:100FD000100DF29F100D1124E12F722F4230510598
:100FE00099F048F44115510569F04130510581F0FF
:100FF000EB2F8D2F07C04430510569F080F046304B
:101000005105B1F76E2F8DCFE22F7B2F812FFACFB5
:10101000E22F7D2FF7CFEB2F822F712FF3CF7B2F76
:10102000822FED2FEFCF41E00C947E0708950C94B2
:101030001308CF93DF93762FE901682F842F0E9446
:101040001708798368838A83DF91CF91089580910F
:101050002E02982F9E7F29F48170826080932E0249
:1010600008958635E8F381708465F8CF88E090E0D4
:101070000C94EC2CCF92DF92EF92FF926B017C01EB
:101080000E942708B701A60188E090E0FF90EF904A
:10109000DF90CF900C940A2D60912E0270912F0258
:1010A00080913002909131020C943A08EEE2F2E025
:1010B00083E0808311828FEF828383831482A6EA88
:1010C000B1E012968C911297836012968C93608196
:1010D0007181828193810C943A0880912E0280FF65
:1010E00002C08695089580E0089590913202933071
:1010F00018F49F5F90933202882351F060912E0282
:1011000070912F0280913002909131020C943A0834
:10111000089581E00C94750890913202992319F09A
:10112000915090933202882351F060912E02709179
:101130002F0280913002909131020C943A08089568
:1011400081E00C948C0880913202089580933202E1
:10115000662351F060912E0270912F02809130022F
:10116000909131020C943A08089560E00C94A6081E
:1011700080912F020895809130020895809131026C
:10118000089570E00C94BD0F6091080180912E02CB
:1011900080FF0AC08091070123E0829FC0011124D3
:1011A0008D5C9D4F0C94C1088091090190910A01BA
:1011B00023E0829FF0011124ED5CFD4F891750F769
:1011C0001182108212828F5F3396F8CF90912E0297
:1011D00090FF14C09091090120910A0133E0939F80
:1011E000F0011124ED5CFD4F921710F00C94C4082F
:1011F0008183608342839F5F3396F6CF0895CF93B8
:10120000DF9300D00F92CDB7DEB790912E0290FF02
:101210000AC09E012F5F3F4F0E9419084B816981D0
:101220008A810E94E6080F900F900F90DF91CF9176
:101230000895CF93DF93EC01EC81F0E0E755FE4F8A
:101240004491EEE2F2E0628181810E94FF088C818C
:101250008F5F8C83DF91CF910895CF93DF93EC0163
:10126000EEE2F2E0438162818C810E94FF088C8172
:101270008F5F8C83DF91CF9108950F931F93CF934E
:10128000DF9300D00F92CDB7DEB78C018091710152
:1012900081110AC09E012F5F3F4F4FEF6FEF0E94F9
:1012A00019088A8180937101F8016481613069F0C5
:1012B0008091710140E0662361F040E0623011F4FA
:1012C0004091710180E060E004C06091710140E0F4
:1012D00080E00E94E608F801848190E0019663E0D6
:1012E00070E00E94072C84830F900F900F90DF9185
:1012F000CF911F910F910895AF92BF92CF92DF923D
:10130000EF92FF920F931F93CF93DF9300D00F9232
:10131000CDB7DEB7182FF62E042FE22E90912E02B5
:1013200090FF3AC0E92FE695AE2FB0E0AD5CBE4F1E
:101330008C918093A6019E7F9230E1F59E012F5FF4
:101340003F4F812F0E9419084B8169818A810E9439
:10135000E60880912F02811308C0809130028F111E
:1013600004C080913102801729F08091A801826029
:101370008093A80110932F02F09230020093310263
:10138000EE2051F060912E0270912F028091300278
:10139000909131020E943A080F900F900F90DF91C8
:1013A000CF911F910F91FF90EF90DF90CF90BF9062
:1013B000AF900895823019F400913102CACF86307F
:1013C00019F410912F02C5CF8930D9F3893109F66C
:1013D000E9518E2F8170D82EE695F0E0E755FD4F4C
:1013E000A590B490C12CBB2460910B01C61618F0D7
:1013F0000E94C408AECF2C2D30E0A29EC001A39E57
:10140000900DB29E900D112470E00E94F32B812F5D
:10141000D11013C0860F40910901420F532F511D67
:101420009A01220F331F240F351F2D5C3D4F402F93
:101430006F2D0E941908C394D7CF861BECCFEEE224
:10144000F2E09181282F438162818AE0890F0C9418
:101450007C0981E00C941F0AEEE2F2E09181282FD2
:101460004381628186EF890F0C947C0981E00C94A2
:101470002C0AEEE2F2E0628121E1620F08F46FEFE4
:10148000282F438181810C947C0981E00C94390AD6
:10149000EEE2F2E0628121E1621B08F460E0282FB5
:1014A000438181810C947C0981E00C94480AEEE22E
:1014B000F2E0438121E1420F08F44FEF282F6281CF
:1014C00081810C947C0981E00C94570AEEE2F2E0F1
:1014D000438121E1421B08F440E0282F6281818191
:1014E0000C947C0981E00C94660A20E00C947C0941
:1014F000EF92FF921F93CF93DF93EC0110E0EE2465
:10150000EA94F12C60910B01161770F00E94C40848
:101510009A818C8190FF27C08F5F8C83DF91CF9160
:101520001F91FF90EF90089520910901422F410FE4
:101530005527551FCA019A01220F331F280F391F43
:101540002D5C3D4F70E0C7010E94072C962F8C81C7
:101550004091310260913002199F800D11240E9448
:1015600019081F5FCFCF8150D8CF9F92AF92BF9203
:10157000CF92DF92EF92FF920F931F93CF93DF935F
:10158000EC018A81BB24BA9480FD02C0BB24B394D1
:101590008C8181110AC081E0B81227C080910B01B3
:1015A00081508093730181E08C83A12C80910B0189
:1015B000A816F0F00E94C4088091730191E0B9125E
:1015C0005DC0811156C080910B01815080937301E1
:1015D0001C82DF91CF911F910F91FF90EF90DF90D0
:1015E000CF90BF90AF909F90089510927301DBCF82
:1015F00000910901CA2CD12C0C0D1D2D111DC80103
:10160000880F991F080F191F0D5C1D4FF8011182DB
:101610001082128234E0E32EF12C912C8091730120
:10162000890D893004F18770082E000C990BC816BB
:10163000D90691F4809131028E9DA0018F9D500DAD
:10164000112455954795559547959801609130021D
:1016500080912F020E9419089B0CF1E0EF1AF1080B
:10166000E9F6A394A3CF87FFDFCF90910B01890FF9
:10167000DBCF815080937301BC82ABCF90E00196A9
:1016800060910B0170E00E94072C809373018C83A2
:10169000A0CFEF92FF920F931F93CF93DF93EC01B4
:1016A0008C81811109C081E08C831092720192E0DB
:1016B00090930601809305018091090190910A01A0
:1016C00023E0829FF0011124ED5CFD4F891768F142
:1016D00010E003E060910B01161768F10E94C40846
:1016E0008091050120917201280F20937201909141
:1016F0000601980F90930601191654F4022E000C5F
:10170000330B40910B014150550B2417350734F032
:10171000819580930501813009F41C82DF91CF917E
:101720001F910F91FF90EF90089511821082128205
:101730008F5F3396CBCFE12EF12C70E0C7010E9472
:10174000072C20910901820F482F50E0209172014F
:10175000022E000C330BE216F306BCF020910601BA
:10176000022E000C330B2E153F057CF0809F90015C
:1017700011242D5C3D4F40913102609130028091E7
:101780002F020E9419081F5FA5CFFA01EE0FFF1F5D
:10179000E40FF51FED5CFD4F118210821282F3CF32
:1017A0008F929F92AF92BF92CF92DF92EF92FF9271
:1017B0000F931F93CF93DF93EC014C81042F10E024
:1017C0009801D8010E94522C9B01AC010E94682C08
:1017D0004B015C01E0E2F0E0E01BF10BA5E5B0E0BD
:1017E000AC019B010E94682C6B017C019F01DF0111
:1017F0000E944A2C9B01AC010E94732C9B01AC01FE
:10180000280D391D4A1D5B1DC701B6010E941B2C06
:10181000F22E822F90E039E23F1560F143E0249FE1
:101820009001112435952795122F109500E085E53C
:10183000E82EEF1880910B01081758F10E94C40898
:101840009C8181E0992319F0903219F48FEF8093F5
:10185000040180910401890F8C83DF91CF911F9146
:101860000F91FF90EF90DF90CF90BF90AF909F903F
:101870008F90089525E530E0B901681B790B9B0135
:10188000220F331F260F371F37FFCCCF2F5F3F4F5D
:10189000C9CF8E2D01FD8F2D20910901622F600F80
:1018A0007727771F9B01220F331F260F371F2D5CD1
:1018B0003D4F412F609130020E9419080F5FBACF4F
:1018C0000F931F93CF93DF93EC0110E000E0909112
:1018D0000B019017110609F06CF40E94C4088C816A
:1018E00090E00196817099278C83DF91CF911F91B1
:1018F0000F91089520910901A801420F511D9A01ED
:10190000220F331F240F351F2D5C3D4F4C816091FA
:10191000300280912F0296959017110651F04CF0ED
:10192000442349F0409131020E9419080F5F1F4F74
:10193000CECF4423B9F340E0F7CF8F929F92AF927E
:10194000BF92CF92DF92EF92FF920F931F93CF93AC
:10195000DF93FC01B280948081E0848300E015E095
:101960005BE4A52E88248394EE24EA94F12C7BE496
:10197000C72ED12C80910B01081770F0DF91CF9109
:101980001F910F91FF90EF90DF90CF90BF90AF909D
:101990009F908F900C94C408C02FD0E01C9FF00142
:1019A0001D9FF00D1124E958FE4F91101CC01382A9
:1019B000128220910901CE01820F911D9C01220FFC
:1019C000331F280F391F2D5C3D4F1C9FF0011D9FB9
:1019D000F00D1124E958FE4F4281618180810E94FF
:1019E00019080F5FC7CF2381222379F12150238368
:1019F00034818A2D821B311101C0822F1C9FF0017E
:101A00001D9FF00D1124E958FE4F90913102899FDE
:101A1000C0011124B6010E94F32B6283211104C07E
:101A2000332311F01482A38222E02B1510F21C9FA5
:101A3000F0011D9FF00D1124E958FE4F80912F02F7
:101A40008083809130028183B4CF0E94C72C823082
:101A500091400CF0AECF82E08B1530F50E94C72C80
:101A6000B7010E94072C1C9FF0011D9FF00D11244F
:101A7000E958FE4F808322E02B15C8F40E94C72C42
:101A8000209130022695622F70E00E94072C280FCB
:101A90001C9FF0011D9FF00D1124E958FE4F21837A
:101AA0001282A382848285CF80912F02DCCF209185
:101AB0003002EECFE6EAF1E0118282818460828317
:101AC0000895EEE2F2E080818E7F80830E945A0DBD
:101AD000E6EAF1E08281816082832FEF80E792E085
:101AE000215080409040E1F700C000000C94C408F1
:101AF000EEE2F2E080818E7F80836081718182815D
:101B000093810E943A080E945A0DE6EAF1E0828130
:101B1000816082832FEF80E792E0215080409040E7
:101B2000E1F700C000000C94C40860912E02669595
:101B300070E04BE050E08CE091E00E94D72C892BC4
:101B400019F481E08093A7010E9491219093A00154
:101B500080939F018091A80184608093A8010895DB
:101B600090912E0290FF3AC0917081112DC0926029
:101B700090932E028091A80181608093A801662332
:101B800051F060912E0270912F028091300290915D
:101B900031020E943A0860912E02669570E04BE097
:101BA00050E08CE091E00E94D72C892BA1F00E949C
:101BB0005A0D81E08093A201409131026091300280
:101BC00080912F020C94750A8B3210F09465D0CF5F
:101BD000880F982BCDCF0E94950DEBCF0895682FDD
:101BE00090912E02969581E0890F8B3208F081E06A
:101BF0000C94B00D81E00C94EF0D682F90912E02A3
:101C000096958FEF890F09F48AE20C94B00D81E06C
:101C10000C94FD0D61E00C94B00DEEE2F2E08081D9
:101C20008160808386950C940A0E80912E0280FD3F
:101C30000C94780D0C940D0E60E00C94B00D809116
:101C4000A501811133C00E940F20811104C00E94A0
:101C5000B3200E9456080E94360860932E027093AB
:101C60002F0280933002909331028091A80183600B
:101C70008093A8016E7F61F40E9456080E94360886
:101C800060932E0270932F02809330029093310262
:101C90000E9427080E945A0D80912E0280FF03C0E7
:101CA00086950E941C0E81E08093A5010895EEE2C6
:101CB000F2E080818160808386950C941C0EEF9207
:101CC000FF920F931F93CF93DF938091A7018823F7
:101CD00009F468C08091A601E0912E02E695E81B08
:101CE000E093A101823009F064C0F0E0EB55FE4FB3
:101CF000E491CE2FD0E009E119E08091A201882380
:101D000089F01092A2010E9491219E0120953095A8
:101D1000820F931F9093A00180939F011092A401C2
:101D20001092A30180919F019091A0010E94A9218E
:101D30008C179D07B8F1809176018823B1F010923D
:101D4000760180917401909175010E94A9218033E0
:101D5000954758F00E9491219093750180937401EA
:101D60008091A80188608093A801E090A301F09081
:101D7000A401E0919F01F091A001CE0FDF1FD0934D
:101D8000A001C0939F018FE991E0F801099580912E
:101D9000A3019091A401892B29F4EF2819F081E087
:101DA00080937601DF91CF911F910F91FF90EF907B
:101DB0000895863049F4F0E0EE55FE4FE491CE2FC1
:101DC000D0E00DE219E099CF893051F4E695F0E0CA
:101DD000E156FE4FE491CE2FD0E008E71AE08DCF18
:101DE0008F3051F4E695F0E0E456FE4FE491CE2FAB
:101DF000D0E005EB1AE081CF853149F4F0E0E756F9
:101E0000FE4FE491CE2FD0E009E41BE076CFC8E28C
:101E1000D0E000ED1BE0883109F46FCF833239F454
:101E2000E7E9F1E0C591D4910DE319E066CFC4EF85
:101E3000D1E000E61CE0843209F45FCFC0EDD7E0CA
:101E400006E118E0853209F058CF8E2F63E00E943A
:101E5000E72BE92FF0E0EC56FE4FE491CE2FD0E0D7
:101E60000DE91CE04ACFFA01811101C0FB01099480
:101E7000CF93DF93C82FD62F0E946D088C1740F0A8
:101E80000E946D088D1720F4DF91CF910C94FA0D0C
:101E90008C2FDF91CF910C940A0E0F931F93CF9349
:101EA0008C01FB01C281CC2309F465C00E945A1F3A
:101EB0008272F801E35CFC45E431F10538F4E35B40
:101EC000F24D0C943D2C0E94150EC0E08C2FCF914A
:101ED0001F910F91089547E05EE06AEF7DE00E9458
:101EE000330FF3CF4AEF5DE067E07EE0F8CF46E3E3
:101EF0005AE069E27AE0F3CF49E25AE066E37AE039
:101F0000EECF44E55AE065E47AE0E9CF45E45AE0F3
:101F100064E57AE0E4CF42E75AE063E67AE0DFCFB7
:101F200043E65AE062E77AE0DACF40EA58E069E84F
:101F300078E0D5CF49E858E060EA78E0D0CF81E09A
:101F40000E940A0EC2CF65E082E00E94380FBDCF2A
:101F500068E086E0FACF6EE089E0F7CF64E18FE0D9
:101F6000F4CF67E185E1F1CF88E1EACF62E289E170
:101F7000ECCF83E2E5CFC1E0A9CF539A4BB1477FC5
:101F80005BB15860EFB7F8949B01220F331F260F07
:101F9000371F280F391F2817390741F4EFBF8FE586
:101FA00094E00197F1F700C000000895DC016D9105
:101FB000CD0178E05BB9000000C067FF4BB9660F48
:101FC000000000C000C000C04BB900C07A9591F776
:101FD000E2CF82E290E00E94E42C813289F483E235
:101FE00090E00E94E42C853059F484E290E00E9455
:101FF000E42C91E0893109F090E0892F81700895F7
:1020000080E0FCCFCF93C82F6FEF811161E282E2B5
:1020100090E00E94F82C6FEFC11165E083E290E040
:102020000E94F82C6FEFC11169E184E290E0CF913A
:102030000C94F82C80E00E9402100C940920089562
:1020400085E290E00E94E42C682F70E090E080E050
:10205000089585E290E00C94F82C0E941F100E94D5
:10206000E90F81110CC060E070E0CB010E942910E3
:102070000E94DC110E94C61281E00C9402100895A7
:10208000CF93FB01C281CC2309F19C0122513F4532
:102090002031310520F582510E94D612C0E08C2FEC
:1020A000CF91089581E00E94D61D43E062E081E077
:1020B0000E942104F3CF81E00E94F71D43E062E01B
:1020C00081E00E942104EBCF82E0F6CF8031FFE572
:1020D0009F0789F381319F45B9F3C1E0E0CF80319B
:1020E000EFE59E07F9F281319F45C9F682E0DBCF2B
:1020F0002FEFFC0120830895CF93DF93EC018881BB
:102100008138A9F028F4803871F0DF91CF910895DB
:10211000823881F08338C9F70E94B80889830E9409
:10212000BB088A83F2CF0E94BE088983EECF0E944B
:102130006D08FBCF0E94A308F8CFCF93DF93EC018B
:1021400088818138E1F028F4803869F0DF91CF91FF
:102150000895823811F18338C9F70E94BE08482FCC
:102160006A81898108C0D9810E94BB08C82F0E945A
:10217000B8084D2F6C2FDF91CF910C94750A89818F
:102180000E941C0E8981811104C0DF91CF910C94B3
:10219000610DDF91CF910C94570E8981DF91CF9122
:1021A0000C94B5081F93CF93DF93EC01162FDC013D
:1021B000ED91CD01E150E33108F0BAC0F0E0EF5904
:1021C000F24D0C943D2C198289E08A83612FCE0157
:1021D000DF91CF911F910C941B258981823069F08A
:1021E000833071F08130C9F40E949D210E94432CFC
:1021F0006A837B838C839D83E9CF0E942010F6CF76
:1022000080E00E9489068A8381E00E9489068B8390
:1022100082E00E9489068C83D9CF612FCE010E9473
:102220007810D4CF89818230C1F76A817B818C811B
:102230009D810E94432C0E942910C8CF4B816A8146
:1022400089810E94AE119827892798279D838C83C6
:10225000BDCF2C813D813227232732274B816A81D4
:1022600089810E94C711B2CF0E94DC11AFCF0E94BA
:102270009D10ACCF0E947C10A9CF0E944C08A6CF25
:102280000E946F128983A2CF0E947112982789271A
:1022900098279A8389839ACF6B8170E089819A818C
:1022A000AE014C5F5F4F9827892798270E947412D0
:1022B0008DCF6B8170E089819A81AE014C5F5F4F59
:1022C0009827892798270E949B1280CF0E94C612C8
:1022D0007DCF0E949B11D6CF6B8170E089819A815E
:1022E000AE014C5F5F4F9827892798270E941412F0
:1022F0006DCF6B8170E089819A81AE014C5F5F4F39
:102300009827892798270E94391260CF0E941A10B7
:102310005DCFCE010E941B25BFEF21EE84E0B150BE
:1023200020408040E1F700C000000E94DC214ECF39
:102330008FEF88834BCF83E0089598E0699FB001C9
:10234000112450E0440F551F640F751F98E1899FB9
:10235000600D711D1124CB01869608950F931F9374
:10236000CF93DF930E949D118C010E94E42CC82F13
:10237000D0E0DC2FCC27C80101960E94E42C9E01FE
:10238000282BC901DF91CF911F910F9108950F93D1
:102390001F93CF93DF93122F032F0E949D11EC0107
:1023A000602F0E94F82C612FCE010196DF91CF9112
:1023B0001F910F910C94F82CAF92BF92CF92DF92A5
:1023C000EF92FF921F93CF93DF938CEAC82E80E0A9
:1023D000D82ED0E07601C0E014C0F50125913491EB
:1023E000412F6C2F8D2F0E94C71182E0A80EB11CC7
:1023F0001F5F143091F788E0E80EF11CCF5FC33007
:1024000019F0570110E0E9CFDF5F88E1C80ED11C59
:10241000D33001F7DF91CF911F91FF90EF90DF90C4
:10242000CF90BF90AF900895EF92FF920F931F93BC
:10243000CF93DF93EC018A017C01E60EF71ECE01FB
:102440008696CE15DF0539F4DF91CF911F910F915C
:10245000FF90EF900895C834D10540F40E94E42C19
:10246000F80180830F5F1F4F2196E9CFF80110829A
:10247000F9CFCF92DF92EF92FF920F931F93CF93FA
:10248000DF937C016A018C01060F171FEC01CE015E
:102490008696C017D10749F4DF91CF911F910F9114
:1024A000FF90EF90DF90CF900895C834D10540F4AD
:1024B000FE01EE19FF09EC0DFD1D60810E94F82C54
:1024C0002196E5CF462F833038F4733028F46430FA
:1024D00018F4672F0C94AE1190E080E0089580E12D
:1024E000089582E993E00895EF92FF920F931F936E
:1024F000CF93DF93EC018A017C01E60EF71ECE013B
:1025000082599F4FCE15DF0539F4DF91CF911F918E
:102510000F91FF90EF900895C23923E0D20740F465
:102520000E94E42CF80180830F5F1F4F2196E7CFB4
:10253000F8011082F9CFCF92DF92EF92FF920F93C2
:102540001F93CF93DF937C016A018C01060F171F45
:10255000EC01CE0182599F4FC017D10749F4DF919A
:10256000CF911F910F91FF90EF90DF90CF90089542
:10257000C23923E0D20740F4FE01EE19FF09EC0D49
:10258000FD1D60810E94F82C2196E3CFCF93DF934D
:10259000CEE6D0E060E0CE010E94F82C2196C11575
:1025A00084E0D807B9F7DF91CF910895DF92EF92D9
:1025B000FF920F931F93CF93DF9300D000D0CDB73E
:1025C000DEB7F82E8FE08F1540F08FEF93E00E947A
:1025D000E42C0EE610E08823C1F00F900F900F90CE
:1025E0000F90DF91CF911F910F91FF90EF90DF90AF
:1025F0000895011584E0180781F3C8010E94E42CB6
:10260000811101C0FA940F5F1F4FF110F2CF1982B0
:102610001A821B821C82DD24D39478018FEFE81A82
:10262000F80AC8010E94E42C89831A828823A9F23F
:102630009FEF980F933078F48A83D9820E5F1F4FF3
:10264000C7010E94E42C8B83882339F2CE010196C6
:102650000E94CA03E2CF8701F9CFAF92BF92CF9217
:10266000DF92EF92FF920F931F93CF93DF937C0142
:102670005B01C42FD22FFC0182818823F9F04093A3
:10268000AB010E9491219093AA018093A90180E25D
:102690008C0F883008F061C0C77081E001C0880FDE
:1026A000CA95EAF7DF91CF911F910F91FF90EF90BC
:1026B000DF90CF90BF90AF900C9481171091AB0139
:1026C000141340C08091A9019091AA010E94A921F0
:1026D0006C01B701C5010E944F1CC816D90690F5C0
:1026E000C0E2CD0F1D17B9F080E2810F883040F4B1
:1026F000177081E001C0880F1A95EAF70E948817C9
:10270000C83048F481E09D2F977001C0880F9A95DA
:10271000EAF70E948117802F0E946E17C830E8F4F4
:10272000D77081E001C0880FDA95EAF7DF91CF9189
:102730001F910F91FF90EF90DF90CF90BF90AF90DF
:102740000C94881780E28C0F883038F4C77081E0D1
:1027500001C0880FCA95EAF7E9CFDF91CF911F91A9
:102760000F91FF90EF90DF90CF90BF90AF900895C2
:102770000F939C01CB01243F4CE5340759F1A8F499
:10278000293DFCE53F0701F12A3D4CE53407D1F135
:10279000283D3C4591F406E221EE41EE68ED7CE5F2
:1027A0000E942D1380E00F910895263FFCE53F071E
:1027B000E9F0B0F0273F3C45F9F0FC018281882325
:1027C00039F11092AB01EFCF07E225EE45EE69ED4E
:1027D0007CE5E6CF06E221EE40EE64EF7CE5E0CF5B
:1027E00007E225EE44EE65EF7CE5DACF06E221EE66
:1027F00042EE66EF7CE5D4CF07E225EE46EE67EFCA
:102800007CE5CECF08E221E045EE6AED7CE5C8CF5D
:1028100081E0C9CFCF93DF93EC01FB018281882354
:1028200009F419C1C230FCE5DF07C0F1C6319CE5EF
:10283000D90730F09E012B5F3C452930310570F5FA
:102840000E9422209093500280934F02C031ECE509
:10285000DE0709F4CFC008F05BC0C8308CE5D807AC
:1028600009F4B6C088F5C430ECE5DE0709F4A8C069
:10287000C0F4C2308CE5D80709F49CC080914F02A7
:102880008260C330DC4509F498C080914F0290917A
:1028900050020E9430200E94D91980E0DF91CF9130
:1028A000089580914F028061C630ECE5DE0709F49F
:1028B00084C080914F028860C730DC4508F47DC039
:1028C00080914F02806279C0CC308CE5D80709F442
:1028D00089C070F480914F028C60CA30ECE5DE074D
:1028E00009F46BC008F478C080914F028E7F65C0F8
:1028F000CE308CE5D80709F479C080914F028B7FE8
:10290000CF30DC4508F459C080914F028F7E55C00E
:10291000CC3FECE5DE0709F457C030F5C3318CE558
:10292000D80709F46FC078F4C131ECE5DE0709F48B
:1029300065C0C231DC4509F0A8CF0E94D919809149
:102940004F028F773AC0C5318CE5D80709F462C0D1
:1029500008F476C0809150028160CB3FDC4509F0DD
:1029600094CF8093500291CFC115FDE5DF0709F4A4
:102970004DC088F4809150028D7FCE3F9CE5D907F1
:1029800081F3809150028E7FCF3FDC4550F38091E0
:1029900050028360E6CFC230FDE5DF0709F459C07D
:1029A00008F444C080E0C330DD4509F06ECF0E94DA
:1029B000B5206BCF80914F02816080934F0265CF2D
:1029C00080914F028460F9CF809150028260C9CF1C
:1029D00080914F028064F1CF0E94D91980914F02FB
:1029E0008068EBCF80914F028D7FE7CF80914F02BF
:1029F000877FE3CF80914F028F7DDFCF80914F02A1
:102A00008F7BDBCF80914F02837FD7CF80915002A5
:102A10008C7FA7CF80914F0282FB992790F921E00C
:102A2000922790FB82F990FB83F9C7CF80915002E7
:102A3000982F909591708E7F892B90FB81F991CF83
:102A40000E94D91990914F02892F97FB87F98058DE
:102A5000B4CF81E0ACCF81E021CFCF93DF93EB0106
:102A600086319C4511F50E945A1F9A81992399F04D
:102A70008A7A91E009F490E09093AC01811109C049
:102A800089E20E94351F0E94A61F80E0DF91CF914E
:102A9000089585E3F6CF8091AC01811104C089E2ED
:102AA0000E943C1FF0CF85E3FBCF81E0EFCF9093F6
:102AB000B2018093B1010895E091B101F091B201AA
:102AC000309721F00190F081E02D099480E0089585
:102AD000E091B101F091B201309721F00280F381D1
:102AE000E02D09940895E091B101F091B201309781
:102AF00039F022E0DC012C930480F581E02D09946B
:102B000008952091AF013091B0012817390771F075
:102B10009093B0018093AF01E091B101F091B201C7
:102B2000309721F00680F781E02D099408952091D7
:102B3000AD013091AE012817390771F09093AE01C5
:102B40008093AD01E091B101F091B201309721F095
:102B50000084F185E02D0994089585B7806885BFCC
:102B600085B7806885BF0895089508950C94B415BD
:102B700008950C94B8150E94AD150E94B5150C94DB
:102B8000B61581E008950C94C115089508950E942A
:102B900088210E94AB060E942D100E9403220E94F1
:102BA0001F0E0C94B915BF92CF92DF92EF92FF9255
:102BB0000F931F93CF93DF93CDB7DEB72A970FB64E
:102BC000F894DEBF0FBECDBF0E94C5150E94C6158A
:102BD0000E94D2060E94C315882309F461C084EBC9
:102BE000C82E81E0D82E10E000E0B02E802F0E9489
:102BF0008906E82EF601F1906F01F81609F44AC033
:102C000080910F0281FD0E948F069F2D9E2580E0FE
:102C1000FF24F394292F2F21C1F18E83BF82EF204F
:102C200081E009F480E088870E9491218160782FFB
:102C30009A8789874E815F8168858A850E9471168F
:102C4000F801EC54FE4F8081F826F0820E945F0E5E
:102C50000E94AE230E945C159091B301891789F1FF
:102C60000E945C158093B3012A960FB6F894DEBFDC
:102C70000FBECDBFDF91CF911F910F91FF90EF90CD
:102C8000DF90CF90BF900C949E048F5FFF0C843038
:102C900009F0C0CF0F5F1F4F0330110509F0A5CF1A
:102CA0008FEF89838A831B820E9491218160782F14
:102CB0009D838C8349815A816B818D810E9471161D
:102CC000C5CF2A960FB6F894DEBF0FBECDBFDF91F9
:102CD000CF911F910F91FF90EF90DF90CF90BF9019
:102CE0000895CF93DF93CDB7DEB72B970FB6F89447
:102CF000DEBF0FBECDBF4F83588769877A878B872A
:102D00001E821D8285E0FE013796DE01119601903C
:102D10000D928A95E1F749815A816B817C818D8181
:102D20009E812B960FB6F894DEBF0FBECDBFDF910C
:102D3000CF910C94521CFC01808191810C94071F4F
:102D4000CF93C82F882309F471C08238C1F40E9440
:102D50005C1581FD6BC089E30E94351F0E94A61F90
:102D60002FEF81EE94E0215080409040E1F700C0C9
:102D7000000089E30E943C1FCF910C94A61F83386A
:102D8000A1F40E945C1580FD51C083E50E94351FAF
:102D90000E94A61F2FEF81EE94E0215080409040CA
:102DA000E1F700C0000083E5E5CF8438A1F40E947C
:102DB0005C1582FD3BC087E40E94351F0E94A61F60
:102DC0002FEF81EE94E0215080409040E1F700C069
:102DD000000087E4CFCF8CEF8C0F813A90F46C2FFA
:102DE00080911701909118010E94CC20882329F02E
:102DF0008C2F0E943C1F0E94A61F8C2F0E94351F03
:102E0000BBCF80E28C0F883048F4C77081E001C0EE
:102E1000880FCA95EAF70E945D1FAECFC03F30F021
:102E20008C2F0E94A822CF910C949323CF910895C8
:102E3000882309F452C0823871F40E945C1581FF26
:102E40004CC089E30E94351F0E94A61F89E30E949F
:102E50003C1F0C94A61F833859F40E945C1580FF18
:102E60003CC083E50E94351F0E94A61F83E5EFCF7B
:102E7000843859F40E945C1582FF2FC087E40E94B9
:102E8000351F0E94A61F87E4E2CF9CEF980F913A6E
:102E9000F0F290E2980F983050F4877091E001C002
:102EA000990F8A95EAF7892F0E94631FD2CF9BE57D
:102EB000980F933020F490E080E00C94811598E511
:102EC000980F973120F490E080E00C949715803FA4
:102ED00020F00E9410230C9493230895CF93C82FC1
:102EE0000E94A016C93349F42FEF87EE93E02150DA
:102EF00080409040E1F700C000008C2FCF910C94EF
:102F00001817882321F00E945D1F0C94A61F0895B6
:102F1000882321F00E94631F0C94A61F0895BF927E
:102F2000CF92DF92EF92FF920F931F93CF93DF9395
:102F30006C01D62FC72FFC01058102950F701281FD
:102F400011110E947A1F0E94531FE82E882391F0CE
:102F50001123D1F08C2F807F803421F080E28D0FFF
:102F6000883090F082E00E94F11F0E94531F91E090
:102F7000E82EE926BC2EB2949FE0B922EB2DF0E0BA
:102F8000EC58F24D0C943D2CE12CF4CF0C2F0F702B
:102F9000C07F11F00295007F1123A9F0002359F0A2
:102FA00080E28D0F883010F0D11109C0802F0E946F
:102FB0005D1F0E94A61F8D2F0E94A01614C0802F97
:102FC0000E946D1FF6CF8D2F0E941817002359F015
:102FD00080E28D0F883010F0D1112CC0802F0E941C
:102FE000631F0E94A61F2B2D2850330B2430310560
:102FF00020F40E945C150E949E04EE2009F482C118
:103000000E944F1F80FD7EC1F60112820E94491F5F
:103010000E94D61DC6010E94A3190E94491FDF917C
:10302000CF911F910F91FF90EF90DF90CF90BF90C5
:103030000C94F71D802F0E94731FD3CFFC2FFF70BD
:10304000FF2EC07FC03219F0F29480EFF822DD230A
:1030500069F0D13049F1112391F1002351F1F601CA
:10306000858180FFA8CF8F70858323C0112381F0D5
:10307000011106C00E948D1F8F290E948117B3CFB6
:103080000130C1F70E948D1F8F290E94931FABCF83
:10309000011106C00E949C1F8F2D0E948817A3CF8C
:1030A000013009F4A0CFF6CF112329F0063008F043
:1030B0009ACF8F2DE2CF053008F095CFEDCF0023CA
:1030C00059F3D93349F4FFEF27EE33E0F1502040B4
:1030D0003040E1F700C000008D2F0E94181783CF09
:1030E0008D2F112329F00E94A8220E9493237BCFC9
:1030F0000E941023FACF8C2F837009F041C0111168
:1031000072CF4D2F429546954770440F440F0D2FB7
:103110000F7010E030E020E0042E04C0000F111FFB
:10312000221F331F0A94D2F760E070E0CB01D4FF76
:103130000FC06FE070E080E090E004C0660F771F82
:10314000881F991F4A95D2F7609570958095909544
:10315000C695C695C370602B712B822B932BC23002
:1031600049F058F4C13019F00E94881D3CCF0E94EC
:10317000761D39CF0E949A1D36CF0E94741D33CF21
:103180008695112311F08C2F8170882309F42BCFA1
:103190004D2F429546954770440F440F0D2F0F70E9
:1031A00010E030E020E0042E04C0000F111F221FA9
:1031B000331F0A94D2F760E070E0CB01D4FF0FC058
:1031C0006FE070E080E090E004C0660F771F881F1A
:1031D000991F4A95D2F76095709580959095C69500
:1031E000C695C370602B712B822B932BC23049F094
:1031F00058F4C13019F00E944D1EF5CE0E943B1EBE
:10320000F2CE0E945F1EEFCE0E94B01DECCECF70BA
:10321000112329F08C2F0E94D61D8D2F2ECF8D2F9C
:103220000E9488178C2F0E94F71DDDCED23F89F1B6
:1032300060F4D03FC9F0D13F29F1112309F442C015
:103240000111B9CE8C2F8F7121C0D33F39F1D43FFA
:10325000A1F7112369F1CF718C2F0E94D61D63E075
:103260008C2F0E94DC1FBFCE112341F0053008F0E7
:10327000BACE8C2F8F710E941A1EB5CE063008F080
:10328000B2CEF7CF8C2F8F71112369F20E94D61D19
:10329000AACE8C2F8F711123C9F3C5CF112329F02A
:1032A0008C2F8F710E94C11D9ECE0E94BC1D9BCE93
:1032B00081E00E94F11F023008F495CE82E00E9466
:1032C000F11F91CE002359F0D93309F005CF8FEFCC
:1032D00097EEE3E081509040E040E1F7FBCE8C2F89
:1032E0008F71A1CF4C2F4F706D2FC6010E94A60485
:1032F0000E94EC1C78CE4C2F4F706D2FC6010E949F
:10330000A90471CEDF91CF911F910F91FF90EF90A3
:10331000DF90CF90BF9008950F931F93CF93DF93CB
:10332000EC01688179818A810E94111F8C010E94C1
:10333000711E0E94731DB801CE01DF91CF911F91C4
:103340000F910C948F17CF93DF93EC018B819C81AD
:10335000892B29F08881998189238F3F59F4DF9146
:10336000CF910895CE010E948C19CE01DF91CF91AB
:103370000C940B03CE010E944F048111F3CF0E94E5
:10338000531F882361F38A81882349F382E0DF9108
:10339000CF910C94F11F0E947A1F0E948A1F0E94F5
:1033A000A61F0E94BA240C9493230E94431F0C94DE
:1033B000CB190E946A1F0C94D519E92FE295EF7082
:1033C000E250EE3070F4F0E0EC57F24D0C943D2CEE
:1033D000803F19F020F4883E20F481E00895843F76
:1033E000E1F380E00895883EC0F3813FD1F7F5CF47
:1033F00093FB882780F908950E94071F0C94DD191C
:10340000CF93DF9300D000D00F92CDB7DEB70F90EF
:103410000F900F900F900F90DF91CF910895CF9361
:10342000DF9300D000D000D0CDB7DEB726960FB620
:10343000F894DEBF0FBECDBFDF91CF9108951F93EB
:10344000CF93DF93C091B80116E08091B9018C133E
:1034500004C0DF91CF911F910895D0E01C9FF0012F
:103460001D9FF00D1124E654FE4F40815181628171
:103470007381848195810E940F1A2196C770E5CFD0
:103480004091EA015091EB016091EC017091ED01E6
:103490008091EE019091EF010C940F1A1F93CF933E
:1034A000DF938091EF01807FA9F48091EC01882364
:1034B00089F08091B801C091B9016091EA017091E1
:1034C000EB01A091ED01B091EE01D62FD72316E0CC
:1034D000C81304C0DF91CF911F91089590E0109719
:1034E00011F0DF3F19F401968770F2CF189F900119
:1034F000199F300D1124F901E654FE4F4181471305
:10350000F2CF40814613EFCF42814111ECCF43818E
:1035100054814A1B5B0B483C510528F78091EF0111
:103520008F7080618093EF01F901E154FE4F80813B
:103530008F70806180838AEE91E00E94A319DF91F1
:10354000CF911F910C941F1AAF92BF92CF92DF922E
:10355000EF92FF920F931F93CF93DF93CDB7DEB718
:1035600061970FB6F894DEBF0FBECDBF8C0185E02A
:10357000F801DE011D9601900D928A95E1F7F801A0
:1035800040815181E2808AEEC82E81E0D82E609180
:10359000ED017091EE016115710509F461C1909121
:1035A000EA012091EB01892F82238F3F09F458C152
:1035B000A380B480F090EC01F501E61BF70BFF202F
:1035C00009F4FCC08091EF01382F307FE83CF10511
:1035D00008F0B2C0311179C0FE2C251323C094131A
:1035E00021C0E1101FC08F7080618093EF010E94A5
:1035F000401AC6010E94A3198091EF01F80185834A
:103600008F2D61960FB6F894DEBF0FBECDBFDF9150
:10361000CF911F910F91FF90EF90DF90CF90BF90CF
:10362000AF900895AB2829F0842F85238F3F09F0B0
:1036300033C180E0F82FF170DF2E80FF3CC0809115
:10364000B8012091B90136E0821315C04D875E871D
:103650008D859E850E94071F292F22952F7022306D
:10366000F0F0243018F59F70F1F0F8019581907F0B
:10367000D1F4D12C1EC090E0389FF001399FF00D9D
:103680001124E654FE4F6181651306C06081641306
:1036900003C062816E110FC001968770D5CF9F70F5
:1036A00011F0882331F3805E883018F3C8010E943E
:1036B000A319FD2CA5CFEE2009F4A2CF8091EF0134
:1036C00081608093EF01F12C9BCF251306C09413EA
:1036D00004C0F801EE2009F48DC04D875E878D850A
:1036E0009E850E94FC19882319F1EE2009F1809132
:1036F000EF01803270F02091EA013091EB013887C0
:103700002F831986BB86AA868C87CE0107960E94D6
:10371000A31986E0F801AAEEB1E001900D928A9516
:10372000E1F70E944E1A0E94401AFF24F39468CFDA
:10373000C8010E94A319F9CF311113C07A2DB98A9B
:10374000A88A6E2D89890E94001A8AEE91E00E9453
:10375000A31986E0F60111928A95E9F70E94401AB2
:10376000B2CF25130FC094130DC0E1100BC0F801A8
:103770008583C8010E94A31986E0F60111928A95FB
:10378000E9F73ECF4D875E878D859E850E94FC19A7
:10379000882371F2EE2061F28091EF01803208F40B
:1037A000B8CF2091EA013091EB013A8329831B8243
:1037B000BD82AC828E83CE010196A9CFE83CF10593
:1037C00008F041C0FE2CEE2009F4B2CF25132AC028
:1037D000941328C08091EF0180FD1BC0982F907F2B
:1037E000C1F0F8018583903F31F0982F907F905F72
:1037F0008F70892B8583C8010E94A31986E0F80188
:10380000AAEEB1E001900D928A95E1F70E94401A6C
:10381000F7CE86E0F801AAEEB1E001900D928A950C
:10382000E1F7EECE4D875E878D859E850E94FC195F
:1038300081116FCF8091EF0181608093EF01C8010A
:103840000E94A319DDCE7A2DB98AA88A6E2D8989A6
:103850000E94001A86E0F60111928A95E9F7D6CF08
:10386000EE2009F465CF4D875E878D859E850E9489
:10387000FC19F82E882309F45BCF86E0F801AAEE44
:10388000B1E001900D928A95E1F78AEE91E00E94F5
:103890009B160E944E1ABACF81E08E25CBCE88ECC3
:1038A00090E008951F93CF93DF93CDB7DEB72C97A9
:1038B0000FB6F894DEBF0FBECDBF4F835887698720
:1038C0007A878B879C87CE0107960E94A41A88234B
:1038D00069F08A859B85892B39F04F815885842F23
:1038E00085238F3F09F071C016E05FC086E0FE01BE
:1038F0003796DE01119601900D928A95E1F78A853F
:103900009B85892B89F38F81988589238F3F61F36C
:103910002091B90130E0C901019687709927409143
:10392000B8014817190671F40E94D9191092B9010B
:103930001092B80186E0EAEEF1E0DF011D928A956F
:10394000E9F7D2CF96E0929FD001939FB00D11245A
:10395000A654BE4FFE01319601900D929A95E1F763
:103960008093B9010E941F1ABFCF819FC00111240B
:1039700086549E4F0E94A41A8823E9F0E091B80172
:103980001E9FF0011124E654FE4F40815181628157
:103990007381848195810E940F1A8091B80190E013
:1039A0000196877099278093B8018091B801909112
:1039B000B9018913DACF2C960FB6F894DEBF0FBE8B
:1039C000CDBFDF91CF911F91089569857A858B8551
:1039D0009C850E940F1A88CFEF92FF920F931F933E
:1039E000CF93DF938C01892B81F0F12CEE24E394AB
:1039F000E8012196F8018491843770F4843008F04E
:103A00005FC08130B1F08230A1F1DF91CF911F9181
:103A10000F91FF90EF900895853709F44CC008F49A
:103A20003DC09CE7980F903780F78F770E9418175A
:103A300049C00E5F1F4FFE01849190E2980F9830AD
:103A400060F48770FE2D01C0FF0F8A95EAF78F2F73
:103A50000E947D1F0E94A61F02C00E94A0168F2DEB
:103A6000815030F2EFE9FFE03197F1F700C000003C
:103A7000F7CF0E5F1F4FFE01849190E2980F9830B0
:103A800050F48770FE2D01C0FF0F8A95EAF78F2F43
:103A90000E94831FDFCF0E941817E1CF0E5F1F4FD8
:103AA000FE01C491C150D8F28FE99FE00197F1F770
:103AB00000C00000F7CF0E5F1F4FFE01F490CFCF84
:103AC0000E94A0168E01CBCF08950C94641D0E9415
:103AD000651D6093FE017093FF0180930002909337
:103AE00001020C94CB1908950C94671D0F931F933A
:103AF0000091FE011091FF0120910002309101021E
:103B0000602B712B822B932B1F910F910C94671DAF
:103B10000F931F930091FE011091FF01209100026D
:103B20003091010260237123822393231F910F910F
:103B30000C94671D0F931F930091FE011091FF01DC
:103B4000209100023091010260277127822793277C
:103B50001F910F910C94671D0C94641D0C94AC1D67
:103B60000E94AE1D6093FA017093FB018093FC01EB
:103B70009093FD010C94CB1960E070E0CB010C94A4
:103B8000B01D0F931F9341E050E060E070E08A01A8
:103B90009B0104C0000F111F221F331F8A95D2F70B
:103BA000C901B8011F910F910C94B01D0F931F9381
:103BB00041E050E060E070E004C0440F551F661F14
:103BC000771F8A95D2F78091FA019091FB01A0911D
:103BD000FC01B091FD018A019B01082B192B2A2BB6
:103BE0003B2BC901B8011F910F910C94B01D0F938D
:103BF0001F9341E050E060E070E004C0440F551FA7
:103C0000661F771F8A95D2F7CB01BA016095709530
:103C1000809590950091FA011091FB012091FC0193
:103C20003091FD0160237123822393231F910F9113
:103C30000C94B01D0F931F9341E050E060E070E0E2
:103C400004C0440F551F661F771F8A95D2F78091D5
:103C5000FA019091FB01A091FC01B091FD018A0154
:103C60009B01082719272A273B27C901B8011F9163
:103C70000F910C94B01D0F931F930091FA011091B6
:103C8000FB012091FC013091FD01602B712B822BF7
:103C9000932B1F910F910C94B01D0F931F930091C4
:103CA000FA011091FB012091FC013091FD0160238C
:103CB0007123822393231F910F910C94B01D0F93B6
:103CC0001F930091FA011091FB012091FC013091AA
:103CD000FD0160277127822793271F910F910C9474
:103CE000B01D0895990F990F890F982F977041E093
:103CF00001C0440F9A95EAF786958695869595E0DA
:103D0000899FF0011124E051FE4F30E020E070E087
:103D10005191DF011197CB01022E02C09695879534
:103D20000A94E2F7817081958527842385278C93F7
:103D30002F5F3F4F2530310559F70895990F990F9F
:103D4000890F982F977086958695869525E0829F96
:103D5000F0011124E051FE4F50E040E080E021915D
:103D600030E0092E02C0369527950A94E2F72170BB
:103D70003327042E01C0220F0A94EAF7822B4F5FEB
:103D80005F4F4530510559F70895BF92CF92DF92AA
:103D9000EF92FF920F931F93CF93DF938C01C0900C
:103DA000FA01D090FB01E090FC01F090FD018091C0
:103DB000FE019091FF01A0910002B0910102C82A7A
:103DC000D92AEA2AFB2ACFE1D0E0BC2ED701C601CE
:103DD0000C2E04C0B695A795979587950A94D2F7AF
:103DE00080FD0EC0219788F7B12C8B2DDF91CF91EC
:103DF0001F910F91FF90EF90DF90CF90BF900895AB
:103E0000B8018C2F0E94B204019761F3EECFCF93DB
:103E1000DF93EC010E94C51EBE01DF91CF910C948F
:103E2000B2041F93CF93DF93EB019091B7019923D5
:103E300031F0CB01DF91CF911F910C94071F8823A4
:103E400079F0CB010E94C51E182F682FCE010E9469
:103E5000721EBE01812FDF91CF911F910C94B2048D
:103E6000CB010E949E1E182FF4CF682F809117015E
:103E7000909118010C940221682F80911701909164
:103E800018010C94042180911701909118010C9451
:103E900006218091020285958595859508958091EA
:103EA00002028770089590910202977081E009F4F0
:103EB00080E0089580910E02089590910E02892B62
:103EC00080930E020895809590910E02982390930E
:103ED0000E02089510920E02089590910D02892B02
:103EE00080930D020895809590910D0298239093F0
:103EF0000D02089510920D02089590910C02892BE5
:103F000080930C020895809590910C0298239093D1
:103F10000C02089510920C020895809103020895F6
:103F200008950C94901F90910302981721F08093AC
:103F300003020C94911F089580910302882329F0B5
:103F40001092030280E00C94911F0895E0911701F4
:103F5000F091180180910E028083E0911701F09199
:103F60001801808190910D02892B8083E0911701C7
:103F7000F0911801808190910C02892B808390919F
:103F80000302992381F0E0911701F09118018081DB
:103F9000892B808380911701909118010E94BA208B
:103FA00081110E949C1F80911701909118010C941F
:103FB000681508950C94D91F98E0899F90011124E9
:103FC000622B609302020E94D61D809102028595A9
:103FD000859585950C94DA1F1092020280E00C946E
:103FE000DA1F909102028095892380930202282F84
:103FF000277071F4282F082E000C330B921713062C
:1040000039F08595859585950E94F71D0C94EC1FD8
:1040100008956FEF7FEF90E080E00C94162D90E014
:1040200080E00E94F22C21E08C3E9E4F09F020E0BF
:10403000822F089582E090E00C94E42C83E090E0DD
:104040000C94E42CCF9384E090E00E94E42CC82FE1
:1040500081E290E00E94E42C982F8C2FCF9108955C
:10406000CF93C92F682F84E090E00E94F82C6C2F2A
:1040700081E290E0CF910C94F82CAB01BC018FE071
:1040800090E00C940A2DAB01BC0183E190E00C940C
:104090000A2D60E070E0CB010C94432060E070E0FA
:1040A000CB010E943D200C9449206CEE7EEF90E005
:1040B00080E00E94162D60E082E090E00E94F82CE3
:1040C00060E083E090E00E94F82C1092FE011092D4
:1040D000FF01109200021092010260E084E090E083
:1040E0000E94F82C60E081E290E00E94F82C60E0F1
:1040F00085E090E00E94F82C60E086E090E00E946D
:10410000F82C6FEF87E090E00E94F82C40E050E040
:10411000BA0188E090E00E940A2D60E08DE090E016
:104120000E94F82C40E050E0BA0188E190E00E9443
:104130000A2D60E087E190E00E94F82C40E050E01A
:10414000BA018CE190E00E940A2D60E080E290E0EC
:104150000E94F82C40E050E0BA0188E190E00E9413
:104160000A2D0C944E200C945520682F8EE090E080
:104170000C94F82C9C012E5F3F4FAC01485F5F4FC1
:1041800080E02417350709F40895F90191919F0102
:104190009923B9F38F5FF5CF662349F0FC0132967E
:1041A00008962191261729F0E817F907D1F780E042
:1041B000089581E008959C01FC0132969FEF80E014
:1041C0004191461751F09F3F19F4411101C0982FBA
:1041D0008F5F8630A9F79F3F09F40895290F311D9D
:1041E00097FD3A95F90162830895FC01329608968D
:1041F0002191261303C0DF0111971C92E817F907DC
:10420000B9F708950C94DB200C94F520029626E073
:10421000FC0111922A95E9F70895089508950C94E8
:104220000E210E940F2180915502843049F1109295
:10423000100288E190E020E40FB6F894A8958093EE
:1042400060000FBE2093600080E00E949E040E94E8
:104250000F2183B7817F846083BF83B7816083BF71
:104260007894889583B78E7F83BF0FB6F894A8950E
:1042700080916000886180936000109260000FBEA2
:1042800008950895CF930E940D210E94D2060E94A6
:104290004121C0E08C2F0E948906811105C0CF5FAB
:1042A000C330C1F7CF91089581E0FCCF08950C94FD
:1042B00056210E94D9190E945C150E949E040C94FC
:1042C00057211F921FB61F9211248F939F93AF9374
:1042D000BF9380911002811113C080914B02909185
:1042E0004C02A0914D02B0914E024196A11DB11D0C
:1042F00080934B0290934C02A0934D02B0934E02D8
:10430000BF91AF919F918F911F901FBE1F901895E5
:1043100082E084BD93E095BD9AEF97BD80936E00D7
:1043200008952FB7F89480914B0290914C02A09180
:104330004D02B0914E022FBF08952FB7F8946091AF
:104340004B0270914C0280914D0290914E022FBF12
:1043500008959C014FB7F89480914B0290914C02C4
:10436000A0914D02B0914E024FBF821B930B089556
:1043700078941F921FB61F9211248F939F93AF932F
:10438000BF9380914B0290914C02A0914D02B0914D
:104390004E020196A11DB11D80934B0290934C02D9
:1043A000A0934D02B0934E02BF91AF919F918F9118
:1043B0001F901FBE1F90189587E797E790930108FD
:1043C0008093000888E19AE00FB6F894A89580934E
:1043D00060000FBE90936000FFCF0C941A100E94F3
:1043E000D2068FE39CE90197F1F700C000000E941C
:1043F000D20680E00E94890680FF04C00E94ED2161
:104400000C94DC2108950E940F20811102C00E94AB
:10441000B3200E941A2080930F020E9422209093C2
:10442000500280934F020E941E20682F70E090E09F
:1044300080E00E94741D6091FA017091FB018091EF
:10444000FC019091FD010C94AE1D8091170280FF3C
:1044500012C060911E0185E0689FB001112475951E
:1044600067957595679560387105A8F561157105B3
:10447000A1F1862F089581FF09C060911E0185E09A
:10448000689FB001112475956795EDCF60911E016D
:1044900082FD0AC0809116028823D1F090911D01FF
:1044A00060911E01891728F085E0689FB0011124F2
:1044B000DACF869FB001112485E0869F9001879F07
:1044C000300D1124692F70E0C9010E94072CCBCF59
:1044D00065E070E0CECF8FE7089581E00895809188
:1044E000170280FF0CC060911A0170E07595679506
:1044F000759567956115710549F1862F089581FFBE
:1045000006C060911A0170E075956795F3CF6091D0
:104510001A0182FD0BC0909115029923A1F06091C0
:10452000190180911A01961738F0682F70E06038F1
:10453000710500F38FE70895899FC001112470E091
:104540000E94072CF4CF61E070E0D7CF81E008959E
:10455000803F31F40E942522819580931B020895AB
:10456000813F19F40E942522F8CF823F31F40E9446
:104570002522819580931A020895833F19F40E94A1
:104580002522F8CF893F29F40E946F2280931C02D4
:1045900008958A3F21F40E946F228195F7CF8B3FC7
:1045A00031F40E946F22819580931D0208958C3F03
:1045B00019F40E946F22F8CF843F31F480911902E0
:1045C0008160809319020895853F21F4809119023A
:1045D0008260F7CF863F21F4809119028460F1CF89
:1045E000873F21F4809119028860EBCF883F21F446
:1045F000809119028061E5CF8D3F31F480911702DF
:1046000081608093170208958E3F21F480911702F4
:104610008260F7CF8F3FB9F7809117028460F1CFA6
:1046200090911A02803F59F480911B0287FF0DC0C0
:1046300010921B0291110BC01092160208C0813F0C
:1046400081F480911B0218169CF3992381F08091CC
:104650001C0290911D02892B09F064C01092150272
:104660000895823F49F497FFF0CF10921A0280918B
:104670001B028111ECCFE0CF833F19F41916ACF384
:10468000E4CF20911C02893F29F41216F4F610920F
:104690001C02DBCF8A3F19F427FFD7CFF8CF209138
:1046A0001D028B3F29F427FFD0CF10921D02CDCFE2
:1046B0008C3F19F41216CCF3C8CF843F31F48091AB
:1046C00019028E7F80931902C0CF853F21F480911B
:1046D00019028D7FF7CF863F21F4809119028B7FDD
:1046E000F1CF873F21F480911902877FEBCF883F7C
:1046F00021F4809119028F7EE5CF8D3F31F48091B6
:1047000017028E7F80931702A0CF8E3F21F48091F5
:1047100017028D7FF7CF8F3F09F097CF8091170257
:104720008B7FF0CF08950E9491219C0190911A02F5
:1047300080911B02982B21F03093140220931302D6
:1047400090911C0280911D02982B21F0309312024F
:104750002093110288E192E00C947315EF92FF927E
:104760000F931F93CF93DF9300D000D000D0CDB72D
:10477000DEB786E0E8E1F2E0DE01119601900D92ED
:104780008A95E1F7E0901A02F0901B0200911C025A
:1047900010911D0210921A0210921B0210921C021C
:1047A00010921D028E2D8F2991F08091130290910D
:1047B00014020E94A921AC0190911602992309F4D8
:1047C0003FC080911F018417150608F447C0802F51
:1047D000812B91F080911102909112020E94A921E7
:1047E000AC0190911502992309F477C080911B01C7
:1047F0008417150608F47FC080911A0290911B025D
:10480000892B90911C02892B90911D02892B11F00C
:104810000E94932386E0FE013196A8E1B2E0019068
:104820000D928A95E1F726960FB6F894DEBF0FBE7B
:10483000CDBFDF91CF911F910F91FF90EF90089521
:10484000209120018AE0289F900111242417350728
:1048500008F0BDCF9F5F9093160202C09F3FD1F733
:10486000EE2059F00E9425229FEF1E140CF491E0D7
:10487000899F802D112480931A02FF2059F00E94F5
:1048800025229FEF1F140CF491E0899F802D1124A5
:1048900080931B0230911A02332309F498CF2091A0
:1048A0001B02222309F493CF45EB3403C0011124EA
:1048B000992359F090931A0245EB24039001112497
:1048C000332339F030931B0282CF81E080931A02A8
:1048D000F3CF81E080931B027ACF20911C018AE004
:1048E000289F900111242417350708F085CF9F5F7A
:1048F0009093150202C09F3FD1F7002359F00E9408
:104900006F229FEF10160CF491E0899F802D1124E7
:1049100080931C02112359F00E946F229FEF111601
:104920000CF491E0899F802D112480931D02309119
:104930001C02332309F460CF20911D02222309F4C5
:104940005BCF45EB3403C0011124992359F09093B8
:104950001C0245EB240390011124332339F03093DA
:104960001D024ACF81E080931C02F3CF81E0809347
:104970001D0242CF86E0E8E1F2E0DF011D928A9558
:10498000E9F710921602109215021092170208957C
:1049900080912602089508959C0184E08093E900A7
:1049A0009FEF8091E800915085FD06C085ED8A95C6
:1049B000F1F700009111F5CF8091E80085FF0CC060
:1049C00050E040E066E070E0C9010E940727809156
:1049D000E8008E778093E8000895CF93DF93EC0191
:1049E00081E08093E9008FEF9091E800815095FD80
:1049F00006C095ED9A95F1F700008111F5CF8091F1
:104A0000E80085FF14C050E040E068E070E0CE01AF
:104A10000E9407278091E8008E778093E80088E065
:104A2000FE01AEE1B2E001900D928A95E1F7DF91CF
:104A3000CF9108950895CF93FC01603221F58091C4
:104A40005502843001F5C091E900CF702091EC004F
:104A5000922F917020FD90E8C92B82E08093E900AD
:104A60008091E80080FF0CC050E040E060E270E020
:104A7000CF010E9407278091E8008E778093E8009D
:104A8000CF70C093E900CF910895809154028111B5
:104A900009C00E94E6280E9443298091E2008460B8
:104AA0008093E200089510925402089508950895A5
:104AB0000C94592142E061EC81E00E94622842E2BC
:104AC00061EC84E00E94622842E261EC82E00E9494
:104AD000622842E260EC83E00C94622880915702E5
:104AE000833009F461C030F48130D1F1823009F4AF
:104AF0009DC008958A3009F489C08B3009F46FC0D5
:104B0000893009F050C080915602813209F04BC0C3
:104B100080915A0290915B02009719F0029709F078
:104B200042C08091E800877F8093E8008091E80090
:104B300082FF35C09091F3008091F200029729F432
:104B40008091F1008B7F813021F48091F10080937E
:104B500026028091E8008B778093E8000C949628D9
:104B600080915602813AF9F48091E800877F809322
:104B7000E80080915A0290915B02892B61F468E011
:104B80008EE192E070E00E94A5278091E8008B778B
:104B90008093E800089560E090E080E0F3CF80919A
:104BA00055028111C3CF089580915602813AD9F7F9
:104BB00080915A0290915B02892BA9F78091E800BD
:104BC000877F8093E8008091E80080FFFCCF809190
:104BD0002B018093F1008091E8008E77BDCF80910A
:104BE0005602813201F780915A0290915B02892B23
:104BF000D1F68091E800877F8093E8000E94962894
:104C00008091580280932B010C94D91980915602FF
:104C1000813249F68091E800877F8093E8000E9406
:104C20009628809159028093270208958091560218
:104C3000813A09F0B8CF8091E800877F8093E8003F
:104C40008091E80080FFFCCF80912702C2CFCDB7D2
:104C5000DEB7A0970FB6F894DEBF0FBECDBF84B706
:104C6000877F84BF0FB6F894A89580916000886113
:104C700080936000109260000FBE80E890E00FB655
:104C8000F89480936100909361000FBE0E94BB1561
:104C90000E94E6280E9443298091E200846080936C
:104CA000E20078940E94CC2B0E94C71581E291E02B
:104CB0000E94571513E080915502853059F00E94EB
:104CC000D31580915502843091F00E94C5150E9441
:104CD000C615F1CF0E94112180915302882359F308
:104CE0000E944221882339F30E94F126E4CF1093D9
:104CF000E9008091E80082FFE8CF8091E80090E031
:104D000085FF09C050E040E060E270E0CE0101960E
:104D10000E94562791E08091E8008B778093E8000D
:104D2000992399F260E2CE0101960E94D210CDCF74
:104D30000C949A26292F33272330310521F168F46A
:104D40002130310509F443C02230310509F444C053
:104D500090E080E030E020E026C02132310551F1C2
:104D600022323105A9F76330710590F7FB01EE0F90
:104D7000FF1FEF59FE4F20813181625A7E4FFB01A8
:104D8000808190E010C099278130910581F00097D3
:104D900029F00297E9F6EEEAF3E002C0E8EDF3E06D
:104DA000849190E09F01FA01318320830895E2EC21
:104DB000F3E0F6CF6330710558F6660F771FFB01FD
:104DC000E959FE4F2081318189E090E0ECCF82E10A
:104DD00090E027E334E0E7CF8BE590E02CED33E083
:104DE000E2CF80E189BD82E189BD09B400FEFDCF3B
:104DF0008091D8008F7D8093D8008091E000826000
:104E00008093E0008091E00081FDFCCF0895AF9297
:104E1000BF92CF92DF92FF920F931F93CF93DF93B6
:104E20006C01EB018A010E94B528F82E811123C084
:104E30000115110539F0F80180819181C81BD90B4A
:104E4000C80ED91EB12CA12C2097A9F08091E800A2
:104E500085FD22C08091E8008E778093E8000115DF
:104E60001105A1F0F80180819181A80EB91EB182CF
:104E7000A08285E0F82E8F2DDF91CF911F910F91A9
:104E8000FF90DF90CF90BF90AF9008950E94B5281B
:104E90008823D1F2F82EEFCFF60181916F01809334
:104EA000F1002197FFEFAF1ABF0ACECFAF92BF92AA
:104EB000CF92DF92FF920F931F93CF93DF936C01FA
:104EC000EB018A010E94B528F82E811123C001153B
:104ED000110539F0F80180819181C81BD90BC80EEA
:104EE000D91EB12CA12C2097A9F08091E80085FD56
:104EF00022C08091E8008B778093E80001151105AE
:104F0000A1F0F80180819181A80EB91EB182A08222
:104F100085E0F82E8F2DDF91CF911F910F91FF909B
:104F2000DF90CF90BF90AF9008950E94B52888235E
:104F3000D1F2F82EEFCF8091F100F60181936F014D
:104F40002197FFEFAF1ABF0ACECFFC0180915C0220
:104F500090915D0286179707A0F06115710529F4FD
:104F60009091E8009E779093E80090E061157105BC
:104F700051F4911108C08091E80082FF34C080E0B4
:104F80000895BC01F2CF809155028823C1F185308C
:104F9000C1F18091E80083FD30C08091E80082FD7E
:104FA000EACF8091E80080FFE1CF8091F30020916B
:104FB000F200382F6115710519F02830310558F0CD
:104FC00091E02830310509F090E02091E8002E773B
:104FD0002093E800CBCF81918093F100615071095B
:104FE0002F5F3F4FE7CF80915502882341F08530F6
:104FF00041F08091E80083FFBECF81E0089582E018
:10500000089583E00895FC0180915C0290915D0217
:1050100086179707A0F06115710529F48091E800C3
:105020008E778093E80090E06115710551F491113D
:1050300008C08091E80082FF35C080E00895BC017F
:10504000F2CF809155028823C9F18530C9F1809152
:10505000E80083FD31C08091E80082FDEACF8091B5
:10506000E80080FFE1CF8091F3002091F200382F1B
:105070006115710519F02830310558F091E028309C
:10508000310509F090E08091E8008E778093E80088
:10509000CBCF84918093F1003196615071092F5FDD
:1050A0003F4FE6CF80915502882341F0853041F093
:1050B0008091E80083FFBDCF81E0089582E00895EC
:1050C00083E00895982F973028F08F708093E9003F
:1050D00081E008959093E900242F762F50E09817EF
:1050E00031F07091EC002091ED005091F00021FD25
:1050F00002C09F5FE8CF3091EB003E7F3093EB0022
:105100003091ED003D7F3093ED003091EB00316048
:105110003093EB007093EC002093ED005093F0007F
:105120002091EE0027FDE5CF80E0089580915602A2
:1051300087FF13C08091E80082FF06C08091E800DD
:105140008B778093E80004C0809155028111F2CFE3
:105150000895809155028823D9F38091E80080FF5B
:10516000F8CF8091E8008E77ECCF2091E400309169
:10517000E50095E6A9012091EC00822F817020FFC7
:1051800006C08091E80080FF06C080E0089520916D
:10519000E80022FD1AC080915502882389F08530ED
:1051A00089F08091EB0085FD0FC02091E4003091E3
:1051B000E50042175307F9F29150E1F684E00895B3
:1051C00082E0089583E0089581E008950E945429C3
:1051D0000E945C29E0EEF0E0808181608083E8ED50
:1051E000F0E080818F77808319BCA7EDB0E08C91CF
:1051F0008E7F8C9380818F7E8083109254020895DD
:105200000F931F93CF93DF930E9454290E945C2930
:10521000C8EDD0E088818F77888388818068888313
:1052200088818F7D888319BC10925502109251029B
:10523000109253021092520200EE10E0F8018081A9
:105240008B7F808388818160888342E060E080E09A
:105250000E946228E1EEF0E080818E7F8083E2EEA2
:10526000F0E0808181608083808188608083F801A4
:1052700080818E7F8083888180618883DF91CF9158
:105280001F910F910895E8EDF0E080818F7E80837B
:10529000E7EDF0E080818160808384E082BF81E07F
:1052A000809354020C940029E8EDF0E080818E7F19
:1052B00080831092E20008951092DA001092E100CB
:1052C00008951F920F920FB60F9211242F933F93C0
:1052D0004F935F936F937F938F939F93AF93BF93FE
:1052E000EF93FF938091E10082FF0BC08091E20079
:1052F00082FF07C08091E1008B7F8093E1000E94D4
:10530000CB2B8091DA0080FF19C08091D80080FFFC
:1053100015C08091DA008E7F8093DA008091D900E9
:1053200080FF96C080E189BD82E189BD09B400FE9D
:10533000FDCF81E0809355020E9445258091E100D8
:1053400080FF19C08091E20080FF15C08091E200CB
:105350008E7F8093E2008091E20080618093E20082
:105360008091D80080628093D80019BC85E080933A
:1053700055020E9457258091E10084FF2BC0809147
:10538000E20084FF27C080E189BD82E189BD89B543
:10539000982F917080FFFBCF8091D8008F7D8093F4
:1053A000D8008091E1008F7E8093E1008091E2003F
:1053B0008F7E8093E2008091E20081608093E20022
:1053C00080915102882309F449C084E080935502FA
:1053D0000E9458258091E10083FF29C08091E2005E
:1053E00083FF25C08091E100877F8093E10082E008
:1053F00080935502109251028091E1008E7F80933C
:10540000E1008091E2008E7F8093E2008091E200D3
:1054100080618093E20042E060E080E00E946228C8
:105420008091F00088608093F0000E945625FF91E3
:10543000EF91BF91AF919F918F917F916F915F910C
:105440004F913F912F910F900FBE0F901F90189585
:1054500019BC109255020E94532570CF8091E30031
:1054600087FD93E090935502B3CF1F920F920FB632
:105470000F9211242F933F934F935F936F937F93DA
:105480008F939F93AF93BF93CF93DF93EF93FF934C
:10549000D091E900DF708091EC00C82FC17080FDD1
:1054A000C0E81092E9008091F000877F8093F000BF
:1054B00078940E94792A1092E9008091F000886027
:1054C0008093F000CD2BCF70C093E900FF91EF9156
:1054D000DF91CF91BF91AF919F918F917F916F910C
:1054E0005F914F913F912F910F900FBE0F901F90A2
:1054F00018951F93CF93DF93CDB7DEB7AA970FB65A
:10550000F894DEBF0FBECDBF86E592E02091F1009A
:10551000FC012193CF01F2E08E359F07B9F70E947D
:105520006E258091E80083FF1EC180915602909104
:1055300057029A3008F017C1E92FF0E0EE56F24D0D
:105540000C943D2C803899F0823809F00CC1809180
:105550005A028F70873008F006C18093E90080916D
:10556000EB0085FB882780F91092E90006C0809146
:10557000520290915302911182609091E800977FBE
:105580009093E8008093F1001092F1008091E80080
:105590008E77E5C0882309F4D3C0823009F0E3C0D8
:1055A000809158028111D6C080915A028F702FEFDE
:1055B000280F263008F0D7C08093E9002091EB0037
:1055C00020FFC8C0933031F48091EB00806280935B
:1055D000EB00C0C09091EB0090619093EB0021E054
:1055E00030E001C0220F8A95EAF72093EA0010927A
:1055F000EA008091EB008860EACF8111B4C010917D
:1056000058021F778091E3008078812B8093E3001C
:105610008091E800877F8093E8000E94962880911F
:10562000E80080FFFCCF8091E30080688093E30076
:1056300082E0111183E08093550295C0805882303A
:1056400008F091C080915802909159028C3D23E05E
:105650009207A1F583E08A838AE289834FB7F894A1
:10566000DE01139620E03EE051E2E32FF0E050939C
:105670005700E49120FF03C0E295EF703F5FEF70A9
:105680008E2F90E0EA30C0F0C7968D939D932F5FE8
:10569000243159F74FBF8091E800877F8093E8005D
:1056A0006AE270E0CE0101960E94A5278091E80091
:1056B0008B778093E80057C0C096E7CF60915A027D
:1056C00070915B02AE014F5F5F4F0E949826BC0154
:1056D000892B09F448C09091E800977F9093E800E7
:1056E00089819A810E940328E1CF8038E1F5809179
:1056F000E800877F8093E800809151028093F10059
:1057000045CF811130C090915802923060F5809160
:10571000E800877F8093E800909351020E949628CA
:1057200080915102882311F084E005C08091E3004C
:1057300087FDFACF81E0809355020E945A2513C05D
:1057400080915802813079F481E0933009F080E053
:10575000809353021092E9008091E800877F809344
:10576000E8000E9496288091E80083FF0AC080919B
:10577000E800877F8093E8008091EB00806280934F
:10578000EB00AA960FB6F894DEBF0FBECDBFDF9137
:10579000CF911F9108950895CF938091550288234A
:1057A000A1F0C091E900CF709091EC00892F817039
:1057B00090FD80E8C82B1092E9008091E80083FDFD
:1057C0000E94792ACF70C093E900CF910895991B68
:1057D00079E004C0991F961708F0961B881F7A95E8
:1057E000C9F780950895AA1BBB1B51E107C0AA1FEA
:1057F000BB1FA617B70710F0A61BB70B881F991F72
:105800005A95A9F780959095BC01CD01089597FB15
:10581000072E16F4009407D077FD09D00E94F32BD1
:1058200007FC05D03EF4909581959F4F08957095A3
:1058300061957F4F0895A1E21A2EAA1BBB1BFD01A3
:105840000DC0AA1FBB1FEE1FFF1FA217B307E4075F
:10585000F50720F0A21BB30BE40BF50B661F771FB7
:10586000881F991F1A9469F7609570958095909597
:105870009B01AC01BD01CF010895EE0FFF1F059004
:10588000F491E02D099469279627692778278727BF
:10589000782708950E94522C332312F48A1B9B0B05
:1058A0000C94632CA29FB001B39FC001A39F700D05
:1058B000811D1124911DB29F700D811D1124911D18
:1058C00008950E94522CB7FF0895821B930B0895F0
:1058D0000E94522CA59F900DB49F900DA49F800D07
:1058E000911D11240895B7FF0C94682C0E94682C18
:1058F000821B930B08958F929F92AF92BF92CF928B
:10590000DF92EF92FF92CF93DF93EC016881798170
:105910008A819B81611571058105910521F464E2FD
:1059200079ED8BE597E02DE133EF41E050E00E9407
:105930002C2D49015A019B01AC01A7EAB1E40E9458
:10594000682C6B017C01ACEEB4EFA50194010E94C0
:10595000762CDC01CB018C0D9D1DAE1DBF1DB7FF4C
:1059600003C00197A109B04888839983AA83BB83A8
:105970009F77DF91CF91FF90EF90DF90CF90BF9016
:10598000AF909F908F9008950E947B2C089580E0A7
:1059900091E00E947B2C0895B0E0A0E0809300018C
:1059A00090930101A0930201B09303010895FC01BB
:1059B0004150504030F001900616D1F73197CF0199
:1059C0000895882799270895F999FECF92BD81BD42
:1059D000F89A992780B50895A6E1B0E044E050E038
:1059E0000C941E2DA8E1B0E042E050E00C941E2D76
:1059F000262FF999FECF92BD81BDF89A019700B488
:105A0000021639F01FBA20BD0FB6F894FA9AF99A27
:105A10000FBE08950396272F0E94F92C0E94F82CA0
:105A2000252F0E94F92C242F0C94F92C0196272F56
:105A30000E94F92C0C94F82CDC01CB01FC01F999A3
:105A4000FECF06C0F2BDE1BDF89A319600B40D92CA
:105A500041505040B8F70895052E97FB1EF400946E
:105A60000E94432D57FD07D00E941B2C07FC03D03A
:105A70004EF40C94432D50954095309521953F4F11
:105A80004F4F5F4F089590958095709561957F4F2A
:105A90008F4F9F4F0895F894FFCF630F6B0F720FD6
:105AA000770F7C0F810F860F8B0F900F950F9A0F3A
:105AB0009F0FA30FA80FAB0FAE0FB10FB40FB60F10
:105AC000B90FE310ED1012111E1129113411371105
:105AD0003A113D1186118911401144114C1159118F
