:100000000C947F020C94C6020C94C6020C94C60297
:100010000C94C6020C94C6020C94C6020C94C60240
:100020000C94C6020C94C6020C94292A0C94FD2A46
:100030000C94FA240C94C6020C94C6020C94C602CA
:100040000C94C6020C94C6020C94C6020C94C60210
:100050000C94C6020C9451250C94C6020C94C60252
:100060000C94C6020C94C6020C94C6020C94C602F0
:100070000C94C6020C94C6020C94C6020C94C602E0
:100080000C94C6020C94C6020C94C6020C94C602D0
:100090000C94C6020C94C6020C94C6020C94C602C0
:1000A0000C94C6020C94C6020C94C6024C00460086
:1000B000000000004A0052004D004B00500051006B
:1000C0004F004E001E001F00000000002000210015
:1000D0002200230024002500260027001E001F0008
:1000E0000000000020002100220023002400250041
:1000F0002600270000000000000000002A2B280036
:1001000000000000000000000000000000000029C6
:10011000000000002C1E3420212224342627252E06
:10012000362D3738271E1F2021222324252633333E
:10013000362E37381F0405060708090A0B0C0D0E6A
:100140000F101112131415161718191A1B1C1D2F36
:100150003130232D350405060708090A0B0C0D0E56
:100160000F101112131415161718191A1B1C1D2F16
:100170003130354C0000000000000000000000009D
:10018000000000000000000000000000000000006F
:1001900000000000000000007E0F00D4FFFFFFC73A
:1001A000000000781E0F0500047F3F1F64321464B6
:1001B0003214783C1E1E140A052223252628292ADB
:1001C0002C2D2F3032333536383A3B3D3E404243BA
:1001D0004547494A4C4E5051535557595A5C5E60F9
:1001E00062646668696B6D6F71737577797B7D7F0B
:1001F00081838587898A8C8E90929496989A9C9E0A
:100200009FA1A3A5A7A8AAACAEAFB1B3B4B6B8B925
:10021000BBBCBEBFC1C2C3C5C6C7C9CACBCCCDCE8D
:10022000D0D1D2D2D3D4D5D6D7D7D8D9D9DADADB70
:10023000DBDBDCDCDCDCDCDDDDDDDDDCDCDCDCDCFC
:10024000DBDBDBDADAD9D9D8D7D7D6D5D4D3D2D23B
:10025000D1D0CECDCCCBCAC9C7C6C5C3C2C1BFBE23
:10026000BCBBB9B8B6B4B3B1AFAEACAAA8A7A5A38E
:10027000A19F9E9C9A98969492908E8C8A8987854D
:1002800083817F7D7B79777573716F6D6B6968662C
:100290006462605E5C5A5957555351504E4C4A49FE
:1002A00047454342403E3D3B3A3836353332302FA6
:1002B0002D2C2A292826252322FFAA7F554000011C
:1002C0000101010101010101020202020202020216
:1002D00002030303030303030304040404040404E8
:1002E00005050505050606060606070707070708AC
:1002F000080808090909090A0A0A0B0B0B0C0C0C5F
:100300000D0D0D0E0E0E0F0F0F10101111111212F8
:1003100013131414151516161717181819191A1A75
:100320001B1B1C1D1D1E1E1F2020212222232424D6
:10033000252626272829292A2B2C2D2D2E2F303112
:100340003232333435363738393A3B3C3D3E3F4024
:100350004142434445464748494A4C4D4E4F50510F
:100360005354555658595A5B5D5E5F6162646566C9
:1003700068696B6C6D6F7072737577787A7B7D7E50
:100380008082838587888A8C8E8F91939596989AA0
:100390009C9EA0A2A3A5A7A9ABADAFB1B3B5B7BAB8
:1003A000BCBEC0C2C4C6C9CBCDCFD1D4D6D8DBDD8C
:1003B000DFE2E4E7E9EBEEF0F3F5F8FAFDFF0C031A
:1003C00044004F0048004B00490000001403730034
:1003D0006800750072006900790061006D006100BD
:1003E00000000403090409025B00030100A0FA09EC
:1003F0000400000103010100092111010001224054
:10040000000705810308000A090401000203000037
:1004100000092111010001222200070582032000AA
:100420000107050303200001090402000103000085
:100430000009211101000122490007058403200061
:100440000A12011001000000081827020000010133
:100450000200010660FF0961A1010962150026FF83
:10046000009520750881020963150026FF0095207C
:1004700075089102C005010902A10185020901A1C7
:100480000005091901290815002501950875018144
:10049000020501093009311581257F950275088112
:1004A0000609381581257F950175088106050C0A16
:1004B00038021581257F950175088106C0C00501A8
:1004C0000906A101050719E029E71500250195088E
:1004D000750181029501750881010507190029FF41
:1004E000150026FF009506750881000508190129E9
:1004F00005950575019102950175039101C01124BF
:100500001FBECFEFDAE0DEBFCDBF04B603FE27C0CB
:100510008091680290916902A0916A02B0916B0289
:100520008730904BA740B04BD1F4109268021092E4
:10053000690210926A0210926B0214BE84B7877F20
:1005400084BF0FB6F894A89580916000886180936D
:100550006000109260000FBEE0E0F8E3099511E042
:10056000A0E0B1E0E0EAFCE502C005900D92AE36F5
:10057000B107D9F722E0AEE6B1E001C01D92A8367E
:10058000B207E1F70E94E9260C94132E0C940000A8
:1005900081E0089581E008950C94CA0208950C94B6
:1005A000CE021F93CF93DF9300D000D00F92CDB730
:1005B000DEB749835A836B833091CE0189819A815A
:1005C00031111DC06623B9F02223A9F00E942E220A
:1005D000182F682F89819A810E94DB2169817A8195
:1005E000812F0F900F900F900F900F90DF91CF9170
:1005F0001F910C94C2150E940722182FEFCF0E9462
:100600002E2269817A81EDCFFC01262F4081518114
:100610006281738184810C94D102CF93DF93EC01CA
:1006200060E00E940403BE01DF91CF910C94CF02E1
:100630008F929F92AF92BF92CF92DF92EF92FF92F2
:100640000F931F936B017C0181E090E0A0E0B0E08C
:100650004C015D0104C0880C991CAA1CBB1C4A9566
:10066000D2F7B501A4014C015D0104C0880C991CAE
:10067000AA1CBB1C2A95D2F7482959296A297B292B
:1006800004C0880F991FAA1FBB1F0A95D2F78A01C1
:100690009B010C211D212E213F2104171507260740
:1006A000370789F48C299D29AE29BF29BC01CD01CA
:1006B0001F910F91FF90EF90DF90CF90BF90AF9080
:1006C0009F908F90089580959095A095B0958C21DE
:1006D0009D21AE21BF21EACF0F93382F262F6091A5
:1006E0001102709112028091130290911402042F52
:1006F000432F0E9418030F910C9419210E94C806E1
:100700000C94ED060C94F00608950E94451D0E947D
:1007100084032FEF84E39CE0215080409040E1F778
:1007200000C000000C9475250F931F93CF93DF93A7
:100730008C0161E00E940403EC01B8010E94B21335
:10074000882309F441C0B801CE010E94CC0288235D
:10075000D9F1B801CE010E94F9168823A9F1B80198
:10076000CE010E944B17882379F1B801CE010E9477
:100770006E18882349F1B801CE010E9462128823C5
:1007800019F1F8018281882361F0CA35FDE5DF07A0
:1007900021F170F4C115ECE5DE07A1F0CE3DDC459A
:1007A000C9F0C801DF91CF911F910F910C94C8023D
:1007B000CB358DE5D807A1F0CC35DD4591F70E940A
:1007C000D522EFCF0E94850380E0DF91CF911F916A
:1007D0000F9108950E944E24F7CF0E94DE22E1CFB0
:1007E0000E94E122DECFDF92EF92FF920F931F93E0
:1007F000CF93DF93E82FF0E0EC50FF4FD490282FF9
:1008000026952695269530E0F901EC56FE4F049189
:10081000877010E0082E02C0159507950A94E2F73C
:1008200001701127F901EC57FE4FE490F12C082ECE
:1008300002C0F594E7940A94E2F791E0E922FF24DC
:10084000F901EC58FE4FC491D0E002C0D595C79590
:100850008A95E2F7C170DD270115110519F081EEC7
:100860000E94031AE114F10419F086EE0E94031AA3
:100870008D2D0E94E81AEF2819F086EE0E947B1A4F
:10088000012B19F081EE0E947B1ACD2B51F08CE2E6
:10089000DF91CF911F910F91FF90EF90DF900C941B
:1008A000E81ADF91CF911F910F91FF90EF90DF90A9
:1008B0000895EF92FF920F931F93CF93DF93EC0174
:1008C000162F0AE08881882309F454C0813009F08A
:1008D0004EC08981813099F47E0122E0E20EF11C44
:1008E0008A810E94E81AE7012196812F815050F3F6
:1008F000EFE9FFE03197F1F700C00000F7CF823059
:1009000041F47E0182E0E80EF11C8A810E94031A04
:10091000EACF833041F47E01E2E0EE0EF11C8A81E1
:100920000E947B1AE0CF843011F02196DDCF2A811E
:10093000229690E080E0AE014F5F5F4F2053330B73
:100940002A30310548F0019778F2EFE9FFE031975E
:10095000F1F700C00000F7CF089FB001099F700DAC
:100960001124C901860F971F2981EA01E4CF0E9453
:10097000F303BACFDF91CF911F910F91FF90EF90CA
:10098000089560E00C94590408950C94C40481E027
:1009900008950C94C704CF93C82F0E94C5048C2FD0
:1009A000CF910C94C90490E080E008950895FC0173
:1009B000EE0FFF1FEC55FE4F859194910895CF9354
:1009C000DF930E94C2150E94D605EC01811521E536
:1009D0009207E8F5811530E5930708F09BC08F3F3B
:1009E000910509F0F0F4803F910508F085C0803E44
:1009F000910580F4803C910508F080C0813091051C
:100A000061F0009751F00497813A910530F0D0E001
:100A1000C0E003C0883E9105D0F7CE01DF91CF91B1
:100A200008958115904338F4C11580E2D807A8F3E2
:100A3000CE019F7065C0C11590E4D90708F067C06A
:100A4000CE019927D3FF60C0EC01D86CE6CF8115A9
:100A500025E5920700F5811534E5930708F08EC06F
:100A6000811543E5940708F076C0C11582E5D807E3
:100A700008F46CC0CE018370992721E030E002C0F9
:100A8000220F331F8A95E2F7C695C69580E2C89F6C
:100A9000E001112457C0C11599E5D907A8F4C11583
:100AA00028E5D20708F06FC0C11536E5D30708F076
:100AB000AECF8C2F0E946D06C82FD0E0DC2FCC2744
:100AC000CC27DF71D062A9CFC1154AE5D40708F45D
:100AD0005FC0CE0190568115904208F098CF8D2FBF
:100AE0008F710E946D0690E0982F882788279F714C
:100AF0009C012C2BE901E6CFD0658FCF805C91095A
:100B00000E94D704EC0189CFEC01D06C86CFDF7056
:100B1000D06A83CFE4E096958795EA95E1F78370F4
:100B20002C2F26952695237040E2249F90011124B6
:100B3000382B8C2F8370C1E0D0E002C0CC0FDD1FBA
:100B40008A95E2F7C22BD32BDC6867CFDC2FCC274A
:100B5000C16FD06A62CF8370992721E030E002C074
:100B6000220F331F8A95E2F7C695C69590E2C99F7A
:100B7000E0011124C22BD32BDA684FCFD82FCC271A
:100B8000C46FD06A4ACFDC2FCC27C06FD06A45CF64
:100B90008C2F8F700E946D0634E0D695C7953A95DC
:100BA000E1F7CF709C2FEC01D06937CF82389105E7
:100BB000B1F1B0F48133910509F475C048F489327C
:100BC000910509F469C08A32910509F473C008954A
:100BD0008533910509F459C08933910501F10895D0
:100BE000833E9105A9F138F4803E9105F9F0823EEB
:100BF000910549F10895863E9105A9F1873E910539
:100C0000C9F1843E910519F52091330221FF1FC0DF
:100C10008091320284FD14C087EE90E00895209107
:100C200032022370A1F080EE90E00895209132020C
:100C300020FD47C03091330230FF09C024FF44C07B
:100C400090E080E004C02091320222FDF7CF0895A9
:100C50002091320222FD3BC03091330230FDE3CFC0
:100C600024FFF5CFEDCF2091320223FFF0CF24FDFA
:100C7000E7CFD2CF2091320223FD2CC03091330236
:100C800031FFEECF84EE90E008952091320225FFEF
:100C9000DECF89E290E008952091320225FFD7CF80
:100CA00085E390E008952091320226FFD0CF8AE2BA
:100CB00090E008952091320226FFC9CF81E390E0B1
:100CC000089589E390E0089583EE90E0089582EE20
:100CD00090E0089586EE90E008959091320292FFA0
:100CE00006C0282F28712830F9F4877F846093FF8D
:100CF00006C0282F28712831F1F4877E8461209165
:100D0000330220FF06C0382F38713830D9F4877F7E
:100D1000816021FF06C0282F28712831D1F4877EF9
:100D2000816194FD877E0895282F24712430F9F67F
:100D30008B7F8860DCCF282F2471243101F78B7ED4
:100D40008861DDCF382F3171313019F78E7F88609F
:100D5000E0CF282F2171213121F78E7E8861E1CFEC
:100D60000C948C130E943F078FE39CE90197F1F7E5
:100D700000C000000E943F0780E00E94F20680FF52
:100D800004C00E94B0060C94752508950C94B20618
:100D90000E94A923811102C00E944E240E94B42304
:100DA000809326020E94BC239093330280933202E8
:100DB0000E94C6060E94B823682F70E090E080E091
:100DC0000E94DD2060911102709112028091130245
:100DD000909114020C94172108950C94EC06089538
:100DE0000C94EF06E82FF0E0E95CFD4F8081089558
:100DF000089580EA8A95F1F7089500C008950C944B
:100E0000F906F894E82FE295EF70F0E031A1282F71
:100E10002F7081E090E001C0880F2A95EAF7982FA3
:100E20009095932391A392A1892B82A378940895FE
:100E300086E30E94010782E30E94010783E30E9488
:100E4000010785E30E94010784E30E94010786EC05
:100E50000E94010787E90E940107A4E3B2E01C9207
:100E6000E7E3F2E0108211961C921197118212961C
:100E70001C92128283E00E94B6070C947E03CF92EC
:100E8000DF92EF92FF920F931F93CF93DF93C0E314
:100E9000D1E004E312E0D12CEE24E394F12C89910B
:100EA000F894E82FE295EF70F0E021A18F70A70190
:100EB00002C0440F551F8A95E2F7CA01922F982B62
:100EC00091A392A18095892382A378940E94FD0624
:100ED000ECE2F1E030E020E0C12C4191A42FA2959A
:100EE000AF70B0E090968C9190E04F7002C09595F5
:100EF00087954A95E2F780FD35C08E2D022E01C000
:100F0000880F0A94EAF7C82A2F5F3F4F2430310533
:100F100021F7FE01319780810E9401070E94FF06A0
:100F2000F8018081C81601F1C08281E0D82A0F5FE4
:100F30001F4FF1E0C333DF0709F0B1CF2D2D43E0A0
:100F400067E372E084E392E00E94B7070E948203A5
:100F50008D2DDF91CF911F910F91FF90EF90DF903A
:100F6000CF90089580E0CFCF80E0E0CF0895FF924A
:100F70000F931F93CF93DF93F82E092F162FD72FA0
:100F8000C42F222349F081E0809372010E942A2518
:100F90009093710180937001809172018823A1F078
:100FA00080917001909171010E944225069760F036
:100FB000EF2DF02FA12FBD2FCE0FDF2FD11DEC175E
:100FC000FD0741F410927201DF91CF911F910F91B3
:100FD000FF90089581918D93F2CF8091790180FFE8
:100FE00012C06091090185E0689FB00111247595D8
:100FF00067957595679560387105A8F56115710558
:10100000A1F1862F089581FF09C06091090185E053
:10101000689FB001112475956795EDCF6091090126
:1010200082FD0AC0809178018823D1F09091080157
:1010300060910901891728F085E0689FB0011124AB
:10104000DACF869FB001112485E0869F9001879FAB
:10105000300D1124692F70E0C9010E94CF2CCBCF35
:1010600065E070E0CECF8FE7089581E0089580912C
:10107000790180FF0CC06091050170E0759567955E
:10108000759567956115710549F1862F089581FF62
:1010900006C06091050170E075956795F3CF60918A
:1010A000050182FD0BC0909177019923A1F0609119
:1010B000040180910501961738F0682F70E06038C0
:1010C000710500F38FE70895899FC001112470E036
:1010D0000E94CF2CF4CF61E070E0D7CF81E008957B
:1010E000803F31F40E94ED07819580937D01089542
:1010F000813F19F40E94ED07F8CF823F31F40E943E
:10110000ED07819580937C010895833F19F40E9437
:10111000ED07F8CF893F29F40E94370880937E01BC
:1011200008958A3F21F40E9437088195F7CF8B3FBD
:1011300031F40E943708819580937F0108958C3F98
:1011400019F40E943708F8CF9CE0980F953070F49E
:10115000845F990B21E030E001C0220F8A95EAF705
:1011600080917B01822B80937B0108958D3F31F428
:101170008091790181608093790108958E3F21F4F7
:10118000809179018260F7CF8F3FB9F78091790123
:101190008460F1CF40917C01803F59F480917D01C2
:1011A00087FF0DC010927D0141110BC01092780194
:1011B00008C0813F81F480917D0118169CF344237F
:1011C00081F080917E0190917F01892B09F05AC0B6
:1011D000109277010895823F49F447FFF0CF1092B3
:1011E0007C0180917D018111ECCFE0CF833F19F428
:1011F0001416ACF3E4CF90917E01893F29F41916BF
:10120000F4F610927E01DBCF8A3F19F497FFD7CF17
:10121000F8CF90917F018B3F29F497FFD0CF1092A8
:101220007F01CDCF8C3F19F41916CCF3C8CF9CE0C9
:10123000980F953090F4845F990B21E030E0B9016C
:1012400002C0660F771F8A95E2F7CB0180959091D7
:101250007B01892380937B01B2CF8D3F31F4809154
:1012600079018E7F80937901AACF8E3F21F48091FE
:1012700079018D7FF7CF8F3F09F0A1CF8091790160
:101280008B7FF0CF08950E942A259C0190917C01CC
:1012900080917D01982B21F0309376012093750188
:1012A00090917E0180917F01982B21F03093740101
:1012B000209373018AE791E00C94B418EF92FF92A7
:1012C0000F931F93CF93DF9300D000D000D0CDB702
:1012D000DEB786E0EAE7F1E0DE01119601900D92BB
:1012E0008A95E1F7E0907C01F0907D0100917E010C
:1012F00010917F0110927C0110927D0110927E016D
:1013000010927F018E2D8F2991F08091750190911F
:1013100076010E944225AC0190917801992309F44D
:101320003FC080910A018417150608F447C0802F3A
:10133000812B91F080917301909174010E9442255C
:10134000AC0190917701992309F477C0809106014F
:101350008417150608F47FC080917C0190917D016F
:10136000892B90917E01892B90917F01892B11F01F
:101370000E94430986E0FE013196AAE7B1E00190A0
:101380000D928A95E1F726960FB6F894DEBF0FBE50
:10139000CDBFDF91CF911F910F91FF90EF900895F6
:1013A00020910B018AE0289F900111242417350712
:1013B00008F0BDCF9F5F9093780102C09F3FD1F7A7
:1013C000EE2059F00E94ED079FEF1E140CF491E0FF
:1013D000899F802D112480937C01FF2059F00E9469
:1013E000ED079FEF1F140CF491E0899F802D1124CD
:1013F00080937D0130917C01332309F498CF2091B3
:101400007D01222309F493CF45EB3403C00111245D
:10141000992359F090937C0145EB2403900111240A
:10142000332339F030937D0182CF81E080937C01BA
:10143000F3CF81E080937D017ACF209107018AE08C
:10144000289F900111242417350708F085CF9F5F4E
:101450009093770102C09F3FD1F7002359F00E947B
:1014600037089FEF10160CF491E0899F802D11240E
:1014700080937E01112359F00E9437089FEF1116C7
:101480000CF491E0899F802D112480937F0130918D
:101490007E01332309F460CF20917F01222309F4D8
:1014A0005BCF45EB3403C0011124992359F090938D
:1014B0007E0145EB240390011124332339F030934E
:1014C0007F014ACF81E080937E01F3CF81E080935A
:1014D0007F0142CF86E0EAE7F1E0DF011D928A95C5
:1014E000E9F710927801109277011092790108952E
:1014F000EF92FF920F931F93CF93DF93EB01E82FAF
:10150000D11110C0442321F0F0E0E254FD4FE491EA
:101510006E2F7E2F8E2FDF91CF911F910F91FF9015
:10152000EF9008950D2F10E0282F30E0442329F08C
:1015300022543D4FF901249130E0F6E0CF9FC001E5
:101540001124EFEFF0E0BF010E94BB2CAB018C2F08
:1015500090E0880F991FA5E5A49FB001A59F700D8D
:101560001124861B970B982F990F980FBF01601BB2
:10157000710B629FD001639FB00D729FB00D11245B
:101580008B2F9D9FB0011124672F7727EF01C61B7A
:10159000D70BBE01629FE001639FD00D729FD00DFB
:1015A00011247F01E91AF108E09EB001E19E700D5F
:1015B000F09E700D1124672F7727E61BF70BE29F33
:1015C0008001E39F100DF29F100D1124E12F722F67
:1015D0004230510599F048F44115510569F0413008
:1015E000510581F0EB2F8D2F07C04430510569F074
:1015F00080F046305105B1F76E2F8DCFE22F7B2F53
:10160000812FFACFE22F7D2FF7CFEB2F822F712F73
:10161000F3CF7B2F822FED2FEFCF41E00C94780A90
:1016200008950C940D0BCF93DF93762FE901682F6B
:10163000842F0E94110B798368838A83DF91CF9175
:10164000089580913A02982F9E7F29F481708260DC
:1016500080933A0208958635E8F381708465F8CF67
:1016600088E090E00C94B42DCF92DF92EF92FF923D
:101670006B017C010E94210BB701A60188E090E07C
:10168000FF90EF90DF90CF900C94D22D60913A02B2
:1016900070913B0280913C0290913D020C94340B7E
:1016A000EAE3F2E083E0808311828FEF8283838319
:1016B0001482A5EBB1E012968C911297836012967A
:1016C0008C9360817181828193810C94340B809121
:1016D0003A0280FF02C08695089580E008959091B7
:1016E0003E02933018F49F5F90933E02882351F09E
:1016F00060913A0270913B0280913C0290913D02D0
:101700000C94340B089581E00C946F0B90913E0281
:10171000992319F0915090933E02882351F06091E3
:101720003A0270913B0280913C0290913D020C94F0
:10173000340B089581E00C94860B80913E0208954D
:1017400080933E02662351F060913A0270913B0211
:1017500080913C0290913D020C94340B089560E01E
:101760000C94A00B80913B02089580913C02089557
:1017700080913D02089570E00C942F136091100148
:1017800080913A0280FF0AC080910F0123E0829F7E
:10179000C0011124815C9D4F0C94BB0B8091110101
:1017A0009091120123E0829FF0011124E15CFD4F32
:1017B000891750F71182108212828F5F3396F8CF0B
:1017C00090913A0290FF14C0909111012091120162
:1017D00033E0939FF0011124E15CFD4F921710F06C
:1017E0000C94BE0B8183608342839F5F3396F6CF58
:1017F0000895CF93DF9300D00F92CDB7DEB79091CD
:101800003A0290FF0AC09E012F5F3F4F0E94130BC8
:101810004B8169818A810E94E00B0F900F900F909D
:10182000DF91CF910895CF93DF93EC01EC81F0E04D
:10183000E754FE4F4491EAE3F2E0628181810E9425
:10184000F90B8C818F5F8C83DF91CF910895CF93BB
:10185000DF93EC01EAE3F2E0438162818C810E9434
:10186000F90B8C818F5F8C83DF91CF9108950F935B
:101870001F93CF93DF9300D00F92CDB7DEB78C01CB
:101880008091800181110AC09E012F5F3F4F4FEF71
:101890006FEF0E94130B8A8180938001F8016481AD
:1018A000613069F08091800140E0662361F040E0A2
:1018B000623011F44091800180E060E004C06091EA
:1018C000800140E080E00E94E00BF801848190E01C
:1018D000019663E070E00E94CF2C84830F900F90FC
:1018E0000F90DF91CF911F910F910895AF92BF920A
:1018F000CF92DF92EF92FF920F931F93CF93DF93DC
:1019000000D00F92CDB7DEB7182FF62E042FE22E9F
:1019100090913A0290FF3AC0E92FE695AE2FB0E0E1
:10192000AD5CBE4F8C918093B5019E7F9230E1F506
:101930009E012F5F3F4F812F0E94130B4B816981C6
:101940008A810E94E00B80913B02811308C0809144
:101950003C028F1104C080913D02801729F08091D4
:10196000B70182608093B70110933B02F0923C0272
:1019700000933D02EE2051F060913A0270913B02DB
:1019800080913C0290913D020E94340B0F900F9089
:101990000F90DF91CF911F910F91FF90EF90DF900B
:1019A000CF90BF90AF900895823019F400913D021E
:1019B000CACF863019F410913B02C5CF8930D9F3D4
:1019C000893109F6E9518E2F8170D82EE695F0E025
:1019D000E754FD4FA590B490C12CBB246091130136
:1019E000C61618F00E94BE0BAECF2C2D30E0A29E82
:1019F000C001A39E900DB29E900D112470E00E9434
:101A0000BB2C812FD11013C0860F40911101420FC2
:101A1000532F511D9A01220F331F240F351F215CB4
:101A20003D4F402F6F2D0E94130BC394D7CF861BC1
:101A3000ECCFEAE3F2E09181282F438162818AE0D2
:101A4000890F0C94760C81E00C94190DEAE3F2E016
:101A50009181282F4381628186EF890F0C94760C47
:101A600081E00C94260DEAE3F2E0628121E1620F4D
:101A700008F46FEF282F438181810C94760C81E06C
:101A80000C94330DEAE3F2E0628121E1621B08F479
:101A900060E0282F438181810C94760C81E00C94C6
:101AA000420DEAE3F2E0438121E1420F08F44FEFF7
:101AB000282F628181810C94760C81E00C94510D69
:101AC000EAE3F2E0438121E1421B08F440E0282FE1
:101AD000628181810C94760C81E00C94600D20E091
:101AE0000C94760CEF92FF921F93CF93DF93EC014F
:101AF00010E0EE24EA94F12C60911301161770F0B7
:101B00000E94BE0B9A818C8190FF27C08F5F8C83CF
:101B1000DF91CF911F91FF90EF90089520911101D7
:101B2000422F410F5527551FCA019A01220F331F1B
:101B3000280F391F215C3D4F70E0C7010E94CF2C58
:101B4000962F8C8140913D0260913C02199F800D3F
:101B500011240E94130B1F5FCFCF8150D8CF9F92CB
:101B6000AF92BF92CF92DF92EF92FF920F931F93AB
:101B7000CF93DF93EC018A81BB24BA9480FD02C02D
:101B8000BB24B3948C8181110AC081E0B81227C0B4
:101B90008091130181508093820181E08C83A12C7C
:101BA00080911301A816F0F00E94BE0B8091820173
:101BB00091E0B9125DC0811156C08091130181502E
:101BC000809382011C82DF91CF911F910F91FF9032
:101BD000EF90DF90CF90BF90AF909F9008951092BC
:101BE0008201DBCF00911101CA2CD12C0C0D1D2DCF
:101BF000111DC801880F991F080F191F015C1D4F87
:101C0000F80111821082128234E0E32EF12C912C23
:101C100080918201890D893004F18770082E000CB3
:101C2000990BC816D90691F480913D028E9DA001B2
:101C30008F9D500D112455954795559547959801C1
:101C400060913C0280913B020E94130B9B0CF1E0DF
:101C5000EF1AF108E9F6A394A3CF87FFDFCF9091A5
:101C60001301890FDBCF815080938201BC82ABCFFF
:101C700090E001966091130170E00E94CF2C809358
:101C800082018C83A0CFEF92FF920F931F93CF938B
:101C9000DF93EC018C81811109C081E08C8310926B
:101CA000810192E090930E0180930D0180911101CA
:101CB0009091120123E0829FF0011124E15CFD4F1D
:101CC000891768F110E003E060911301161768F1BD
:101CD0000E94BE0B80910D0120918101280F20935D
:101CE000810190910E01980F90930E01191654F4F2
:101CF000022E000C330B409113014150550B241759
:101D0000350734F0819580930D01813009F41C82F0
:101D1000DF91CF911F910F91FF90EF900895118265
:101D2000108212828F5F3396CBCFE12EF12C70E0C0
:101D3000C7010E94CF2C20911101820F482F50E043
:101D400020918101022E000C330BE216F306BCF049
:101D500020910E01022E000C330B2E153F057CF056
:101D6000809F90011124215C3D4F40913D02609184
:101D70003C0280913B020E94130B1F5FA5CFFA012A
:101D8000EE0FFF1FE40FF51FE15CFD4F1182108283
:101D90001282F3CF8F929F92AF92BF92CF92DF9237
:101DA000EF92FF920F931F93CF93DF93EC014C813F
:101DB000042F10E09801D8010E941A2D9B01AC015C
:101DC0000E94302D4B015C01E0E2F0E0E01BF10BE2
:101DD000A5E5B0E0AC019B010E94302D6B017C01B8
:101DE0009F01DF010E94122D9B01AC010E943B2D3F
:101DF0009B01AC01280D391D4A1D5B1DC701B601B1
:101E00000E94E32CF22E822F90E039E23F1560F120
:101E100043E0249F9001112435952795122F1095AA
:101E200000E085E5E82EEF1880911301081758F1BE
:101E30000E94BE0B9C8181E0992319F0903219F425
:101E40008FEF80930C0180910C01890F8C83DF91BF
:101E5000CF911F910F91FF90EF90DF90CF90BF90A7
:101E6000AF909F908F90089525E530E0B901681BF1
:101E7000790B9B01220F331F260F371F37FFCCCF63
:101E80002F5F3F4FC9CF8E2D01FD8F2D2091110166
:101E9000622F600F7727771F9B01220F331F260FBA
:101EA000371F215C3D4F412F60913C020E94130B74
:101EB0000F5FBACF0F931F93CF93DF93EC0110E026
:101EC00000E0909113019017110609F06CF40E9444
:101ED000BE0B8C8190E00196817099278C83DF91F5
:101EE000CF911F910F91089520911101A801420FE8
:101EF000511D9A01220F331F240F351F215C3D4FC6
:101F00004C8160913C0280913B029695901711069E
:101F100051F04CF0442349F040913D020E94130BD4
:101F20000F5F1F4FCECF4423B9F340E0F7CF4F925E
:101F30005F926F927F928F929F92AF92BF92CF9259
:101F4000DF92EF92FF920F931F93CF93DF93FC01E9
:101F50006280448081E08483E9EBF1E07490E8E3FF
:101F6000F2E0E491812C75E0972EF2E0CF2EDD2493
:101F7000D394AA24AA94B12C55245A94E7190E2F6D
:101F800010E080911301881690F0DF91CF911F919E
:101F90000F91FF90EF90DF90CF90BF90AF909F9008
:101FA0008F907F906F905F904F900C94BE0BE82CB9
:101FB000F12C82E0861568F09E9CF0019F9CF00D4C
:101FC0001124EA57FE4F80913B02808380913C02AE
:101FD0008183411023C09E9CF0019F9CF00D112431
:101FE000EA57FE4F1382128220911101C701820F1E
:101FF000911D9C01220F331F280F391F215C3D4F7B
:102000009E9CF0019F9CF00D1124EA57FE4F4281E7
:10201000618180810E94130B8394B3CF9E9CE00169
:102020009F9CD00D1124CA57DE4F8B818823E9F085
:1020300081508B83859DC00111246C8170E00E94CA
:10204000BB2CFB01FF27E754FE4F8491E82FE719D3
:10205000E59DC0011124B8010E94BB2C80913D0276
:10206000689FB00111247A83BFCF0E948F2D2091E9
:102070003D02269521582C9DA0012D9D500D112427
:10208000452F5527841795070CF0AECF82E08615B3
:1020900088F40E948F2DB5010E94CF2C88830E9466
:1020A0008F2D20913C022695622F70E00E94CF2C4C
:1020B000280F29839E9CF0019F9CF00D1124EA5764
:1020C000FE4F128280913D02893C58F088EC9E9C24
:1020D000F0019F9CF00D1124EA57FE4F8483838307
:1020E00083CF8431A0F784E1F2CFE5EBF1E01182F8
:1020F0008281846082830895EAE3F2E080818E7FAA
:1021000080830E947510E5EBF1E08281816082831B
:102110002FEF80E792E0215080409040E1F700C02F
:1021200000000C94BE0BEAE3F2E080818E7F808396
:1021300060817181828193810E94340B0E947510AD
:10214000E5EBF1E08281816082832FEF80E792E00E
:10215000215080409040E1F700C000000C94BE0B7D
:1021600060913A02669570E04BE050E084E191E0C6
:102170000E949F2D892B19F481E08093B6010E9463
:102180002A259093AF018093AE018091B7018460BE
:102190008093B701089590913A0290FF3AC09170F0
:1021A00081112DC0926090933A028091B7018160B5
:1021B0008093B701662351F060913A0270913B021F
:1021C00080913C0290913D020E94340B60913A0252
:1021D000669570E04BE050E084E191E00E949F2D15
:1021E000892BA1F00E94751081E08093B10140918C
:1021F0003D0260913C0280913B020C946F0D8B324A
:1022000010F09465D0CF880F982BCDCF0E94B010DE
:10221000EBCF0895682F90913A02969581E0890F4F
:102220008B3208F081E00C94CB1081E00C940A1101
:10223000682F90913A0296958FEF890F09F48AE200
:102240000C94CB1081E00C94181161E00C94CB102D
:10225000EAE3F2E080818160808386950C94251109
:1022600080913A0280FD0C9493100C94281160E048
:102270000C94CB108091B401811133C00E94A9232A
:10228000811104C00E944E240E94500B0E94300B0A
:1022900060933A0270933B0280933C0290933D021C
:1022A0008091B70183608093B7016E7F61F40E94D3
:1022B000500B0E94300B60933A0270933B02809364
:1022C0003C0290933D020E94210B0E947510809168
:1022D0003A0280FF03C086950E94371181E0809307
:1022E000B4010895EAE3F2E08081816080838695FD
:1022F0000C943711EF92FF920F931F93CF93DF93BC
:102300008091B601882309F462C08091B501E09103
:102310003A02E695E81BE093B001823009F05EC016
:10232000F0E0EB54FE4FE491CE2FD0E003E11CE04F
:102330008091B101882361F01092B1010E942A2599
:102340009093AF018093AE011092B3011092B2014D
:102350000E942A25E091AE01F091AF019C012E1B55
:102360003F0B2F3F3F4798F5209185012223B1F085
:10237000109285012091830130918401821B930B7F
:102380008F3F9F4758F4205D3A4830938401209353
:1023900083018091B70188608093B701E090B2011A
:1023A000F090B301EC0FFD1FF093AF01E093AE018D
:1023B0008EEA91E0F80109958091B2019091B30104
:1023C000892B29F4EF2819F081E080938501DF91B2
:1023D000CF911F910F91FF90EF900895863049F4AF
:1023E000F0E0EE54FE4FE491CE2FD0E007E21CE087
:1023F0009FCF893051F4E695F0E0E155FE4FE4912E
:10240000CE2FD0E002E71DE093CF8F3051F4E69558
:10241000F0E0E455FE4FE491CE2FD0E00FEA1DE04E
:1024200087CF853149F4F0E0E755FE4FE491CE2F98
:10243000D0E003E41EE07CCFC8E2D0E00AEC1EE06E
:10244000883109F475CF833239F4E7EAF1E0C591B8
:10245000D49107E31CE06CCFC4EFD1E00AE51FE0A4
:10246000843209F465CFC0EDD7E000E11BE085328E
:1024700009F05ECF8E2F63E00E94AF2CE92FF0E0D1
:10248000EC55FE4FE491CE2FD0E007E91FE050CF8E
:10249000FA01811101C0FB010994CF93DF93C82F8A
:1024A000D62F0E94670B8C1740F00E94670B8D1788
:1024B00020F4DF91CF910C9415118C2FDF91CF91E7
:1024C0000C9425111F93CF93DF93EC01FB01128134
:1024D000112309F4C2C00E94E4228272CC3CFCE5C4
:1024E000DF0709F4A0C008F044C0C63CECE5DE07F5
:1024F00009F485C0F0F4C33C9CE5D90709F475C024
:1025000048F4C23CDC4509F46CC0812FDF91CF91C7
:102510001F910895C43C9CE5D90709F46BC040E3C2
:102520005DE063E27DE0C53CDC4579F70E9448123E
:102530005AC0C93CFCE5DF0709F46BC068F4C73C2E
:10254000ECE5DE0709F460C04FE35DE06EE47DE09A
:10255000C83CDC4559F3D9CFCA3C9CE5D90709F4FE
:102560005DC04AE95BE063E87BE0CB3CDC45F1F22F
:10257000CCCFC13DFCE5DF0709F464C098F4CE3C44
:102580009CE5D90709F458C008F452C0CF3CFCE5DB
:10259000DF0709F454C0C03DDC4509F0B6CF6EE05A
:1025A00089E01CC0C43D9CE5D90709F451C058F42A
:1025B000C23DFCE5DF0709F448C0C33DDC4509F036
:1025C000A4CF88E136C0C53D9CE5D90709F443C0D6
:1025D0006AE285E2CD35DD4509F097CF0E944D12C4
:1025E00002C00E94301110E090CF42E251E165E15B
:1025F00071E19CCF45E151E162E271E197CF43E2A5
:102600005DE060E37DE092CF4EE45DE06FE37DE06E
:102610008DCF4CE65DE06DE57DE088CF4DE55DE07A
:102620006CE67DE083CF43E85BE06AE97BE07ECF48
:1026300081E00E942511D7CF65E082E0CFCF68E02E
:1026400086E0CCCF64E18FE0C9CF67E185E1C6CFFA
:1026500062E289E1C3CF83E2ECCF11E056CF539A17
:102660004BB1477F5BB15860EFB7F8949B01220FE5
:10267000331F260F371F280F391F2817390741F43A
:10268000EFBF8FE594E00197F1F700C000000895D7
:10269000DC016D91CD0178E05BB9000000C067FFFF
:1026A0004BB9660F000000C000C000C04BB900C0AD
:1026B0007A9591F7E2CF83E290E00E94AC2D8132CF
:1026C00089F484E290E00E94AC2D873059F485E2D1
:1026D00090E00E94AC2D91E0813309F090E0892FC9
:1026E0008170089580E0FCCFCF93C82F6FEF8111E8
:1026F00061E283E290E00E94C02D6FEFC11167E0BC
:1027000084E290E00E94C02D6FEFC11161E385E289
:1027100090E0CF910C94C02D80E00E9474130C9433
:10272000A323089586E290E00E94AC2D682F70E00C
:1027300090E080E0089586E290E00C94C02D0E9425
:1027400091130E945B1381110CC060E070E0CB011B
:102750000E949B130E943C150E94261681E00C9457
:1027600074130895CF93FB01C281CC2309F19C011E
:1027700022513F452031310520F582510E94361605
:10278000C0E08C2FCF91089581E00E943F2143E06B
:1027900062E081E00E946C03F3CF81E00E9460213F
:1027A00043E062E081E00E946C03EBCF82E0F6CF71
:1027B0008031FFE59F0789F381319F45B9F3C1E07F
:1027C000E0CF8031EFE59E07F9F281319F45C9F6F0
:1027D00082E0DBCF2FEFFC0120830895CF93DF93BE
:1027E000EC0188818138A9F028F4803871F0DF91FC
:1027F000CF910895823881F08338C9F70E94B20BD7
:1028000089830E94B50B8A83F2CF0E94B80B89831B
:10281000EECF0E94670BFBCF0E949D0BF8CFCF93AA
:10282000DF93EC0188818138E1F028F4803869F089
:10283000DF91CF910895823811F18338C9F70E9452
:10284000B80B482F6A81898108C0D9810E94B50BD5
:10285000C82F0E94B20B4D2F6C2FDF91CF910C949B
:102860006F0D89810E9437118981811104C0DF9128
:10287000CF910C947C10DF91CF910C9472118981CF
:10288000DF91CF910C94AF0B1F93CF93DF93EC01AB
:10289000162FDC01ED91CD01E150E33108F0A8C025
:1028A000F0E0EB5EF14D0C94052D198289E08A83EE
:1028B000612FCE01DF91CF911F910C94DE2589818C
:1028C000823069F0833071F08130C9F40E9436257E
:1028D0000E940B2D6A837B838C839D83E9CF0E94AA
:1028E0009213F6CF80E00E94F2068A8381E00E9474
:1028F000F2068B8382E00E94F2068C83D9CF612F8F
:10290000CE010E94EA13D4CF89818230C1F76A8157
:102910007B818C819D810E940B2D0E949B13C8CFCF
:102920004B816A8189810E940E15982789279827F3
:102930009D838C83BDCF2C813D8132272327322775
:102940004B816A8189810E942715B2CF0E943C1574
:10295000AFCF0E940F14ACCF0E94EE13A9CF0E94FC
:10296000460BA6CF0E94CF158983A2CF0E94D11516
:102970009827892798279A8389839ACF6B8170E05B
:1029800089819A81AE014C5F5F4F982789279827EC
:102990000E94D4158DCF6B8170E089819A81AE0140
:1029A0004C5F5F4F9827892798270E94FB1580CF9F
:1029B0000E9426167DCF0E94FB14D6CF6B8170E05B
:1029C00089819A81AE014C5F5F4F982789279827AC
:1029D0000E9474156DCF6B8170E089819A81AE0180
:1029E0004C5F5F4F9827892798270E94991560CFE1
:1029F0008FEF88835DCF84E0089598E0699FB001F0
:102A0000112450E0440F551F640F751F98E1899FF2
:102A1000600D711D1124CB01879608950F931F93AC
:102A2000CF93DF930E94FD148C010E94AC2DC82F20
:102A3000D0E0DC2FCC27C80101960E94AC2D9E016E
:102A4000282BC901DF91CF911F910F9108950F930A
:102A50001F93CF93DF93122F032F0E94FD14EC01DD
:102A6000602F0E94C02D612FCE010196DF91CF9182
:102A70001F910F910C94C02DAF92BF92CF92DF9215
:102A8000EF92FF921F93CF93DF938CEAC82E80E0E2
:102A9000D82ED0E07601C0E014C0F5012591349124
:102AA000412F6C2F8D2F0E94271582E0A80EB11C9C
:102AB0001F5F143091F788E0E80EF11CCF5FC33040
:102AC00019F0570110E0E9CFDF5F88E1C80ED11C93
:102AD000D43001F7DF91CF911F91FF90EF90DF90FD
:102AE000CF90BF90AF900895EF92FF920F931F93F6
:102AF000CF93DF93EC018A017C01E60EF71ECE0135
:102B00008796CE15DF0539F4DF91CF911F910F9194
:102B1000FF90EF900895C036D10540F40E94AC2D8F
:102B2000F80180830F5F1F4F2196E9CFF8011082D3
:102B3000F9CFCF92DF92EF92FF920F931F93CF9333
:102B4000DF937C016A018C01060F171FEC01CE0197
:102B50008796C017D10749F4DF91CF911F910F914C
:102B6000FF90EF90DF90CF900895C036D10540F4EC
:102B7000FE01EE19FF09EC0DFD1D60810E94C02DC4
:102B80002196E5CF462F843038F4733028F4643032
:102B900018F4672F0C940E1590E080E0089580E102
:102BA000089589E793E00895EF92FF920F931F93A2
:102BB000CF93DF93EC018A017C01E60EF71ECE0174
:102BC00089579F4FCE15DF0539F4DF91CF911F91C3
:102BD0000F91FF90EF900895C93723E0D20740F49A
:102BE0000E94AC2DF80180830F5F1F4F2196E7CF25
:102BF000F8011082F9CFCF92DF92EF92FF920F93FC
:102C00001F93CF93DF937C016A018C01060F171F7E
:102C1000EC01CE0189579F4FC017D10749F4DF91CE
:102C2000CF911F910F91FF90EF90DF90CF9008957B
:102C3000C93723E0D20740F4FE01EE19FF09EC0D7D
:102C4000FD1D60810E94C02D2196E3CFCF93DF93BD
:102C5000C7E8D0E060E0CE010E94C02D2196C115EA
:102C600084E0D807B9F7DF91CF910895DF92EF9212
:102C7000FF920F931F93CF93DF9300D000D0CDB777
:102C8000DEB7F82E8FE08F1540F08FEF93E00E94B3
:102C9000AC2D07E810E08823C1F00F900F900F9043
:102CA0000F90DF91CF911F910F91FF90EF90DF90E8
:102CB0000895011584E0180781F3C8010E94AC2D26
:102CC000811101C0FA940F5F1F4FF110F2CF1982EA
:102CD0001A821B821C82DD24D39478018FEFE81ABC
:102CE000F80AC8010E94AC2D89831A828823A9F2B0
:102CF0009FEF980F933078F48A83D9820E5F1F4F2D
:102D0000C7010E94AC2D8B83882339F2CE01019636
:102D10000E94C104E2CF8701F9CF0F931F93CF9395
:102D2000DF93C42FD22FFC0182818823C9F0409306
:102D3000BA010E942A259093B9018093B80180E2DC
:102D40008C0F883008F050C0C77081E001C0880F38
:102D5000CA95EAF7DF91CF911F910F910C94F01A69
:102D60001091BA01141335C08091B8019091B90146
:102D70000E944225883C910560F5C0E2CD0F1D17E9
:102D8000B9F080E2810F883040F4177081E001C013
:102D9000880F1A95EAF70E94F71AC83048F481E0C4
:102DA0009D2F977001C0880F9A95EAF70E94F01A3C
:102DB000802F0E94E81AC830B8F4D77081E001C0B3
:102DC000880FDA95EAF7DF91CF911F910F910C945C
:102DD000F71A80E28C0F883038F4C77081E001C0A8
:102DE000880FCA95EAF7EFCFDF91CF911F910F912E
:102DF00008950F939C01CB01233F4CE5340759F113
:102E0000A8F4283DFCE53F0701F1293D4CE53407D6
:102E1000D1F1273D3C4591F406E221EE41EE67ED0C
:102E20007CE50E948D1680E00F910895253FFCE51A
:102E30003F07E9F0B0F0263F3C45F9F0FC01828104
:102E4000882339F11092BA01EFCF07E225EE45EE63
:102E500068ED7CE5E6CF06E221EE40EE63EF7CE52F
:102E6000E0CF07E225EE44EE64EF7CE5DACF06E240
:102E700021EE42EE65EF7CE5D4CF07E225EE46EE8B
:102E800066EF7CE5CECF08E221E045EE69ED7CE51A
:102E9000C8CF81E0C9CFCF93DF93EC01FB018281E2
:102EA000882309F419C1C230FCE5DF07C0F1C6313F
:102EB0009CE5D90730F09E012A5F3C452930310559
:102EC00070F50E94BC239093330280933202C0318C
:102ED000ECE5DE0709F4CFC008F05BC0C8308CE534
:102EE000D80709F4B6C088F5C430ECE5DE0709F46C
:102EF000A8C0C0F4C2308CE5D80709F49CC080910A
:102F000032028260C330DC4509F498C080913202FD
:102F1000909133020E94CA230E94451D80E0DF91F8
:102F2000CF910895809132028061C630ECE5DE07D2
:102F300009F484C0809132028860C730DC4508F40F
:102F40007DC080913202806279C0CC308CE5D80798
:102F500009F489C070F4809132028C60CA30ECE5CB
:102F6000DE0709F46BC008F478C0809132028E7FCE
:102F700065C0CE308CE5D80709F479C08091320263
:102F80008B7FCF30DC4508F459C0809132028F7EB0
:102F900055C0CB3FECE5DE0709F457C030F5C3312F
:102FA0008CE5D80709F46FC078F4C131ECE5DE0791
:102FB00009F465C0C231DC4509F0A8CF0E94451D67
:102FC000809132028F773AC0C5318CE5D80709F479
:102FD00062C008F476C0809133028160CA3FDC454C
:102FE00009F094CF8093330291CFCF3FFCE5DF0708
:102FF00009F44DC088F4809133028D7FCD3F9CE56C
:10300000D90781F3809133028E7FCE3FDC4550F3A8
:10301000809133028360E6CFC130FDE5DF0709F41C
:1030200059C008F444C080E0C230DD4509F06ECFDD
:103030000E9450246BCF80913202816080933202D3
:1030400065CF809132028460F9CF80913302826033
:10305000C9CF809132028064F1CF0E94451D8091DA
:1030600032028068EBCF809132028D7FE7CF809172
:103070003202877FE3CF809132028F7DDFCF809154
:1030800032028F7BDBCF80913202837FD7CF80915A
:1030900033028C7FA7CF8091320282FB992790F96F
:1030A00021E0922790FB82F990FB83F9C7CF8091B2
:1030B0003302982F909591708E7F892B90FB81F928
:1030C00091CF0E94451D90913202892F97FB87F97D
:1030D0008058B4CF81E0ACCF81E021CFCF93DF9394
:1030E000EB0186319C4511F50E94E4229A819923D7
:1030F00099F08A7A91E009F490E09093BB018111F4
:1031000009C089E20E949E220E94342380E0DF9160
:10311000CF91089585E3F6CF8091BB01811104C062
:1031200089E20E94A522F0CF85E3FBCF81E0EFCFBB
:103130009093C1018093C0010895E091C001F09186
:10314000C101309721F00190F081E02D099480E0D9
:103150000895E091C001F091C101309721F0028003
:10316000F381E02D09940895E091C001F091C1012F
:10317000309739F022E0DC012C930480F581E02DBA
:10318000099408952091BE013091BF012817390795
:1031900071F09093BF018093BE01E091C001F09166
:1031A000C101309721F00680F781E02D0994089540
:1031B0002091BC013091BD012817390771F090931F
:1031C000BD018093BC01E091C001F091C101309735
:1031D00021F00084F185E02D099408950E943625A0
:1031E0006093CA017093CB018093CC019093CD0181
:1031F0006093C6017093C7018093C8019093C90181
:10320000089585B7806885BF85B7806885BF0895B4
:10321000089508950C94081908950C940C190E94AF
:10322000011981EA93E20E9486250E9409190C94F3
:103230000A1981E008950C941919089508950E94BF
:103240001D190C941E190E9421250E9418070E9426
:103250009F130E943A110C940D19AF92BF92CF9216
:10326000DF92EF92FF920F931F93CF93DF93CDB72F
:10327000DEB72A970FB6F894DEBF0FBECDBF0E940F
:103280003F0781110E94EE1883ECA82E81E0B82E32
:1032900010E000E0C02E802F0E94F206E82EF5011B
:1032A000F1905F01F81609F44FC08091260281FD6C
:1032B0000E94F8068F2D8E25D12CFF24F394982F91
:1032C0009F21E9F10E941B19882399F0DE82CF82A9
:1032D000EF2081E009F480E088870E942A25816040
:1032E000782F9A8789874E815F8168858A850E94B9
:1032F000CC19F801ED53FE4F8081F826F0820E9430
:103300007A110E945E090E949D189091C20189174E
:1033100091F10E949D188093C2012A960FB6F894ED
:10332000DEBF0FBECDBFDF91CF911F910F91FF90F8
:10333000EF90DF90CF90BF90AF900C94CB04D394DC
:10334000FF0CF4E0DF12BBCF0F5F1F4F03301105FE
:1033500009F0A0CF8FEF89838A831B820E942A25E0
:103360008160782F9D838C8349815A816B818D8107
:103370000E94CC19C4CF2A960FB6F894DEBF0FBEB8
:10338000CDBFDF91CF911F910F91FF90EF90DF9014
:10339000CF90BF90AF900895DF92EF92FF920F937E
:1033A0001F93CF93DF93CDB7DEB72B970FB6F8946B
:1033B000DEBF0FBECDBF7A878B87F42E052F162F69
:1033C000E72ED82E61110E9404231E821D827E2DBD
:1033D000EC82DD824F2D502F612F8D2D9E812B96FB
:1033E0000FB6F894DEBF0FBECDBFDF91CF911F9116
:1033F0000F91FF90EF90DF900C94BB1FFC01808138
:1034000091810C947022CF93C82F882309F471C046
:103410008238C1F40E949D1881FD6BC089E30E942F
:103420009E220E9434232FEF81EE94E021508040B1
:103430009040E1F700C0000089E30E94A522CF91EF
:103440000C9434238338A1F40E949D1880FD51C050
:1034500083E50E949E220E9434232FEF81EE94E0A8
:10346000215080409040E1F700C0000083E5E5CFA7
:103470008438A1F40E949D1882FD3BC087E40E941D
:103480009E220E9434232FEF81EE94E02150804051
:103490009040E1F700C0000087E4CFCF8CEF8C0FA5
:1034A000813A90F46C2F80911F01909120010E942D
:1034B0006724882329F08C2F0E94A5220E943423A0
:1034C0008C2F0E949E22BBCF80E28C0F883048F464
:1034D000C77081E001C0880FCA95EAF70E94E72211
:1034E000AECFC03F30F08C2F0E947008CF910C946B
:1034F0004309CF910895882309F452C0823871F4AA
:103500000E949D1881FF4CC089E30E949E220E9468
:10351000342389E30E94A5220C943423833859F480
:103520000E949D1880FF3CC083E50E949E220E945D
:10353000342383E5EFCF843859F40E949D1882FF2D
:103540002FC087E40E949E220E94342387E4E2CFAA
:103550009CEF980F913AF0F290E2980F983050F467
:10356000877091E001C0990F8A95EAF7892F0E9430
:10357000ED22D2CF9BE5980F933020F490E080E0CD
:103580000C94C21898E5980F973120F490E080E0F1
:103590000C94D818803F20F00E94CA080C9443096C
:1035A00008951F93CF93DF93182FEB010E94031A06
:1035B000209731F4812FDF91CF911F910C947B1ACA
:1035C0008FE99FE00197F1F700C000002197F0CF4D
:1035D00070E060E0893311F460E570E00C94D11A7A
:1035E000882321F00E94E7220C9434230895882335
:1035F00021F00E94ED220C9434230895BF92CF92C3
:10360000DF92EF92FF920F931F93CF93DF936C01A2
:10361000D62FC72FFC011281058102950F700E94E1
:10362000BC22E82E8823A1F0E12E112389F08C2FF3
:10363000807F803429F080E28D0FE12C883040F0CB
:1036400082E00E9485230E94BC2291E0E82EE926B8
:10365000BC2EB2949FE0B922EB2DF0E0E85DF14D75
:103660000C94052D0C2F0F70C07F11F00295007F78
:103670001123A9F0002359F080E28D0F883010F05B
:10368000D11109C0802F0E94E7220E9434238D2F80
:103690000E94031A14C0802F0E94F722F6CF8D2FAC
:1036A0000E947B1A002359F080E28D0F883010F0C1
:1036B000D1112CC0802F0E94ED220E9434232B2D8B
:1036C0002850330B2430310520F40E949D180E94AD
:1036D000CB04EE2009F482C10E94B82280FD7EC195
:1036E000F60112820E94B2220E943F21C6010E946E
:1036F0000F1D0E94B222DF91CF911F910F91FF9079
:10370000EF90DF90CF90BF900C946021802F0E94AB
:10371000FD22D3CFFC2FFF70FF2EC07FC03219F0E7
:10372000F29480EFF822DD2369F0D13049F11123C2
:1037300091F1002351F1F601858180FFA8CF8F70B0
:10374000858323C0112381F0011106C00E94172335
:103750008F290E94F01AB3CF0130C1F70E941723BE
:103760008F290E941D23ABCF011106C00E942A237E
:103770008F2D0E94F71AA3CF013009F4A0CFF6CF06
:10378000112329F0063008F09ACF8F2DE2CF0530B3
:1037900008F095CFEDCF002359F3D93349F4FFEF6B
:1037A00027EE33E0F15020403040E1F700C0000048
:1037B0008D2F0E947B1A83CF8D2F112329F00E9419
:1037C00070080E9443097BCF0E94CA08FACF8C2F51
:1037D000837009F041C0111172CF4D2F429546956B
:1037E0004770440F440F0D2F0F7010E030E020E0C1
:1037F000042E04C0000F111F221F331F0A94D2F79A
:1038000060E070E0CB01D4FF0FC06FE070E080E0BB
:1038100090E004C0660F771F881F991F4A95D2F762
:103820006095709580959095C695C695C370602BF0
:10383000712B822B932BC23049F058F4C13019F010
:103840000E94F1203CCF0E94DF2039CF0E9403214B
:1038500036CF0E94DD2033CF8695112311F08C2FB7
:103860008170882309F42BCF4D2F429546954770E0
:10387000440F440F0D2F0F7010E030E020E0042EB5
:1038800004C0000F111F221F331F0A94D2F760E0FB
:1038900070E0CB01D4FF0FC06FE070E080E090E0FB
:1038A00004C0660F771F881F991F4A95D2F760954D
:1038B000709580959095C695C695C370602B712BB9
:1038C000822B932BC23049F058F4C13019F00E947A
:1038D000B621F5CE0E94A421F2CE0E94C821EFCEDF
:1038E0000E941921ECCECF70112329F08C2F0E9459
:1038F0003F218D2F2ECF8D2F0E94F71A8C2F0E94E3
:103900006021DDCED23F89F160F4D03FC9F0D13FD4
:1039100029F1112309F442C00111B9CE8C2F8F7106
:1039200021C0D33F39F1D43FA1F7112369F1CF7101
:103930008C2F0E943F2163E08C2F0E946A23BFCE10
:10394000112341F0053008F0BACE8C2F8F710E9400
:103950008321B5CE063008F0B2CEF7CF8C2F8F7111
:10396000112369F20E943F21AACE8C2F8F7111235F
:10397000C9F3C5CF112329F08C2F8F710E942A2102
:103980009ECE0E9425219BCE81E00E94852302309D
:1039900008F495CE82E00E94852391CE002359F051
:1039A000D93309F005CF8FEF97EEE3E081509040D7
:1039B000E040E1F7FBCE8C2F8F71A1CF4C2F4F70E1
:1039C0006D2FC6010E94D3040E94552078CE4C2F43
:1039D0004F706D2FC6010E94D60471CEDF91CF913A
:1039E0001F910F91FF90EF90DF90CF90BF900895BF
:1039F0000F931F93CF93DF93EC01688179818A81C4
:103A00000E947A228C010E94DA210E94DC20B801F7
:103A1000CE01DF91CF911F910F910C94FE1ACF939D
:103A2000DF93EC018B819C81892B29F0888199811E
:103A300089238F3F59F4DF91CF910895CE010E94E1
:103A4000F81CCE01DF91CF910C940D03CE010E94A2
:103A500094038111F3CF0E94BC22882361F38A81F1
:103A6000882349F382E0DF91CF910C9485230E9453
:103A700004230E9414230E9434230E946A0A0C9497
:103A800043090E94AC220C94371D0E94F4220C942E
:103A9000411DE92FE295EF70E250EE3070F4F0E056
:103AA000E85CF14D0C94052D803F19F020F4883E20
:103AB00020F481E00895843FE1F380E00895883E9A
:103AC000C0F3813FD1F7F5CF93FB882780F90895A4
:103AD0000E9470220C94491DCF93DF9300D000D038
:103AE0000F92CDB7DEB70F900F900F900F900F9001
:103AF000DF91CF910895CF93DF9300D000D000D015
:103B0000CDB7DEB726960FB6F894DEBF0FBECDBF99
:103B1000DF91CF9108951F93CF93DF93C091CF0191
:103B200016E08091D0018C1304C0DF91CF911F91DA
:103B30000895D0E01C9FF0011D9FF00D1124EF525D
:103B4000FE4F4081518162817381848195810E9401
:103B50007B1D2196C770E5CF409101025091020272
:103B60006091030270910402809105029091060217
:103B70000C947B1D1F93CF93DF9380910602807F6F
:103B8000A9F480910302882389F08091CF01C0912C
:103B9000D0016091010270910202A0910402B091E3
:103BA0000502D62FD72316E0C81304C0DF91CF91AA
:103BB0001F91089590E0109711F0DF3F19F40196DE
:103BC0008770F2CF189F9001199F300D1124F901D1
:103BD000EF52FE4F41814713F2CF40814613EFCFA2
:103BE00042814111ECCF438154814A1B5B0B483C1D
:103BF000510528F7809106028F708061809306023C
:103C0000F901EA52FE4F80818F708061808381E0EC
:103C100092E00E940F1DDF91CF911F910C948B1D9C
:103C2000AF92BF92CF92DF92EF92FF920F931F93CA
:103C3000CF93DF93CDB7DEB761970FB6F894DEBFB1
:103C40000FBECDBF8C0185E0F801DE011D9601900D
:103C50000D928A95E1F7F80140815181E28081E07F
:103C6000C82E82E0D82E6091040270910502611581
:103C7000710509F461C19091010220910202892F1E
:103C800082238F3F09F458C1A380B480F0900302CF
:103C9000F501E61BF70BFF2009F4FCC0809106023A
:103CA000382F307FE83CF10508F0B2C0311179C0FF
:103CB000FE2C251323C0941321C0E1101FC08F7068
:103CC0008061809306020E94AC1DC6010E940F1DF8
:103CD00080910602F80185838F2D61960FB6F894C6
:103CE000DEBF0FBECDBFDF91CF911F910F91FF902F
:103CF000EF90DF90CF90BF90AF900895AB2829F060
:103D0000842F85238F3F09F033C180E0F82FF170B5
:103D1000DF2E80FF3CC08091CF012091D00136E0A2
:103D2000821315C04D875E878D859E850E94702207
:103D3000292F22952F702230F0F0243018F59F7033
:103D4000F1F0F8019581907FD1F4D12C1EC090E064
:103D5000389FF001399FF00D1124EF52FE4F618121
:103D6000651306C06081641303C062816E110FC0C9
:103D700001968770D5CF9F7011F0882331F3805E54
:103D8000883018F3C8010E940F1DFD2CA5CFEE202E
:103D900009F4A2CF80910602816080930602F12C83
:103DA0009BCF251306C0941304C0F801EE2009F43C
:103DB0008DC04D875E878D859E850E94681D8823F6
:103DC00019F1EE2009F180910602803270F0209105
:103DD00001023091020238872F831986BB86AA869A
:103DE0008C87CE0107960E940F1D86E0F801A1E0A6
:103DF000B2E001900D928A95E1F70E94BA1D0E94EF
:103E0000AC1DFF24F39468CFC8010E940F1DF9CFA9
:103E1000311113C07A2DB98AA88A6E2D89890E9422
:103E20006C1D81E092E00E940F1D86E0F601119268
:103E30008A95E9F70E94AC1DB2CF25130FC09413E9
:103E40000DC0E1100BC0F8018583C8010E940F1D51
:103E500086E0F60111928A95E9F73ECF4D875E879D
:103E60008D859E850E94681D882371F2EE2061F287
:103E700080910602803208F4B8CF2091010230917F
:103E800002023A8329831B82BD82AC828E83CE01DB
:103E90000196A9CFE83CF10508F041C0FE2CEE20C8
:103EA00009F4B2CF25132AC0941328C080910602CA
:103EB00080FD1BC0982F907FC1F0F8018583903F53
:103EC00031F0982F907F905F8F70892B8583C80188
:103ED0000E940F1D86E0F801A1E0B2E001900D9272
:103EE0008A95E1F70E94AC1DF7CE86E0F801A1E0CB
:103EF000B2E001900D928A95E1F7EECE4D875E8794
:103F00008D859E850E94681D81116FCF809106026C
:103F1000816080930602C8010E940F1DDDCE7A2DBC
:103F2000B98AA88A6E2D89890E946C1D86E0F601E7
:103F300011928A95E9F7D6CFEE2009F465CF4D8727
:103F40005E878D859E850E94681DF82E882309F462
:103F50005BCF86E0F801A1E0B2E001900D928A9576
:103F6000E1F781E092E00E94FE190E94BA1DBACFEB
:103F700081E08E25CBCE1F93CF93DF93CDB7DEB7F5
:103F80002C970FB6F894DEBF0FBECDBF4F83588776
:103F900069877A878B879C87CE0107960E94101EBF
:103FA000882369F08A859B85892B39F04F81588554
:103FB000842F85238F3F09F071C016E05FC086E033
:103FC000FE013796DE01119601900D928A95E1F778
:103FD0008A859B85892B89F38F81988589238F3FDB
:103FE00061F32091D00130E0C901019687709927D3
:103FF0004091CF014817190671F40E94451D109297
:10400000D0011092CF0186E0E1E0F2E0DF011D92E5
:104010008A95E9F7D2CF96E0929FD001939FB00D99
:104020001124AF52BE4FFE01319601900D929A9528
:10403000E1F78093D0010E948B1DBFCF819FC0010B
:1040400011248F529E4F0E94101E8823E9F0E091A8
:10405000CF011E9FF0011124EF52FE4F408151818C
:1040600062817381848195810E947B1D8091CF0143
:1040700090E00196877099278093CF018091CF01BE
:104080009091D0018913DACF2C960FB6F894DEBF49
:104090000FBECDBFDF91CF911F91089569857A85BD
:1040A0008B859C850E947B1D88CFEF92FF920F939A
:1040B0001F93CF93DF938C01892B81F0F12CEE2499
:1040C000E394E8012196F8018491843770F48430F8
:1040D00008F05FC08130B1F08230A1F1DF91CF9163
:1040E0001F910F91FF90EF900895853709F44CC010
:1040F00008F43DC09CE7980F903780F78F770E94B7
:104100007B1A49C00E5F1F4FFE01849190E2980F09
:10411000983060F48770FE2D01C0FF0F8A95EAF792
:104120008F2F0E9407230E94342302C00E94031A8B
:104130008F2D815030F2EFE9FFE03197F1F700C0A9
:104140000000F7CF0E5F1F4FFE01849190E2980FA1
:10415000983050F48770FE2D01C0FF0F8A95EAF762
:104160008F2F0E940D23DFCF0E947B1AE1CF0E5FBD
:104170001F4FFE01C491C150D8F28FE99FE0019713
:10418000F1F700C00000F7CF0E5F1F4FFE01F49063
:10419000CFCF0E94031A8E01CBCF08950C94CD206F
:1041A0000E94CE206093150270931602809317022E
:1041B000909318020C94371D08950C94D0200F93FF
:1041C0001F93009115021091160220911702309151
:1041D0001802602B712B822B932B1F910F910C9443
:1041E000D0200F931F930091150210911602209179
:1041F00017023091180260237123822393231F91A9
:104200000F910C94D0200F931F93009115021091E1
:104210001602209117023091180260277127822719
:1042200093271F910F910C94D0200C94CD200C94C7
:1042300015210E941721609311027093120280933E
:104240001302909314020C94371D60E070E0CB01D0
:104250000C9419210F931F9341E050E060E070E04F
:104260008A019B0104C0000F111F221F331F8A9572
:10427000D2F7C901B8011F910F910C9419210F9326
:104280001F9341E050E060E070E004C0440F551F10
:10429000661F771F8A95D2F78091110290911202C2
:1042A000A0911302B09114028A019B01082B192BD3
:1042B0002A2B3B2BC901B8011F910F910C94192196
:1042C0000F931F9341E050E060E070E004C0440FA2
:1042D000551F661F771F8A95D2F7CB01BA016095EB
:1042E0007095809590950091110210911202209185
:1042F00013023091140260237123822393231F91B0
:104300000F910C9419210F931F9341E050E060E04E
:1043100070E004C0440F551F661F771F8A95D2F7BF
:104320008091110290911202A0911302B091140297
:104330008A019B01082719272A273B27C901B801B1
:104340001F910F910C9419210F931F93009111024B
:10435000109112022091130230911402602B712BE4
:10436000822B932B1F910F910C9419210F931F9364
:104370000091110210911202209113023091140247
:1043800060237123822393231F910F910C94192191
:104390000F931F93009111021091120220911302AA
:1043A0003091140260277127822793271F910F9164
:1043B0000C9419210895990F990F890F982F9770D0
:1043C00041E001C0440F9A95EAF786958695869557
:1043D00095E0899FF0011124E95FFD4F30E020E076
:1043E00070E05191DF011197CB01022E02C096952A
:1043F00087950A94E2F78170819585278423852724
:104400008C932F5F3F4F2530310559F70895990F51
:10441000990F890F982F977086958695869525E038
:10442000829FF0011124E95FFD4F50E040E080E001
:10443000219130E0092E02C0369527950A94E2F7C3
:1044400021703327042E01C0220F0A94EAF7822B31
:104450004F5F5F4F4530510559F70895BF92CF9296
:10446000DF92EF92FF920F931F93CF93DF938C0114
:10447000C0901102D0901202E0901302F09014024A
:104480008091150290911602A0911702B091180226
:10449000C82AD92AEA2AFB2ACFE1D0E0BC2ED701CC
:1044A000C6010C2E04C0B695A795979587950A94DA
:1044B000D2F780FD0EC0219788F7B12C8B2DDF91AC
:1044C000CF911F910F91FF90EF90DF90CF90BF9011
:1044D0000895B8018C2F0E94DF04019761F3EECF9D
:1044E000CF93DF93EC010E942E22BE01DF91CF918A
:1044F0000C94DF041F93CF93DF93EB019091CE01D7
:10450000992331F0CB01DF91CF911F910C94702250
:10451000882379F0CB010E942E22182F682FCE011C
:104520000E94DB21BE01812FDF91CF911F910C945E
:10453000DF04CB010E940722182FF4CF682F80914F
:104540001F01909120010C949D24682F80911F01E0
:10455000909120010C949F2480911F019091200143
:104560000C94A124809119028595859585950895CF
:10457000809119028770089590911902977081E0D7
:1045800009F480E008959091330292FB222720F9EC
:10459000281751F080FB92F99093330280913202F8
:1045A000909133020C94CA2308958091330282FBC8
:1045B000882780F991E089270C94C32281E00C942C
:1045C000C32280E00C94C32280912502089590912B
:1045D0002502892B809325020895809590912502CC
:1045E00098239093250208951092250208959091A2
:1045F0002402892B809324020895809590912402AF
:104600009823909324020895109224020895909183
:104610002302892B80932302089580959091230291
:104620009823909323020895109223020895809175
:104630001A02089508950C941A239091330292FD62
:1046400008C090911A02981721F080931A020C94D6
:104650001B23089580911A02882329F010921A02D0
:1046600080E00C941B230895E0911F01F09120013C
:10467000809125028083E0911F01F09120018081CB
:1046800090912402892B8083E0911F01F0912001F9
:10469000808190912302892B808390911A02992323
:1046A00081F0E0911F01F09120018081892B8083AE
:1046B00080911F01909120010E94552481110E9438
:1046C0002A2380911F01909120010C94A91808952C
:1046D0000C9467239091330292FD10C098E0899F5B
:1046E00090011124622B609319020E943F21809156
:1046F00019028595859585950C9468230C943F2126
:104700001092190280E00C94682390911902809510
:10471000892380931902282F277039F4282F082E17
:10472000000C330B9217130621F49091330292FF81
:1047300007C08595859585950E9460210C948023FE
:10474000089580E008956FEF7FEF90E080E00C9493
:10475000DE2D90E080E00E94BA2D21E08A3E9E4F3F
:1047600009F020E0822F089582E090E00C94AC2DB7
:1047700083E090E00C94AC2DCF9384E090E00E9415
:10478000AC2DC82F82E290E00E94AC2D982F8C2F88
:10479000CF910895CF93C92F682F84E090E00E94B5
:1047A000C02D6C2F82E290E0CF910C94C02DAB0114
:1047B000BC018FE090E00C94D22DAB01BC0183E1F1
:1047C00090E00C94D22D60E070E0CB010C94DD23DE
:1047D00060E070E0CB010E94D7230C94E3236AEEE3
:1047E0007EEF90E080E00E94DE2D60E082E090E0CD
:1047F0000E94C02D60E083E090E00E94C02D1092E6
:10480000150210921602109217021092180260E020
:1048100084E090E00E94C02D60E082E290E00E947F
:10482000C02D60E085E090E00E94C02D60E086E051
:1048300090E00E94C02D6FEF87E090E00E94C02DB5
:1048400040E050E0BA0188E090E00E94D22D60E0A4
:104850008DE090E00E94C02D40E050E0BA0188E178
:1048600090E00E94D22D60E087E190E00E94C02D90
:1048700040E050E0BA018CE190E00E94D22D70E05F
:1048800060E080E290E00E94DE2D40E050E0BA015E
:1048900088E190E00E94D22D0C94E8230C94EF2341
:1048A000682F8EE090E00C94C02D9C012E5F3F4F4E
:1048B000AC01485F5F4F80E02417350709F4089585
:1048C000F90191919F019923B9F38F5FF5CF662389
:1048D00049F0FC01329608962191261729F0E81735
:1048E000F907D1F780E0089581E008959C01FC016B
:1048F00032969FEF80E04191461751F09F3F19F4A7
:10490000411101C0982F8F5F8630A9F79F3F09F4AE
:104910000895290F311D97FD3A95F9016283089595
:10492000FC01329608962191261303C0DF011197EE
:104930001C92E817F907B9F708950C9476240C94A3
:104940009024029626E0FC0111922A95E9F7089539
:10495000089508950C94A92480915F02843049F150
:104960000E94AA2480E00E94CB041092270288E1D2
:1049700090E020E40FB6F894A895809360000FBEF5
:104980002093600083B7817F846083BF83B7816099
:1049900083BF7894889583B78E7F83BF0FB6F894D2
:1049A000A8958091600088618093600010926000FB
:1049B0000FBE08950895CF930E94A8240E943F0738
:1049C0000E94DA24C0E08C2F0E94F206811105C0FB
:1049D000CF5FC330C1F7CF91089581E0FCCF089538
:1049E0000C94EF240E94451D0E949D180E94CB0448
:1049F0000C94F0241F921FB61F9211248F939F9343
:104A0000AF93BF9380912702811113C08091570209
:104A100090915802A0915902B0915A024196A11D5D
:104A2000B11D8093570290935802A0935902B093FE
:104A30005A02BF91AF919F918F911F901FBE1F90FF
:104A4000189582E084BD93E095BD9AEF97BD809361
:104A50006E0008952FB7F8948091570290915802F4
:104A6000A0915902B0915A022FBF08952FB7F89420
:104A700060915702709158028091590290915A02A8
:104A80002FBF08959C014FB7F894809157029091E1
:104A90005802A0915902B0915A024FBF821B930B4A
:104AA000089578941F921FB61F9211248F939F939D
:104AB000AF93BF938091570290915802A0915902F1
:104AC000B0915A020196A11DB11D80935702909397
:104AD0005802A0935902B0935A02BF91AF919F918F
:104AE0008F911F901FBE1F90189587E797E79093AF
:104AF00001088093000888E19AE00FB6F894A89521
:104B0000809360000FBE90936000FFCF90936F0181
:104B100080936E01089580913002089508959C015C
:104B200084E08093E9009FEF8091E800915085FD3B
:104B300006C085ED8A95F1F700009111F5CF8091BF
:104B4000E80085FF0CC050E040E066E070E0C9017D
:104B50000E94CF278091E8008E778093E800089527
:104B6000CF93DF93EC0181E08093E9008FEF909188
:104B7000E800815095FD06C095ED9A95F1F700008B
:104B80008111F5CF8091E80085FF14C050E040E02E
:104B900068E070E0CE010E94CF278091E8008E7718
:104BA0008093E80088E0FE01A8E2B2E001900D9257
:104BB0008A95E1F7DF91CF9108950895CF93FC0195
:104BC000603221F580915F02843001F5C091E900E7
:104BD000CF702091EC00922F917020FD90E8C92BAE
:104BE00082E08093E9008091E80080FF0CC050E0F3
:104BF00040E060E270E0CF010E94CF278091E800A2
:104C00008E778093E800CF70C093E900CF9108952C
:104C100080915E02811109C00E94AE290E940B2A78
:104C20008091E20084608093E200089510925E0219
:104C3000089508950895089542E061EC81E00E948E
:104C40002A2942E261EC84E00E942A2942E261ECD6
:104C500082E00E942A2942E260EC83E00C942A2937
:104C600080916102833009F461C030F48130D1F168
:104C7000823009F49DC008958A3009F489C08B30D0
:104C800009F46FC0893009F050C080916002813210
:104C900009F04BC08091640290916502009719F071
:104CA000029709F042C08091E800877F8093E80076
:104CB0008091E80082FF35C09091F3008091F2006E
:104CC000029729F48091F1008B7F813021F480914B
:104CD000F100809330028091E8008B778093E800A8
:104CE0000C945E2980916002813AF9F48091E80089
:104CF000877F8093E8008091640290916502892B00
:104D000061F468E088E292E070E00E946D28809192
:104D1000E8008B778093E800089560E090E080E001
:104D2000F3CF80915F028111C3CF0895809160021B
:104D3000813AD9F78091640290916502892BA9F795
:104D40008091E800877F8093E8008091E80080FFF1
:104D5000FCCF80912B018093F1008091E8008E7749
:104D6000BDCF80916002813201F780916402909101
:104D70006502892BD1F68091E800877F8093E80057
:104D80000E945E298091620280932B010C94451D44
:104D900080916002813249F68091E800877F80939C
:104DA000E8000E945E298091630280933102089599
:104DB00080916002813A09F0B8CF8091E800877F46
:104DC0008093E8008091E80080FFFCCF8091310261
:104DD000C2CFCDB7DEB7A0970FB6F894DEBF0FBE37
:104DE000CDBF84B7877F84BF0FB6F894A895809114
:104DF0006000886180936000109260000FBE80E8C0
:104E000090E00FB6F89480936100909361000FBE1C
:104E10000E940F190E94AE290E940B2A8091E20085
:104E200084608093E20078940E94942C0E9423195D
:104E300081E291E00E94981813E080915F02853032
:104E4000B9F00E942D1980915F028430C1F00E9458
:104E50001F19F3CF0E94AC2480915D02882341F09A
:104E60000E94DB24882321F00E94B9270E94451D5F
:104E700080915F02853071F30E94F224E2CF10939B
:104E8000E9008091E80082FFE2CF8091E80090E0A5
:104E900085FF09C050E040E060E270E0CE0101967D
:104EA0000E941E2891E08091E8008B778093E800B3
:104EB000992369F260E2CE0101960E944414C7CFA3
:104EC0000C946227292F33272330310521F168F410
:104ED0002130310509F443C02230310509F444C0C2
:104EE00090E080E030E020E026C02132310551F131
:104EF00022323105A9F76330710590F7FB01EE0FFF
:104F0000FF1FEF59FE4F20813181625A7E4FFB0116
:104F1000808190E010C099278130910581F0009741
:104F200029F00297E9F6EEEBF3E002C0E2EEF3E0DF
:104F3000849190E09F01FA01318320830895ECEC85
:104F4000F3E0F6CF6330710558F6660F771FFB016B
:104F5000E959FE4F2081318189E090E0ECCF82E178
:104F600090E021E434E0E7CF8BE590E026EE33E0FB
:104F7000E2CF80E189BD82E189BD09B400FEFDCFA9
:104F80008091D8008F7D8093D8008091E00082606E
:104F90008093E0008091E00081FDFCCF0895AF9206
:104FA000BF92CF92DF92FF920F931F93CF93DF9325
:104FB0006C01EB018A010E947D29F82E811123C02A
:104FC0000115110539F0F80180819181C81BD90BB9
:104FD000C80ED91EB12CA12C2097A9F08091E80011
:104FE00085FD22C08091E8008E778093E80001154E
:104FF0001105A1F0F80180819181A80EB91EB1823E
:10500000A08285E0F82E8F2DDF91CF911F910F9117
:10501000FF90DF90CF90BF90AF9008950E947D29C0
:105020008823D1F2F82EEFCFF60181916F018093A2
:10503000F1002197FFEFAF1ABF0ACECFAF92BF9218
:10504000CF92DF92FF920F931F93CF93DF936C0168
:10505000EB018A010E947D29F82E811123C00115E0
:10506000110539F0F80180819181C81BD90BC80E58
:10507000D91EB12CA12C2097A9F08091E80085FDC4
:1050800022C08091E8008B778093E800011511051C
:10509000A1F0F80180819181A80EB91EB182A08291
:1050A00085E0F82E8F2DDF91CF911F910F91FF900A
:1050B000DF90CF90BF90AF9008950E947D29882304
:1050C000D1F2F82EEFCF8091F100F60181936F01BC
:1050D0002197FFEFAF1ABF0ACECFFC018091660285
:1050E0009091670286179707A0F06115710529F462
:1050F0009091E8009E779093E80090E0611571052B
:1051000051F4911108C08091E80082FF34C080E022
:105110000895BC01F2CF80915F028823C1F18530F0
:10512000C1F18091E80083FD30C08091E80082FDEC
:10513000EACF8091E80080FFE1CF8091F3002091D9
:10514000F200382F6115710519F02830310558F03B
:1051500091E02830310509F090E02091E8002E77A9
:105160002093E800CBCF81918093F10061507109C9
:105170002F5F3F4FE7CF80915F02882341F085305A
:1051800041F08091E80083FFBECF81E0089582E086
:10519000089583E00895FC01809166029091670272
:1051A00086179707A0F06115710529F48091E80032
:1051B0008E778093E80090E06115710551F49111AC
:1051C00008C08091E80082FF35C080E00895BC01EE
:1051D000F2CF80915F028823C9F18530C9F18091B7
:1051E000E80083FD31C08091E80082FDEACF809124
:1051F000E80080FFE1CF8091F3002091F200382F8A
:105200006115710519F02830310558F091E028300A
:10521000310509F090E08091E8008E778093E800F6
:10522000CBCF84918093F1003196615071092F5F4B
:105230003F4FE6CF80915F02882341F0853041F0F7
:105240008091E80083FFBDCF81E0089582E008955A
:1052500083E00895982F973028F08F708093E900AD
:1052600081E008959093E900242F762F50E098175D
:1052700031F07091EC002091ED005091F00021FD93
:1052800002C09F5FE8CF3091EB003E7F3093EB0090
:105290003091ED003D7F3093ED003091EB003160B7
:1052A0003093EB007093EC002093ED005093F000EE
:1052B0002091EE0027FDE5CF80E008958091600207
:1052C00087FF13C08091E80082FF06C08091E8004C
:1052D0008B778093E80004C080915F028111F2CF48
:1052E000089580915F028823D9F38091E80080FFC0
:1052F000F8CF8091E8008E77ECCF2091E4003091D8
:10530000E50095E6A9012091EC00822F817020FF35
:1053100006C08091E80080FF06C080E008952091DB
:10532000E80022FD1AC080915F02882389F0853051
:1053300089F08091EB0085FD0FC02091E400309151
:10534000E50042175307F9F29150E1F684E0089521
:1053500082E0089583E0089581E008950E941C2A68
:105360000E94242AE0EEF0E0808181608083E8EDF5
:10537000F0E080818F77808319BCA7EDB0E08C913D
:105380008E7F8C9380818F7E808310925E02089541
:105390000F931F93CF93DF930E941C2A0E94242A0D
:1053A000C8EDD0E088818F77888388818068888382
:1053B00088818F7D888319BC10925F0210925B02F6
:1053C00010925D0210925C0200EE10E0F801808104
:1053D0008B7F808388818160888342E060E080E009
:1053E0000E942A29E1EEF0E080818E7F8083E2EE48
:1053F000F0E0808181608083808188608083F80113
:1054000080818E7F8083888180618883DF91CF91C6
:105410001F910F910895E8EDF0E080818F7E8083E9
:10542000E7EDF0E080818160808384E082BF81E0ED
:1054300080935E020C94C829E8EDF0E080818E7FB5
:1054400080831092E20008951092DA001092E10039
:1054500008951F920F920FB60F9211242F933F932E
:105460004F935F936F937F938F939F93AF93BF936C
:10547000EF93FF938091E10082FF0BC08091E200E7
:1054800082FF07C08091E1008B7F8093E1000E9442
:10549000932C8091DA0080FF19C08091D80080FFA2
:1054A00015C08091DA008E7F8093DA008091D90058
:1054B00080FF96C080E189BD82E189BD09B400FE0C
:1054C000FDCF81E080935F020E9408268091E10079
:1054D00080FF19C08091E20080FF15C08091E2003A
:1054E0008E7F8093E2008091E20080618093E200F1
:1054F0008091D80080628093D80019BC85E08093A9
:105500005F020E941A268091E10084FF2BC08091E7
:10551000E20084FF27C080E189BD82E189BD89B5B1
:10552000982F917080FFFBCF8091D8008F7D809362
:10553000D8008091E1008F7E8093E1008091E200AD
:105540008F7E8093E2008091E20081608093E20090
:1055500080915B02882309F449C084E080935F0254
:105560000E941B268091E10083FF29C08091E20008
:1055700083FF25C08091E100877F8093E10082E076
:1055800080935F0210925B028091E1008E7F809396
:10559000E1008091E2008E7F8093E2008091E20042
:1055A00080618093E20042E060E080E00E942A296E
:1055B0008091F00088608093F0000E941926FF918E
:1055C000EF91BF91AF919F918F917F916F915F917B
:1055D0004F913F912F910F900FBE0F901F901895F4
:1055E00019BC10925F020E94162670CF8091E300D2
:1055F00087FD93E090935F02B3CF1F920F920FB697
:105600000F9211242F933F934F935F936F937F9348
:105610008F939F93AF93BF93CF93DF93EF93FF93BA
:10562000D091E900DF708091EC00C82FC17080FD3F
:10563000C0E81092E9008091F000877F8093F0002D
:1056400078940E94412B1092E9008091F0008860CC
:105650008093F000CD2BCF70C093E900FF91EF91C4
:10566000DF91CF91BF91AF919F918F917F916F917A
:105670005F914F913F912F910F900FBE0F901F9010
:1056800018951F93CF93DF93CDB7DEB7AA970FB6C8
:10569000F894DEBF0FBECDBF80E692E02091F1000E
:1056A000FC012193CF01F2E088369F07B9F70E94F1
:1056B00030268091E80083FF1EC1809160029091A6
:1056C00061029A3008F017C1E92FF0E0EA5BF14D72
:1056D0000C94052D803899F0823809F00CC1809126
:1056E00064028F70873008F006C18093E9008091D2
:1056F000EB0085FB882780F91092E90006C08091B5
:105700005C0290915D02911182609091E800977F18
:105710009093E8008093F1001092F1008091E800EE
:105720008E77E5C0882309F4D3C0823009F0E3C046
:10573000809162028111D6C0809164028F702FEF38
:10574000280F263008F0D7C08093E9002091EB00A5
:1057500020FFC8C0933031F48091EB0080628093C9
:10576000EB00C0C09091EB0090619093EB0021E0C2
:1057700030E001C0220F8A95EAF72093EA001092E8
:10578000EA008091EB008860EACF8111B4C01091EB
:1057900062021F778091E3008078812B8093E30081
:1057A0008091E800877F8093E8000E945E298091C5
:1057B000E80080FFFCCF8091E30080688093E300E5
:1057C00082E0111183E080935F0295C0805882309F
:1057D00008F091C080916202909163028C3D23E0B9
:1057E0009207A1F583E08A838AE289834FB7F89410
:1057F000DE01139620E03EE051E2E32FF0E050930B
:105800005700E49120FF03C0E295EF703F5FEF7017
:105810008E2F90E0EA30C0F0C7968D939D932F5F56
:10582000243159F74FBF8091E800877F8093E800CB
:105830006AE270E0CE0101960E946D288091E80036
:105840008B778093E80057C0C096E7CF60916402E1
:1058500070916502AE014F5F5F4F0E946027BC01EF
:10586000892B09F448C09091E800977F9093E80055
:1058700089819A810E94CB28E1CF8038E1F580911F
:10588000E800877F8093E80080915B028093F100BD
:1058900045CF811130C090916202923060F58091C5
:1058A000E800877F8093E80090935B020E945E2966
:1058B00080915B02882311F084E005C08091E300B1
:1058C00087FDFACF81E080935F020E941C2613C0FF
:1058D00080916202813079F481E0933009F080E0B8
:1058E00080935D021092E9008091E800877F8093A9
:1058F000E8000E945E298091E80083FF0AC0809141
:10590000E800877F8093E8008091EB0080628093BD
:10591000EB00AA960FB6F894DEBF0FBECDBFDF91A5
:10592000CF911F9108950895CF9380915F028823AE
:10593000A1F0C091E900CF709091EC00892F8170A7
:1059400090FD80E8C82B1092E9008091E80083FD6B
:105950000E94412BCF70C093E900CF910895991B0D
:1059600079E004C0991F961708F0961B881F7A9556
:10597000C9F780950895AA1BBB1B51E107C0AA1F58
:10598000BB1FA617B70710F0A61BB70B881F991FE0
:105990005A95A9F780959095BC01CD01089597FB84
:1059A000072E16F4009407D077FD09D00E94BB2C77
:1059B00007FC05D03EF4909581959F4F0895709512
:1059C00061957F4F0895A1E21A2EAA1BBB1BFD0112
:1059D0000DC0AA1FBB1FEE1FFF1FA217B307E407CE
:1059E000F50720F0A21BB30BE40BF50B661F771F26
:1059F000881F991F1A9469F7609570958095909506
:105A00009B01AC01BD01CF010895EE0FFF1F059072
:105A1000F491E02D0994692796276927782787272D
:105A2000782708950E941A2D332312F48A1B9B0BAA
:105A30000C942B2DA29FB001B39FC001A39F700DAA
:105A4000811D1124911DB29F700D811D1124911D86
:105A500008950E941A2DB7FF0895821B930B089595
:105A60000E941A2DA59F900DB49F900DA49F800DAC
:105A7000911D11240895B7FF0C94302D0E94302DF4
:105A8000821B930B08958F929F92AF92BF92CF92F9
:105A9000DF92EF92FF92CF93DF93EC0168817981DF
:105AA0008A819B81611571058105910521F464E26C
:105AB00079ED8BE597E02DE133EF41E050E00E9476
:105AC000F42D49015A019B01AC01A7EAB1E40E94FF
:105AD000302D6B017C01ACEEB4EFA50194010E9466
